:100000000C947E090C94A6090C94A6090C94A609DC
:100010000C94A6090C94A6090C94A6090C94A609A4
:100020000C94A6090C94A6090C943A1B0C94AC1BD6
:100030000C94A6090C94A6090C94A6090C94A60984
:100040000C94A6090C94A6090C94A6090C94A60974
:100050000C94A6090C94A6090C94A6090C94D21031
:100060000C94A6090C94A6090C94A6090C94A60954
:100070000C94A6090C94A6090C94A6090C94A60944
:100080000C944F100C94A6090C94A6090C94A60984
:100090000C94A6090C94A6090C94A6090C94A60924
:1000A0000C94A6090C94A6090C94A609118F074E6E
:1000B00020C082718299744DC8010AB001F83243A0
:1000C00052168AB0D03224E553118F4F1022652882
:1000D0000B0091620416404219814138F398518413
:1000E0005D04A84CE86D146016CA9123118F4F006F
:1000F000097BCE290BB1ABF18084057C0C28591308
:10010000268C4618A9300CB248045E02118F9F0954
:100110001CC45B4F229CF811BD0DD8D00B140EBD32
:10012000E53D118F2F9C19490EE39853C80C00A987
:10013000F0359B9101213021701A872423D3971128
:100140008F074E20C082718299744DC8010AB00198
:10015000F8324352168AB0D03224E553118F4F1033
:100160002265280B0091620416404219814138F340
:100170009851845D04A84CE86D146016CA9123114F
:100180008F4F00097BCE290BB1ABF18084057C0C2D
:10019000285913268C4618A9300CB248045E021167
:1001A0008F9F091CC45B4F229CF811BD0DD8D00B4A
:1001B000140EBDE53D118F2F9C19490EE39853C8CD
:1001C0000C00A9F0359B9101213021701A8724235E
:1001D000D39709CF6AF59B5ADDFD761709CFABEFB0
:1001E000DCBEEBADDFEE0209CFABDFEEADDFEE0242
:1001F00009CF5F70FBAEB7FE0A09CFBFA2B7FE0AF8
:10020000098FDFB0FE6603081F051F1F151B1F1196
:10021000111F110E1F15111F05011F111D1F041F96
:10022000001F0010101F1F041B1F10101F061F1F90
:10023000011F1F111F1F05071F311F1F051B17154A
:100240001D011F011F101F0F100F1F0C1F1B041B70
:10025000071C071915130C121E1F120C1E12120C6C
:10026000121F0C1A14041F052E2A1E1F021C001D2B
:1002700000201D001F041A011F001E041E1E021E66
:100280001E121E3E120C0C123E1E020614120A0210
:100290000F121E101E0E100E1E081E1A041A2E28F3
:1002A0001E1A12161F111F121F101D151711151FD0
:1002B00007041F17151D1F151D01011F1F151F17EF
:1002C000151F001700001000040404040E04022986
:1002D000060A000004083E09093E3F25251A1E2192
:1002E00021123F21211E3F2525213F0505011E2109
:1002F000293A3F04043F213F21001021211F3F04E0
:100300000A313F2020203F02023F3F02043F1E21CE
:10031000211E3F0909061E21112E3F0909362225FB
:100320002519013F01011F20201F0F10201F3F1022
:10033000103F3B04043B03043807312D2321102ACE
:100340002A3C3F2424181C2222141824243F1C2A4F
:100350002A2C043E05014C52523E3F040438243DF1
:1003600020004040443D3F081422213F20003E042D
:10037000043E3E04023C1C22221C7E22221C1C2223
:10038000227E3E040204242A2A12021F22201E205A
:10039000201E0E10201E3E10103E360808364E500D
:1003A000503E322A26221E29251E223F20003229B5
:1003B00029261221251A0C0A3F08172525191E2562
:1003C0002518013905031A25251A0629291E002F8B
:1003D0000000002000000229050200040400546F00
:1003E00074616C001397AE055CBD7AF5EAD5AB5726
:1003F0008F64EDFD77D8CF801B72436EC80DB92195
:1004000037E4861CB9036F9F9B230017440EE8D383
:1004100084090B066C180472F25228811300071825
:100420000472000036140EE8C7BDF239E0861C796C
:10043000EE95BFBF27024C001016241CF23B732020
:1004400000060102221C80A50D6BBFEFC509CE641A
:1004500099B7FB502000300438010E000800B000AE
:10046000AC4240140442021A0020C8455C1B002024
:10047000001C981A1011C120980C08C00041111DD1
:10048000040000111400004040A5A90017084C58B2
:100490006310000000908B0805043488008010640D
:1004A000F80568800100E406800110041800620D60
:1004B0000060A3800D0882CA503FCB4DD02400407D
:1004C000009A0FB4ED01C5811B8093020000007BF0
:1004D00003000000DC27EC09007067C182755A0B2D
:1004E000A06CE70000000000394118E334614ECFF2
:1004F00054440004004084B288AA0B28B08000A5B0
:100500004AD9B0008000C064C382B5F9FEDE0000A5
:100510000000D3295D14030005047029804B01BC41
:10052000008B460371E50770444E00DC805F079C3A
:1005300010382147EE1C9123DFE3CAEFE10A1C7952
:100540000EDC901B72438E3C076EC0AF056EC095EB
:100550003B47E406C08570436EC0737F9FC216E1BF
:10056000A27802128501821C84AF0127CA05840B80
:100570002017CA8570436EC80DB8FACF912B70034F
:10058000E002810D95054B0A5B848BE20948140655
:10059000087210BE069C2817102E805C2817C20D0A
:1005A000B921EBDD728F4C66CE2906A0122064695A
:1005B0003035BACA4877BFE765D5E1F40A6E2D41F8
:1005C0002F392227100E18983860E0846023C83233
:1005D0000C10E1807E1CB82137E486DC90A357AF75
:1005E0001EB55A19993CB5597E7279682633E714BD
:1005F00003500910B2746510B2CA4877BFE7651599
:10060000DD3AC66A882BB924C3D8E14B67EDF425DF
:10061000B750E65E9775599775EAADB72E5B0DCC6E
:10062000300A78E15B0F6E9E720A0091428010AA38
:1006300095A04577C75A8BAB57AF8E8E3443B82100
:1006400017251A000010040808BA1D2E97C3AD63C1
:10065000AC86B8924B328C1DBE74D64E5F720B6561
:10066000EE755997B52F735ED6A02BC34572426EB7
:100670007BEE79598743C372642ED8485C8EACCB2D
:100680001A74556471660013083001005C87BD0F51
:10069000EBC6A9288BAC393721AE32D665EE795935
:1006A0009795C561CDCBBAACDA55C6BAACCB1A7446
:1006B00019E0001058B02EEB32E7650DBA325C2419
:1006C00027E4B6E79E977538342C47E6828DC4E55B
:1006D000C81A459F7B0C4EC8AA480845EC421A0828
:1006E0001248916990E140E2448215091BB9212B1F
:1006F000416E48B2904482042D7243C2466EC80DCA
:10070000590C643890E1408603190E643890E1403A
:100710008603B92137E44618E3E93E000700EA649E
:100720007BE5882C0613A90B5916B921032830D86C
:100730005E5DC06001E79C9023773E33E1E733E7DD
:1007400087F6BBBDC738504C030060818143214808
:100750004D1DB5F6E2F4EAD5E9B02BAD0BB901B801
:1007600074516F7C704E7E3ECCEFECA763103888DE
:10077000A401045B102E201C443C80700161181001
:10078000A8453C807001615010CA00E102C2058496
:100790000B0805058915E486DC901B321CC8702007
:1007A000C3810C07321CC87020C3810C1672436EC3
:1007B000C88931EE459F1EF9CF41D6FEEFC4FEEF4A
:1007C000C45EF9CF01C70B67AF3B07169300B208B1
:1007D000208B00B2484211128A9050848422044433
:1007E000324024034432402459C4F64F099C281750
:1007F000CA8572A19CFC5E0E4C0603901200A46494
:10080000483930FB376B7B0006000CE01BE92DA656
:10081000800A145081022A800220A0020544A448C4
:100820000922124251D9A86C142E940BE1E8D5ABE1
:1008300057CF5CBD3AF71D0000006072BFEFCFC21A
:10084000BC03000000BC636ED73A0027069B209BC8
:10085000201B958DC88572027EC05A1E0008004C70
:100860003E904BF0A21E44DCDA3D700A8101276005
:10087000ACB94C054434996301846BD60900001867
:10088000071863DB35078171807138A4000000EF21
:10089000EE331C982C028422040413B21D0880003D
:1008A000DF3831120000061C00E80A99A45AEDA2B4
:1008B0001B809153B8D9F11DD77A000000005FD892
:1008C000EC09E76C37000100264CE86239464D62BE
:1008D000D488EAA0F29D033000E043CB3D260B6BA9
:1008E000571700010078D73D0F10D80844C7D00033
:1008F0002184C1180726000480877B00F0AA73E9D1
:10090000525522535220122159615A12483EBEF4C8
:1009100001000090636FE548DA6CF0C064200C11B0
:10092000B7804DD42051D30818408184A15ED48B68
:10093000BE81000070E46AEFC9D8FB050000005ECC
:10094000DD2F4648424848B00024810104484278DF
:10095000020010714261C3A0C8C4010B8230900430
:100960000A2650045006264C0627E0E771446EC85C
:10097000D1AB7F4E8EC80DB92137E4C873E086DC59
:10098000901B72E473C00DB92137E0CADF1367AF63
:100990003DAC536FBDF596AB57AF5EF9791D7F2F18
:1009A0004F73EFBDF7DEFB30BE741847AF5EBD7A04
:1009B000CDE94F34F297E6B22EEB32F7DE8771EBDA
:1009C000ADB7DE7AEBED97BE77FD4E4EF3B22EEB70
:1009D000B22EEB32F79EA77C65F3EFDE5BAEFC6BCD
:1009E00078FE9FC6F63DFBB78F23FF9CBD7AECAD2A
:1009F00047AF5EBD7AEC69CE533ECFB1A77559972C
:100A000071EB2D9FE7EAD5AB57AF5EBD7A1C9775AA
:100A1000599775599771CC695DD6655DD6651C3956
:100A2000E7B42EEBB22EEB943F277E6F667E005428
:100A300075726E7E00546F74616C005475726E0036
:100A4000526F6C6C001397AE055CBD7AF5EAD5ABBE
:100A5000578F64EDFD77D8CF00B8207041E082C099
:100A600005810B0217042E089C90239BCF2B1CBDE5
:100A70007A553A54863538E21C5A14E2B60602F525
:100A8000EAD52359133800650365036503650365DB
:100A900003650365036503650365036503E50448B2
:100AA000011B8FAE0504000005000050000000058A
:100AB000000050000000050000500000000500008C
:100AC0005000000005000050000000050000105814
:100AD0004B8E04D808C046003602B011808D006CE1
:100AE000046023001B01D808C046003602B0091775
:100AF000041B8FCD045EFBDAD7BEF6B5AF81991724
:100B0000849794979497949794979497842B1B8F9A
:100B1000AE055CBD7AD501A211A61912D3A974E85D
:100B200009754CAF5E81B5E448804D814D814D81A2
:100B30004D814D814D814D814D814D814D814D8145
:100B40004DB82011D7FA095FFBDA4F58F5F7ABDF44
:100B500041DE226F91AF0091172E2E000840011048
:100B6000800220000540000A8000140001280002D5
:100B700000D3670020000800028000200008000267
:100B800080002000080002800020003C70F2B35971
:100B90002E91D7CA135EFBDAD73C4141FF06CA4B00
:100BA000DE226F91B73C041197198370F4EAD5AB3C
:100BB00057AF1E096364C2AF8779E788DC901B7268
:100BC000436EC80D397207111719B26031994C265E
:100BD00093C96432994C163064DFF6E667EEFD8007
:100BE000CD6432994C2693C96432593C030000000D
:100BF0001414142A2A001428001428001E053FB0DB
:100C0000E79E02F060EF03003CD8FB00000FF63EC9
:100C100000C083BD0F00F060EF03003CD8FB000074
:100C20006758870D007000D5F08D14A1C881CFD909
:100C3000F1AF2000118F074E20C082718299744D50
:100C4000C8010AB001F8324352168AB0D03224E506
:100C500053118F4F102265280B00916204164042F9
:100C600019814138F39851845D04A84CE86D1460F3
:100C700016CA9123118F4F00097BCE290BB1ABF11E
:100C80008084057C0C285913268C4618A9300CB298
:100C900048045E02118F9F091CC45B4F229CF8110F
:100CA000BD0DD8D00B140EBDE53D118F2F9C1949F9
:100CB0000EE39853C80C00A9F0359B910121302117
:100CC000701A872423D39789871C0307140E1038C2
:100CD000016709076139802203283880C5E60613B9
:100CE00097AE055CBD7AF5EAD5AB578F64EDFD771D
:100CF000D8CF801B72436EC80DB92137E4861CB96A
:100D00000349636F6E7E7E4E616D6500506C617944
:100D100065727E004E756D6265727E6F667E706C68
:100D200061796572737E3F20007F9FC216E1A278D1
:100D300002128501821C84AF0127CA05840B20178B
:100D4000CA8570436EC80DB8FACF912B7003E002CC
:100D5000810D95054B0A5B848BE2094814060872E5
:100D600010BE069C2817102E805C2817C20DB921D2
:100D7000EBDD728F4C66CE2906A0122064693035F7
:100D8000BACA4877BFE765D5E1F40A6E2D412F391D
:100D90002227100E18983860E0846023C8320C10A7
:100DA000E1807E1CB82137E486DC90A357AF1EB5E6
:100DB0005A19993CB5597E7279682633E714035065
:100DC0000910B2746510B2CA4877BFE76515DD3AFD
:100DD000C66A882BB924C3D8E14B67EDF425B75018
:100DE000E65E9775599775EAADB72E5B0DCC300A64
:100DF00078E15B0F6E9E720A0091428010AA95A066
:100E00004577C75A8BAB57AF8E8E3443B821172521
:100E10001A000010040808BA1D2E97C3AD63AC86F3
:100E2000B8924B328C1DBE74D64E5F720B65EE7558
:100E30005997B52F735ED6A02BC34572426E7BEED9
:100E400079598743C372642ED8485C8EACCB1A7430
:100E5000556471660013083001005C87BD0FEBC656
:100E6000A9288BAC393721AE32D665EE79599795E2
:100E7000C561CDCBBAACDA55C6BAACCB1A7419E0A1
:100E8000001058B02EEB32E7650DBA325C2427E42F
:100E9000B6E79E977538342C47E6828DC4E5C81AAC
:100EA000080B000202020100090400000102020016
:100EB0000005240010010524010101042402060597
:100EC0002406000107058103100040090401000207
:100ED0000A000000070502024000000705830240E7
:100EE00000000403090412010002EF020140412343
:100EF000368000010102030141726475696E6F2042
:100F00004C4C430041726475696E6F204C656F6E86
:100F10006172646F00A187DD0D9BBB201BC46B2E2B
:100F2000BDE43864E33878DCB75EC04B6FA11BC505
:100F30001B0D0F0CA4C0400A0CA4C0400A0CA4C096
:100F4000400A0C78C1993367CE9C7904CD87DDD2F5
:100F500013C7018702DCBA45397281E0910B04BFE7
:100F6000D52D3D71DC9BC531975E7296ECE0730F19
:100F70001838782CDCD6A7C61EA7E04D72EB969EDB
:100F8000380EDC088D8F119225244B4896902C2129
:100F90005942B204762EEBB22EEBB22EEBB28E2378
:100FA000474D474646F3DB46B3F839AC741C59E964
:100FB000D87F9FC216E1A27802128501821C84AFFD
:100FC0000127CA05840B2017CA8570436EC80DB867
:100FD000FACF912B7003E002810D95054B0A5B84DB
:100FE0008BE209481406087210BE069C2817102EC2
:100FF000805C2817C20DB921EBDD728F4C66CE29BB
:1010000006A0122064693035BACA4877BFE765D5B3
:10101000E1F40A6E2D412F392227100E18983860FE
:10102000E0846023C8320C10E1807E1CB82137E4D4
:1010300086DC90A357AF1EB55A19993CB5597E72FC
:1010400079682633E71403500910B2746510B2CAE8
:101050004877BFE76515DD3AC66A882BB924C3D83F
:10106000E14B67EDF425B750E65E9775599775EA41
:10107000ADB72E5B0DCC300A78E15B0F6E9E720A25
:101080000091428010AA95A04577C75A8BAB57AF05
:101090008E8E3443B82117251A000010040808BAB0
:1010A0001D2E97C3AD63AC86B8924B328C1DBE74B7
:1010B000D64E5F720B65EE755997B52F735ED6A04D
:1010C0002BC34572426E7BEE79598743C372642EFF
:1010D000D8485C8EACCB1A74556471660013083026
:1010E00001005C87BD0FEBC6A9288BAC393721AE58
:1010F00032D665EE79599795C561CDCBBAACDA5544
:10110000C6BAACCB1A7419E0001058B02EEB32E717
:10111000650DBA325C2427E4B6E79E977538342C07
:1011200047E6828DC4E5C81A67AF3B07169300B245
:1011300008208B00B2484211128A90508484220405
:1011400044324024034432402459C4F64F099C28B9
:1011500017CA8572A19CFC5E0E4C0603901200A477
:1011600064483930FB376B7B0006000CE01BE92D2F
:10117000A6800A145081022A800220A0020544A4FD
:10118000480922124251D9A86C142E940BE1E8D5DB
:10119000AB57CF5CBD3AF71D0000006072BFEFCFC8
:1011A000C2BC03000000BC636ED73A0027069B2038
:1011B0009B201B958DC88572027EC05A1E000800B8
:1011C0004C3E904BF0A21E44DCDA3D700A810127B0
:1011D00060ACB94C054434996301846BD6090000B6
:1011E00018071863DB35078171807138A40000008F
:1011F000EFEE331C982C028422040413B21D0880E5
:1012000000DF3831120000061C00E80A99A45AEDEC
:10121000A21B809153B8D9F11DD77A000000005F5E
:10122000D8EC09E76C37000100264CE86239464DDE
:1012300062D488EAA0F29D033000E043CB3D260B48
:101240006B571700010078D73D0F10D80844C7D05E
:10125000002184C1180726000480877B00F0AA7350
:10126000E9525522535220122159615A12483EBE6A
:10127000F401000090636FE548DA6CF0C064200C64
:1012800011B7804DD42051D30818408184A15ED479
:101290008BBE81000070E46AEFC9D8FB0500000036
:1012A0005EDD2F4648424848B00024810104484290
:1012B00078020010714261C3A0C8C4010B82309053
:1012C000040A2650045006264C0627E0E771446EB7
:1012D000C8D1AB7F4E8EC80DB92137E4C873E08604
:1012E000DC901B72E473C00DB92137E0CADF130133
:1012F0000204081020408000AB23632111241FBE8C
:10130000CFEFDAE0DEBFCDBF12E0A0E0B1E0E0E376
:10131000FEE402C005900D92AC30B107D9F727E08A
:10132000ACE0B2E001C01D92A238B207E1F719E0CB
:10133000CDE7D9E004C02197FE010E94CC25CC372F
:10134000D107C9F70E9467210C940B270C94000069
:10135000FC01168ADB01A159BF4F8C91878B178E38
:101360000895FB01818580959085892383FF04C0C2
:10137000EE58FF4F81E0808308950F931F93CF9322
:10138000DF93EC01FB01E159FF4F80817A9791E0F7
:1013900020E03CE0981790F4DB01329FA00DB11DD6
:1013A0001124A75BBF4F008111814D915C914017C3
:1013B00051070CF4292F9F5F3C96ECCF2E8BDF91C9
:1013C000CF911F910F910895089580E090E00895C6
:1013D000A1E1B2E02FB7F8947D918D919C9166B513
:1013E0002FBFA89B05C06F3F18F47F5F8F4F9F4FA3
:1013F00022E0660F771F881F991F2A95D1F708955D
:10140000089508958F929F92AF92BF92CF92DF92EC
:10141000EF92FF920F931F93CF93DF93EC018B0119
:10142000DB0119969C911997909518968C919823A9
:101430008E89823009F475C028F4882361F08130E8
:1014400081F17DC1843009F474C108F44BC1853049
:1014500009F473C174C18F898F5F8F8B1AA219A28F
:101460001CA21BA21EA21DA291E09E8B082E000CA6
:10147000990BFB01E159FF4F208130E08217930760
:1014800024F01F8A8F8D8F5F8F8FFE01B796CE015C
:101490008D9621E0DF011E972C931192E817F90732
:1014A000C9F77E01B9E1EB0EF11C6E01EFE1CE0E42
:1014B000D11C86E0882E912CA12CB12CD7018C91C7
:1014C000882369F00E942525A50194010E944925E1
:1014D000DC01CB010196A11DB11DF7018083FFEF57
:1014E000EF1AFF0AEC14FD0449F761E0CE010E94F7
:1014F00008169EA38DA3892B19F0188E82E017C1C0
:101500008F894CE08402000D111D1124F801E75B66
:10151000FF4F80819181845F91409183808385E03A
:1015200006C195FF10C0888D81306CF087301CF0AB
:10153000873019F008C0815005C029A13AA1232B9A
:1015400011F086E0888F96FF1CC0888D853041F0B1
:1015500024F487FD16C08F5F13C0863039F011C0A8
:1015600029A13AA1232B69F086E00AC049A15AA11A
:101570002BA13CA1240F351F2C32314010F087E005
:10158000888F94FF31C0888D833059F02CF487FD0B
:101590002BC08D5F888F28C0843061F08530C1F00A
:1015A00023C029A13AA1232B59F186E0888F97FF08
:1015B0002FC02AC029A13AA1232BB9F72BA13CA106
:1015C0002C323140E8F087E0888F97FF21C01EC0A1
:1015D00049A15AA12BA13CA1240F351F2C32314027
:1015E00090F7452B11F70CC097FF12C0888D8630FD
:1015F00059F01CF4833034F40BC0873039F008C044
:1016000097FF06C0835003C083E001C085E0888F48
:1016100093FF95C0888D863099F11CF487FF1DC01B
:101620008EC0873009F08BC08F89BCE08B02000D23
:10163000111D1124F801E75BFF4F29A13AA18BA1ED
:101640009CA1820F931F20813181820F931F918370
:10165000808383E08E8B18A272C0FE01E80FF11D1B
:1016600087FDFA95818D882321F097A181E0892754
:1016700087A360E0CE010E9408169AA389A35FC0E9
:10168000FE01B796CE018D96AF01DA012D91AD0125
:10169000222329F09D012F503109D9011C924817AE
:1016A000590799F7DE0159969E01215E3F4F4D91F2
:1016B000442361F02BA13CA189A19AA1820F931F21
:1016C0009CA38BA31AA219A281E031C0A217B30771
:1016D00071F721E0DF011E972C931192E817F907AB
:1016E000C9F7E8CF992311F080E388A388A180335C
:1016F00018F48F5F88A323C01CA21BA21AA219A2F0
:101700002F89022E000C330BF801E159FF4F808125
:1017100090E001972817390749F48F8D8A3031F40A
:10172000F801EE58FF4F84E0808309C084E08E8B7F
:1017300006C093FF04C01E8A02C093FDE1CFDF9173
:10174000CF911F910F91FF90EF90DF90CF90BF90BE
:10175000AF909F908F9008959F92AF92BF92CF923B
:10176000DF92EF92FF920F931F93CF93DF9300D0FE
:1017700000D0CDB7DEB77C01FA01122F19821A8290
:101780001B821C82CA0157FF04C088279927841B2B
:10179000950B9E012F5F3F4F4AE0C42ED12C44E0B1
:1017A000420FB6010E94B825D9018D939D01CB014E
:1017B0004A13F7CFF7FF0DC0602F70E06D5F7F4FCA
:1017C0006034710534F4812F90E042E003970E9469
:1017D00096186E01B5E0CB0ED11C80E1982E910ECB
:1017E0005701E2E0AE0EB11CD70116961C93169776
:1017F00017961C93179718960C93F60142916F0158
:1018000050E060E070E02AE0C5010E94C6111C5F54
:101810001911EACF0F900F900F900F90DF91CF9199
:101820001F910F91FF90EF90DF90CF90BF90AF90FE
:101830009F9008956F927F928F929F92AF92BF92E6
:10184000CF92DF92EF92FF920F931F93CF93DF938C
:10185000EC016B01DB0116968D919C91179768E165
:1018600070E00E94B825992493948D3008F4912C4F
:1018700021E04DEF5BE060E070E08BE390E00E94E0
:10188000CB183E01B9E16B0E711CA12CB12CF501F6
:10189000EB50F44F0491F501E351F44FE491EE2E37
:1018A000F12C10E0E6E0AE1609F45AC0F7E0AF16EE
:1018B00009F45EC0D3018C918823F1F1FE01EA0D99
:1018C000FB1D87A121E0882389F047EC5BE0B7018D
:1018D000C8010E94CB18D301EC91F0E0EE0FFF1F7E
:1018E000E05BFE4F4081518120E010C047EA5BE0A1
:1018F000B701C8010E94CB18D301EC91F0E0EE0FC4
:10190000FF1FE05BFE4F4081518121E0B7016C5F1A
:101910007F4FC80104960E94CB18888D082E000CBA
:10192000990BA816B90609F04AC0992009F447C0D6
:1019300020E041E95BE03FC021E047E55BE0B70123
:10194000C8010E94CB18888D082E000C990BA81690
:10195000B906A9F5992099F121E043E45BE02BC099
:1019600089A19AA121E0892B21F14EE05BE00FC013
:1019700029A13AA121153105D9F08BA19CA1820F93
:10198000931F8C329140A0F021E04BE65AE0B70162
:10199000C8010E94CB18888D082E000C990BA81640
:1019A000B90669F4992059F020E041EF5AE003C0EC
:1019B00021E041EA5AE0B701C8010E94CB18EFEFDD
:1019C000AE1ABE0AFFEF6F1A7F0A28E0A216B10412
:1019D00009F05DCF21E045E45AE060E070E083E487
:1019E00090E00E94CB1876018FE0E80EF11C8F8901
:1019F000F7019CE08902E00DF11D1124E0A9F0E05F
:101A0000EE0FFF1FE85BFE4F4081518121E061E056
:101A100070E084E490E00E94CB1884E5898B888B89
:101A20008FEF8A8B8F89B701ACE08A02600D711D40
:101A30001124605D7F4FCE010C960E94B11109E523
:101A400010E05601B3E0AB0EB11C21E048E050E0DD
:101A5000B801C5010E9488200E5F1F4F0138110593
:101A6000A1F719E51E831F838AE088875E01E2E003
:101A7000AE0EB11C60E47AE0C5010E948D1149A14F
:101A80005AA10AE021E7B601CE010E94AC0B1E83E9
:101A90001F8381E188876BE37AE0C5010E948D1185
:101AA0004BA15CA101E121E7B601CE010E94AC0B84
:101AB0008E89833011F49920D9F089E58E838F8344
:101AC00088E1888765E37AE0C5010E948D118F89DE
:101AD000F6012CE08202E00DF11D1124E75BFF4FBF
:101AE0004081518108E121E7B601CE010E94AC0B93
:101AF00088E08E838F838AE388876FE27AE0C5016E
:101B00000E948D114F8D50E060E070E02AE0C50129
:101B10000E94C6116AE27AE0C5010E948D112AE096
:101B20004AE050E060E070E0C5010E94C611460145
:101B30008FE3880E911CA12CB12C23E4722E8F8987
:101B4000082E000C990BA816B90631F1072D10E0EC
:101B500021E045E45AE065E270E0C8010E94CB183C
:101B6000D401EC91F0E0EE0FFF1FE85BFE4F4081E7
:101B7000518121E066E270E0C80101960E94CB1815
:101B800022E0270DF401428553850AE3B601CE0118
:101B90000E94AC0BF5E17F0E2FEFA21AB20A8CE087
:101BA000880E911C94E0A916B10449F68E898530FF
:101BB00091F420E04EE859E068E070E08CE090E0BD
:101BC0000E94CB1821E047EC57E068E070E08CE021
:101BD00090E00E94CB188E898430F1F5CF89CF5FD9
:101BE000F601E159FF4F8081C81708F0C0E020E0FE
:101BF00044EB57E060E170E08EE190E00E94CB188A
:101C000021E042ED56E060E170E08EE190E00E945C
:101C1000CB18F701ACE0CA9FE00DF11D1124E0A93B
:101C2000F0E0EE0FFF1FE85BFE4F4081518121E0A5
:101C300068E170E08AE490E0DF91CF911F910F910D
:101C4000FF90EF90DF90CF90BF90AF909F908F90DC
:101C50007F906F900C94CB18DF91CF911F910F91D3
:101C6000FF90EF90DF90CF90BF90AF909F908F90BC
:101C70007F906F900895CF92DF92EF92FF920F9333
:101C80001F93CF93DF93EC017B0121E04BE555E0FF
:101C90006DE270E080E090E00E94CB1821E046E029
:101CA00054E060E070E088E090E00E94CB1821E012
:101CB00044EE53E06DE170E080E290E00E94CB18CA
:101CC0008701015F1F4F8E899CE0D92EF801D89EB5
:101CD000E00DF11D1124E0A9F0E0EE0FFF1FE25C22
:101CE000FE4F4081518121E06EE170E081E290E0A1
:101CF0000E94CB1881E3898B888B8DE18A8B8E893A
:101D0000B801D89E600D711D1124605D7F4FCE011A
:101D10000C960E94B11106E310E0670183E0C80E43
:101D2000D11C21E046E250E0B801C6010E948820A3
:101D30000E5F1F4F0E351105A1F786E38E838F834B
:101D400087E288876EED73E0CE0102960E948D11C6
:101D50008E89F7019CE0899FE00DF11D1124E75B5E
:101D6000FF4F4081518107E22EE4B701CE010E946E
:101D7000AC0BDF91CF911F910F91FF90EF90DF900F
:101D8000CF900895CF92DF92EF920F931F93CF934E
:101D9000DF93FC016A3039F48581848396818185E3
:101DA000890F8683A1C0A4816E3719F4AD5FA48327
:101DB0009BC0962FEF0166816F5F9A3354F4903386
:101DC000DCF49D32E1F09E3299F0913209F053C07B
:101DD00018C09B3534F491346CF49F3309F451C02E
:101DE0004AC08FE9890F8A3108F045C019EB05C058
:101DF0001FE308C01FEB01C014E0190F03C011E47A
:101E000001C01EE38F81062E000C770B0A2E000CFA
:101E1000BB0B813009F03AC0E4EDF2E00491E5ED4E
:101E2000F2E0E490112379F1E02FF0E02E2D2695D9
:101E300026952695422F50E021E030E08E2D8770C8
:101E400011F420E030E0240F351FE29F6001E39F92
:101E5000D00CF29FD00C112496011203A001139F05
:101E6000500D11244A525D4F9AEFC92E20E030E008
:101E7000CD010E947E1E88858C5F9C81890F8C839A
:101E800033C010E4BFCF46ED52E0EECFE4EDF2E018
:101E90000491E5EDF2E0E490112309F1E02FF0E088
:101EA0002E2D269526952695422F50E021E030E0F4
:101EB0008E2D877011F420E030E0240F351FE29F53
:101EC0006001E39FD00CF29FD00C11249601120305
:101ED000A001139F500D11244A525D4F02C046EDE0
:101EE00052E08BEFC82EC2CF81E090E0DF91CF911E
:101EF0001F910F91EF90DF90CF900895CF92DF92D6
:101F0000EF920F931F93CF93DF93FC016A3039F464
:101F10008581848396818185890F8683AAC0A48167
:101F20006E3719F4AE5FA483A4C0962FEF016681CB
:101F30006F5F9A3384F4903314F59B3219F11CF4DB
:101F4000913221F15DC09D3209F460C09E3209F0EA
:101F500057C01FE31CC09B354CF4913474F49A3382
:101F600099F09F3309F04CC012E411C08FE9890F3A
:101F70008A3108F045C019EB03C01FEB01C014E023
:101F8000190F05C011E403C013E401C01EE38F81E3
:101F9000062E000C770B0A2E000CBB0B813009F0CB
:101FA0003AC0E6E0F2E00491E7E0F2E0E4901123C9
:101FB00079F1E02FF0E02E2D269526952695422FDB
:101FC00050E021E030E08E2D877011F420E030E009
:101FD000240F351FE29F6001E39FD00CF29FD00CCD
:101FE000112496011203A001139F500D1124485F84
:101FF0005D4F9AEFC92E20E030E0CD010E940F1214
:1020000088858D5F9C81890F8C8333C010E4BFCF9E
:1020100048E052E0EECFE6E0F2E00491E7E0F2E0E3
:10202000E490112309F1E02FF0E02E2D269526955E
:102030002695422F50E021E030E08E2D877011F47C
:1020400020E030E0240F351FE29F6001E39FD00CB9
:10205000F29FD00C112496011203A001139F500D82
:102060001124485F5D4F02C048E052E08BEFC82E5C
:10207000C2CF81E090E0DF91CF911F910F91EF905F
:10208000DF90CF9008950C9467260C9467260C94EB
:1020900067260C9467260C9467260C9467261F927B
:1020A0000F920FB60F921124CF92DF92EF92FF9210
:1020B0000F931F932F933F934F935F936F937F9350
:1020C0008F939F93AF93BF938091150290911602C7
:1020D000A0911702B09118020196A11DB11D809325
:1020E000150290931602A0931702B0931802492F7D
:1020F0005A2F6B2F772767FD7A95242F2E726C014C
:102100007D0139E0F594E794D794C7943A95D1F7D7
:102110004C295D296E297F29489F402D1124422397
:102120008C019D015DE035952795179507955A958A
:10213000D1F7082366E0B595A795979587956A9599
:10214000D1F7802B84278093CF00BF91AF919F91CF
:102150008F917F916F915F914F913F912F911F913F
:102160000F91FF90EF90DF90CF900F900FBE0F90E8
:102170001F901895AB01FC010E94E80941505109DC
:10218000E109F10928F068517C4F8F4F9F4FF6CF3E
:10219000AB01FC010E94E809641775078E079F07D1
:1021A000C8F308950F930FB70F931F9211248F93C5
:1021B0009F93EF93FF93E9E1F2E08091100291E0A9
:1021C0008D5F8D3710F08D5793958093100280812D
:1021D000890F80839181911D91830281011D02836A
:1021E0008381811D838309270F700927029500933E
:1021F0000F0235D0811100930D02803989F40091CE
:102200000E02901B963070F087E780930008809351
:10221000010888E198E08093600090936000FFCF10
:1022200090930E0280910C02815018F080930C0262
:1022300059F3E1E1F2E080819181019680839183FD
:1022400082819381811D911D82839383FF91EF9100
:102250009F918F911F900F910FBF0F9118958FB184
:102260008095807F669B88601C9B8460089508959C
:10227000089508950895089508950C946726FC0123
:1022800082E391E091838083158214828AE191E058
:102290009383828398E0938781E0828717821086F8
:1022A000168281871786168626E231E035872487D5
:1022B000958B848B118A128A108A838B08950895D6
:1022C000CF92DF92EF92FF920F931F93CF93DF9302
:1022D0006C017A018B01C0E0D0E0CE15DF0589F0FA
:1022E000D8016D918D01D601ED91FC910190F081A5
:1022F000E02DC6010995892B11F47E0102C02196BB
:10230000ECCFC701DF91CF911F910F91FF90EF901C
:10231000DF90CF9008950E94FF26EF92FF920F93D7
:102320001F93CF93DF938C017B01C0E0D0E0F701D6
:10233000EC0FFD1F6491662361F0D801ED91FC91D3
:102340000190F081E02DC8010995892B11F02196AB
:10235000EECFCE01DF91CF911F910F91FF90EF90C3
:1023600008956115710579F0FB0101900020E9F7EE
:102370003197AF01461B570BDC01ED91FC910280B8
:10238000F381E02D099480E090E008954F925F92F0
:102390006F927F92EF92FF920F931F93CF93DF93F1
:1023A000CDB7DEB7A1970FB6F894DEBF0FBECDBF95
:1023B0007C01FA01CB0119A2223008F42AE08E0137
:1023C0000F5D1F4F422E512C612C712CBF01A301B8
:1023D00092010E947B25F901CA01015011096A305E
:1023E00014F4605D01C0695CD8016C93232B242B2D
:1023F000252B61F7B801C7010E94B111A1960FB654
:10240000F894DEBF0FBECDBFDF91CF911F910F912A
:10241000FF90EF907F906F905F904F9008952F9274
:102420003F924F925F926F927F928F929F92AF9264
:10243000BF92CF92DF92EF92FF920F931F93CF93B1
:10244000DF9300D000D000D0CDB7DEB7F02ECD8224
:10245000A02FB0E06C01CA0EDB1E1C141D040CF092
:10246000F3C0803891050CF0EFC0FB01EE0DF11DBB
:102470001E161F060CF0E8C0603471050CF0E4C0B5
:102480004115510509F4E0C0062F0770602EFB01CD
:1024900077FD379613E0F595E7951A95E1F71E2F2E
:1024A00077FF04C0662011F01FEF1E0F97FF05C0D5
:1024B000EE27FF27E81BF90B02C0E0E0F0E060E840
:1024C000C616D10424F060E8962E981A01C09F2CFD
:1024D0009E1A612F012E000C770B1F3F1CF4B62EA5
:1024E000B09401C0B12CDD24D3940E2D077009F4F3
:1024F000D12CE694E694E694ED0C6E0D711D6930D6
:1025000071051CF068E0E62EE11A8B2C810E782D07
:1025100000E87003800D911D11248E0F9F1F61E054
:1025200070E0062C02C0660F771F0A94E2F70D8157
:10253000033011F001E001C002E0A919B1090A9FBE
:10254000302C1124C02ED12CBF9CE00DF11D112484
:10255000CE9ED001CF9EB00DDE9EB00D11245A014B
:10256000AA0EBB1E2115310509F0A90196012150C3
:102570003109A20FB31F4A0F5B1FEFEFE69F9001D7
:10258000E79F300D11242901409450941E0D1E83A5
:10259000232D30E0099D200D311D11240E81801660
:1025A00009F452C0DC01AE5DBD4F7A018501712C8A
:1025B000791409F441C0F8013490369EF001379E39
:1025C000F00D1124FA83E983E095F095FC83EB8309
:1025D000FD81F23019F45C824B8211C0ED81EB3F3A
:1025E00019F41A8219820BC0F7013490369EF0015B
:1025F000379EF00D1124E095F095FC83EB8387FC6A
:1026000006C0FC91EB81EF23F981EF2BEC93662060
:1026100061F0F6E0F8154CF0FD01E058FF4F208026
:102620003C8023203A8032283082EC0CFD1C0C0DBB
:102630001D1D73941196BCCF8394A20EB31E420F3E
:10264000531F80589F4FAACF26960FB6F894DEBF2F
:102650000FBECDBFDF91CF911F910F91FF90EF90F3
:10266000DF90CF90BF90AF909F908F907F906F90B2
:102670005F904F903F902F9008956F927F928F922E
:102680009F92AF92BF92DF92EF92FF920F931F93B0
:10269000CF93DF93EC018B01FB018681978168E189
:1026A00070E00E94B825DD24D3948D3008F4D12C3D
:1026B00021E049E25DE063E270E080E090E00E94AA
:1026C000CB188E898823E9F1813009F0E9C0198A95
:1026D000188A1A8A7E01FCE0EF0EF11C6CE07DE0A6
:1026E000C7010E948D11F801E059FF4F408150E071
:1026F00060E070E02AE0C7010E94C611198A188ABA
:1027000080E18A8B61E07DE0C7010E948D110D5F41
:102710001F4F41E063E170E080E390E00E94702091
:1027200041E065E170E080E390E00E94702032E0DB
:10273000632E712C41E1A42EB12C57E1852E912CF2
:1027400034C0198A188A88E08A8B2C9664E17DE06F
:10275000CE010E948D11F801E159FF4F408150E0F8
:1027600060E070E02AE0CE010E94C611DD2009F48D
:1027700097C044E060E170E08EE590E0DF91CF919A
:102780001F910F91FF90EF90DF90BF90AF909F90BF
:102790008F907F906F900C949618EFEFAE1ABE0A50
:1027A000F7E1AF16B10481F03C0121E0A501B401CD
:1027B000C8010E948820C301029797FFEECF21E055
:1027C000821A91080596E9CF21E04FED5CE06BE0BD
:1027D00070E085E390E00E94CB18EA8DF0E0EE0F08
:1027E000FF1FE25AFE4F4081518121E06CE070E012
:1027F00086E390E00E94CB18DD2019F0898D8823B4
:1028000081F19DE4A92EB12C21E048E150E0B50111
:10281000C8010E94882022E0A20EB11C8DE7A816F4
:10282000B10491F75E01EBE1AE0EB11C0DE411E0D5
:1028300080E1982E098B088B9A8ADD2019F0898D0A
:10284000811711F1F50161915F01EC85FD85019022
:10285000F081E02DC70109951F5F0A5F193051F71C
:102860001FC021E042ED5CE065E070E08AE390E0AB
:102870000E94CB1821E047EC5CE06FE170E08AE356
:1028800090E00E94CB18BDCFF6E01F9FC00111243D
:1028900044E068E170E0895B9F4F0E949618D2CFB8
:1028A000DF91CF911F910F91FF90EF90DF90BF903C
:1028B000AF909F908F907F906F900895CF93DF930C
:1028C000EC011E8A0E9403218A8D811102C081E0E1
:1028D0008A8FDF91CF910895CF92DF92EF92FF928E
:1028E0000F931F93CF93DF93FC01EB01388519857C
:1028F000109513238689882319F08130F1F07FC168
:1029000012FF05C081E0DB01AE58BF4F8C9313FF6F
:1029100002C081E0868B17FD9BC014FD99C08E819B
:102920009F8168E170E00E94B8254789508D552746
:102930008417950709F48CC062C1218D15FF05C06D
:10294000222319F08FEF820F818F16FF05C0818D32
:10295000883010F48F5F818F17FD0EC014FD0CC0FE
:102960008E819F8168E170E00E94B8254789508D73
:1029700055278417950721F437FD97C034FDE7C02C
:102980007F0112FF24C06E01B0E7CB0ED11CF6010F
:1029900020812230D0F030E0215031094CE0429FBC
:1029A000C001439F900D11248C0F9D1FB701665EDF
:1029B0007F4FCF960E940427D6018C9181508C9333
:1029C000BE01C7010E94032102C0F701168A13FF4E
:1029D00016C1F7017B9697012D5D3F4F81E09191E4
:1029E000903209F080E0E217F307C9F7811107C1BF
:1029F0008E0100591F4FD8012C9130E02150310930
:102A00004CE0429FC001439F900D11248C0F9D1FED
:102A1000B701665E7F4FCF960E940427F801808140
:102A200031979081891778F48F5FD8018C93BE011C
:102A3000C701DF91CF911F910F91FF90EF90DF9031
:102A4000CF900C940321CE58DF4F83E08883D7C00A
:102A500037FF09C0BE0161597F4FDB018C91843083
:102A600010F491E00BC034FFCAC0BE0161597F4F22
:102A7000DB018C91823008F4C2C09FEF980F891758
:102A800048F09E01BCE08B9F200D311D1124D9011F
:102A9000DF961C92DB019C938E819F8168E170E040
:102AA0000E94B825908F878BAAC0211133C0928DC8
:102AB000292F092E000C330B2D5F3F4F492F092E74
:102AC000000C550B241735070CF490C0892F837820
:102AD00087FF03C081508C6F8F5F8F5F682F082E38
:102AE000000C770BA5A1B0E041E0A617B70709F0ED
:102AF00040E0A6A1B0E0A617B70709F441E0A7A1FE
:102B0000B0E0A617B70721F0411102C0828F6EC056
:102B10009F5FD4CFDF01A20FB11D5A968C915A97B7
:102B20008A3579F034F4803281F07CF081345CF4C1
:102B30000CC0813654F08A3734F08A3709F44DC01E
:102B400004C081E651C08F5F4FC081E44DC02111A8
:102B50002FC0328D94E0930F39170CF047C0892FA6
:102B6000837887FF03C081508C6F8F5F2FEF280F12
:102B7000121614F023E0280F422F022E000C550BE2
:102B800065A170E081E06417750709F080E066A137
:102B900070E06417750709F481E067A170E06417BD
:102BA000750721F0811102C0228F20C09150D4CF2F
:102BB000DF01A20FB11D5A968C915A978B353CF4C8
:102BC00082347CF4803279F0813439F00CC0813663
:102BD00031F04CF08B372CF006C080E205C08AE55E
:102BE00003C0815001C08AE75A968C938E819F81E1
:102BF00068E170E00E94B825908F878BC1CEDF918D
:102C0000CF911F910F91FF90EF90DF90CF9008959B
:102C10006F927F929F92AF92BF92CF92DF92EF928C
:102C2000FF920F931F93CF93DF9300D000D000D07B
:102C3000CDB7DEB7FE01319626E0DF011D922A9561
:102C4000E9F7DC015996AC01415E5F4F7D0190E0F0
:102C50006623E1F0D7012D917D01222331F08F0110
:102C6000090F111DD8012C939F5FE416F50691F70B
:102C700013C01D968C91882331F08F01090F111D0F
:102C8000D8012C939F5FE416F50631F0D7012D9102
:102C90007D012223C1F3EDCF8E010E5F1F4F81E036
:102CA00038018917F0F4D8015D918D014FEF480F7D
:102CB000242F042E000C330B47FD0DC07F01E20EC4
:102CC000F31ED7017C91571730F4260D371DD9011B
:102CD0007C934150EDCF260D371DD9015C938F5F5A
:102CE000E0CF992309F4DBC0A0E9EA2EFF24F39496
:102CF000B4E6CB2ED12C81E020E030E08F0140E023
:102D000050E0702F7E1B791740F4D8017D918D0122
:102D10007813F7CF4F5F5F4FF4CF433051050CF47A
:102D20004DC04430510589F024F44330510541F041
:102D30001EC04530510579F04630510591F017C05D
:102D40008130C1F448EE53E016C0813009F0AAC0CA
:102D500040ED57E010C0813009F0A6C040EA5FE0C6
:102D60000AC0813009F0A2C040E45FE104C040E045
:102D700050E001C0A601792F77FD1EC08F01070F1B
:102D8000111D77FD1A95D8011C91181313C0972EA9
:102D9000092D10E0053011055CF45301A00EB11EA1
:102DA000D501BC900E0F1F1FD801BC929394F0CF99
:102DB0001E8291507150E0CF240F351F8F5FB4E613
:102DC000CB0ED11C40E7E41A4EEFF40A873009F02D
:102DD00095CF892F963011F559814A81513089F468
:102DE000423079F47B81733061F47C81743049F432
:102DF0007D81753031F47E81763019F424523A4F5A
:102E000059C0541313C05B814C8154130FC05D81B2
:102E10004E8154130BC022513D4F4CC0992309F4ED
:102E200049C004C01E8281502E5C3F4F915097FDD7
:102E300032C0AF01490F511D97FD5A95DA014C91EF
:102E4000453089F4792F472F50E04530510554F72C
:102E50008301040F151FD8011C914E0F5F1FDA016B
:102E60001C937F5FF0CF413009F7792F472F50E057
:102E7000453051055CF48301040F151FD8011C91E6
:102E80004E0F5F1FDA011C937F5FF0CF1E828150CF
:102E90002C593F4FCBCF61110DC0882359F020E052
:102EA00030E008C0A60103C0A70165CFA701440F09
:102EB000551F61CFC90126960FB6F894DEBF0FBE2D
:102EC000CDBFDF91CF911F910F91FF90EF90DF90D9
:102ED000CF90BF90AF909F907F906F900895FC012E
:102EE00080912102811103C08FEF9FEF08959FB75A
:102EF000F89482E08093E9002091F20030E012160D
:102F0000130614F421E030E02115310559F028981A
:102F100084E6809320028091F10080838091F2000A
:102F2000882319F09FBFC90108958BE68093E800BC
:102F3000F9CF2FB7F89483E08093E9009091E800EF
:102F4000892F807295FF04C09091F20080E4891B64
:102F50002FBF0895CF93DF931F92CDB7DEB769835C
:102F6000DC01ED91FC910280F381E02D41E050E025
:102F7000BE016F5F7F4F09950F90DF91CF9108954C
:102F800083E08093E9008091F200882319F08AE3BE
:102F90008093E80008950E94991790E00895CF93D8
:102FA000DF931F92CDB7DEB7FC018485958597FD31
:102FB00005C02FEF3FEF358724870BC0CE01019668
:102FC0000E946F17019719F4898190E002C08FEF7A
:102FD0009FEF0F90DF91CF9108950F931F93CF93A1
:102FE000DF931F92CDB7DEB78C01FC0184859585F8
:102FF00097FF0EC0CE0101960E946F17019719F43A
:10300000298130E002C02FEF3FEFF8013587248798
:10301000F801848595850F90DF91CF911F910F91D5
:1030200008958F929F92AF92BF92CF92DF92EF92CC
:10303000FF920F931F93CF93DF935C016B017A0193
:1030400080910701882309F45BC0809121028823C5
:1030500009F456C080911F0280FF05C08091E000F6
:1030600082608093E000E70110E00AEF83E0882EA1
:103070009AE3992E2097D9F10E94991781110AC0DD
:10308000015009F43DC061E070E080E090E00E94F2
:10309000BA10F0CF282F30E0C217D3070CF48C2FD2
:1030A0004FB7F8948092E9009091E80095FF1DC019
:1030B000282F30E0C21BD30BF601982F915020F03F
:1030C00081918093F100FACFC20ED31E112319F023
:1030D0009092E80009C08091E80085FD06C09092BA
:1030E000E80011E0209709F010E04FBFC3CF1111A5
:1030F000C3CF5D9884E680931E021E141F0444F023
:1031000081E090E0F5019383828380E090E001C04C
:10311000C701DF91CF911F910F91FF90EF90DF904A
:10312000CF90BF90AF909F908F9008959C01240FF7
:10313000311D1216130674F5803891055CF5FC01FB
:1031400097FF02C0E0E0F0E02138310514F020E8FC
:1031500030E02E1BAB014770552781E001C0880F7E
:103160004A95EAF777FF02C0695F7F4F93E0759554
:1031700067959A95E1F77695762F66277795679507
:10318000E60FF71FEE5DFD4F215020F09081982B48
:103190009193FACF08952F923F924F925F926F9240
:1031A0007F928F929F92AF92BF92CF92DF92EF92D7
:1031B000FF920F931F93CF93DF93CDB7DEB72C977A
:1031C0000FB6F894DEBF0FBECDBF6C01FA0134918B
:1031D0003196E491832F8F778F5FA82EB12CBB821D
:1031E000AA82C5018C0D9D1D97FD69C100E8C0161E
:1031F000D1040CF064C18E2F8F738F5FDB01A80F99
:10320000B11DB7FD5CC1603471050CF058C1331FAE
:103210003327331F398331E0E6FF30E0EE1FEE271E
:10322000EE1FEC833B0177FF04C066247724661A07
:10323000770A17E061227724FB0177FD37964F016B
:10324000E3E095948794EA95E1F777FF0CC0611469
:10325000710449F061E0861A910868E070E0DB01D2
:10326000A619B7093D0161E070E05B01062C02C0C0
:10327000AA0CBB1C0A94E2F7BE82AD82682F669549
:1032800066956695877009F06F5FE12CF12C97E0E9
:10329000A0E1B0E080E0412C512C212C312C062FF4
:1032A000660F110B18870F830F81188520163106C2
:1032B0000CF005C15D0101E010E0F50173E0F69549
:1032C000E7957A95E1F7E40FF51FE491F0E0B50199
:1032D0006770772702C0F595E7956A95E2F7D50103
:1032E0001196E0FF04C00F5F1F4F5D01E6CF013074
:1032F0001105C1F4FD0163E0F695E7956A95E1F7E4
:10330000E40FF51F649170E0A770BB2702C07595AC
:103310006795AA95E2F7617077276F5F7F4FD501B8
:1033200012963CC00150110961E070E0002E02C00D
:10333000660F771F0A94E2F76F5F7F4FA12CB12CC5
:10334000FD01F695E795F695E795F695E795E40F77
:10335000F51FF491EF2FF0E0FA87E987FD01E770A0
:10336000FF27FC87EB87E985FA850B8402C0F5957A
:10337000E7950A94E2F7E0FF0AC0E1E0F0E00A2CEA
:1033800002C0EE0FFF1F0A94E2F76E0F7F1F119627
:10339000FFEFAF1ABF0AA016B10694F21C861B8677
:1033A000EB85FC85E617F70709F483C0A980AA20FE
:1033B00069F0E92FF0E0311105C007E010E00E1BC5
:1033C0001F0BF801E859FE4FE0818E2B915008F059
:1033D00069C0882309F449C0122D180D18300CF06B
:1033E00044C0F701EC0DFD1DE038F105F0F5AD80AE
:1033F000BE808A9DF0018B9DF00D1124FA87E9872C
:1034000017FD16C0C60100E81003800D911D1124A0
:103410008E0D9F1D8E5D9D4FFC010081222319F0B2
:10342000F9850F2B03C0B984B0940B21FC010083F4
:1034300061147104D1F01730C1F01F3FB4F0C60120
:1034400000E81003800D911D11248E0D9F1D8E55D7
:103450009D4FFC011081222319F0FA851F2B03C018
:10346000EA85E0951E23FC011083AC80AA2019F0A8
:10347000BB24B3943B250FEF401A500A8A819B81ED
:103480004816590634F49FEFE91AF90A97E080E0EC
:1034900009C0EFEF2E1A3E0AE12CF12C97E080E0F4
:1034A000412C512C0B851C850F5F1F4F1C870B87F0
:1034B00077CFAA24A394B980AB18A982F5CE2C9615
:1034C0000FB6F894DEBF0FBECDBFDF91CF911F9135
:1034D0000F91FF90EF90DF90CF90BF90AF909F90B3
:1034E0008F907F906F905F904F903F902F900895B6
:1034F0008091200781110DC082E080931C0784E039
:1035000080931D0710921F0710921E0781E0809381
:1035100020078CE197E00895FC018485958597FD4F
:103520000BC09FB7F89482E08093E9008091F2008D
:103530009FBF90E0019608959FB7F89482E0809332
:10354000E9008091F2009FBF90E0089540917C07D0
:1035500050917D0720917A0730917B0742175307DE
:10356000B4F49091E8009570E1F39091E80092FD39
:1035700019C08093F10080917C0790917D0701969E
:103580008F739927892B19F48EEF8093E80080912F
:103590007C0790917D07019690937D0780937C072F
:1035A00081E0089580E00895DF92EF92FF920F93FB
:1035B0001F93CF93DF93D82E8A017B01E40EF51E73
:1035C000EB01CE15DF0571F0D7FE03C0FE0184913B
:1035D00001C088810E94A61A21968111F2CF8FEF37
:1035E0009FEF01C0C801DF91CF911F910F91FF9014
:1035F000EF90DF900895615030F02091F100FC01D0
:1036000020830196F8CF289884E6809320020895BD
:103610000F931F93CF93DF931F92CDB7DEB782E056
:10362000898342E450E060EA7EE080E80E94D41A98
:103630000E94781ADC0112960D911C9113970115C6
:10364000110569F0D801ED91FC910280F381E02D24
:10365000BE016F5F7F4FC801099597FF07C0898141
:103660000F90DF91CF911F910F910895F801008580
:103670001185E5CF1F920F920FB60F9211248F93F1
:103680009F938091E1009091E100937F9093E100FE
:1036900083FF0FC01092E90091E09093EB0010922D
:1036A000EC0092E39093ED001092210298E0909349
:1036B000F00082FF20C093E09093E9009091F20027
:1036C000992319F09AE39093E80090911E029923B0
:1036D00039F090911E02915090931E02992389F126
:1036E00090912002992339F090912002915090936B
:1036F0002002992341F184FF10C08091E2008E7E68
:1037000081608093E2008091E1008F7E8093E100F0
:1037100080911F028E7E806111C080FF16C0809153
:10372000E2008E7E80618093E2008091E1008E7ED7
:103730008093E10080911F028E7E816080931F0242
:1037400004C05D9ACDCF289AD6CF9F918F910F90CC
:103750000FBE0F901F9018951F920F920FB60F92E9
:103760001124CF92DF92EF92FF920F931F932F932A
:103770003F934F935F936F937F938F939F93AF93F9
:10378000BF93EF93FF93CF93DF93CDB7DEB76C97E3
:10379000DEBFCDBF1092E9008091E80083FFEDC14C
:1037A00068E0CE0145960E94FB1A82EF8093E80004
:1037B0008D8987FF05C09091E80090FFFCCF03C082
:1037C0009EEF9093E800982F907609F0C6C09E89EE
:1037D0002F89188D91110CC0803829F480917907B8
:1037E0008093F10002C01092F1001092F10048C1E4
:1037F000422F50E0512B913051F4811141C14130A1
:10380000510509F03DC1809179078D7F0BC0933040
:1038100061F4811135C14130510509F031C1809108
:1038200079078260809379072BC1953041F48091AC
:10383000E80080FFFCCF20682093E30021C1963090
:1038400009F05FC0EB8CFC8C1092E90010927D07B0
:1038500010927C07123091F510927B0710927A0734
:103860000E94081B99E0BE016F5F7F4FDB01E92FCB
:103870001D92EA95E9F799831A8391E09E8390EA75
:1038800098879AEF998720917C0730917D07275F71
:103890003F4F3C832B838D831092E90010927D076C
:1038A00010927C07F0927B07E0927A0749E050E0A3
:1038B00080E00E94D41A0E94081BE2C0F0927B07AD
:1038C000E0927A070E94781ADC011296ED90FC9043
:1038D0001397E114F10409F4C0C0D701ED91FC91F4
:1038E0000480F581E02DBE016B5E7F4FC701099515
:1038F000009719F00CF0C4C0C7C0F701E084F18450
:10390000E8CF973009F4C0C0983021F481E080936B
:10391000F100B6C0993009F0B3C0837009F0B4C0AB
:10392000E5E0F2E081E021E036E39081992361F067
:103930008093E9002093EB0091919093EC003093F9
:10394000ED008F5F873089F78EE78093EA00109251
:10395000EA008F898093210293C08B8D9C8D1092F9
:10396000E90010927D0710927C0790937B0780936B
:103970007A07898D811156C08E899D89913A59F4B3
:10398000813209F081C047E050E060E071E080E002
:103990000E94D41A75C0913209F076C0833289F43E
:1039A000888D90E0982F88272F89822BA0E0B0E0A7
:1039B0008093080190930901A0930A01B0930B0131
:1039C0005FC0803269F48091E80082FFFCCF67E03D
:1039D00080E091E00E94FB1A8BEF8093E80006C024
:1039E000823209F04DC08F8980930701809178075A
:1039F000882319F0EEEFFAE002C0E0E0F8E08091F1
:103A0000000190910101A0910201B0910301803B5E
:103A10009440A105B10509F07BC08091070180FFAA
:103A200093C076C00E94781ADC0112960D911C9109
:103A300013970115110541F1D801ED91FC91019009
:103A4000F081E02DBE016B5E7F4FC80109958111A9
:103A500017C0F80100851185ECCF113009F44EC074
:103A6000133091F48F89882309F445C0823081F4A2
:103A700040E860E184E09FE00E949A24882321F0DE
:103A80008EEF8093E80079C081E28093EB0075C0EF
:103A9000813029F440E86BE088EF9EE0EDCF833081
:103AA00099F70E94781ADC011296ED90FC9013971A
:103AB0008E010F5F1F4F6801E114F10479F0D70107
:103AC000ED91FC910680F781E02DB801C7010995C1
:103AD000080F111DF701E084F184EECFD8011C928C
:103AE000F60101900020E9F73197BF016C197D09BB
:103AF00040E0C601C1CF62EE7EE002C066EE7EE02D
:103B00006115710509F2FB01449150E080E840CF56
:103B10000FB6F894A895809160008861809360004A
:103B2000109260000FBEA895EE3F2AE0F20739F030
:103B30008091FE0A9091FF0A91838083A1CF109219
:103B4000FF0A1092FE0A9CCFEE3F8AE0F80731F0A0
:103B5000808191819093FF0A8093FE0A87E797E71F
:103B6000918380839BE088E10FB6F894A8958093B9
:103B700060000FBE9093600083CF6C960FB6F894F0
:103B8000DEBF0FBECDBFDF91CF91FF91EF91BF910F
:103B9000AF919F918F917F916F915F914F913F91E5
:103BA0002F911F910F91FF90EF90DF90CF900F908A
:103BB0000FBE0F901F9018950895FC018785DF01B7
:103BC000A80FB11D1C966C938F5F8787833079F4A3
:103BD000848591E0891741F02585291729F02685EC
:103BE000291711F0918308959F5F953099F70895F3
:103BF000FC01DB0118968C91189719969C91909571
:103C0000982384FF14C02689203118F42F5F268B57
:103C10000FC0F89487E78093000880930108A89567
:103C200088E18093600088E080936000FFCF168A6F
:103C300093FF05C0FB01EE58FF4F82E0808308959B
:103C4000FB01E75BFF4F118210823C9611821082CC
:103C50003C96118210823C9611821082339681E04C
:103C600080830895FC01DB0119968C91199780954A
:103C700018969C91892399F08281882311F08CE712
:103C80008283828181110BC081E0828380E48093F2
:103C9000900081E49FE09093990080939800928136
:103CA0009923C1F09F5F9283953059F09D3761F061
:103CB000923081F480E596E4909399008093980087
:103CC0000895109290000895FB01EE58FF4F81E097
:103CD000808308950895089521E048E251E160E06D
:103CE00070E08CE090E00E94CB1821E041EB5FE0B7
:103CF00063E270E080E090E00C94CB184F925F920A
:103D00007F928F929F92AF92BF92CF92DF92EF926B
:103D1000FF920F931F93CF93DF9300D000D0CDB7C6
:103D2000DEB729011C2DA02EB12C9C012A0D3B1DB4
:103D3000121613060CF0B3C1803891050CF0AFC118
:103D4000FB01EE0DF11D1E161F060CF0A8C160341C
:103D500071050CF0A4C14115510509F4A0C1E62F6D
:103D6000E770FE2EFB0177FD3796A3E0F595E7950A
:103D7000AA95E1F7AE2F77FF04C0FF2011F0AFEF57
:103D8000AE0F97FF05C0EE27FF27E81BF90B02C017
:103D9000E0E0F0E02038310524F020E8722E781AB7
:103DA00001C0702E7E1A6A2F0A2E000C770BAF3FCF
:103DB0001CF4D62ED09401C0D12C21E03E2D3770BA
:103DC00009F420E0E694E694E694E20E6E0D711D8F
:103DD000693071051CF028E0E22EEA1AED183D2D3D
:103DE0003A0FDC0120E83203A00DB11D1124AE0F03
:103DF000BF1FD09EE00DF11D11244E0F5F1F81E00B
:103E000090E04C010F2C02C0880C991C0A94E2F738
:103E1000133009F403C1A0F4113009F4B5C0123015
:103E200009F03DC18FEF889DB001899D700D11246F
:103E3000609570957C836B835C802E2D230F2BC047
:103E40001A3F31F01B3F09F02AC12E2D230F88C0E5
:103E50002E2D230F51C0FA01E00FF11FE491E89DD0
:103E60006001E99DD00C1124DA82C98237FD07C0B8
:103E7000FC01E080EE2DE623CE2AFC01C082F11089
:103E800013C00F5F1F4F0196071528F33F5F4A0DC0
:103E90005B1DA058BF4F321709F401C1CD018E5DE3
:103EA0009D4F00E010E0F0CF37305CF7FC01E058A8
:103EB000FF4FD080D520CA80DC28D082E2CFFA0123
:103EC000E60FF71FE491E89D8001E99D100D112494
:103ED0001A83098337FD04C0FC011081012B008384
:103EE000F11013C06F5F7F4F0196671540F33F5F7E
:103EF0004A0D5B1DA058BF4F321709F4D0C0CD0149
:103F00008E5D9D4F60E070E0F0CF37305CF78C0144
:103F100000581F4FF801E080EA81EE2AF801E082A4
:103F2000E1CFFA01E00FF11FE491E89DC001E99DA6
:103F3000900D11249A83898337FD05C08095FB017C
:103F4000908189238083F11014C00F5F1F4F6F5F32
:103F50007F4F071530F33F5F4A0D5B1DA058BF4FE1
:103F6000321709F49CC0BD016E5D7D4F00E010E08A
:103F7000F0CF373054F7FB01E058FF4F8A8180952E
:103F8000908189238083E1CFC2018E0F9F1F2E2D48
:103F9000230F321709F483C0BD016E5D7D4F6B01A5
:103FA00000E010E0071590F5FC01E00FF11FE4912F
:103FB000E89DB001E99D700D1124609570957C839A
:103FC0006B83FA01E00FF11FE491E89D2001E99D68
:103FD000500C11245A82498237FD05C0F6017081C8
:103FE0006723462A4082FF2059F037304CF4F6010F
:103FF000E058FF4F70816C8167237A81672B608363
:104000000F5F1F4FFFEFCF1ADF0ACCCF3F5F4A0D84
:104010005B1D8A0D9B1DA058BF4FBBCFC72CD12C59
:10402000E40FF51FAE5DBD4F60E870E06C197D09CF
:10403000AC18BD088501000F111F572D2E2DCF93F1
:10404000DF93ED01EF96EF962296A590C590FF20A5
:1040500059F0A89C5001C89C600137302CF4E880CE
:10406000D094ED20EB28E99233233AF0EC90C09401
:10407000EC20EA28ED920C943E2011965A9529F7EF
:104080002A9551F0572D33951124E00FF11DA60FFD
:10409000B11DC60FD11DD9CFDF91CF9111240F9043
:1040A0000F900F900F90DF91CF911F910F91FF9084
:1040B000EF90DF90CF90BF90AF909F908F907F90C8
:1040C0005F904F900895BC0180E090E00C94BA108E
:1040D0008FB18095807F669B88601C9B846008956B
:1040E000EFEEF2E190E1969FD001A0781124A80FA5
:1040F0006770E60FF11D9491AE5DBD4F442319F03A
:104100008C91982B03C090958C9198239C93089543
:10411000CB01BA018038910530F44034510518F4D0
:10412000422F0C9470200895EF92FF920F931F93EB
:10413000CF93DF93EC017B0121E04FE95FE061E188
:1041400070E08FE290E00E94CB1821E044E85FE04D
:104150006AE170E08BE290E00E94CB1821E044E835
:104160005FE06AE170E089E490E00E94CB188A8108
:1041700021E0811117C044E85FE06AE170E08AE362
:1041800090E00E94CB1821E04CE45FE06EE270E02A
:104190008AE190E0DF91CF911F910F91FF90EF9016
:1041A0000C94CB1841E35FE06AE170E08AE390E0B1
:1041B0000E94CB1821E045E15FE06EE270E08CE206
:1041C00090E00E94CB188A816FE00E94AC25C82F36
:1041D000C3700FE410E0D0E083E0E80EF11CDC17C0
:1041E00059F021E041E350E0B801C7010E94882066
:1041F000DF5F0E5F1F4FF3CFDF91CF911F910F91C4
:10420000FF90EF900895EF92FF920F931F93CF933B
:10421000DF939C01EB018B0100591F4FD8018C915A
:1042200090E001974CE0489FF001499FF00D112468
:10423000E60FF71FFF967901B9E1EB0EF11CD901EA
:1042400059961C9259975A9689E001900D928A9539
:10425000E1F7F90115A216A217A210A6D8018C91B8
:10426000813021F06FADC7010E94DD1DF801808112
:10427000823039F0FE01E55BFF4F6081C7010E948B
:10428000DD1DD8018C91833039F0FE01E95AFF4FD2
:104290006081C7010E94DD1DF8018081843061F0DA
:1042A000CD59DF4F6881C701DF91CF911F910F91E9
:1042B000FF90EF900C94DD1DDF91CF911F910F9136
:1042C000FF90EF90089582E296E00C943C11789470
:1042D00083E084BD83E085BD81E080936E00E1E8EA
:1042E000F0E083E08083E0E881E08083E3EC81E03C
:1042F0008083E2EC81E08083EAE787E08083806866
:104300008083109221021092790710921F028091EF
:10431000D70081608093D70080EA8093D80089B568
:10432000806189BD89B5826089BD09B400FEFDCF79
:1043300061E070E080E090E00E94BA108091D800C7
:104340008F7C80618093D8008091E000807F809393
:10435000E0008091E1008E7E8093E1008DE080930B
:10436000E200559A209AEEEFFFE7859194918B3FFA
:104370009C4D19F481E080937807109290008AE0B8
:10438000809391001092C00091E09093C1008FEF54
:104390008093D10081EC80937C0085B1806F85B9DA
:1043A00084B1877E84B984B1876E84B95E9A5F9840
:1043B0008AB1806D8AB9769A6E9881B3806F81BB1D
:1043C000899880B38D7080BB80E58CBD9DBD85E0F4
:1043D00090E00E9463205F9A85E090E00E94632055
:1043E0005E985C98E7E2FCE08DE08E0F94919EBDB4
:1043F00000000DB407FEFDCF31968E13F7CF5C9A07
:1044000081E88093640080916500816080936500FD
:104410000E94682087FF24C05C9885EA8EBD00005A
:104420000DB407FEFDCF5C9A2E982F982D988091A1
:10443000640080628093640081E083BF889513BE2E
:10444000FCCF2D980E9468208478843871F00E94F7
:1044500068208471843129F188EC90E00E94632007
:104460000E94682082FDEDCF38C02D9A88EC90E044
:104470000E9463202F9882E090E00E9433258F3FB6
:1044800029F06FEF82E090E00E943B2584EF91E0FD
:104490000E9463202F9A0E94682084788438D9F380
:1044A000D6CF2D9A88EC90E00E9463202E9882E06F
:1044B00090E00E943325882329F060E082E090E0BC
:1044C0000E943B2584EF91E00E9463202E9A0E9477
:1044D000682084718431D9F3BFCF2D9A82E090E0B7
:1044E0000E943325882331F03E9A3F9A81E08093E1
:1044F0001D0204C010921D023E983F9880916400F6
:104500008E7F8093640080917A00806480937A002B
:1045100080917A0086FDFCCFC0917800D09179001F
:104520000E94E8098E0120E030E098011127002761
:10453000600F711F821F931F611571058105910521
:1045400011F00E942A2580916400816080936400AC
:1045500080E180932C0610929406DD24D39402E22D
:1045600012E0D0E080E0E82E80E0F82ECC24C39466
:104570008FB7F8944091190250911A0260911B0272
:1045800070911C028FBF80912D06942F981B892F4C
:10459000C0912E06CC2329F090932F0610922E0660
:1045A000D3C090912C06891740F48F5F891708F0CB
:1045B000CBC0D3BE889513BEC7C0C0922E06409311
:1045C0002D06809128069091290601969093290640
:1045D0008093280680912A0680932B060E946820EB
:1045E00080932A068C2FF80181118FEF002481938C
:1045F0008193819381930394D1F7809194068230C3
:1046000009F43FC028F4882351F08130E9F08FC0CD
:10461000833009F453C0843009F46DC088C08091A0
:104620009306882321F0109224061092930662E2EA
:1046300076E08CEA96E00E94321E62E276E08CEA36
:1046400096E00E94942073C090919306913061F09F
:104650008093240662E276E085E996E00E94201EBF
:10466000809194068093930662E276E085E996E075
:104670000E94F81D62E276E085E996E00E946C1ED9
:1046800056C090919306923061F08093240662E2C6
:1046900076E08FEA96E00E945E1480919406809303
:1046A000930662E276E08FEA96E00E946C1462E282
:1046B00076E08FEA96E00E943D1339C09091930610
:1046C000933061F0809324061092EE06909191064B
:1046D0009093EF061092F7068093930662E276E0DD
:1046E00088ED96E00E94020A62E276E088ED96E0AC
:1046F0000E941A0C1CC090919306943061F0809334
:10470000240662E276E085E097E00E94BD09809190
:1047100094068093930662E276E085E097E00E943B
:10472000B10962E276E085E097E00E943B0EF80175
:1047300080E098E000800EBCD111012C019780FD33
:10474000FDCF0192B9F70DB4E114F10409F410CFD3
:104750000E9400000DCF10922B0710922A0788EEBE
:1047600093E0A0E0B0E080932C0790932D07A093F6
:104770002E07B0932F0784E791E090932907809349
:1047800028078FEF9FEF909335078093340710929F
:104790002A0610922B0680E180932C06109229069F
:1047A0001092280610922E0682E991E09093260638
:1047B0008093250610923C0610923B06E2E3F6E059
:1047C00090E288E08E0F91938E13FDCF10924806F1
:1047D00010924706EEE3F6E090E288E08E0F9193A8
:1047E0008E13FDCF1092540610925306EAE4F6E0C1
:1047F00090E288E08E0F91938E13FDCF10926006A9
:1048000010925F06E6E5F6E090E288E08E0F919365
:104810008E13FDCF8CE0E1E3F6E0A1E6B6E0019077
:104820000D928A95E1F78CE0EDE3F6E0ADE6B6E0B7
:1048300001900D928A95E1F78CE0E9E4F6E0A9E7B2
:10484000B6E001900D928A95E1F78CE0E5E5F6E09F
:10485000A5E8B6E001900D928A95E1F781E080939A
:1048600091068093920680E092E0909323068093D5
:10487000220685E996E00E943F1180EA91E090933C
:104880009606809395061092AB0680EE91E0909389
:10489000AD068093AC061092AE068FEA96E00E94B9
:1048A0003F1180EB91E09093B0068093AF06109299
:1048B000C5061092C7061092C6061092C906EAEC09
:1048C000F6E090E288E08E0F91938E13FDCF109268
:1048D000D4061092D5061092D6061092D70688ED0F
:1048E00096E00E943F1180EC91E09093D90680936E
:1048F000D80681E08093EE068FEF8093EF0610924A
:10490000F0061092FA061092F9061092FC06109228
:10491000FB061092FE061092FD0685E097E00E94CD
:104920003F1180ED91E09093060780930507109268
:104930001B070895CF92DF92EF92FF920F931F9380
:10494000CF93DF931F92CDB7DEB7182F062FE42E3B
:10495000862F880F8E5F99830E94A61A83E00E949B
:10496000A61AF12EC12E9981D92E8C2D8F19801760
:1049700098F4F601E7FE02C0849101C080810E9494
:10498000A61A182F80E00E94A61A8123FFEFCF1AE3
:10499000DF0A8111EACF01C081E00F90DF91CF9152
:1049A0001F910F91FF90EF90DF90CF9008958F921D
:1049B0009F92AF92BF92CF92DF92EF92FF92CF93EE
:1049C000DF93EC01688179818A819B816115710592
:1049D0008105910521F464E279ED8BE597E02DE105
:1049E00033EF41E050E00E94492549015A019B0103
:1049F000AC01A7EAB1E40E9468256B017C01ACEE32
:104A0000B4EFA50194010E947625DC01CB018C0D49
:104A10009D1DAE1DBF1DB7FF03C00197A109B04882
:104A200088839983AA83BB83BC01CD019F77DF91E3
:104A3000CF91FF90EF90DF90CF90BF90AF909F907D
:104A40008F9008950E94D72408958CE091E00E94F1
:104A5000D724089560930C0170930D0180930E018B
:104A600090930F010895F999FECF92BD81BDF89AF8
:104A7000992780B50895262FF999FECF1FBA92BDC8
:104A800081BD20BD0FB6F894FA9AF99A0FBE01962F
:104A90000895052E97FB1EF400940E94602557FD93
:104AA00007D00E947B2507FC03D04EF40C946025B0
:104AB00050954095309521953F4F4F4F5F4F08954A
:104AC00090958095709561957F4F8F4F9F4F08957A
:104AD0000E949D25A59F900DB49F900DA49F800DD1
:104AE000911D11240895B7FF0C9468250E94682534
:104AF000821B930B0895A1E21A2EAA1BBB1BFD017A
:104B00000DC0AA1FBB1FEE1FFF1FA217B307E407AC
:104B1000F50720F0A21BB30BE40BF50B661F771F04
:104B2000881F991F1A9469F76095709580959095E4
:104B30009B01AC01BD01CF010895A29FB001B39FBD
:104B4000C001A39F700D811D1124911DB29F700D96
:104B5000811D1124911D0895991B79E004C0991FAE
:104B6000961708F0961B881F7A95C9F780950895C7
:104B7000AA1BBB1B51E107C0AA1FBB1FA617B70783
:104B800010F0A61BB70B881F991F5A95A9F780959F
:104B90009095BC01CD010895EE0FFF1F0590F49193
:104BA000E02D0994CF93DF938230910510F482E0D9
:104BB00090E0E0918007F091810720E030E0C0E0D4
:104BC000D0E0309711F14081518148175907C0F06A
:104BD0004817590761F482819381209719F09B83CC
:104BE0008A832BC0909381078093800726C021156C
:104BF000310519F04217530718F49A01BE01DF017D
:104C0000EF010280F381E02DDCCF2115310509F1A0
:104C1000281B390B2430310590F412968D919C910C
:104C200013976115710521F0FB019383828304C002
:104C30009093810780938007FD01329644C0FD0167
:104C4000E20FF31F81939193225031092D933C93EE
:104C50003AC020917E0730917F07232B41F42091A9
:104C600012013091130130937F0720937E0720912A
:104C70001001309111012115310541F42DB73EB7D6
:104C80004091140150911501241B350BE0917E07D2
:104C9000F0917F07E217F307A0F42E1B3F0B2817B4
:104CA000390778F0AC014E5F5F4F2417350748F0A5
:104CB0004E0F5F1F50937F0740937E078193919320
:104CC00002C0E0E0F0E0CF01DF91CF9108950F93B3
:104CD0001F93CF93DF93009709F48CC0FC013297A8
:104CE000138212820091800710918107011511052E
:104CF00081F420813181820F931F20917E073091B2
:104D00007F072817390779F5F0937F07E0937E072F
:104D100071C0D80140E050E0AE17BF0750F41296C2
:104D20002D913C911397AD012115310509F1D90160
:104D3000F3CF9D01DA013383228360817181860F75
:104D4000971F8217930769F4EC0128813981260F98
:104D5000371F2E5F3F4F318320838A819B8193834E
:104D60008283452B29F4F0938107E093800742C0AA
:104D70001396FC93EE931297ED01499159919E0180
:104D8000240F351FE217F30771F480819181840F9E
:104D9000951F029611969C938E9382819381139610
:104DA0009C938E931297E0E0F0E0D80112968D91DB
:104DB0009C911397009719F0F8018C01F6CF8D9113
:104DC0009C9198012E5F3F4F820F931F20917E0789
:104DD00030917F072817390769F4309729F410922A
:104DE00081071092800702C01382128210937F07FE
:104DF00000937E07DF91CF911F910F91089581E07D
:104E000090E0F8940C940B27FB01DC0101900D92CB
:104E10000020E1F7089519E0CDE7D9E004C0FE01D4
:104E20000E94CC252196CE37D107C9F7F894FFCF41
:104E300000E1000000000000FFFFFFFF0100000094
:104E4000000082078000000000007E0F6011E5096D
:104E5000E40900000000C20E6011E509E409000049
:104E6000000000000000010A000A8B118B112201D2
:104E70000C01EC00C900AC00B5019F017F015C0191
:104E80003F010002F901F001E701DC01D201AA0CA7
:104E9000940C740C510C340C010204081020408056
:104EA00000000000AA171118CB17C0178C1ACF17D3
:104EB000ED17000000008B116011E509E409000006
:104EC0000000DC1D000000005F114D10000000001C
:104ED0003B114B10201E000AF81D6C1E0000000044
:104EE000391149105E14000A6C143D1300000000D3
:104EF00038114710A809000A020A1A0C0000000025
:104F000037114510BD09000AB1093B0E0000000031
:104F10003A1143106B1E000A321E9420000000005C
:104F200000000000010A000A8B118B110000000034
:0C4F30003C113D1100C180810000000018
:00000001FF
