:100000000C94710F0C94990F0C94990F0C94990FF8
:100010000C94990F0C94990F0C94990F0C94990FC0
:100020000C94990F0C94990F0C94B7250C942926D5
:100030000C94990F0C94990F0C94990F0C94990FA0
:100040000C94990F0C94990F0C94990F0C94990F90
:100050000C94990F0C94990F0C94990F0C9495177C
:100060000C94990F0C94990F0C94990F0C94990F70
:100070000C94990F0C94990F0C94990F0C94990F60
:100080000C9412170C94990F0C94990F0C94990FCF
:100090000C94990F0C94990F0C94990F0C94990F40
:1000A0000C94990F0C94990F0C94990FD610FC1086
:1000B0003C11111238123C124412110FA8AADA7620
:1000C000B9EAAB4A55A9EA5AAABAAE5255A5AAEF5F
:1000D000925655455D5DBBD53B77BBBBEE5C253B82
:1000E000757F2BA75657EB8A11110F88AA7295AB13
:1000F0006C7F2F55A9FBFF4FFD7FAE2F97AA5C5554
:1001000045DE4A95D29F5B9552AAFFD5B73AF5AD29
:10011000EC44D5553102110FB8B2A52E5739554AC6
:10012000E5AAE476A74AB9722AD552E5C2D0F5A766
:100130003E59D96AD5AB5EB5AB55AD4A3955ABDB47
:10014000D59611110F986DE972577D5D577D5D97BA
:100150003B6F658537E9739DAA5A757AD5A9D4B6E0
:10016000655D158600110FD8B295AA4A95B2CB6A83
:100170009BB2565676554A55252B1BD252AA6DEA8C
:100180007397FA744AB50D55110F283BD5EA7CAF29
:10019000AABA73AD5425AB3AF5F952A7A28B3C55D8
:1001A000EECA3A75D5AA77B5DD2AA72A59CE4616E2
:1001B00019110F282B994A2AE79454BDEA9C734ED3
:1001C000AE93A95485ACEA553BA74AB9524E5E4E50
:1001D000C94BAE3AB7EAAE9801110FD094ABE57AAD
:1001E000BB5D2E6B1DFE944C2B79B9CB6D2F7739EF
:1001F00025D30A49110F18B7CA2AABACB2EBEC529F
:1002000039E554AD4A5DD85A2AA79CAA55A9CB55C1
:1002100072ABACB2CA2A3B33110FA8AADA76B9EA9C
:10022000AB4A55A9EA5AAABAAE5255A5AAEF9256B8
:1002300055455D5DBBD53B77BBBBEE5C253B757F14
:100240002BA75657EB8A11110F88AA7295AB6C7FBA
:100250002F55A9FBFF4FFD7FAE2F97AA5C5545DEBA
:100260004A95D29F5B9552AAFFD5B73AF5ADEC44BB
:10027000D5553102110FB8B2A52E5739554AE5AA06
:10028000E476A74AB9722AD552E5C2D0F5A73E59FD
:10029000D96AD5AB5EB5AB55AD4A3955ABDBD59612
:1002A00011110F986DE972577D5D577D5D973B6F1A
:1002B000658537E9739DAA5A757AD5A9D4B6655D67
:1002C000158600110FD8B295AA4A95B2CB6A9BB297
:1002D000565676554A55252B1BD252AA6DEA73976E
:1002E000FA744AB50D55110F283BD5EA7CAFAABA6E
:1002F00073AD5425AB3AF5F952A7A28B3C55EECA23
:100300003A75D5AA77B5DD2AA72A59CE461619110E
:100310000F282B994A2AE79454BDEA9C734EAE935A
:10032000A95485ACEA553BA74AB9524E5E4EC94B1B
:10033000AE3AB7EAAE9801110FD094ABE57ABB5D47
:100340002E6B1DFE944C2B79B9CB6D2F773925D3AD
:100350000A49110F18B7CA2AABACB2EBEC5239E517
:1003600054AD4A5DD85A2AA79CAA55A9CB5572AB61
:10037000ACB2CA2A3B33090FFF7F8CFDFF6FC7DA8F
:10038000760B090FB7336F67DC6EB7636DBB05097A
:100390000FB7636DBBDD8EB5ED16090F70B49D719F
:1003A000BBDD8E45090FF0B7DD6EC722090F70B4B3
:1003B0001DE303081F051F1F151B1F11111F110E21
:1003C0001F15111F05011F111D1F041F001F001005
:1003D000101F1F041B1F10101F061F1F011F1F11BE
:1003E0001F1F05071F311F1F051B17151D011F01AB
:1003F0001F101F0F100F1F0C1F1B041B071C0719BA
:1004000015130C121E1F120C1E12120C121F0C1AA6
:1004100014041F052E2A1E1F021C001D00201D0093
:100420001F041A011F001E041E1E021E1E121E3E65
:10043000120C0C123E1E020614120A020F121E109B
:100440001E0E100E1E081E1A041A2E281E1A121630
:100450001F111F121F101D151711151F07041F173D
:10046000151D1F151D01011F1F151F17151F001733
:1004700000001000040404040E040229060A00000F
:1004800004083E09093E3F25251A1E2121123F215D
:10049000211E3F2525213F0505011E21293A3F0444
:1004A000043F213F21001021211F3F040A313F203A
:1004B00020203F02023F3F02043F1E21211E3F0930
:1004C00009061E21112E3F09093622252519013F53
:1004D00001011F20201F0F10201F3F10103F3B0461
:1004E000043B03043807312D2321102A2A3C3F24E2
:1004F00024181C2222141824243F1C2A2A2C043ECF
:1005000005014C52523E3F040438243D2000404037
:10051000443D3F081422213F20003E04043E3E0497
:10052000023C1C22221C7E22221C1C22227E3E0413
:100530000204242A2A12021F22201E20201E0E102E
:10054000201E3E10103E360808364E50503E322ACD
:1005500026221E29251E223F20003229292612216B
:10056000251A0C0A3F08172525191E2525180139BB
:1005700005031A25251A0629291E002F0000002030
:1005800000000229050200040400E0E0E0E0E0E0F1
:10059000E0E0E0C0C0C0C0C0C080808000000000BB
:1005A000000000000000000000000000000000004B
:1005B000000000000000000000000000000000003B
:1005C00000000000000000000000008080C0C0E0CB
:1005D000E0F0F0F8F8FCFCFEFEFFFFFFFFFFFEFC82
:1005E000F8F0E080000080C0E0E0FFFFFFFFFFFFC9
:1005F000FFFFFFFFFFFFFFFFFFFFFFFFFFFEF8F022
:10060000C0C0E0E0F0F0F8F8FCFCFEFEFEFEFEFCF0
:10061000F8F0E0C00000000080C0C0C0C0C0C0C092
:10062000C0C0C0C080808080C0FCFFFFFFFFFFFF14
:10063000FFFFFFFFFFFFFFFFFFFFFFFFFFFFFFFFCA
:10064000FFFFFFFFFFFFFFFFFFFFFFFFFFFFFFFFBA
:10065000FFFFFFFFFFFFFFFFFFFFFFFFFFFFFFFFAA
:10066000FFFFFFFFFFFFFFFFFFFFFFFFFFFFFFFF9A
:10067000FFFFFFFFFFFEFEFFFFFFFFFFFFFFFFFF8C
:10068000FFFFFFFFFFFFFFFFFFFFFFFFFFFFFFFF7A
:10069000FFFFFFFFFFFFFFFFFFFFFFFFFFFFFFFF6A
:1006A000FFFFFFFFFFFFFFFFFFFF3F3F3F3F3F3FDA
:1006B0003F3F3F3F3F3F3F3F3F3F3F3F3F3F3F3F4A
:1006C0003F3F3F3F3F3F3F3F3F3F3F3F3F3F3F3F3A
:1006D0003F3F3F3F3F3F3F3F3F3F3F3F3F3F3F3F2A
:1006E0003F3F3F3F3F3F3F3F3F3F3F3F3F3F3F3F1A
:1006F0003F3F3F3F3F3F3F3F3F3F3F3F3F3F3F3F0A
:100700003F3F3F3F3F3F3F3F3F3F602040404040F3
:1007100040404040808080808080000000000000D9
:1007200000000000000000000000000000000000C9
:1007300000000000000000000000000000000000B9
:1007400000000000000000000000000000000000A9
:1007500080804040A0A090D0C8E8E4F4F21A02C41F
:1007600068D020C00000000000008040F0C30F3FB0
:10077000FEFEFEFEFEFE3E3E3C7CFDFDFDF2CC108C
:100780006080008080404020A090D0C8E8E434041D
:1007900088D0A040800000000000000080808080A1
:1007A0008080808080000000000000807886F9FD55
:1007B000FEFEFF9F8FCFFFFFFFFFFFFF0700F0FF51
:1007C000FCF8FFE2C56A14C8E6910C88FFFFFFFC45
:1007D000F0430F3F3F3F3F3E3E3E3F7F7F7F7F7F67
:1007E0007E79670A760F9F7FFFFFFFFFFF0F00E014
:1007F000FFF1F3FE8D9AF42810CC321930C0061E9A
:100800007EFCFCFCFCFDFD7D7D79F9FBFAFBE69DA1
:100810002AD52B979F9FCFCFCFE7E7C1801E30709F
:10082000FF8F0731F8FEFFFF9F0F0F9F3F1F0F2322
:1008300031381E171331313B3F3F3E3E3E262202E8
:1008400026142A142A353E1F1F1F0F0F03003C23B6
:10085000313F1F0F23313C3E3F3F1E1C3E3F3F3E7A
:100860003821071F3F3F3F3E3C3C3C3F3F3F3F3F1F
:100870003E3C310A152F3F2F0F0F0F1F3F3F3E3CCD
:100880003831230608030F3F1F1F3F3F546F746129
:100890006C001317B665D3E9743A9D4EA7D3E9747B
:1008A0003A9DCEE7ADF7F090E7CBA7D3E9743A9D38
:1008B0004EA7D3E9743A9D8D167220008040209097
:1008C00010881020C0E01008E4E4F2F28408707C84
:1008D0000285F9FDF9F204089048C8C81020C080CC
:1008E00000000080404040808000008040202020A8
:1008F00040808080404040800000000000008080F8
:100900008080000000000000008080000080808067
:10091000000000000000C0201048A464E40810E0BB
:100920000000808080000000000000000007083008
:10093000458A172F5FFCC08000FFFFFFFF0F3FFEBF
:10094000F8C0C01FFFFF7F01000850F1F2E10482F0
:1009500054FCF13219CC0E16AE5CFC310100AAD564
:10096000FF7F0C8CCC0C1CFAD4E8010642A9D129DB
:1009700014183C78F9F9F2E40402A954FCF1793432
:100980003834994224180080780502A8FC1D08A27A
:10099000D3E9F13934383439190264588000000041
:1009A000000000010618E10215AFF8FFFFFF0F007D
:1009B000F01823479F3F1F2A950000AA55FFFF010B
:1009C000000055FFFF7E00817F40803D7F00209525
:1009D0002A3F9F40207F80007F7FFF7F2080152F50
:1009E0007EE6E6E3E3E3F1793D1C0054AAFD7F01D6
:1009F000807E01010000000000FF000055AA7F7CFE
:100A0000000303A363A767A767A77FBF1E0EC031BC
:100A10000E000000000000000003040404090404A8
:100A200002010000000000010101010204080904A4
:100A3000040201010204040201000000000102029C
:100A40000100010100000000000102020402010097
:100A50000102040404040404040201010102040468
:100A60000201000000000000000000000102040478
:100A7000020201010204040409080404040402013E
:100A80000000001D600000000000FF000EFEFCFCE6
:100A9000F9F9F3F3E7E7CFCF9F9F3F1F9FCFC767DA
:100AA000F3390000000000003FC00FFFFFFFFFE32D
:100AB000C3C7FFFFFFFFFF80003FF9F0F8FFFE0014
:100AC000000000000000010205050B1317A76FDFEF
:100AD0005FBF3F7F7F00005FB341A1570000000070
:100AE000000000000000806018C6F1FEFFFFFEFD60
:100AF000F9F9F4FAFDFEFD3E0700000000000000D9
:100B000000000E112447A37373D39393F1F9F9F9FD
:100B1000F9E9E4E4743C000000000000000000007B
:100B20000000000001814225ABD64C24273379FC1C
:100B3000FCFE3F000000000000000000000000007C
:100B400000FF001CFCF8F9F1F2E2E6CFCF9F9F3FD7
:100B5000000000000000000000000000000081FE16
:100B6000801FFFFFFFFFC7878FFFFFFFFF00000011
:100B70000000C030CCF2FAFDFD7D7DFEEAD7AC5B13
:100B8000AB5727AF4F9F3FBF7F7F00C0308CE3F84C
:100B9000FFFFFFFFFFFCFCFEFFFF7F7F1F0360FCEA
:100BA000FFFFFEFFFE850E0708122351B9A949C9B0
:100BB00059787CFCFCFCF07272329E9C183163C741
:100BC0008F1F3F7F00000000008040211255CA2483
:100BD000121BB9FCFEFEFF9F0F0F9FFEFEFCFDF8EF
:100BE000C81D6039F367C7CF9F1F3F9F9FCFCFE7D7
:100BF000E7F3F3F9F9FCFCFE0E00FF000000000033
:100C0000FEFFF8F0F93F0080FFFFFFFFFFC7C3E3DF
:100C1000FFFFFFFF0FC03F00000000000057A14191
:100C2000B35F00007F7F3FBF5FDF6FA717130B0528
:100C300005020100000000000000073EFDFEFDFA75
:100C4000F4F9F9FDFEFFFFFEF1C618608000000018
:100C5000000000000000003C74E4E4E9F9F9F9F94F
:100C6000F19393D37373A34724110E000000000087
:100C7000000000003FFEFCFC793327244CD6AB2556
:100C800042810100000000000000000000000000A0
:100C9000003F9F9FCFCFE6E2F2F1F9F8FC1C00FF86
:100CA0000000000000000000000000000000FFFF46
:100CB000FFFF8F87C7FFFFFFFF1F80FE810000003F
:100CC00000000000000000000000007F7FBF3F9F89
:100CD0004FAF2757AB5BACD7EAFE7D7DFDFDFAF247
:100CE000CC30C000000000000E85FEFFFEFFFFFCC0
:100CF00060031F7F7FFFFFFEFCFCFFFFFFFFFFF88D
:100D0000E38C30C0007F3F1F8FC76331189C9E3239
:100D10007272F0FCFCFC7C7859C949A9B9512312C4
:100D20000807C8F8FDFCFEFE9F0F0F9FFFFEFEFCAC
:100D3000B91B1224CA551221408000000000004A4D
:100D4000280000000000000000000000F80402AAD3
:100D500052E40810602834020955A9F234C804127C
:100D6000AA3204C870209010904888C888C8902083
:100D7000F0080452EAF204083020202040800000ED
:100D80000000000000000000000000000000000063
:100D900000000080800007F8000255FFFE0E0ECF15
:100DA00027E70707FFFF0700A8F5FE7F870068F524
:100DB000FA8502790103FFFFFFF80700A855FF0736
:100DC00007E70607FEFDAA0401F28C800000000080
:100DD000000000000000E01804E2F9F19914183155
:100DE00029B16932944AA7C6A4C5A6C8891224CBE2
:100DF0000C885227339814931C203373E7662B9B7F
:100E0000499F379F943852A593188C4F88489F2745
:100E100062F9F199141831293169D2A40810E0E07F
:100E2000110AA4C9A3C7A7A74B160EB9C0863F7F56
:100E3000F9E0C4CCCCE1E1F0FE0301A854FA85024C
:100E400079780186FDFA0F0050AAF51F07E3130910
:100E5000F8FCF7B1369A999B8F6FEE0011EFA74B14
:100E6000160E94ACDCF0020DF0000102040913131D
:100E7000131327272713131309060409090909095E
:100E80000404020102040913132726262713130959
:100E900006040912090402010102040913112325A1
:100EA000121112090C1213131327272713131308F7
:100EB000040300451FA8E4D974BA5DA954AEDB95BC
:100EC000CE5DAA2A5595BB74EA9395ACD4A753A9D5
:100ED00076A552E9743A9D52A5D329553AA54AA55B
:100EE00052A9DCA5D3A9543A9D4EA7D3C94A56B2FC
:100EF0009295AC64252B59C94A56B29295AC64259B
:100F00002B9D4EA7D3F9BCE4F55C952DE5F2F9D9FC
:100F1000F2E974325BBB74BA76E974253BD7C974C5
:100F20003ABDAD6465A353369D8D363C79F4E73503
:100F30009E3CAFA79233A55AA95257B5AA6CDF3B86
:100F4000D5BD74E7ACB3CE2A9D4EA7D3E9A47252A7
:100F50004977E974B676FF2EBF0F5FDA877E8F2858
:100F6000CF2B7DCBCA5D4A55AA72D7AE9295AC64A1
:100F7000E52E77C94A56B292A554C9AA5DB94B5617
:100F8000B29295AC5DED2A59C94A56B29295AC64BD
:100F9000EDAABE5EE52E9D4EA7D3E94A56B29295C4
:100FA000AC64252B59C94A56B29295AC64252B994D
:100FB0004EA7D3E974B62525451FB6810E4A6F3D6D
:100FC00078220F9EC8DB75A083B24C712768B3D915
:100FD0006CE73AD7C97C3E2C2DB3D94E7575B95BF9
:100FE000A97C5EA1359BCD762EDDC97C3EEC2ED34F
:100FF000D94E752E95EA55AF7AD5ABDE75AE739D99
:10100000EB643A9F4FA783379597BEB255E5AAF296
:101010005BAD64AB739DEB54BBFA7FABE4B9546C2E
:10102000695BB9943BD5B954AABFD5AD6E752BA5F4
:101030004B754C9DAAAE6A9DDF2A752B554A253B00
:10104000955318F38C555D55576C76FBF694BAD5CD
:10105000AD3EA7ACD2A99D5C75AA924A756A97EA83
:101060004AADB2D96CA73A974AF57775EA5BDD4A83
:10107000F5AA779DEBA492D974BA539D4B75EABB40
:1010800052BDEA55EF3AD7B94EE6F3F1E7355F5571
:10109000958DD339A93E75A9539FFAD4AB96CA3220
:1010A00011565D5513DA88ECB9CEB5D65B9FE6AB29
:1010B000AAE24BFBBCD4F9743E62CF587555CDC73C
:1010C00027CFA5F3D995525355571591534495AB56
:1010D000AA72151561D55535A18DC89EEBDC77FD3B
:1010E000AB4EEEA872E52A9BEDECAA942AA59C9241
:1010F0004A2AA96EF5A9AD522A9F522B159E9CCF64
:10110000A77255A972973A9BCD2924EDF3B94F5692
:101110007695CAA5BA5275DDEA94BAD5AD6E75A9B1
:10112000CB5DEE52F727D7F9D4A7D4AD6E757FEA21
:10113000B3D9E4ECCAE757B9AA545D9752E52E77C4
:10114000B9CB5DF27297BADCE52E757FAA734A3B84
:101150005FD9AA6ABB564EE652256F77B95B9D529E
:10116000B7BAD5A52E77B94B9D533AB56A75BBCBA7
:10117000DDEE56A73EF5AD4E7DABABFEBE94AA5557
:1011800036B91B6C533A9FCE061D027127D896CAFA
:10119000392595545249E7A4B2EB4895734A6ED36A
:1011A000E9747AABA47352A12FBB54CE29A9A4929F
:1011B0004A2AE99C54761D1295734A6EB7DBED7688
:1011C000BBDD6EB74A2AA9A473CE4965B7DB753A71
:1011D000F85149BC6E1592D3DB6D3A1DFAD34B041E
:1011E000A1391D7E73FD29E7B6DB743A9D4EA7D366
:1011F000DBAD924A2AA9E476BB4DA7D3DBED76ABF3
:10120000A4924A3A27955DE7B7584EAF83EFA49270
:10121000CAAE23C2AF72520DF3AAF8D2CE4965D737
:10122000D167974A2AC7B955D239A9EC76BB5D87F1
:10123000D6EC524965B7EB743ABB5D2AE7949C4DF6
:1012400049E7EC3A7467B7EBA0A7EC761DDAB34B2D
:10125000E5E0BA743A1DB4974EA7435F7ABB555286
:10126000492595DC469B4EA743673A9D4EA7D3E997
:10127000743AB401F0F8F8FCFCFCFCFCFCFCFEFE4B
:10128000FEFEFEFEFEFEFFFFFFFFFFFFFFFFFFFF74
:10129000FFFEF80000000000000000000000000059
:1012A000000000000000000000C0E0F0F0F0F0F0EE
:1012B000F0F0F0F0E0C000000000F0F8FCFEFEFEF0
:1012C000FEFEFEFEFEFEFCF8000000000000000036
:1012D0000000000000000000000000001FFFFFFFF2
:1012E000FFFFFFFFFFFFFFFFFFFFFFFFFFFFFFFF0E
:1012F000FFFFFFFFFFFFFFFFFFFFFBF8F8F8F8F825
:10130000F0F0F0F0E0C0C0C0C0C0C0C0C0C0C0C0FD
:10131000C0FFFFFFFFFFFFFFFFFFFFFFFFFF00001A
:10132000000003FFFFFFFFFFFFFFFFFFFFFFFFFFC7
:10133000FEF0F8F8F8F8F8F8F8F8F8F8F0F0F0E05F
:10134000C080000000017FFFFFFFFFFFFFFFFFFFE6
:10135000FFFFFFFFFFFFFFFFFFFFFFFFFFFFFFFF9D
:10136000FFFFFFFFFFFFFFFFFFFFFFFFFFFFFFFF8D
:10137000FFFFFFFFFFFFFFFFFFFFFFFFFFFFFFFF7D
:10138000FFFFFFFFFFFFFCFCFEFEFFFFFFFFFFFF75
:10139000FFFFFFFFFFFFFFFFFFFFFFFFFFFFFFFF5D
:1013A000FFFFFFFFFFFFFFFFFFFFFFFC0000000745
:1013B000FFFFFFFFFFFFFFFFFFFFFFFFFFFFFFFF3D
:1013C000FFFFFFFFFFFFFFFFFFFFFFFFFFFFFFFF2D
:1013D000FFFFFFFFFFFFFFFFFFFFFFFFFFFFFFFF1D
:1013E000FFFFFFFFFFFFFFFFFFFFFFFFFFFFFFFF0D
:1013F000FFFFFFFFFFFFFFFFFFFFFFFFFFFFFFFFFD
:10140000FFFFFFFFFFFFFFFFFFFFFFFFFFFFFFFFEC
:10141000FFFFFF0F00000000017FFFFFFFFFFFFF46
:10142000FFFFFFFFFFFFFFFF1F3F7FFFFFFFFFFFEC
:10143000FFFFFFFFFFFFFFFFFFFFFFFFFFFFFFFFBC
:10144000FFFFFFFFFFFFFFFFFFFFFFFFFFFFFFFFAC
:10145000FFFFFFFFFFFFFFFFFFFFFFFFFFFFFFFF9C
:10146000FFFFFFFF7F7F7F7F3F3F3F3F7F7F7F7F8C
:101470007F7F7F7F3F3F1F0F0703010000000000B9
:101480000000010303070707070703030303010025
:101490000000000000000101010101010101010142
:1014A00001010101010307070707070707070707EE
:1014B00003010307070707070707070703010001E1
:1014C00003070707070707070703010000000000DD
:1014D000000000000000000000000000000000000C
:1014E00000000000683000E01010884888488848F4
:1014F00088C4A4C4A4C4A4C4A4D2E2D2E2D2E2D2D6
:10150000E2020CF0000000000000000000000000FB
:1015100000000000000000000000000080402020CB
:10152000202020202020C0000000000000E0100843
:1015300004A444A4C4E40408F00000000000000077
:101540000000000000000000000000000000000F8C
:10155000F0000A55AFFFFFFFFFE3030339292929F4
:101560002929A995949494242422921190909090E2
:1015700090A020202040808080808080808000801B
:1015800080808080FF0000AA55FEFFFF0000FF0062
:10159000000000000001FE0000AA55FFFFFFFE0052
:1015A00003FC8040201010901090909090202020FC
:1015B0004080000000000000003FC0002A55BFFF2F
:1015C000FFFFFF1F1F9F9F9F4F4FCF0F0F4FA7D0B2
:1015D000FAFD3E0F0763534971030757FEFEFC00F7
:1015E000A854F8F4F800C3F0F874F8F4F8F0E00A3E
:1015F00055FFFFFF00007F2010088844A4D2E3704D
:101600003012A57FFFFFFFF8008351A8F4FA3D0ECA
:101610000723333303875FBEFCF80106F8000000A0
:10162000000003FC0001AA57FFFFFFFE80007F803F
:1016300000E01805A250E8F4FC7E3E1E8ECEE626A1
:101640000686FFFFFFFFFF000A55FFFFFFFFFF03B6
:1016500000F81013F30303A855FFFFFFF0F0F8F4B0
:10166000FAEDCE0733518804F8000255ABFFFFFFB7
:1016700000FAFDFFFF0F0767676627068746A7C7C3
:10168000470310E807000000000000003FC00015FD
:101690002A7F3F3F3F20008F7001060810254F4FE3
:1016A0004F9E9C9D9D9C9C4E4D8E9F9F9F9F9F807B
:1016B0000005AB5FFF7F7F780007F800FF00002A7E
:1016C000557F7F7F0100F81123478E3D3A742851E2
:1016D00023400005EA272F2F2F1009131717162470
:1016E0002E2C2E25261311080402010000000000F4
:1016F00000000000000001020202020101010100DD
:1017000000000000000000000000000000000000D9
:1017100000000000000000000102020202020202BA
:1017200002010000000102020202020202010000A6
:10173000000000010202020202020101000000009A
:101740000000000000000000000000000000000099
:101750000000000000007E6F667E005475726E7E91
:1017600000546F74616C005475726E00526F6C6C33
:10177000001317B665D3E9743A9D4EA7D3E9743ABE
:101780009DCEE7ADF7F090E7CB57325DC97425D316
:10179000954C57325DC97425D3958B28321B0FB6F3
:1017A00065D3E9743ADDB9B6E77297EA95D46D5D11
:1017B000A74AE9DCA54AB95AA7D3E97C5EFB7C2598
:1017C000D3954C57325DC97425D3954C57325DC9BA
:1017D0007425D3954C57325DC96CB6731B0FB66533
:1017E00053555D7555D55557555D7555D555575557
:1017F0005D7555D55557555D7555D55557555D751D
:1018000055D55557555D7555D55595D73E5FC96426
:10181000553259954C56259355C964553259954CB6
:1018200056259355C964553259954C5625B3D9CE92
:10183000011B0F9C3A1B6D3ADA74B4E968D3D1A648
:10184000A3CDC7A498F2D1A6A34D479B8E361D6D9C
:101850003ADA6C6C1B0FB665D3E9743A9D6E7B5710
:10186000EAD629A97A2575E7DAEACEB5D5E9743A38
:101870009FD73E5FC97425D3954C57325DC97425F7
:10188000D3954C57325DC97425D3954C57329BED97
:101890001C1117DCCCE968D3D1A643D1FF30D08F1F
:1018A000A274B4E968D361091117B731557555AE03
:1018B000AAAB72555D95ABEAAA5C5557E5AABA2A60
:1018C00057D555959EB6AAAEAAABEAAABAAAAEAAB1
:1018D000ABEAAABAAAAEAAABEAAABAAAAE2AC2755B
:1018E00068CF6E01111754CF176D3ADA74B431F71F
:1018F0007F50D0C71C6D3ADA74B4B1031117943C11
:101900009B4DA7D3E9743A9D4EA7D3F97C9ECB8714
:10191000764F984FA7D3E9743A9D4EA7D3D9680163
:101920001117943C5B369D4EA7D3E9743A9D4E67E0
:101930002B799ECBFBD0EC3D613E9D4EA7D3E97445
:101940003A9D4E67A3050000001414142A2A0014BF
:1019500028001428001ED5F08D14A1C881CFD9F11C
:10196000AF2000110FA8AADA76B9EAAB4A55A9EA66
:101970005AAABAAE5255A5AAEF925655455D5DBB1F
:10198000D53B77BBBBEE5C253B757F2BA75657EB52
:101990008A11110F88AA7295AB6C7F2F55A9FBFF96
:1019A0004FFD7FAE2F97AA5C5545DE4A95D29F5BCF
:1019B0009552AAFFD5B73AF5ADEC44D55531021191
:1019C0000FB8B2A52E5739554AE5AAE476A74AB909
:1019D000722AD552E5C2D0F5A73E59D96AD5AB5E79
:1019E000B5AB55AD4A3955ABDBD59611110F986D96
:1019F000E972577D5D577D5D973B6F658537E9736C
:101A00009DAA5A757AD5A9D4B6655D158600110FC1
:101A1000D8B295AA4A95B2CB6A9BB2565676554A29
:101A200055252B1BD252AA6DEA7397FA744AB50D4D
:101A300055110F283BD5EA7CAFAABA73AD5425AB3C
:101A40003AF5F952A7A28B3C55EECA3A75D5AA775A
:101A5000B5DD2AA72A59CE461619110F282B994A07
:101A60002AE79454BDEA9C734EAE93A95485ACEA20
:101A7000553BA74AB9524E5E4EC94BAE3AB7EAAE95
:101A80009801110FD094ABE57ABB5D2E6B1DFE94CF
:101A90004C2B79B9CB6D2F773925D30A49110F1803
:101AA000B7CA2AABACB2EBEC5239E554AD4A5DD8BB
:101AB0005A2AA79CAA55A9CB5572ABACB2CA2A3BED
:101AC000330907D3DB4A76AE9297AB6C363A0907F7
:101AD000547659B94E56AE9695CDC7051317B665CF
:101AE000D3E9743A9D4EA7D3E9743A9DCEE7ADF79A
:101AF000F090E7CBA7D3E9743A9D4EA7D3E9743AA7
:101B00009D8D1649636F6E7E7E4E616D6500506CD3
:101B1000617965727E004E756D6265727E6F667E5C
:101B2000706C61796572737E3F200020079D733A67
:101B30001DD9B273979C4DB9ED5A7139D739272702
:101B400073CE713999DD3A32E59CEB5CCD050D0F12
:101B5000929DAB64E72AD9B94A76AE929DAB64E711
:101B60002A598CD145175D74D1450A4D079DAB9D0F
:101B7000B2B1395749272B2EE76AD791652F579372
:101B8000652F57E3CAB9DA291B9B734EA723536EFF
:101B9000BB565C6B25959B7ED9B94B4EE66476EBC4
:101BA000709476CEB9BC72DBB5E272AE76CAC6E688
:101BB0005CED3A070D0FD5E594BC9C929753F272F9
:101BC0004A5E4EC9CB2979E5955452492595545220
:101BD0004925955452492515192307524E2AA9A47F
:101BE00053B8954ED9D099554E9265959354683017
:101BF00000E0101088488848884888C4A4C4A4C459
:101C0000A4C4A4D2E2D2E2D2E2D2E2020CF00000FA
:101C100000000000000000000000000000000000C4
:101C200000000000000080402020202020202020F4
:101C3000C0000000000000E0100804A444A4C4E4B4
:101C40000408F00000000000000000000000000098
:101C50000000000000000000000FF0000A55AFFF78
:101C6000FFFFFFE30303392929292929A995949422
:101C70009424242292119090909090A020202040B3
:101C80008080808080808080008080808080FF00D5
:101C900000AA55FEFFFF0000FF0000000000000149
:101CA000FE0000AA55FFFFFFFE0003FC804020104D
:101CB0001090109090909020202040800000000014
:101CC0000000003FC0002A55BFFFFFFFFF1F1F9FFE
:101CD0009F9F4F4FCF0F0F4FA7D0FAFD3E0F0763C7
:101CE000534971030757FEFEFC00A854F8F4F800AE
:101CF000C3F0F874F8F4F8F0E00A55FFFFFF0000B5
:101D00007F2010088844A4D2E3703012A57FFFFF23
:101D1000FFF8008351A8F4FA3D0E072333330387FD
:101D20005FBEFCF80106F8000000000003FC0001A3
:101D3000AA57FFFFFFFE80007F8000E01805A25039
:101D4000E8F4FC7E3E1E8ECEE6260686FFFFFFFFF1
:101D5000FF000A55FFFFFFFFFF0300F81013F30316
:101D600003A855FFFFFFF0F0F8F4FAEDCE0733516A
:101D70008804F8000255ABFFFFFF00FAFDFFFF0FDC
:101D80000767676627068746A7C7470310E8070067
:101D90000000000000003FC000152A7F3F3F3F20A9
:101DA000008F7001060810254F4F4F9E9C9D9D9CF3
:101DB0009C4E4D8E9F9F9F9F9F800005AB5FFF7F36
:101DC0007F780007F800FF00002A557F7F7F010021
:101DD000F81123478E3D3A74285123400005EA2725
:101DE0002F2F2F100913171716242E2C2E252613EC
:101DF00011080402010000000000000000000000C3
:101E000001020202020101010100000000000000C5
:101E100000000000000000000000000000000000C2
:101E2000000001020202020202020201000000019F
:101E3000020202020202020100000000000102028E
:101E40000202020201010000000000000000000088
:101E50000000000000000000000000000000000082
:101E60000102040810204080080B00020202010059
:101E700009040000010202000005240010010524ED
:101E8000010101042402060524060001070581035F
:101E900010004009040100020A00000007050202C8
:101EA00040000007058302400000040309041201FA
:101EB0000002EF02014041233680000101020301CC
:101EC00041726475696E6F204C4C430041726475B9
:101ED000696E6F204C656F6E6172646F0000CD2A71
:101EE000592811241FBECFEFDAE0DEBFCDBF12E0CC
:101EF000A0E0B1E0E2EAFCE502C005900D92AC3250
:101F0000B107D9F727E0ACE2B2E001C01D92A13CD5
:101F1000B207E1F71FE0C0E7DFE004C02197FE0150
:101F20000E94052DCF36D107C9F70E945D280C9479
:101F3000442E0C940000FC01178ADB01A259BF4F0C
:101F40008C91808F10A20895DC01FB019185909502
:101F500080859823868180FD14C057968C91579771
:101F60008F5F09F480EA57968C93579758968C9117
:101F700058978150803A19F058968C9302C0589621
:101F80001C9293FF04C0EF58FF4F81E080830895B7
:101F900023E824BD2FEF27BD21EF2093800010926E
:101FA000880010928A0020EAFC01278B108E089589
:101FB000FC01DB0119969C911997909518968C91CC
:101FC0009823808D8F5F813310F4808F01C0108E35
:101FD000818D8F5F813310F4818F01C0118E828DCE
:101FE0008F5F813310F4828F01C0128E93FF10C077
:101FF00083E884BD8FEF87BD81EF809380001092CE
:10200000880010928A00FB01EF58FF4F85E0808323
:1020100008950F931F93CF93DF93EC01FB01E259D7
:10202000FF4F80817A9791E020E03CE0981790F490
:10203000DB01329FA00DB11D1124A85BBF4F0081B1
:1020400011814D915C91401751070CF4292F9F5F2E
:102050003C96ECCF2F8BDF91CF911F910F9108957C
:10206000089580E090E00895A1E3B2E02FB7F894DE
:102070007D918D919C9166B52FBFA89B05C06F3F48
:1020800018F47F5F8F4F9F4F22E0660F771F881FE6
:10209000991F2A95D1F7089508950895EF920F9307
:1020A0001F93CF93DF93FC016A3039F485818483D9
:1020B00096818185890F86834FC084816E3719F49C
:1020C0008E5F848349C0262FEF0166816F5F2A33BC
:1020D00074F42033F4F42B32F1F01CF42132F9F0D3
:1020E00030C02D32A1F12E3261F52FE319C02B350E
:1020F00044F4213464F42A3381F02F3311F522E4BF
:102100000FC09FE9920F9A31E0F4275409C021547F
:1021100007C02C5F05C021E403C023E401C02EE307
:102120003F81062E000C770B082E000C990B3130E6
:1021300081F44AEFE42E00E010E042EB53E00E940D
:10214000201E88858D5F9C81890F8C8305C020E4CB
:10215000E7CF3BEFE32EEFCF81E090E0DF91CF912F
:102160001F910F91EF9008958F929F92AF92BF921F
:10217000CF92DF92EF92FF920F931F93CF93DF9353
:10218000EC01DB0119969C911997909518968C910A
:102190009823EF894E2F50E04730510508F08FC14A
:1021A0008B01FA01EA5AFF4F0C94052D888D8F5F41
:1021B000888F1BA21AA21DA21CA21FA21EA291E020
:1021C0009F8B082E000C990BFB01E259FF4F2081D9
:1021D00030E08217930724F0188E88A18F5F88A3C0
:1021E000FE01B896CE018E9621E0DF011E972C935A
:1021F0001192E817F907C9F77E014AE1E40EF11CD4
:102200006E0160E2C60ED11C86E0882E912CA12CB6
:10221000B12CF7018081882369F00E945E2CA50112
:1022200094010E94822CDC01CB010196A11DB11DFD
:10223000F7018083FFEFEF1AFF0AEC14FD0449F762
:1022400061E0CE010E94921B9FA38EA3892B19F0FF
:10225000198E82E00BC1888D4CE08402000D111DA7
:102260001124F801E85BFF4F80819181845F9140E8
:102270009183808385E0D2C095FF10C0898D813025
:102280006CF087301CF0873019F008C0815005C011
:102290002AA13BA1232B11F086E0898F96FF1CC059
:1022A000898D853041F024F487FD16C08F5F13C0FF
:1022B000863039F011C02AA13BA1232B69F086E0BA
:1022C0000AC04AA15BA12CA13DA1240F351F2C32CD
:1022D000314010F087E0898F94FF31C0898D8330C1
:1022E00059F02CF487FD2BC08D5F898F28C0843076
:1022F00061F08530C1F023C02AA13BA1232B59F105
:1023000086E0898F97FF2FC02AC02AA13BA1232BEB
:10231000B9F72CA13DA12C323140E8F087E0898F3C
:1023200097FF21C01EC04AA15BA12CA13DA1240F93
:10233000351F2C32314090F7452B11F70CC097FF19
:1023400012C0898D863059F01CF4833034F40BC0F0
:10235000873039F008C097FF06C0835003C083E080
:1023600001C085E0898F93FFAAC0898D863089F1ED
:102370001CF487FF1BC0A3C0873009F0A0C0888D64
:102380004CE08402000D111D1124F801E85BFF4FA1
:102390002AA13BA18CA19DA1820F931F2081318195
:1023A000820F931F9183808383E038C0FE01E80F82
:1023B000F11D87FDFA95828D882321F090A581E09B
:1023C000892780A760E0CE010E94921B9BA38AA36D
:1023D00076C0FE01B896CE018E962191222319F087
:1023E000DF011F971C92E817F907B9F7FE017A96EB
:1023F000CE018096219121115FC0E817F907D1F72E
:1024000086E08F8B19A22CA13DA18AA19BA1820FEE
:10241000931F9DA38CA31BA21AA251C08F8B19A23C
:102420004EC0992311F088E289A389A1883298F1DE
:102430001DA21CA21BA21AA2F801E259FF4F408163
:10244000288D022E000C330B842F90E00197281763
:10245000390749F488A18A3031F4F801EF58FF4F69
:1024600084E080832CC0423028F084E08F8B27C02A
:1024700093FF25C01F8A23C089A18E3010F48F5F7F
:1024800089A393FDD9CF1BC0992311F088E289A3BA
:1024900089A1883218F48F5F89A311C0FE01B89614
:1024A000CE018E9621E0DF011E972C931192E81742
:1024B000F907C9F781E0DACF81E08F8BA4CFDF91F4
:1024C000CF911F910F91FF90EF90DF90CF90BF9031
:1024D000AF909F908F900895CF93DF93EC014FE3DF
:1024E0005DE060E070E08BE190E00E94841F6F8906
:1024F000062E000C770B41EE5BE08DEF9FEF0E9404
:10250000841F6F89062E000C770B605A7F4F41EEB7
:102510005BE08DEF9FEF0E94841F688D062E000CFC
:10252000770B43E85AE086E690E00E94841F688DAE
:10253000062E000C770B605A7F4F43E85AE086E680
:1025400090E0DF91CF910C94841F9F92AF92BF9245
:10255000CF92DF92EF92FF920F931F93CF93DF936F
:1025600000D000D0CDB7DEB77C01FA01122F19825E
:102570001A821B821C82CA0157FF04C08827992730
:10258000841B950B9E012F5F3F4F4AE0C42ED12C38
:1025900044E0420FB6010E94F12CD9018D939D01B8
:1025A000CB014A13F7CFF7FF0DC0602F70E06D5FCE
:1025B0007F4F6034710534F4812F90E042E003973F
:1025C0000E94921F6E01B5E0CB0ED11C80E1982EC7
:1025D000910E5701E2E0AE0EB11CD70116961C9386
:1025E000169717961C93179718960C93F60142911D
:1025F0006F0150E060E070E02AE0C5010E948C1895
:102600001C5F1911EACF0F900F900F900F90DF9180
:10261000CF911F910F91FF90EF90DF90CF90BF90DF
:10262000AF909F9008955F926F927F928F929F924A
:10263000AF92BF92CF92DF92EF92FF920F931F93D0
:10264000CF93DF93EC016B014B0123E0820E911CD1
:10265000DB0116968D919C91179764E170E00E94C2
:10266000F12C552453948B3008F4512C20E040E495
:102670006CE3C4010E94C71F00E010E021E0A80144
:102680006EE370E0C4010E942E240E5F1F4F0234DF
:102690001105A1F72EE340E46CE3C4010E94C71FBB
:1026A0003E01BAE16B0E711CA12CB12CF501E25B6D
:1026B000F64E0491F501EA5BF64EE491EE2EF12C14
:1026C00010E0E6E0AE1609F45AC0F7E0AF1609F4E0
:1026D0005EC0D3018C918823F1F1FE01EA0DFB1D50
:1026E00080A521E0882389F040E259E1B701C801C3
:1026F0000E94F522D301EC91F0E0EE0FFF1FE05AAB
:10270000FE4F4081518120E010C04CEF58E1B701ED
:10271000C8010E94F522D301EC91F0E0EE0FFF1FFB
:10272000E05AFE4F4081518121E0B7016C5F7F4F3D
:10273000C80104960E94F522898D082E000C990B81
:10274000A816B90609F04AC0552009F447C020E090
:1027500044EE58E13FC021E048EA58E1B701C80122
:102760000E94F522898D082E000C990BA816B90637
:10277000A9F5552099F121E041E958E12BC08AA142
:102780009BA121E0892B21F144E558E10FC02AA14A
:102790003BA121153105D9F08CA19DA1820F931F7A
:1027A0008C329140A0F021E04DE957E1B701C8011A
:1027B0000E94F522898D082E000C990BA816B906E7
:1027C00069F4552059F020E041E358E103C021E0CD
:1027D0004CED57E1B701C8010E94F522EFEFAE1AA8
:1027E000BE0AFFEF6F1A7F0A28E0A216B10409F0B3
:1027F0005DCF21E041E757E160E070E083E490E0E5
:102800000E94F52256018EE0A80EB11C888DF501BC
:102810009CE08902E00DF11D1124E0A9F0E0EE0F2B
:10282000FF1FE05BFE4F4081518121E061E070E0DD
:1028300084E490E00E94F52284E5898B888B8FEFF9
:102840008A8B888DB501ACE08A02600D711D112460
:10285000605D7F4FCE010C960E94771828E040E81B
:1028600069E5C4010E94C71F19E51E831F838AE022
:1028700088877E01B2E0EB0EF11C6CE677E1C701C0
:102880000E9453184AA15BA10AE021E7B601CE01DC
:102890000E94A5121E831F8381E1888767E677E186
:1028A000C7010E9453184CA15DA101E121E7B601C7
:1028B000CE010E94A5128F89833011F45520D9F0E2
:1028C00089E58E838F8388E1888761E677E1C70198
:1028D0000E945318888DF6012CE08202E00DF11D54
:1028E0001124E85BFF4F4081518108E121E7B601E7
:1028F000CE010E94A51288E08E838F8389E38887AA
:102900006BE577E1C7010E94531848A150E060E0F1
:1029100070E02AE0C7010E948C1866E577E1C701E4
:102920000E9453182AE04AE050E060E070E0C701DE
:102930000E948C1846018EE3880E911CE12CF12C2C
:1029400023E4722E888D082E000C990BE816F906E8
:1029500031F1072D10E021E041E757E164E270E03A
:10296000C8010E94F522D401EC91F0E0EE0FFF1FA8
:10297000E05BFE4F4081518121E065E270E0C801DB
:1029800001960E94F52222E0270DF401428553852D
:1029900009E3B601CE010E94A512F5E17F0E2FEFEB
:1029A000E21AF20A8CE0880E911C94E0E916F10418
:1029B00049F68F898530C1F489A18E3089F5EE24DE
:1029C000E39404E712E120E044EE54E168E070E0B3
:1029D0008CE090E00E94201E511002C080E001C0F7
:1029E00080E280938A0027C08630D1F420E04BE853
:1029F00051E168E070E087E090E00E94F52221E07C
:102A00004BEC5FE068E070E087E090E00E94F52228
:102A1000511002C080E001C080E2809587BD0BC0EC
:102A200083E884BD8FEF87BD81EF80938000109293
:102A3000880010928A008F89843009F03FC0C88DC9
:102A4000CF5FF601E259FF4F8081C81708F0C0E060
:102A500020E048EB5FE060E170E08EE190E00E94F2
:102A6000F52221E043EB5EE060E170E08EE190E072
:102A70000E94F522F501ACE0CA9FE00DF11D112482
:102A8000E0A9F0E0EE0FFF1FE05BFE4F40815181B7
:102A900021E068E170E08AE490E0DF91CF911F913E
:102AA0000F91FF90EF90DF90CF90BF90AF909F90ED
:102AB0008F907F906F905F900C94F522DF91CF9173
:102AC0001F910F91FF90EF90DF90CF90BF90AF904C
:102AD0009F908F907F906F905F900895CF92DF923C
:102AE000EF920F931F93CF93DF93FC016A3039F479
:102AF0008581848396818185890F8683A1C0A48185
:102B00006E3719F4AD5FA4839BC0962FEF016681E9
:102B10006F5F9A3354F49033DCF49D32E1F09E32CF
:102B200099F0913209F053C018C09B3534F49134B8
:102B30006CF49F3309F451C04AC08FE9890F8A3180
:102B400008F045C019EB05C01FE308C01FEB01C02A
:102B500014E0190F03C011E401C01EE38F81062E9B
:102B6000000C770B0A2E000CBB0B813009F03AC029
:102B7000E0E8F4E00491E1E8F4E0E490112379F175
:102B8000E02FF0E02E2D269526952695422F50E039
:102B900021E030E08E2D877011F420E030E0240F2A
:102BA000351FE29F6001E39FD00CF29FD00C1124EF
:102BB00096011203A001139F500D11244E575B4F35
:102BC0009AEFC92E20E030E0CD010E94EB208885ED
:102BD0008C5F9C81890F8C8333C010E4BFCF42E8A7
:102BE00054E0EECFE0E8F4E00491E1E8F4E0E490B2
:102BF000112309F1E02FF0E02E2D2695269526953C
:102C0000422F50E021E030E08E2D877011F420E05B
:102C100030E0240F351FE29F6001E39FD00CF29F4C
:102C2000D00C112496011203A001139F500D112402
:102C30004E575B4F02C042E854E08BEFC82EC2CF24
:102C400081E090E0DF91CF911F910F91EF90DF90A5
:102C5000CF9008950C94A02D0C94A02D0C94A02D31
:102C60000C94A02D0C94A02D0C94A02D0C94A02DB0
:102C7000CF92DF92EF920F931F93CF93DF93EC01EC
:102C8000FB01868180FD05C08E898F5F09F480EA93
:102C90008E8BC42ED12C8E89EE24E3940AE815E0A5
:102CA00020E04AE057E0B601082E000C990B0E9484
:102CB000201E8E89082E000C990B20E04AE057E078
:102CC000B601805A9F4F0E94201E8E89082E000C4C
:102CD000990B20E04AE057E0B60180549F4F0E94D4
:102CE000201EDF91CF911F910F91EF90DF90CF9039
:102CF0000895DF92EF92FF920F931F93CF93DF938C
:102D0000EC017B0149EB58E060E070E088E090E086
:102D10000E94841F21E042E958E06DE170E080E20A
:102D200090E00E94F5228701025F1F4F8F899CE08F
:102D3000D92EF801D89EE00DF11D1124E0A9F0E094
:102D4000EE0FFF1FE25CFE4F4081518121E06EE1FA
:102D500070E081E290E00E94F5224DE2B701CE01E1
:102D60000E94381681E3898B888B8DE18A8B8F894D
:102D7000B801D89E600D711D1124605D7F4FCE019A
:102D80000C960E94771826E24CE566E3C70103968D
:102D90000E94C71F86E38E838F8387E288876CE853
:102DA00078E0CE0102960E9453188F89F701D89ED1
:102DB000E00DF11D1124E85BFF4F4081518107E2D6
:102DC0002EE4B701CE010E94A5128A8D90E0809773
:102DD00097FF03C0919581959109282F898D90E0E7
:102DE000809797FF03C0919581959109488D50E098
:102DF0004052510957FF03C051954195510993E83D
:102E000094BD809587BD81EF8093800020938800DA
:102E100040938A00DF91CF911F910F91FF90EF9027
:102E2000DF9008951F920F920FB60F921124CF9248
:102E3000DF92EF92FF920F931F932F933F934F9345
:102E40005F936F937F938F939F93AF93BF93809183
:102E5000350290913602A0913702B0913802019666
:102E6000A11DB11D8093350290933602A0933702C5
:102E7000B0933802492F5A2F6B2F772767FD7A9529
:102E8000242F2E726C017D0139E0F594E794D794DC
:102E9000C7943A95D1F74C295D296E297F29489F1F
:102EA000402D112442238C019D015DE0359527952D
:102EB000179507955A95D1F7082366E0B595A7951C
:102EC000979587956A95D1F7802B84278093CF00BB
:102ED000BF91AF919F918F917F916F915F914F9132
:102EE0003F912F911F910F91FF90EF90DF90CF9026
:102EF0000F900FBE0F901F901895AB01FC010E9420
:102F0000341041505109E109F10928F068517C4F12
:102F10008F4F9F4FF6CFAB01FC010E943410641716
:102F200075078E079F07C8F308950F930FB70F9388
:102F30001F9211248F939F93EF93FF93E9E3F2E0A5
:102F40008091300291E08D5F8D3710F08D57939511
:102F5000809330028081890F80839181911D9183BC
:102F60000281011D02838381811D838309270F70E4
:102F70000927029500932F0235D0811100932D026D
:102F8000803989F400912E02901B963070F087E70B
:102F9000809300088093010888E198E080936000A6
:102FA00090936000FFCF90932E0280912C0281506D
:102FB00018F080932C0259F3E1E3F2E080819181D3
:102FC00001968083918382819381811D911D8283EB
:102FD0009383FF91EF919F918F911F900F910FBF5E
:102FE0000F9118958FB18095807F669B88601C9BA0
:102FF00084600895089508950895089508950895A2
:1030000008950C94A02DFC0182E391E091838083CC
:10301000158214828AE191E09383828398E09387FA
:1030200081E082871782108616828187178616862E
:1030300026E231E035872487958B848B118A128AAA
:10304000108A838B80EA868B08950895CF92DF9251
:10305000EF92FF920F931F93CF93DF936C017A014E
:103060008B01C0E0D0E0CE15DF0589F0D8016D916D
:103070008D01D601ED91FC910190F081E02DC6010A
:103080000995892B11F47E0102C02196ECCFC7016E
:10309000DF91CF911F910F91FF90EF90DF90CF9034
:1030A00008950E94382EEF92FF920F931F93CF93B3
:1030B000DF938C017B01C0E0D0E0F701EC0FFD1F36
:1030C0006491662361F0D801ED91FC910190F0814B
:1030D000E02DC8010995892B11F02196EECFCE0184
:1030E000DF91CF911F910F91FF90EF90089561159F
:1030F000710579F0FB0101900020E9F73197AF01EC
:10310000461B570BDC01ED91FC910280F381E02D11
:10311000099480E090E008954F925F926F927F92C1
:10312000EF92FF920F931F93CF93DF93CDB7DEB74C
:10313000A1970FB6F894DEBF0FBECDBF7C01FA0198
:10314000CB0119A2223008F42AE08E010F5D1F4F37
:10315000422E512C612C712CBF01A30192010E94BF
:10316000B42CF901CA01015011096A3014F4605DF0
:1031700001C0695CD8016C93232B242B252B61F7AC
:10318000B801C7010E947718A1960FB6F894DEBF68
:103190000FBECDBFDF91CF911F910F91FF90EF90A8
:1031A0007F906F905F904F9008956F927F928F9273
:1031B0009F92BF92CF92DF92EF92FF920F931F9355
:1031C000CF93DF93EC018B01FB018681978168E34C
:1031D00070E00E94F12CBB24B3948D3108F4B12C23
:1031E00043E2B801CE010E9438168F898823F1F19D
:1031F000813009F0DFC06801F3E0CF0ED11C198ADD
:10320000188A1A8A7E012CE0E20EF11C6EE07BE146
:10321000C7010E945318F801E159FF4F408150E067
:1032200060E070E02AE0C7010E948C18198A188AB1
:1032300080E18A8B63E07BE1C7010E94531841E083
:1032400063E170E080E390E00E94DD2241E065E10F
:1032500070E080E390E00E94DD2222E0822E912C3B
:1032600001E110E037E1632E712C32C0198A188A0F
:1032700088E08A8B2C9666E17BE1CE010E94531890
:10328000F801E259FF4F408150E060E070E02AE031
:10329000CE010E948C18BB2009F48CC044E060E190
:1032A00070E08EE590E0DF91CF911F910F91FF903C
:1032B000EF90DF90CF90BF909F908F907F906F9016
:1032C0000C94921F4C010F5F1F4F0731110589F0BD
:1032D00021E0A801B301C6010E942E24C401029777
:1032E00097FFF0CF81E0681A7108E3E08E0E911C21
:1032F000EACF21E04CED5AE16BE070E085E390E02D
:103300000E94F522EB8DF0E0EE0FFF1FE259FE4F19
:103310004081518121E06CE070E086E390E00E9402
:10332000F522BB2019F08A8D882329F128E14CE78A
:103330006DE4C6010E94C71F6E01FCE1CF0ED11CD7
:103340000DE411E080E1982E098B088B9A8ABB204E
:1033500019F08A8D811711F1F60161916F01EC85E9
:10336000FD850190F081E02DC70109951F5F0A5F7F
:10337000193051F71FC021E04EEC5AE165E070E0D2
:103380008AE390E00E94F52221E041EC5AE16FE1EE
:1033900070E08AE390E00E94F522C8CFF6E01F9F1C
:1033A000C001112444E068E170E0895B9F4F0E94F6
:1033B000921FD2CFDF91CF911F910F91FF90EF908D
:1033C000DF90CF90BF909F908F907F906F900895E7
:1033D000CF93DF93EC011F8A0E94A9248B8D81116A
:1033E00002C081E08B8FDF91CF910895CF92DF9261
:1033F000EF92FF920F931F93CF93DF93FC01EB01AA
:1034000038851985109513238789882319F0813011
:10341000F1F07FC112FF05C081E0DB01AF58BF4F63
:103420008C9313FF02C081E0878B17FD9BC014FDB6
:1034300099C08E819F8168E170E00E94F12C408DDF
:10344000518D55278417950709F48CC062C1228DD0
:1034500015FF05C0222319F08FEF820F828F16FF10
:1034600005C0828D883010F48F5F828F17FD0EC0EB
:1034700014FD0CC08E819F8168E170E00E94F12CE8
:10348000408D518D55278417950721F437FD97C03E
:1034900034FDE7C07F0112FF24C06E01BFE6CB0EF2
:1034A000D11CF60120812230D0F030E021503109CA
:1034B0004CE0429FC001439F900D11248C0F9D1F33
:1034C000B701655E7F4FCE960E943D2ED6018C914E
:1034D00081508C93BE01C7010E94A92402C0F7014C
:1034E000178A13FF16C1F7017C9697012C5D3F4F99
:1034F00081E09191903209F080E0E217F307C9F77B
:10350000811107C18E0101591F4FD8012C9130E064
:10351000215031094CE0429FC001439F900D11247E
:103520008C0F9D1FB701655E7F4FCE960E943D2E8A
:10353000F801808131979081891778F48F5FD801E5
:103540008C93BE01C701DF91CF911F910F91FF9026
:10355000EF90DF90CF900C94A924CF58DF4F83E0F9
:103560008883D7C037FF09C0BE0162597F4FDB0196
:103570008C91843010F491E00BC034FFCAC0BE01BE
:1035800062597F4FDB018C91823008F4C2C09FEFFB
:10359000980F891748F09E01BCE08B9F200D311DCC
:1035A0001124D901DE961C92DB019C938E819F81B0
:1035B00068E170E00E94F12C918F808FAAC02111E8
:1035C00033C0938D292F092E000C330B295F3F4FF9
:1035D000492F092E000C550B241735070CF490C009
:1035E000892F877887FF03C08150886F8F5F8F5F37
:1035F000682F082E000C770BA6A1B0E041E0A617BB
:10360000B70709F040E0A7A1B0E0A617B70709F493
:1036100041E0A0A5B0E0A617B70721F0411102C014
:10362000838F6EC09F5FD4CFDF01A20FB11D5B9669
:103630008C915B978A3579F034F4803281F07CF09C
:1036400081345CF40CC0813654F08A3734F08A3708
:1036500009F44DC004C081E651C08F5F4FC081E4C2
:103660004DC021112FC0338D98E0930F39170CF006
:1036700047C0892F877887FF03C08150886F8F5F8D
:103680002FEF280F121614F027E0280F422F022EDA
:10369000000C550B66A170E081E06417750709F016
:1036A00080E067A170E06417750709F481E060A508
:1036B00070E06417750721F0811102C0238F20C0CC
:1036C0009150D4CFDF01A20FB11D5B968C915B9717
:1036D0008B353CF482347CF4803279F0813439F0DB
:1036E0000CC0813631F04CF08B372CF006C080E2F4
:1036F00005C08AE503C0815001C08AE75B968C93C0
:103700008E819F8168E170E00E94F12C918F808F03
:10371000C1CEDF91CF911F910F91FF90EF90DF907D
:10372000CF9008956F927F929F92AF92BF92CF9267
:10373000DF92EF92FF920F931F93CF93DF9300D00E
:1037400000D000D0CDB7DEB7FE01319626E0DF0114
:103750001D922A95E9F7DC015A96AC01405E5F4F55
:103760007D0190E06623E1F0D7012D917D012223B8
:1037700031F08F01090F111DD8012C939F5FE416C2
:10378000F50691F713C01D968C91882331F08F01B7
:10379000090F111DD8012C939F5FE416F50631F037
:1037A000D7012D917D012223C1F3EDCF8E010E5F54
:1037B0001F4F81E038018917F0F4D8015D918D0128
:1037C0004FEF480F242F042E000C330B47FD0DC084
:1037D0007F01E20EF31ED7017C91571730F4260DBE
:1037E000371DD9017C934150EDCF260D371DD901EE
:1037F0005C938F5FE0CF992309F4DBC0A0E9EA2E48
:10380000FF24F394B4E6CB2ED12C81E020E030E00D
:103810008F0140E050E0702F7E1B791740F4D801F3
:103820007D918D017813F7CF4F5F5F4FF4CF433019
:1038300051050CF44DC04430510589F024F4433057
:10384000510541F01EC04530510579F04630510513
:1038500091F017C08130C1F448EE53E016C08130BA
:1038600009F0AAC040ED57E010C0813009F0A6C0B1
:1038700040EA5FE00AC0813009F0A2C040E45FE1A5
:1038800004C040E050E001C0A601792F77FD1EC0C2
:103890008F01070F111D77FD1A95D8011C91181380
:1038A00013C0972E092D10E0053011055CF453016B
:1038B000A00EB11ED501BC900E0F1F1FD801BC92E7
:1038C0009394F0CF1E8291507150E0CF240F351F9A
:1038D0008F5FB4E6CB0ED11C40E7E41A4EEFF40A3A
:1038E000873009F095CF892F963011F559814A819B
:1038F000513089F4423079F47B81733061F47C81FA
:10390000743049F47D81753031F47E81763019F45C
:1039100024523A4F59C0541313C05B814C81541345
:103920000FC05D814E8154130BC022513D4F4CC0DE
:10393000992309F449C004C01E8281502E5C3F4F78
:10394000915097FD32C0AF01490F511D97FD5A9517
:10395000DA014C91453089F4792F472F50E04530FA
:10396000510554F78301040F151FD8011C914E0F08
:103970005F1FDA011C937F5FF0CF413009F7792F89
:10398000472F50E0453051055CF48301040F151FAB
:10399000D8011C914E0F5F1FDA011C937F5FF0CF9F
:1039A0001E8281502C593F4FCBCF61110DC088230F
:1039B00059F020E030E008C0A60103C0A70165CFA0
:1039C000A701440F551F61CFC90126960FB6F89481
:1039D000DEBF0FBECDBFDF91CF911F910F91FF9042
:1039E000EF90DF90CF90BF90AF909F907F906F90BF
:1039F0000895FC0180914102811103C08FEF9FEF78
:103A000008959FB7F89482E08093E9002091F20036
:103A100030E01216130614F421E030E021153105D0
:103A200059F0289884E6809340028091F1008083C9
:103A30008091F200882319F09FBFC90108958BE699
:103A40008093E800F9CF2FB7F89483E08093E900E2
:103A50009091E800892F807295FF04C09091F20048
:103A600080E4891B2FBF0895CF93DF931F92CDB7BA
:103A7000DEB76983DC01ED91FC910280F381E02DDA
:103A800041E050E0BE016F5F7F4F09950F90DF91DD
:103A9000CF91089583E08093E9008091F20088231C
:103AA00019F08AE38093E80008950E94231D90E0B6
:103AB0000895CF93DF931F92CDB7DEB7FC018485C5
:103AC000958597FD05C02FEF3FEF358724870BC005
:103AD000CE0101960E94F91C019719F4898190E0AA
:103AE00002C08FEF9FEF0F90DF91CF9108950F935A
:103AF0001F93CF93DF931F92CDB7DEB78C01FC01EC
:103B00008485958597FF0EC0CE0101960E94F91C11
:103B1000019719F4298130E002C02FEF3FEFF8013F
:103B200035872487F801848595850F90DF91CF91A3
:103B30001F910F9108958F929F92AF92BF92CF9253
:103B4000DF92EF92FF920F931F93CF93DF935C016D
:103B50006B017A0180910701882309F45BC0809191
:103B60004102882309F456C080913F0280FF05C0BE
:103B70008091E00082608093E000E70110E00AEFAE
:103B800083E0882E9AE3992E2097D9F10E94231D75
:103B900081110AC0015009F43DC061E070E080E08D
:103BA00090E00E947D17F0CF282F30E0C217D30796
:103BB0000CF48C2F4FB7F8948092E9009091E800B4
:103BC00095FF1DC0282F30E0C21BD30BF601982FA4
:103BD000915020F081918093F100FACFC20ED31E54
:103BE000112319F09092E80009C08091E80085FD4A
:103BF00006C09092E80011E0209709F010E04FBF56
:103C0000C3CF1111C3CF5D9884E680933E021E148A
:103C10001F0444F081E090E0F5019383828380E00B
:103C200090E001C0C701DF91CF911F910F91FF90EC
:103C3000EF90DF90CF90BF90AF909F908F900895BE
:103C40002F923F924F925F926F927F928F929F92AC
:103C5000AF92BF92CF92DF92EF92FF920F931F939A
:103C6000CF93DF9300D000D000D0CDB7DEB7ED8288
:103C70004115510509F42FC1FA0134913196E491AF
:103C80004E5F5F4FC32ED12C222311F1AE2FA6958C
:103C9000A695A695AA2EB12CA1E0B0E0FE2FF77054
:103CA00011F4A0E0B0E0AA0DBB1DCA9E5001CB9E4E
:103CB000B00CDA9EB00C1124FD81F33011F4AA0C83
:103CC000BB1C2A9DD0012B9DB00D11244A0F5B1FF8
:103CD0002D812F3F39F40115110511F021E001C0AC
:103CE00022E02D835C01AC0CBD1C1A141B040CF0EB
:103CF000F2C0803891050CF0EEC0DB01AE0FB11DB3
:103D00001A161B060CF0E7C0603471050CF0E3C016
:103D10004115510509F4DFC0F62FF7706F2EDB0156
:103D200077FD179623E0B595A7952A95E1F7FA2F29
:103D300077FF04C0662011F0FFEFFA0F97FF05C070
:103D4000AA27BB27A81BB90B02C0A0E0B0E020E85F
:103D5000A216B10424F020E8722E781A01C0732E46
:103D60007A1A6F2F0F2E000C770BFF3F1CF4E62EF4
:103D7000E09401C0E12C992493942E2F277009F42C
:103D8000912CE695E695E6959E0E690D711D6930BC
:103D900071051CF0E8E09E2E9F1AFE2CFF0E6F2D81
:103DA00020E86203800D911D11248A0F9B1F61E0A2
:103DB00070E0062C02C0660F771F0A94E2F72D818F
:103DC000233011F0E1E001C0E2E0C718D108EC9D1A
:103DD000802C1124CE2ED12CE39EA00DB11D1124D8
:103DE000CA9E9001CB9E300DDA9E300D11245A01EF
:103DF000A20EB31E0115110509F0A801D6011197F5
:103E00002A0F3B1F420F531FAFEFA69F9001A79FA2
:103E1000300D1124290140945094F90DFE83282D72
:103E200030E0E79D200D311D1124EE81FE1609F4CE
:103E300052C0DC01AE5BBD4F4A018501E12CE714A5
:103E400009F441C0F8013490369EF001379EF00D20
:103E50001124FA83E983E095F095FC83EB83FD81DF
:103E6000F23019F45C824B8211C0ED81EB3F19F402
:103E70001A8219820BC0F4013490369EF001379EED
:103E8000F00D1124E095F095FC83EB83F7FC06C060
:103E9000FC91EB81EF23F981EF2BEC93662061F02D
:103EA000F6E0FF154CF0FD01E058FF4F20803C800C
:103EB00023203A80322830828C0C9D1C0C0D1D1D55
:103EC000E3941196BCCFF394A20EB31E420F531F7E
:103ED00080589F4FAACF26960FB6F894DEBF0FBE2C
:103EE000CDBFDF91CF911F910F91FF90EF90DF90A9
:103EF000CF90BF90AF909F908F907F906F905F908A
:103F00004F903F902F900895EF920F931F9322E0D0
:103F1000E22E00E010E020E00E94201E1F910F9191
:103F2000EF9008959C01240F311D1216130674F5AD
:103F3000803891055CF5FC0197FF02C0E0E0F0E0FD
:103F40002138310514F020E830E02E1BAB0147701A
:103F5000552781E001C0880F4A95EAF777FF02C034
:103F6000695F7F4F93E0759567959A95E1F7769530
:103F7000762F662777956795E60FF71FEE5BFD4F67
:103F8000215020F09081982B9193FACF0895CF92F1
:103F9000DF92EF92FF920F931F93CF93DF936C0109
:103FA000D42FD61BC0E0E22EF12C062F10E0B80172
:103FB0006C0F711D21E0A701C6010E942E24CE5F67
:103FC000DC17A8F7DF91CF911F910F91FF90EF9031
:103FD000DF90CF90089580915F0781110DC082E03E
:103FE00080935B0784E080935C0710925E071092D9
:103FF0005D0781E080935F078BE597E008951F934D
:10400000CF93DF93DC0120E030E040E050E011E0AE
:10401000C1E0D0E02617370791F114968C911497E0
:10402000811115C014961C93149712968D919C9132
:104030001397ED91FC911197E80FF91FE4911596F4
:10404000EC931597019613969C938E931297149662
:104050009C91149715968C911597892349F0FE0130
:10406000022E02C0EE0FFF1F0A94E2F74E2B5F2BC9
:10407000990F14969C9314972F5F3F4FCBCFCA0193
:10408000DF91CF911F9108950895FC018785DF018D
:10409000A80FB11D1C966C938F5F8787833079F4CE
:1040A000848591E0891741F02585291729F0268517
:1040B000291711F0918308959F5F993099F708951A
:1040C000FC01DB0118968C91189719969C9190959C
:1040D000982384FF14C02789203118F42F5F278B81
:1040E0000FC0F89487E78093000880930108A89593
:1040F00088E18093600088E080936000FFCF178A9A
:1041000093FF05C0FB01EF58FF4F82E080830895C5
:10411000FB01E85BFF4F118210823C9611821082F6
:104120003C96118210823C9611821082339681E077
:1041300080830895FC01DB0119968C911997809575
:1041400018969C91892399F08281882311F08CE73D
:104150008283828181110BC081E0828380E480931D
:10416000900081E49FE09093990080939800928161
:104170009923C1F09F5F9283953059F09D3761F08C
:10418000923081F480E596E49093990080939800B2
:104190000895109290000895FB01EF58FF4F81E0C1
:1041A00080830895089508950F931F93CF93DF930D
:1041B000EC018B014EEE5BE160E070E08CE090E0A2
:1041C0000E94841F43E2B801CE01DF91CF911F917D
:1041D0000F910C9438164F925F927F928F929F921C
:1041E000AF92BF92CF92DF92EF92FF920F931F9305
:1041F000CF93DF9300D000D0CDB7DEB729011C2DBF
:10420000A02EB12C9C012A0D3B1D121613060CF09A
:10421000B3C1803891050CF0AFC1FB01EE0DF11D6B
:104220001E161F060CF0A8C1603471050CF0A4C165
:104230004115510509F4A0C1E62FE770FE2EFB01E0
:1042400077FD3796A3E0F595E795AA95E1F7AE2FB0
:1042500077FF04C0FF2011F0AFEFAE0F97FF05C04E
:10426000EE27FF27E81BF90B02C0E0E0F0E0203862
:10427000310524F020E8722E781A01C0702E7E1AC3
:104280006A2F0A2E000C770BAF3F1CF4D62ED09469
:1042900001C0D12C21E03E2D377009F420E0E694D6
:1042A000E694E694E20E6E0D711D693071051CF006
:1042B00028E0E22EEA1AED183D2D3A0FDC0120E845
:1042C0003203A00DB11D1124AE0FBF1FD09EE00D13
:1042D000F11D11244E0F5F1F81E090E04C010F2C67
:1042E00002C0880C991C0A94E2F7133009F403C148
:1042F000A0F4113009F4B5C0123009F03DC18FEFC0
:10430000889DB001899D700D1124609570957C8306
:104310006B835C802E2D230F2BC01A3F31F01B3F87
:1043200009F02AC12E2D230F88C02E2D230F51C036
:10433000FA01E00FF11FE491E89D6001E99DD00CC6
:104340001124DA82C98237FD07C0FC01E080EE2D1E
:10435000E623CE2AFC01C082F11013C00F5F1F4F6D
:104360000196071528F33F5F4A0D5B1DA058BF4F0C
:10437000321709F401C1CD018E5B9D4F00E010E0C2
:10438000F0CF37305CF7FC01E058FF4FD080D520EC
:10439000CA80DC28D082E2CFFA01E60FF71FE49151
:1043A000E89D8001E99D100D11241A83098337FDD2
:1043B00004C0FC011081012B0083F11013C06F5F5A
:1043C0007F4F0196671540F33F5F4A0D5B1DA05874
:1043D000BF4F321709F4D0C0CD018E5B9D4F60E016
:1043E00070E0F0CF37305CF78C0100581F4FF801B8
:1043F000E080EA81EE2AF801E082E1CFFA01E00FE5
:10440000F11FE491E89DC001E99D900D11249A836C
:10441000898337FD05C08095FB01908189238083C6
:10442000F11014C00F5F1F4F6F5F7F4F071530F300
:104430003F5F4A0D5B1DA058BF4F321709F49CC067
:10444000BD016E5B7D4F00E010E0F0CF373054F7D8
:10445000FB01E058FF4F8A818095908189238083FA
:10446000E1CFC2018E0F9F1F2E2D230F321709F4AB
:1044700083C0BD016E5B7D4F6B0100E010E007154E
:1044800090F5FC01E00FF11FE491E89DB001E99D7A
:10449000700D1124609570957C836B83FA01E00F99
:1044A000F11FE491E89D2001E99D500C11245A82EE
:1044B000498237FD05C0F60170816723462A408294
:1044C000FF2059F037304CF4F601E058FF4F70816F
:1044D0006C8167237A81672B60830F5F1F4FFFEF2B
:1044E000CF1ADF0ACCCF3F5F4A0D5B1D8A0D9B1DA3
:1044F000A058BF4FBBCFC72CD12CE40FF51FAE5B2C
:10450000BD4F60E870E06C197D09AC18BD088501ED
:10451000000F111F572D2E2DCF93DF93ED01EF9636
:10452000EF962296A590C590FF2059F0A89C5001C7
:10453000C89C600137302CF4E880D094ED20EB2843
:10454000E99233233AF0EC90C094EC20EA28ED9203
:104550000C94AB2211965A9529F72A9551F0572DB4
:1045600033951124E00FF11DA60FB11DC60FD11D0B
:10457000D9CFDF91CF9111240F900F900F900F9012
:10458000DF91CF911F910F91FF90EF90DF90CF902F
:10459000BF90AF909F908F907F905F904F900895C5
:1045A000BC0180E090E00C947D178FB18095807FF6
:1045B000669B88601C9B84600895E0E6FEE190E1C4
:1045C000969FD001A0781124A80F6770E60FF11D07
:1045D0009491AE5BBD4F442319F08C91982B03C08E
:1045E00090958C9198239C9308952F923F924F928F
:1045F0005F926F927F928F929F92AF92BF92CF9273
:10460000DF92EF92FF920F931F93CF93DF93CDB77B
:10461000DEB72C970FB6F894DEBF0FBECDBF4C01AE
:104620006B01022F5A8349831C821B821D821E82CA
:1046300068E070E0CE0101960E94FF1F0196988706
:104640008F8368E070E0CE0101960E94FF1F7C011D
:1046500061E070E0CE0101960E94FF1F782E8F81ED
:104660009885880D991D97FDE0C020E88216910479
:104670000CF0DBC097012F5F3F4FC601820F931FE5
:1046800097FDD3C040E4C416D1040CF0CEC076012F
:10469000D7FE04C0EE24FF24EC18FD0857E0E52205
:1046A000FF24A601D7FE02C0495F5F4F2A0163E0E5
:1046B000559447946A95E1F7D7FE09C081E0481AFE
:1046C000510888E090E0AC014E195F097A011901A8
:1046D00037FF03C057E0250E311C53E03594279473
:1046E0005A95E1F727703327232B19F08FEF281AFB
:1046F000380A6624639410E0C12CD12CA12CB12C73
:1047000088E090E09C012E193F093A872987A2147E
:10471000B3040CF08AC021E030E061E070E0CE012B
:1047200001962B873C870E94FF1F2B853C85892B98
:1047300019F42E5F3F4FF1CFB901CE0101960E94CF
:10474000FF1FDC01119620E030E02A173B0708F03C
:1047500065C071101629660C09F05DC0B2016A0DC2
:104760007B1DCB010196099708F041C0C601880D59
:10477000991D80389105D8F5CB019695982F8827FB
:1047800097958795880D991D8C0D9D1D6F3F4FEF57
:10479000740709F446C0412F0E2C01C0440F0A943F
:1047A000EAF7FC01EE5BFD4F002319F05081452B29
:1047B00003C04095508145234083E114F104B9F0D2
:1047C00067307105A1F0412F50E0098402C0559572
:1047D00047950A94E2F7FC01EE53FD4F002319F0D0
:1047E0001081412B03C040951081412340835FEF2E
:1047F000C51AD50A4F815885C416D5064CF05FEF0F
:10480000A51AB50A6624639410E0C12CD12C03C00C
:104810006624639410E02F5F3F4F97CF81E07826A6
:1048200076CFE114F10479F6E2CF2C960FB6F89426
:10483000DEBF0FBECDBFDF91CF911F910F91FF90D3
:10484000EF90DF90CF90BF90AF909F908F907F9030
:104850006F905F904F903F902F900895CB01BA01D9
:104860008038910530F44034510518F4422F0C94EF
:10487000DD220895EF92FF920F931F93CF93DF9362
:10488000EC017B0121E049ED5BE161E170E08FE249
:1048900090E00E94F52221E044EB5BE16AE170E0E8
:1048A0008BE290E00E94F52221E044EB5BE16AE1BB
:1048B00070E089E490E00E94F5228A8121E0811174
:1048C00017C044EB5BE16AE170E08AE390E00E948C
:1048D000F52221E04BE65BE16EE270E08AE190E0D8
:1048E000DF91CF911F910F91FF90EF900C94F522E3
:1048F0004EE45BE16AE170E08AE390E00E94F52219
:1049000021E04BE25BE16EE270E08CE290E00E941D
:10491000F5228A816FE00E94E52CC82FC3700FE456
:1049200010E0D0E083E0E80EF11CDC1759F021E044
:1049300041E350E0B801C7010E942E24DF5F0E5F03
:104940001F4FF3CFDF91CF911F910F91FF90EF9009
:104950000895EF92FF920F931F93CF93DF939C01E3
:10496000EB018B0101591F4FD8018C9190E0019709
:104970004CE0489FF001499FF00D1124E60FF71F0E
:10498000FE967901BAE1EB0EF11CD9015A961C9200
:104990005A975B9689E001900D928A95E1F7F901AB
:1049A00016A217A210A611A6D8018C91813021F071
:1049B0006EADC7010E944520F8018081823039F038
:1049C000FE01E65BFF4F6081C7010E944520D801D0
:1049D0008C91833039F0FE01EA5AFF4F6081C701A4
:1049E0000E944520F8018081843061F0CE59DF4F6C
:1049F0006881C701DF91CF911F910F91FF90EF90D8
:104A00000C944520DF91CF911F910F91FF90EF9073
:104A10000895FC018485958597FD0BC09FB7F89498
:104A200082E08093E9008091F2009FBF90E00196C0
:104A300008959FB7F89482E08093E9008091F20096
:104A40009FBF90E008954091BB075091BC07209113
:104A5000B9073091BA0742175307B4F49091E800B0
:104A60009570E1F39091E80092FD19C08093F100F8
:104A70008091BB079091BC0701968F739927892B72
:104A800019F48EEF8093E8008091BB079091BC07EA
:104A900001969093BC078093BB0781E0089580E066
:104AA0000895DF92EF92FF920F931F93CF93DF93BE
:104AB000D82E8A017B01E40EF51EEB01CE15DF0531
:104AC00071F0D7FE03C0FE01849101C088810E946D
:104AD000232521968111F2CF8FEF9FEF01C0C801EE
:104AE000DF91CF911F910F91FF90EF90DF9008958C
:104AF000615030F02091F100FC0120830196F8CF45
:104B0000289884E68093400208950F931F93CF93D3
:104B1000DF931F92CDB7DEB782E0898342E450E095
:104B200068E67EE180E80E9451250E94EB1FDC01CF
:104B300012960D911C9113970115110569F0D8017A
:104B4000ED91FC910280F381E02DBE016F5F7F4FFC
:104B5000C801099597FF07C089810F90DF91CF9118
:104B60001F910F910895F80100851185E5CF1F92DF
:104B70000F920FB60F9211248F939F938091E100B3
:104B80009091E100937F9093E10083FF0FC010921A
:104B9000E90091E09093EB001092EC0092E3909387
:104BA000ED001092410298E09093F00082FF20C047
:104BB00093E09093E9009091F200992319F09AE321
:104BC0009093E80090913E02992339F090913E0233
:104BD000915090933E02992389F19091400299233C
:104BE00039F090914002915090934002992341F105
:104BF00084FF10C08091E2008E7E81608093E2008D
:104C00008091E1008F7E8093E10080913F028E7E53
:104C1000806111C080FF16C08091E2008E7E8061AD
:104C20008093E2008091E1008E7E8093E10080918C
:104C30003F028E7E816080933F0204C05D9ACDCF9B
:104C4000289AD6CF9F918F910F900FBE0F901F90F3
:104C500018951F920F920FB60F921124CF92DF92E8
:104C6000EF92FF920F931F932F933F934F935F9376
:104C70006F937F938F939F93AF93BF93EF93FF9324
:104C8000CF93DF93CDB7DEB76C97DEBFCDBF109269
:104C9000E9008091E80083FFEDC168E0CE01459610
:104CA0000E94782582EF8093E8008D8987FF05C0F8
:104CB0009091E80090FFFCCF03C09EEF9093E80036
:104CC000982F907609F0C6C09E892F89188D911172
:104CD0000CC0803829F48091B8078093F10002C09D
:104CE0001092F1001092F10048C1422F50E0512B78
:104CF000913051F4811141C14130510509F03DC15C
:104D00008091B8078D7F0BC0933061F4811135C15C
:104D10004130510509F031C18091B807826080931C
:104D2000B8072BC1953041F48091E80080FFFCCF9B
:104D300020682093E30021C1963009F05FC0EB8C1E
:104D4000FC8C1092E9001092BC071092BB07123045
:104D500091F51092BA071092B9070E94852599E043
:104D6000BE016F5F7F4FDB01E92F1D92EA95E9F7E6
:104D700099831A8391E09E8390EA98879AEF9987A6
:104D80002091BB073091BC07275F3F4F3C832B83AB
:104D90008D831092E9001092BC071092BB07F0922D
:104DA000BA07E092B90749E050E080E00E9451253F
:104DB0000E948525E2C0F092BA07E092B9070E94EE
:104DC000EB1FDC011296ED90FC901397E114F104B7
:104DD00009F4C0C0D701ED91FC910480F581E02D6C
:104DE000BE016B5E7F4FC7010995009719F00CF06B
:104DF000C4C0C7C0F701E084F184E8CF973009F45C
:104E0000C0C0983021F481E08093F100B6C09930A1
:104E100009F0B3C0837009F0B4C0E5E2F2E081E0CC
:104E200021E036E39081992361F08093E90020939B
:104E3000EB0091919093EC003093ED008F5F873001
:104E400089F78EE78093EA001092EA008F898093B9
:104E5000410293C08B8D9C8D1092E9001092BC078B
:104E60001092BB079093BA078093B907898D81117F
:104E700056C08E899D89913A59F4813209F081C0DA
:104E800047E050E060E071E080E00E94512575C08D
:104E9000913209F076C0833289F4888D90E0982FA2
:104EA00088272F89822BA0E0B0E08093080190939F
:104EB0000901A0930A01B0930B015FC0803269F42D
:104EC0008091E80082FFFCCF67E080E091E00E94E3
:104ED00078258BEF8093E80006C0823209F04DC040
:104EE0008F89809307018091B707882319F0EEEF2F
:104EF000FAE002C0E0E0F8E0809100019091010149
:104F0000A0910201B0910301803B9440A105B1053D
:104F100009F07BC08091070180FF93C076C00E949A
:104F2000EB1FDC0112960D911C91139701151105D1
:104F300041F1D801ED91FC910190F081E02DBE018D
:104F40006B5E7F4FC8010995811117C0F80100857C
:104F50001185ECCF113009F44EC0133091F48F89D4
:104F6000882309F445C0823081F440E860E18CEC8C
:104F70009EE10E94D32B882321F08EEF8093E800DE
:104F800079C081E28093EB0075C0813029F440E85C
:104F90006BE080EC9EE1EDCF833099F70E94EB1F30
:104FA000DC011296ED90FC9013978E010F5F1F4F5E
:104FB0006801E114F10479F0D701ED91FC910680CC
:104FC000F781E02DB801C7010995080F111DF70100
:104FD000E084F184EECFD8011C92F601019000200C
:104FE000E9F73197BF016C197D0940E0C601C1CFD7
:104FF0006AEA7EE102C06EEA7EE16115710509F29E
:10500000FB01449150E080E840CF0FB6F894A8959A
:1050100080916000886180936000109260000FBEF4
:10502000A895EE3F2AE0F20739F08091FE0A9091B0
:10503000FF0A91838083A1CF1092FF0A1092FE0A8B
:105040009CCFEE3F8AE0F80731F080819181909308
:10505000FF0A8093FE0A87E797E7918380839BE0AE
:1050600088E10FB6F894A895809360000FBE9093E6
:10507000600083CF6C960FB6F894DEBF0FBECDBF35
:10508000DF91CF91FF91EF91BF91AF919F918F9160
:105090007F916F915F914F913F912F911F910F9150
:1050A000FF90EF90DF90CF900F900FBE0F901F906A
:1050B000189582E496E00C940018789483E084BDFF
:1050C00083E085BD81E080936E00E1E8F0E083E05D
:1050D0008083E0E881E08083E3EC81E08083E2ECA0
:1050E00081E08083EAE787E0808380688083109294
:1050F00041021092B80710923F028091D700816060
:105100008093D70080EA8093D80089B5806189BDFB
:1051100089B5826089BD09B400FEFDCF61E070E011
:1051200080E090E00E947D178091D8008F7C8061A4
:105130008093D8008091E000807F8093E000809190
:10514000E1008E7E8093E1008DE08093E200559A2D
:10515000209AEEEFFFE7859194918B3F9C4D19F4D7
:1051600081E08093B707109290008AE080939100CD
:105170001092C00091E09093C1008FEF8093D10016
:1051800081EC80937C0085B1806F85B984B1877E86
:1051900084B984B1876E84B95E9A5F988AB1806D54
:1051A0008AB9769A6E9881B3806F81BB899880B3F3
:1051B0008D7080BB80E58CBD9DBD85E090E00E9438
:1051C000D0225F9A85E090E00E94D0225E985C98A1
:1051D000E6E5F9E18DE08E0F94919EBD00000DB4DF
:1051E00007FEFDCF31968E13F7CF5C9A81E880934E
:1051F0006400809165008160809365000E94D522E3
:1052000087FF24C05C9885EA8EBD00000DB407FEC0
:10521000FDCF5C9A2E982F982D9880916400806223
:105220008093640081E083BF889513BEFCCF2D98E6
:105230000E94D5228478843871F00E94D52284712E
:10524000843129F188EC90E00E94D0220E94D5227E
:1052500082FDEDCF38C02D9A88EC90E00E94D022DC
:105260002F9882E090E00E946C2C8F3F29F06FEF26
:1052700082E090E00E94742C84EF91E00E94D022A2
:105280002F9A0E94D52284788438D9F3D6CF2D9ACC
:1052900088EC90E00E94D0222E9882E090E00E945C
:1052A0006C2C882329F060E082E090E00E94742C4E
:1052B00084EF91E00E94D0222E9A0E94D522847120
:1052C0008431D9F3BFCF2D9A82E090E00E946C2CFC
:1052D000882331F03E9A3F9A81E080933D0204C0DA
:1052E00010923D023E983F98809164008E7F80939B
:1052F000640080917A00806480937A0080917A00C3
:1053000086FDFCCFC0917800D09179000E943410C6
:105310008E0120E030E0980111270027600F711FF7
:10532000821F931F611571058105910511F00E947F
:10533000632C8091640081608093640080E180939D
:105340004C0683E884BD8FEF87BD81EF809380009A
:105350001092880010928A001092B306CC24C39455
:1053600002E412E0D0E080E0E82E80E0F82EBB24DA
:10537000B39493E0D92E8FB7F894409139025091AD
:105380003A0260913B0270913C028FBF80914D06C2
:10539000942F981B892FC0914E06CC2329F090930F
:1053A0004F0610924E06F2C090914C06891740F4B9
:1053B0008F5F891708F0EAC0C3BE889513BEE6C0A8
:1053C000B0924E0640934D06809148069091490652
:1053D0000196909349068093480680914A068093EF
:1053E0004B060E94D52280934A068C2FF80181112A
:1053F0008FEF002481938193819381930394D1F75C
:105400008091B306823009F441C028F4882361F00A
:105410008130F9F0AEC0843009F472C008F453C092
:10542000853009F48AC0A5C08091B206882321F096
:10543000109244061092B20662E476E08CEC96E09C
:105440000E949A2062E476E08CEC96E00E943A2476
:1054500090C09091B206913061F08093440662E46E
:1054600076E084EB96E00E9488208091B3068093DA
:10547000B20662E476E084EB96E00E94602062E48B
:1054800076E084EB96E00E94D42073C09091B2063F
:10549000923061F08093440662E476E08FEC96E00F
:1054A0000E94E8198091B3068093B20662E476E028
:1054B0008FEC96E00E94F61962E476E08FEC96E0BD
:1054C0000E94D51856C08091B206833061F0D09208
:1054D0004406109210078091B00680931107109235
:1054E0001907D092B20662E476E089EF96E00E9456
:1054F000B41062E476E089EF96E00E94131339C09D
:105500009091B206943061F08093440662E476E0B4
:1055100087E297E00E9409108091B3068093B2065B
:1055200062E476E087E297E00E94D80F62E476E0DA
:1055300087E297E00E9479161CC09091B2069530E0
:1055400061F08093440662E476E082E497E00E9492
:10555000C80F8091B3068093B20662E476E082E4DD
:1055600097E00E94A40F62E476E082E497E00E9454
:105570006C12F80180E098E000800EBCD111012C83
:10558000019780FDFDCF0192B9F70DB4E114F1044C
:1055900009F4F1CE0E940000EECE10926A0710923C
:1055A000690788EE93E0A0E0B0E080936B079093EA
:1055B0006C07A0936D07B0936E0784E891E0909319
:1055C0006807809367078FEF9FEF9093740780932E
:1055D000730710924A0610924B0680E180934C06A6
:1055E000109249061092480610924E0682EA91E007
:1055F000909346068093450610925B0610925A06D9
:10560000E1E5F6E090E288E08E0F91938E13FDCFF6
:105610001092670610926606EDE5F6E090E288E0EB
:105620008E0F91938E13FDCF109273061092720617
:10563000E9E6F6E090E288E08E0F91938E13FDCFBD
:1056400010927F0610927E06E5E7F6E090E288E091
:105650008E0F91938E13FDCF8CE0E0E5F6E0A0E88D
:10566000B6E001900D928A95E1F78CE0ECE5F6E06A
:10567000ACE8B6E001900D928A95E1F78CE0E8E69F
:10568000F6E0A8E9B6E001900D928A95E1F78CE08A
:10569000E4E7F6E0A4EAB6E001900D928A95E1F71E
:1056A00081E08093B0068093B10680E292E090930F
:1056B00043068093420684EB96E00E94031880EB39
:1056C00091E09093B5068093B4061092CB0680E0EB
:1056D00092E09093CD068093CC061092CE068FEC8C
:1056E00096E00E94031880EC91E09093D00680939E
:1056F000CF061092E6061092E8061092E706109286
:10570000EA06EBEEF6E090E288E08E0F91938E13BE
:10571000FDCF1092F5061092F6061092F706109241
:10572000F80689EF96E00E94031880ED91E09093CF
:10573000FA068093F90681E0809310078FEF80933B
:1057400011071092120710921C0710921B0710925B
:105750001E0710921D071092200710921F0787E264
:1057600097E00E94031880EE91E0909328078093C1
:10577000270710923E0710923F078CE08093400766
:1057800088E18093410782E497E00E94031880EF4C
:1057900091E090934307809342071092590780E469
:1057A00080935A070895CF92DF92EF92FF920F9362
:1057B0001F93CF93DF931F92CDB7DEB7182F062F1D
:1057C000E42E862F880F8E5F99830E94232583E025
:1057D0000E942325F12EC12E9981D92E8C2D8F194F
:1057E000801798F4F601E7FE02C0849101C0808121
:1057F0000E942325182F80E00E9423258123FFEF9C
:10580000CF1ADF0A8111EACF01C081E00F90DF914A
:10581000CF911F910F91FF90EF90DF90CF9008955F
:105820008F929F92AF92BF92CF92DF92EF92FF92B0
:10583000CF93DF93EC01688179818A819B81611527
:1058400071058105910521F464E279ED8BE597E01E
:105850002DE133EF41E050E00E94822C49015A01D2
:105860009B01AC01A7EAB1E40E94A12C6B017C0171
:10587000ACEEB4EFA50194010E94AF2CDC01CB018A
:105880008C0D9D1DAE1DBF1DB7FF03C00197A10963
:10589000B04888839983AA83BB83BC01CD019F77DD
:1058A000DF91CF91FF90EF90DF90CF90BF90AF90BE
:1058B0009F908F9008950E94102C08958CE091E0A5
:1058C0000E94102C089560930C0170930D01809339
:1058D0000E0190930F010895F999FECF92BD81BDFD
:1058E000F89A992780B50895262FF999FECF1FBA07
:1058F00092BD81BD20BD0FB6F894FA9AF99A0FBEF9
:1059000001960895052E97FB1EF400940E94992C91
:1059100057FD07D00E94B42C07FC03D04EF40C9422
:10592000992C50954095309521953F4F4F4F5F4FA3
:10593000089590958095709561957F4F8F4F9F4FFB
:1059400008950E94D62CA59F900DB49F900DA49F02
:10595000800D911D11240895B7FF0C94A12C0E9475
:10596000A12C821B930B0895A1E21A2EAA1BBB1B2C
:10597000FD010DC0AA1FBB1FEE1FFF1FA217B3071B
:10598000E407F50720F0A21BB30BE40BF50B661F31
:10599000771F881F991F1A9469F7609570958095F5
:1059A00090959B01AC01BD01CF010895A29FB0016C
:1059B000B39FC001A39F700D811D1124911DB29F43
:1059C000700D811D1124911D0895991B79E004C06B
:1059D000991F961708F0961B881F7A95C9F780952E
:1059E0000895AA1BBB1B51E107C0AA1FBB1FA61726
:1059F000B70710F0A61BB70B881F991F5A95A9F778
:105A000080959095BC01CD010895EE0FFF1F059084
:105A1000F491E02D0994CF93DF938230910510F437
:105A200082E090E0E091BF07F091C00720E030E015
:105A3000C0E0D0E0309711F14081518148175907FB
:105A4000C0F04817590761F482819381209719F0BB
:105A50009B838A832BC09093C0078093BF0726C087
:105A60002115310519F04217530718F49A01BE01A8
:105A7000DF01EF010280F381E02DDCCF211531053C
:105A800009F1281B390B2430310590F412968D91C1
:105A90009C9113976115710521F0FB01938382831B
:105AA00004C09093C0078093BF07FD01329644C0A5
:105AB000FD01E20FF31F81939193225031092D9341
:105AC0003C933AC02091BD073091BE07232B41F48F
:105AD00020911201309113013093BE072093BD072E
