:100000000C94F4060C941C070C941C070C941C070D
:100010000C941C070C941C070C941C070C941C07D4
:100020000C941C070C941C070C9474190C94E6197E
:100030000C941C070C941C070C941C070C941C07B4
:100040000C941C070C941C070C941C070C941C07A4
:100050000C941C070C941C070C941C070C94F50DB5
:100060000C941C070C941C070C941C070C941C0784
:100070000C941C070C941C070C941C070C941C0774
:100080000C941C070C941C070C941C070C941C0764
:100090000C941C070C941C070C941C070C941C0754
:1000A0000C941C070C941C070C941C07118F074E12
:1000B00020C082718299744DC8010AB001F83243A0
:1000C00052168AB0D03224E553118F4F1022652882
:1000D0000B0091620416404219814138F398518413
:1000E0005D04A84CE86D146016CA9123118F4F006F
:1000F000097BCE290BB1ABF18084057C0C28591308
:10010000268C4618A9300CB248045E02118F9F0954
:100110001CC45B4F229CF811BD0DD8D00B140EBD32
:10012000E53D118F2F9C19490EE39853C80C00A987
:10013000F0359B9101213021701A872423D3970930
:10014000CF6AF59B5ADDFD761709CFABEFDCBEEB2E
:10015000ADDFEE0209CFABDFEEADDFEE0209CF5F20
:1001600070FBAEB7FE0A09CFBFA2B7FE0A098FDF48
:10017000B0FE6603081F051F1F151B1F11111F115D
:100180000E1F15111F05011F111D1F041F001F0049
:1001900010101F1F041B1F10101F061F1F011F1F01
:1001A000111F1F05071F311F1F051B17151D011FDD
:1001B000011F101F0F100F1F0C1F1B041B071C0714
:1001C0001915130C121E1F120C1E12120C121F0CEA
:1001D0001A14041F052E2A1E1F021C001D00201DBC
:1001E000001F041A011F001E041E1E021E1E121EE6
:1001F0003E120C0C123E1E020614120A020F121EB0
:10020000101E0E100E1E081E1A041A2E281E1A1278
:10021000161F111F121F101D151711151F07041F80
:1002200017151D1F151D01011F1F151F17151F0075
:100230001700001000040404040E040229060A003A
:100240000004083E09093E3F25251A1E2121123FC0
:1002500021211E3F2525213F0505011E21293A3F69
:1002600004043F213F21001021211F3F040A313F98
:100270002020203F02023F3F02043F1E21211E3F5B
:100280000909061E21112E3F0909362225251901CB
:100290003F01011F20201F0F10201F3F10103F3B68
:1002A00004043B03043807312D2321102A2A3C3F44
:1002B0002424181C2222141824243F1C2A2A2C042B
:1002C0003E05014C52523E3F040438243D2000407C
:1002D00040443D3F081422213F20003E04043E3E9E
:1002E00004023C1C22221C7E22221C1C22227E3E56
:1002F000040204242A2A12021F22201E20201E0E7D
:1003000010201E3E10103E360808364E50503E3229
:100310002A26221E29251E223F20003229292612A4
:1003200021251A0C0A3F08172525191E2525180115
:100330003905031A25251A0629291E002F00000059
:10034000200000022905020004040067AF3B0716E5
:100350009300B208208B00B2484211128A90508458
:1003600084220444324024034432402459C4F64FCA
:10037000099C2817CA8572A19CFC5E0E4C0603904E
:100380001200A464483930FB376B7B0006000CE098
:100390001BE92DA6800A145081022A800220A002A7
:1003A0000544A4480922124251D9A86C142E940B7A
:1003B000E1E8D5AB57CF5CBD3AF71D000000607295
:1003C000BFEFCFC2BC03000000BC636ED73A00276A
:1003D000069B209B201B958DC88572027EC05A1EED
:1003E0000008004C3E904BF0A21E44DCDA3D700A3F
:1003F00081012760ACB94C054434996301846BD604
:1004000009000018071863DB35078171807138A473
:10041000000000EFEE331C982C028422040413B277
:100420001D088000DF3831120000061C00E80A9920
:10043000A45AEDA21B809153B8D9F11DD77A0000C0
:1004400000005FD8EC09E76C37000100264CE86239
:1004500039464D62D488EAA0F29D033000E043CBD8
:100460003D260B6B571700010078D73D0F10D808B9
:1004700044C7D0002184C1180726000480877B0070
:10048000F0AA73E9525522535220122159615A128F
:10049000483EBEF401000090636FE548DA6CF0C09E
:1004A00064200C11B7804DD42051D30818408184AA
:1004B000A15ED48BBE81000070E46AEFC9D8FB0551
:1004C0000000005EDD2F4648424848B0002481010C
:1004D00004484278020010714261C3A0C8C4010BF5
:1004E000823090040A2650045006264C0627E0E786
:1004F00071446EC8D1AB7F4E8EC80DB92137E4C8A8
:1005000073E086DC901B72E473C00DB92137E0CA3A
:10051000DF1367AF3DAC536FBDF596AB57AF5EF9D8
:10052000791D7F2F4F73EFBDF7DEFB30BE74184788
:10053000AF5EBD7ACDE94F34F297E6B22EEB32F7DB
:10054000DE8771EBADB7DE7AEBED97BE77FD4E4EF1
:10055000F3B22EEBB22EEB32F79EA77C65F3EFDE03
:100560005BAEFC6B78FE9FC6F63DFBB78F23FF9C0E
:10057000BD7AECAD47AF5EBD7AEC69CE533ECFB1EC
:10058000A775599771EB2D9FE7EAD5AB57AF5EBDC5
:100590007A1C9775599775599771CC695DD6655DC9
:1005A000D6651C39E7B42EEBB22EEB943F277E6F55
:1005B000667E005475726E7E00546F74616C0054D8
:1005C00075726E00526F6C6C001397AE055CBD7A4D
:1005D000F5EAD5AB578F64EDFD77D8CF00B8207022
:1005E00041E082C005810B0217042E089C90239BDA
:1005F000CF2B1CBD7A553A54863538E21C5A14E28A
:10060000B60602F5EAD5235913380065036503657C
:10061000036503650365036503650365036503659A
:1006200003E50448019B4F001CB873E6CC9933677F
:10063000CE9C3973E6CC99030077AE9C3973E6CC37
:10064000993367CE9C3973E6011B8FAE055CBD7A8A
:10065000D501A211A61912D3A974E809754CAF5E91
:1006600081B5E448804D814D814D814D814D814D55
:10067000814D814D814D814D814D814DB820911726
:100680002E2E0008400110800220000540000A8044
:100690000014000128000200D367002000080002B7
:1006A0008000200008000280002000080002800076
:1006B00020003C70F2B3592E111705C2913367CE5A
:1006C0009C3973E7018000F0FB018017DC3973E689
:1006D000CC9933AF011197198370F4EAD5AB57AFBA
:1006E0001E096364C2AF8779E788DC901B72436E92
:1006F000C80D397207111719B26031994C2693C988
:100700006432994C163064DFF6E667EEFD80CD6406
:1007100032994C2693C96432593C030000001414EA
:10072000142A2A001428001428001ED5F08D14A1C4
:10073000C881CFD9F1AF2000118F074E20C0827140
:100740008299744DC8010AB001F8324352168AB03A
:10075000D03224E553118F4F102265280B0091628F
:100760000416404219814138F39851845D04A84C25
:10077000E86D146016CA9123118F4F00097BCE29B2
:100780000BB1ABF18084057C0C285913268C4618DC
:10079000A9300CB248045E02118F9F091CC45B4F44
:1007A000229CF811BD0DD8D00B140EBDE53D118F64
:1007B0002F9C19490EE39853C80C00A9F0359B9162
:1007C00001213021701A872423D3974E616D653F34
:1007D000001397AE055CBD7AF5EAD5AB578F64ED93
:1007E000FD77D8CF801B72436EC80DB92137E486E0
:1007F0001CB90349636F6E3F00506C617965727E6E
:10080000004E756D6265727E6F667E706C61796593
:1008100072737E3F20007F9FC216E1A2780212858C
:1008200001821C84AF0127CA05840B2017CA85707A
:10083000436EC80DB8FACF912B7003E002810D957D
:10084000054B0A5B848BE209481406087210BE0649
:100850009C2817102E805C2817C20DB921EBDD7281
:100860008F4C66CE2906A0122064693035BACA487A
:1008700077BFE765D5E1F40A6E2D412F39222710A5
:100880000E18983860E0846023C8320C10E1807E36
:100890001CB82137E486DC90A357AF1EB55A1999CE
:1008A0003CB5597E7279682633E71403500910B2BB
:1008B000746510B2CA4877BFE76515DD3AC66A8825
:1008C0002BB924C3D8E14B67EDF425B750E65E970A
:1008D00075599775EAADB72E5B0DCC300A78E15BA0
:1008E0000F6E9E720A0091428010AA95A04577C7AC
:1008F0005A8BAB57AF8E8E3443B82117251A0000A0
:1009000010040808BA1D2E97C3AD63AC86B8924B8D
:10091000328C1DBE74D64E5F720B65EE755997B55D
:100920002F735ED6A02BC34572426E7BEE7959873A
:1009300043C372642ED8485C8EACCB1A7455647174
:10094000660013083001005C87BD0FEBC6A9288B39
:10095000AC393721AE32D665EE79599795C561CD60
:10096000CBBAACDA55C6BAACCB1A7419E000105841
:10097000B02EEB32E7650DBA325C2427E4B6E79E71
:10098000977538342C47E6828DC4E5C81AA187DDF7
:100990000D9BBB201BC46B2EBDE43864E33878DCB0
:1009A000B75EC04B6FA11BC51B0D0F0CA4C0400A46
:1009B0000CA4C0400A0CA4C0400A0C78C19933674B
:1009C000CE9C7904CD87DDD213C7018702DCBA45FE
:1009D000397281E0910B04BFD52D3D71DC9BC5318F
:1009E000975E7296ECE0730F1838782CDCD6A7C6A9
:1009F0001EA7E04D72EB969E380EDC088D8F11928B
:100A000025244B4896902C215942B204762EEBB205
:100A10002EEBB22EEBB28E23474D474646F3DB4614
:100A2000B3F839AC741C59E9D87F9FC216E1A2789B
:100A300002128501821C84AF0127CA05840B20178E
:100A4000CA8570436EC80DB8FACF912B7003E002CF
:100A5000810D95054B0A5B848BE2094814060872E8
:100A600010BE069C2817102E805C2817C20DB921D5
:100A7000EBDD728F4C66CE2906A0122064693035FA
:100A8000BACA4877BFE765D5E1F40A6E2D412F3920
:100A90002227100E18983860E0846023C8320C10AA
:100AA000E1807E1CB82137E486DC90A357AF1EB5E9
:100AB0005A19993CB5597E7279682633E714035068
:100AC0000910B2746510B2CA4877BFE76515DD3A00
:100AD000C66A882BB924C3D8E14B67EDF425B7501B
:100AE000E65E9775599775EAADB72E5B0DCC300A67
:100AF00078E15B0F6E9E720A0091428010AA95A069
:100B00004577C75A8BAB57AF8E8E3443B821172524
:100B10001A000010040808BA1D2E97C3AD63AC86F6
:100B2000B8924B328C1DBE74D64E5F720B65EE755B
:100B30005997B52F735ED6A02BC34572426E7BEEDC
:100B400079598743C372642ED8485C8EACCB1A7433
:100B5000556471660013083001005C87BD0FEBC659
:100B6000A9288BAC393721AE32D665EE79599795E5
:100B7000C561CDCBBAACDA55C6BAACCB1A7419E0A4
:100B8000001058B02EEB32E7650DBA325C2427E432
:100B9000B6E79E977538342C47E6828DC4E5C81AAF
:100BA00067AF3B07169300B208208B00B248421192
:100BB000128A9050848422044432402403443240F8
:100BC0002459C4F64F099C2817CA8572A19CFC5E63
:100BD0000E4C0603901200A464483930FB376B7B3F
:100BE0000006000CE01BE92DA6800A145081022AA1
:100BF000800220A0020544A4480922124251D9A82B
:100C00006C142E940BE1E8D5AB57CF5CBD3AF71DC1
:100C10000000006072BFEFCFC2BC03000000BC63E5
:100C20006ED73A0027069B209B201B958DC88572A6
:100C3000027EC05A1E0008004C3E904BF0A21E449B
:100C4000DCDA3D700A81012760ACB94C0544349967
:100C50006301846BD609000018071863DB35078130
:100C600071807138A4000000EFEE331C982C0284D0
:100C700022040413B21D088000DF38311200000680
:100C80001C00E80A99A45AEDA21B809153B8D9F12F
:100C90001DD77A000000005FD8EC09E76C3700012F
:100CA00000264CE86239464D62D488EAA0F29D03E2
:100CB0003000E043CB3D260B6B571700010078D77F
:100CC0003D0F10D80844C7D0002184C11807260062
:100CD0000480877B00F0AA73E952552253522012F8
:100CE0002159615A12483EBEF401000090636FE53D
:100CF00048DA6CF0C064200C11B7804DD42051D379
:100D00000818408184A15ED48BBE81000070E46A23
:100D1000EFC9D8FB050000005EDD2F464842484879
:100D2000B00024810104484278020010714261C37E
:100D3000A0C8C4010B823090040A26500450062635
:100D40004C0627E0E771446EC8D1AB7F4E8EC80DCC
:100D5000B92137E4C873E086DC901B72E473C00DE0
:100D6000B92137E0CADF13010204081020408008CF
:100D70000B0002020201000904000001020200004F
:100D800005240010010524010101042402060524A4
:100D90000600010705810310004009040100020A52
:100DA0000000000705020240000007058302400022
:100DB000000403090412010002EF0201404123363E
:100DC0008000010102030141726475696E6F204C5D
:100DD0004C430041726475696E6F204C656F6E61A3
:100DE00072646F00371E161C11241FBECFEFDAE0AD
:100DF000DEBFCDBF12E0A0E0B1E0E0E1F3E402C06D
:100E000005900D92AC30B107D9F727E0ACE0B2E025
:100E100001C01D92A836B207E1F716E0C3EFD6E095
:100E200004C02197FE010E943C20C23FD107C9F7B0
:100E30000E941A1C0C947B210C9400006F927F92EC
:100E40009F92AF92BF92CF92DF92EF92FF920F9359
:100E50001F93CF93DF9300D000D000D0CDB7DEB783
:100E6000FE01319626E0DF011D922A95E9F7DC01AB
:100E70005996AC01415E5F4F7D0190E06623E1F041
:100E8000D7012D917D01222331F08F01090F111D12
:100E9000D8012C939F5FE416F50691F713C01D96B9
:100EA0008C91882331F08F01090F111DD8012C93EB
:100EB0009F5FE416F50631F0D7012D917D012223C5
:100EC000C1F3EDCF8E010E5F1F4F81E0380189170E
:100ED000F0F4D8015D918D014FEF480F242F042EBF
:100EE000000C330B47FD0DC07F01E20EF31ED7014E
:100EF0007C91571730F4260D371DD9017C93415052
:100F0000EDCF260D371DD9015C938F5FE0CF99237C
:100F100009F4DBC0A0E9EA2EFF24F394B4E6CB2E5B
:100F2000D12C81E020E030E08F0140E050E0702FD4
:100F30007E1B791740F4D8017D918D017813F7CF8E
:100F40004F5F5F4FF4CF433051050CF44DC0443038
:100F5000510589F024F44330510541F01EC045305D
:100F6000510579F04630510591F017C08130C1F438
:100F700048EE53E016C0813009F0AAC040ED57E0BA
:100F800010C0813009F0A6C040EA5FE00AC081309D
:100F900009F0A2C040E45FE104C040E050E001C0BD
:100FA000A601792F77FD1EC08F01070F111D77FD58
:100FB0001A95D8011C91181313C0972E092D10E013
:100FC000053011055CF45301A00EB11ED501BC9093
:100FD0000E0F1F1FD801BC929394F0CF1E82915028
:100FE0007150E0CF240F351F8F5FB4E6CB0ED11CBC
:100FF00040E7E41A4EEFF40A873009F095CF892FC5
:10100000963011F559814A81513089F4423079F492
:101010007B81733061F47C81743049F47D8175305B
:1010200031F47E81763019F424523A4F59C054136A
:1010300013C05B814C8154130FC05D814E815413EA
:101040000BC022513D4F4CC0992309F449C004C044
:101050001E8281502E5C3F4F915097FD32C0AF01F0
:10106000490F511D97FD5A95DA014C91453089F48D
:10107000792F472F50E04530510554F78301040F75
:10108000151FD8011C914E0F5F1FDA011C937F5F63
:10109000F0CF413009F7792F472F50E04530510507
:1010A0005CF48301040F151FD8011C914E0F5F1FC4
:1010B000DA011C937F5FF0CF1E8281502C593F4F85
:1010C000CBCF61110DC0882359F020E030E008C07B
:1010D000A60103C0A70165CFA701440F551F61CF2B
:1010E000C90126960FB6F894DEBF0FBECDBFDF91C3
:1010F000CF911F910F91FF90EF90DF90CF90BF9015
:10110000AF909F907F906F900895FC01168ADB014D
:10111000A15ABF4F8C91878B178E0895089508951B
:10112000089580E090E00895A1E1B2E02FB7F8942F
:101130007D918D919C9166B52FBFA89B05C06F3F97
:1011400018F47F5F8F4F9F4F22E0660F771F881F35
:10115000991F2A95D1F70895089508959F92AF9207
:10116000BF92CF92DF92EF92FF920F931F93CF9394
:10117000DF9300D000D0CDB7DEB77C01FA01122F8B
:1011800019821A821B821C82CA0157FF04C0882759
:101190009927841B950B9E012F5F3F4F4AE0C42E79
:1011A000D12C44E0420FB6010E942820D9018D9332
:1011B0009D01CB014A13F7CFF7FF0DC0602F70E000
:1011C0006D5F7F4F6034710534F4812F90E042E011
:1011D00003970E947D186E01B5E0CB0ED11C80E113
:1011E000982E910E5701E2E0AE0EB11CD701169673
:1011F0001C93169717961C93179718960C93F60145
:1012000042916F0150E060E070E02AE0C5010E9469
:10121000E90E1C5F1911EACF0F900F900F900F90FD
:10122000DF91CF911F910F91FF90EF90DF90CF90C2
:10123000BF90AF909F9008957F928F929F92AF92B0
:10124000BF92CF92DF92EF92FF920F931F93CF93B3
:10125000DF93EC016B01DB0116968D919C91179742
:1012600068E170E00E942820772473948D3008F4A0
:10127000712C5E01B9E1AB0EB11CE12CF12CF70130
:10128000ED5DF84F0491F701E55EF84F8490E6E0DC
:10129000EE1609F44AC0F7E0EF1609F450C0D50184
:1012A0008C91912C10E08823E1F1FE01EE0DFF1DE1
:1012B00087A121E0882389F045EF56E0B401C801F9
:1012C0000E94D016D501EC91F0E0EE0FFF1FEA5B13
:1012D000FE4F4081518120E010C045ED56E0B40141
:1012E000C8010E94D016D501EC91F0E0EE0FFF1F6F
:1012F000EA5BFE4F4081518121E0B4016C5F7F4F7A
:10130000C80104960E94D016888D082E000C990BF7
:10131000E816F906B1F57720A1F120E048EB56E098
:101320002CC021E04EE756E028C089A19AA1892B64
:1013300041F1912C10E021E049E456E00EC02BA1D0
:101340003CA189A19AA1820F931F8C329140C8F0D1
:10135000912C10E021E04FEE55E0B401C8010E944D
:10136000D016888D082E000C990BE816F90649F462
:10137000772039F020E045E256E0B401C8010E9430
:10138000D016EFEFEE1AFE0AFFEFAF1ABF0A28E001
:10139000E216F10409F073CF21E049EC55E060E07A
:1013A00070E083E490E00E94D0168F89F6019AE005
:1013B0008902E00DF11D1124E7A9EE0FFF0BE25C9D
:1013C000FE4F4081518121E061E070E084E490E0D3
:1013D0000E94D01684E5898B888B8FEF8A8B8F894A
:1013E000B601AAE08A02600D711D1124695C7F4F6D
:1013F000CE010C960E94D40E09E510E041E068E0B1
:1014000070E0C8010E944A140E5F1F4F0138110599
:10141000A9F719E51E831F838AE088877E01B2E061
:10142000EB0EF11C64EC75E0C7010E94B00E49A1FF
:101430005AA10AE021E7B601CE010E94AE081E8340
:101440001F8381E188876FEB75E0C7010E94B00EB2
:101450004BA15CA101E121E7B601CE010E94AE08DB
:101460008E89833011F47720D1F089E58E838F83C4
:1014700088E1888769EB75E0C7010E94B00E8F890B
:10148000F6012AE08202E00DF11D1124FF96408151
:10149000518108E121E7B601CE010E94AE0888E043
:1014A0008E838F838AE3888763EB75E0C7010E9490
:1014B000B00E4F8D50E060E070E02AE0C7010E945E
:1014C000E90E6EEA75E0C7010E94B00E2AE04AE01C
:1014D00050E060E070E0C7010E94E90E560187E32A
:1014E000A80EB11CE12CF12C83E4982E8F89082ED4
:1014F000000C990BE816F90629F1092D10E021E0FE
:1015000049EC55E065E270E0C8010E94D016D501B3
:10151000EC91EE0FFF0BE25CFE4F4081518121E028
:1015200066E270E0C80101960E94D01622E0290D03
:10153000F501408551850AE3B601CE010E94AE084F
:10154000F5E19F0E2FEFE21AF20A8AE0A80EB11C15
:1015500094E0E916F10451F68E898430F9F420E024
:1015600042E155E068E070E08CE090E00E94D01627
:1015700021E04BE453E068E070E08CE090E0DF9124
:10158000CF911F910F91FF90EF90DF90CF90BF9080
:10159000AF909F908F907F900C94D016DF91CF9159
:1015A0001F910F91FF90EF90DF90CF90BF90AF9081
:1015B0009F908F907F90089524E1FC01218B208BD8
:1015C0002CE1228B61E072E00C960C94D40E8F9289
:1015D0009F92AF92BF92CF92DF92EF92FF920F93C2
:1015E0001F93CF93DF93EC018B01DB0119969C9144
:1015F0001997909518968C9198238E89823009F4CA
:1016000074C028F4882351F0813071F13CC18330DB
:1016100009F415C1843009F434C135C18F898F5F55
:101620008F8B1AA219A21CA21BA21EA21DA291E0BE
:101630009E8B082E000C990BFB01E15AFF4F208175
:1016400030E08217930724F01F8A8F8D8F5F8F8F72
:10165000FE01B796CE018D9621E0DF011E972C93F7
:101660001192E817F907C9F77E01B9E1EB0EF11CF9
:101670006E01EFE1CE0ED11C86E0882E912CA12CBC
:10168000B12CD7018C91882369F00E94951FA50188
:1016900094010E94B91FDC01CB010196A11DB11D6F
:1016A000F7018083FFEFEF1AFF0AEC14FD0449F7FE
:1016B00061E0CE010E941E079EA38DA3892B19F025
:1016C000188E82E010C08F899AE08902000D111DEA
:1016D0001124F801FF96808191819927845F9140C0
:1016E0009183808384E08E8BCEC095FF1AC0888D55
:1016F0002FEF280F27FD14C0263029F449A15AA145
:10170000452B59F00CC0FE01E20FF11D27FDFA95A3
:10171000318D332311F0822F03C02150EBCF86E0AF
:10172000888F96FF23C0288D81E0820F8830E8F4EF
:10173000863038F4FE01E80FF11D318D332371F04E
:101740000FC049A15AA1863019F4452B39F00AC0BF
:101750006BA17CA1460F571F452B31F48F5FE6CF5D
:10176000282F03C026E001C027E0288F93FF8BC0FD
:10177000888D863091F11CF487FF1CC084C08730AF
:1017800009F081C08F89BAE08B02000D111D112470
:10179000F801FF9629A13AA18BA19CA1820F931F6A
:1017A00020813181820F931F9183808383E08E8B10
:1017B00018A269C0FE01E80FF11D87FDFA95818D21
:1017C000882321F097A181E0892787A360E0CE01DB
:1017D0000E941E079AA389A356C0FE01B796CE01A8
:1017E0008D96AF01DA012D91AD01222329F09D01E3
:1017F0002F503109D9011C924817590799F7DE017A
:1018000059969E01215E3F4F4D91442361F02BA1DB
:101810003CA189A19AA1820F931F9CA38BA31AA21A
:1018200019A281E060CFA217B30771F721E0DF01B1
:101830001E972C931192E817F907C9F7E8CF88A1F2
:10184000803318F48F5F88A31EC01CA21BA21AA2AB
:1018500019A22F89022E000C330BF801E15AFF4F19
:10186000808190E001972817390749F48F8D8A30DD
:1018700031F4F801EE59FF4F84E0808304C01E8AE2
:1018800002C093FDE6CFDF91CF911F910F91FF90A2
:10189000EF90DF90CF90BF90AF909F908F90089582
:1018A000CF92DF92EF920F931F93CF93DF93FC01C0
:1018B0006A3039F48581848396818185890F868396
:1018C000A1C0A4816E3719F4AD5FA4839BC0962F8D
:1018D000EF0166816F5F9A3354F49033DCF49D32EC
:1018E000E1F09E3299F0913209F053C018C09B3557
:1018F00034F491346CF49F3309F451C04AC08FE939
:10190000890F8A3108F045C019EB05C01FE308C0F4
:101910001FEB01C014E0190F03C011E401C01EE366
:101920008F81062E000C770B0A2E000CBB0B81302A
:1019300009F03AC0E1E4F2E00491E2E4F2E0E4907C
:10194000112379F1E02FF0E02E2D2695269526958E
:10195000422F50E021E030E08E2D877011F420E01E
:1019600030E0240F351FE29F6001E39FD00CF29F0F
:10197000D00C112496011203A001139F500D1124C5
:101980004D5B5D4F9AEFC92E20E030E0CD010E9403
:10199000581288858C5F9C81890F8C8333C010E43A
:1019A000BFCF43E452E0EECFE1E4F2E00491E2E4A1
:1019B000F2E0E490112309F1E02FF0E02E2D2695BE
:1019C00026952695422F50E021E030E08E2D87703D
:1019D00011F420E030E0240F351FE29F6001E39F07
:1019E000D00CF29FD00C112496011203A001139F7A
:1019F000500D11244D5B5D4F02C043E452E08BEF6C
:101A0000C82EC2CF81E090E0DF91CF911F910F915E
:101A1000EF90DF90CF900895CF92DF92EF920F93E7
:101A20001F93CF93DF93FC016A3039F4858184835F
:101A300096818185890F8683AAC0A4816E3719F4A7
:101A4000AE5FA483A4C0962FEF0166816F5F9A33C7
:101A500084F4903314F59B3219F11CF4913221F186
:101A60005DC09D3209F460C09E3209F057C01FE38B
:101A70001CC09B354CF4913474F49A3399F09F3325
:101A800009F04CC012E411C08FE9890F8A3108F0C7
:101A900045C019EB03C01FEB01C014E0190F05C0CE
:101AA00011E403C013E401C01EE38F81062E000C75
:101AB000770B0A2E000CBB0B813009F03AC0E3E72C
:101AC000F1E00491E4E7F1E0E490112379F1E02FF3
:101AD000F0E02E2D269526952695422F50E021E008
:101AE00030E08E2D877011F420E030E0240F351F98
:101AF000E29F6001E39FD00CF29FD00C112496016D
:101B00001203A001139F500D11244B585E4F9AEF02
:101B1000C92E20E030E0CD010E94320F88858D5F14
:101B20009C81890F8C8333C010E4BFCF45E751E01F
:101B3000EECFE3E7F1E00491E4E7F1E0E490112374
:101B400009F1E02FF0E02E2D269526952695422FBF
:101B500050E021E030E08E2D877011F420E030E07D
:101B6000240F351FE29F6001E39FD00CF29FD00C41
:101B7000112496011203A001139F500D11244B58FC
:101B80005E4F02C045E751E08BEFC82EC2CF81E027
:101B900090E0DF91CF911F910F91EF90DF90CF9068
:101BA00008950C94D7200C94D7200C94D7200C9433
:101BB000D7200C94D7200C94D720AB01FC010E94B5
:101BC000940841505109E109F10928F068517C4F0E
:101BD0008F4F9F4FF6CFAB01FC010E949408641712
:101BE00075078E079F07C8F308950F930FB70F93DC
:101BF0001F9211248F939F93EF93FF93E5E1F2E0FF
:101C00008091100291E08D5F8D3710F08D57939584
:101C1000809310028081890F80839181911D91832F
:101C20000281011D02838381811D838309270F7037
:101C30000927029500930F0235D0811100930D0200
:101C4000803989F400910E02901B963070F087E77E
:101C5000809300088093010888E198E080936000F9
:101C600090936000FFCF90930E0280910C02815000
:101C700018F080930C0259F3E1E1F2E08081918148
:101C800001968083918382819381811D911D82833E
:101C90009383FF91EF919F918F911F900F910FBFB1
:101CA0000F9118958FB18095807F669B88601C9BF3
:101CB00084600895089508950895089508950895F5
:101CC0000C94D720FC0182E391E0918380831582FC
:101CD00014828AE191E09383828398E0938781E084
:101CE000828717821086168281871786168626E2DB
:101CF00031E035872487958B848B118A128A108A6C
:101D0000838B08950895CF92DF92EF92FF920F9305
:101D10001F93CF93DF936C017A018B01C0E0D0E079
:101D2000CE15DF0589F0D8016D918D01D601ED91B9
:101D3000FC910190F081E02DC6010995892B11F4E9
:101D40007E0102C02196ECCFC701DF91CF911F9198
:101D50000F91FF90EF90DF90CF9008950E946F2138
:101D6000EF92FF920F931F93CF93DF938C017B0130
:101D7000C0E0D0E0F701EC0FFD1F6491662361F035
:101D8000D801ED91FC910190F081E02DC8010995F9
:101D9000892B11F02196EECFCE01DF91CF911F91CB
:101DA0000F91FF90EF9008956115710579F0FB0197
:101DB00001900020E9F73197AF01461B570BDC017A
:101DC000ED91FC910280F381E02D099480E090E098
:101DD00008954F925F926F927F92EF92FF920F93CE
:101DE0001F93CF93DF93CDB7DEB7A1970FB6F894CB
:101DF000DEBF0FBECDBF7C01FA01CB0119A222309C
:101E000008F42AE08E010F5D1F4F422E512C612CE9
:101E1000712CBF01A30192010E94EB1FF901CA01BD
:101E2000015011096A3014F4605D01C0695CD80189
:101E30006C93232B242B252B61F7B801C7010E943B
:101E4000D40EA1960FB6F894DEBF0FBECDBFDF91C2
:101E5000CF911F910F91FF90EF907F906F905F90C7
:101E60004F9008952F923F924F925F926F927F9280
:101E70008F929F92AF92BF92CF92DF92EF92FF929A
:101E80000F931F93CF93DF9300D000D000D0CDB736
:101E9000DEB7F02ECD82A02FB0E06C01CA0EDB1EA3
:101EA0001C141D040CF0F3C0803891050CF0EFC039
:101EB000FB01EE0DF11D1E161F060CF0E8C060348C
:101EC00071050CF0E4C04115510509F4E0C0062F7E
:101ED0000770602EFB0177FD379613E0F595E795C7
:101EE0001A95E1F71E2F77FF04C0662011F01FEF4F
:101EF0001E0F97FF05C0EE27FF27E81BF90B02C056
:101F0000E0E0F0E060E8C616D10424F060E8962E28
:101F1000981A01C09F2C9E1A612F012E000C770B7E
:101F20001F3F1CF4B62EB09401C0B12CDD24D39415
:101F30000E2D077009F4D12CE694E694E694ED0C8E
:101F40006E0D711D693071051CF068E0E62EE11A16
:101F50008B2C810E782D00E87003800D911D1124CB
:101F60008E0F9F1F61E070E0062C02C0660F771F86
:101F70000A94E2F70D81033011F001E001C002E0A4
:101F8000A919B1090A9F302C1124C02ED12CBF9C55
:101F9000E00DF11D1124CE9ED001CF9EB00DDE9E2E
:101FA000B00D11245A01AA0EBB1E2115310509F0EE
:101FB000A901960121503109A20FB31F4A0F5B1FDF
:101FC000EFEFE69F9001E79F300D11242901409427
:101FD00050941E0D1E83232D30E0099D200D311DD0
:101FE00011240E81801609F452C0DC01A25EBD4F9F
:101FF0007A018501712C791409F441C0F8013490FB
:10200000369EF001379EF00D1124FA83E983E095A6
:10201000F095FC83EB83FD81F23019F45C824B82F6
:1020200011C0ED81EB3F19F41A8219820BC0F70140
:102030003490369EF001379EF00D1124E095F09516
:10204000FC83EB8387FC06C0FC91EB81EF23F981D5
:10205000EF2BEC93662061F0F6E0F8154CF0FD01F3
:10206000E058FF4F20803C8023203A803228308285
:10207000EC0CFD1C0C0D1D1D73941196BCCF8394AC
:10208000A20EB31E420F531F80589F4FAACF269611
:102090000FB6F894DEBF0FBECDBFDF91CF911F9179
:1020A0000F91FF90EF90DF90CF90BF90AF909F90F7
:1020B0008F907F906F905F904F903F902F900895FA
:1020C0000895FC01DB0118968C91189719969C9144
:1020D0009095982384FF14C02689203118F42F5F2F
:1020E000268B0FC0F89487E780930008809301083F
:1020F000A89588E18093600088E080936000FFCF1E
:10210000168A93FF05C0FB01EE59FF4F82E08083E2
:1021100008950895FC01DB0119968C91199780951B
:1021200018969C91892371F0828181110BC081E006
:10213000828380E48093900081E49FE090939900F3
:102140008093980092819923B9F09F5F9283953094
:1021500059F09D3761F0923079F480E596E49093E0
:102160009900809398000895109290000895FB01C3
:10217000EE59FF4F81E0808308950895FC01168A8F
:1021800021E0228F089521E040EA5BE060E070E00A
:102190008CE090E00E94D01621E049E25AE063E230
:1021A00070E080E090E00C94D0168F929F92AF92F6
:1021B000BF92CF92DF92EF92FF920F931F93CF9334
:1021C000DF93FC01EB013885F984F094F3228689D2
:1021D000882319F08130F1F05EC1F2FE05C081E084
:1021E000DB01AE59BF4F8C93F3FE02C081E0868BBA
:1021F000F7FCBEC0F4FCBCC08E819F8168E170E03A
:102200000E9428204789508D55278417950709F487
:10221000AFC041C1218DF5FE05C0222319F08FEF1B
:10222000820F818FF6FE05C0818D863010F48F5F9E
:10223000818FF7FC0EC0F4FC0CC08E819F8168E199
:1022400070E00E9428204789508D552784179507F4
:1022500021F437FDCAC034FDEDC08E01EF01F2FE5E
:1022600037C04801B0E68B0E911CF401208122306A
:1022700070F130E0215031099AE0E92EE29EC00170
:10228000E39E900D112488966E01FAE1CF0ED11CC9
:10229000B60158012FE0A20EB11C8A0D9B1D0E94B1
:1022A0007421D4018C9181508C93198E90E0019708
:1022B000E89EF001E99EF00D1124B896EA0DFB1D91
:1022C00087E0D60101900D928A95E1F701C01E8A40
:1022D000F3FEE1C0FE017B969E012F5D3F4F81E042
:1022E0009191903209F080E0E217F307C9F781116C
:1022F000D2C06E01BAE1CB0ED11C5801EFE0AE0E98
:10230000B11C4801F0E68F0E911CD4012C9130E0F5
:10231000215031098AE0F82EF29EC001F39E900D03
:1023200011248896B6018A0D9B1D0E947421F40128
:102330008081319790818917A8F48F5FD4018C93A5
:10234000198E90E00197F89EF001F99EF00D11248E
:10235000B896EA0DFB1D87E0D60101900D928A9593
:10236000E1F799C0E801CE59DF4F83E0888393C03D
:1023700037FF09C0AE01415A5F4FDA019C9194309A
:1023800010F481E00BC034FF86C0AE01415A5F4FAC
:10239000DA019C91923008F47EC08FEF890F282FCC
:1023A00030E0981768F4215031099AE0929FD001EB
:1023B000939FB00D1124AC0FBD1FD7968C930AC00C
:1023C0009AE0929FD001939FB00D1124AC0FBD1FD6
:1023D000D7961C92DA018C938E819F8168E170E020
:1023E0000E942820908F878B56C0211107C0828DB4
:1023F000843011F481E026C08F5F24C0DF01A20F7A
:10240000B11D5A968C915A978A3581F034F48032F6
:1024100059F0C4F1813464F435C081369CF18A37B7
:102420003CF08A3741F12EC081E42AC081E628C001
:102430008F5F26C0211108C0828D813011F484E0A5
:1024400001C08150828F1EC0DF01A20FB11D5A96BC
:102450008C915A978B353CF482348CF4803249F05D
:10246000813449F00FC0813641F064F08B373CF085
:1024700009C08AE705C080E203C08AE501C0815037
:102480005A968C938E819F8168E170E00E9428208B
:10249000908F878BE2CEDF91CF911F910F91FF90AC
:1024A000EF90DF90CF90BF90AF909F908F90089566
:1024B0004F925F927F928F929F92AF92BF92CF92F4
:1024C000DF92EF92FF920F931F93CF93DF9300D091
:1024D00000D0CDB7DEB729011C2DA02EB12C9C0158
:1024E0002A0D3B1D121613060CF0B3C1803891055E
:1024F0000CF0AFC1FB01EE0DF11D1E161F060CF016
:10250000A8C1603471050CF0A4C14115510509F44E
:10251000A0C1E62FE770FE2EFB0177FD3796A3E002
:10252000F595E795AA95E1F7AE2F77FF04C0FF2058
:1025300011F0AFEFAE0F97FF05C0EE27FF27E81BA6
:10254000F90B02C0E0E0F0E02038310524F020E88B
:10255000722E781A01C0702E7E1A6A2F0A2E000C75
:10256000770BAF3F1CF4D62ED09401C0D12C21E0C4
:102570003E2D377009F420E0E694E694E694E20EEE
:102580006E0D711D693071051CF028E0E22EEA1A0B
:10259000ED183D2D3A0FDC0120E83203A00DB11DEE
:1025A0001124AE0FBF1FD09EE00DF11D11244E0F60
:1025B0005F1F81E090E04C010F2C02C0880C991C39
:1025C0000A94E2F7133009F403C1A0F4113009F4BE
:1025D000B5C0123009F03DC18FEF889DB001899DD3
:1025E000700D1124609570957C836B835C802E2D1B
:1025F000230F2BC01A3F31F01B3F09F02AC12E2DAB
:10260000230F88C02E2D230F51C0FA01E00FF11FB8
:10261000E491E89D6001E99DD00C1124DA82C98221
:1026200037FD07C0FC01E080EE2DE623CE2AFC0139
:10263000C082F11013C00F5F1F4F0196071528F3DA
:102640003F5F4A0D5B1DA058BF4F321709F401C10F
:10265000CD01825E9D4F00E010E0F0CF37305CF797
:10266000FC01E058FF4FD080D520CA80DC28D08202
:10267000E2CFFA01E60FF71FE491E89D8001E99DA2
:10268000100D11241A83098337FD04C0FC01108149
:10269000012B0083F11013C06F5F7F4F0196671508
:1026A00040F33F5F4A0D5B1DA058BF4F321709F43E
:1026B000D0C0CD01825E9D4F60E070E0F0CF37303A
:1026C0005CF78C0100581F4FF801E080EA81EE2A88
:1026D000F801E082E1CFFA01E00FF11FE491E89DFB
:1026E000C001E99D900D11249A83898337FD05C0AF
:1026F0008095FB01908189238083F11014C00F5FC6
:102700001F4F6F5F7F4F071530F33F5F4A0D5B1D13
:10271000A058BF4F321709F49CC0BD01625E7D4FC7
:1027200000E010E0F0CF373054F7FB01E058FF4FE6
:102730008A818095908189238083E1CFC2018E0FA9
:102740009F1F2E2D230F321709F483C0BD01625E37
:102750007D4F6B0100E010E0071590F5FC01E00FE4
:10276000F11FE491E89DB001E99D700D1124609581
:1027700070957C836B83FA01E00FF11FE491E89D73
:102780002001E99D500C11245A82498237FD05C071
:10279000F60170816723462A4082FF2059F03730C6
:1027A0004CF4F601E058FF4F70816C8167237A8109
:1027B000672B60830F5F1F4FFFEFCF1ADF0ACCCF6D
:1027C0003F5F4A0D5B1D8A0D9B1DA058BF4FBBCFBD
:1027D000C72CD12CE40FF51FA25EBD4F60E870E05E
:1027E0006C197D09AC18BD088501000F111F572D0C
:1027F0002E2DCF93DF93ED01EF96EF962296A590C5
:10280000C590FF2059F0A89C5001C89C600137304A
:102810002CF4E880D094ED20EB28E99233233AF0B1
:10282000EC90C094EC20EA28ED920C9418141196C8
:102830005A9529F72A9551F0572D33951124E00F19
:10284000F11DA60FB11DC60FD11DD9CFDF91CF91BC
:1028500011240F900F900F900F90DF91CF911F9147
:102860000F91FF90EF90DF90CF90BF90AF909F902F
:102870008F907F905F904F900895BC0180E090E032
:102880000C94DD0D8FB18095807F669B88601C9BCA
:1028900084600895E7E6FDE090E1969FD001A0787E
:1028A0001124A80F6770E60FF11D9491A25EBD4F31
:1028B000442319F08C91982B03C090958C91982308
:1028C0009C9308950F931F93CF93DF93EC0121E026
:1028D00047E15AE061E170E08FE290E00E94D0169B
:1028E00021E04CEF59E06AE170E08BE290E00E9459
:1028F000D01621E04CEF59E06AE170E089E490E005
:102900000E94D0168A8121E0811115C04CEF59E058
:102910006AE170E08AE390E00E94D01621E044EC86
:1029200059E06EE270E08AE190E0DF91CF911F9173
:102930000F910C94D01649EA59E06AE170E08AE3FD
:1029400090E00E94D01621E04DE859E06EE270E080
:102950008CE290E00E94D0168A816FE00E941C20D9
:10296000C82FC3700FE410E0D0E0DC1751F041E055
:1029700061E370E0C8010E944A14DF5F0E5F1F4FE1
:10298000F4CFDF91CF911F910F910895AF92BF9235
:10299000CF92DF92EF92FF920F931F93CF93DF932B
:1029A000EC018B01FB018681978168E170E00E9458
:1029B0002820DD24D3948D3008F4D12C21E046E189
:1029C00058E063E270E080E090E00E94D0168E89CB
:1029D000882319F0813051F1B1C0198A188A88E032
:1029E0008A8B2C9661E078E0CE010E94B00EF8014F
:1029F000E15AFF4F408150E060E070E02AE0CE01F4
:102A00000E94E90EDD2009F499C044E060E170E025
:102A10008EE590E0DF91CF911F910F91FF90EF90A5
:102A2000DF90CF90BF90AF900C947D1896E0C92EA8
:102A3000C98AC88A1A8A7E01FCE0EF0EF11C69EF90
:102A400077E0C7010E94B00EF801E05AFF4F4081C5
:102A500050E060E070E02AE0C7010E94E90EC98AF8
:102A6000C88A89E08A8B63EF77E0C7010E94B00EC5
:102A700021E041ED57E061E070E08CE390E00E94DE
:102A8000D016EA8DF0E0EE0FFF1FEC5AFE4F4081AA
:102A9000518121E062E070E08DE390E00E94D01669
:102AA000DD2019F0898D8823B1F186E0898B888B30
:102AB00089E18A8B6BEC77E0C7010E94B00E0CE3D2
:102AC00010E041E061E270E0C8010E944A140E5F2C
:102AD0001F4F00361105A9F75E012BE1A20EB11CB4
:102AE0000CE311E089E1C82E098B088BCA8ADD202E
:102AF00019F0898D8117B9F0F50161915F01EC85BD
:102B0000FD850190F081E02DC70109951F5F0A5FE7
:102B1000173051F713C04FE064E170E08EE390E0AE
:102B20000E947D18C2CFF6E01F9FC001112444E02F
:102B300061E270E0C6960E947D18DECFDF91CF91F2
:102B40001F910F91FF90EF90DF90CF90BF90AF90CB
:102B50000895FC0180911D02811103C08FEF9FEF4A
:102B600008959FB7F89482E08093E9002091F200E5
:102B700030E01216130614F421E030E0211531057F
:102B800059F0289884E680931C028091F10080839C
:102B90008091F200882319F09FBFC90108958BE648
:102BA0008093E800F9CF2FB7F89483E08093E90091
:102BB0009091E800892F807295FF04C09091F200F7
:102BC00080E4891B2FBF0895CF93DF931F92CDB769
:102BD000DEB76983DC01ED91FC910280F381E02D89
:102BE00041E050E0BE016F5F7F4F09950F90DF918C
:102BF000CF91089583E08093E9008091F2008823CB
:102C000019F08AE38093E80008950E94D31590E0BC
:102C10000895CF93DF931F92CDB7DEB7FC01848573
:102C2000958597FD05C02FEF3FEF358724870BC0B3
:102C3000CE0101960E94A915019719F4898190E0AF
:102C400002C08FEF9FEF0F90DF91CF9108950F9308
:102C50001F93CF93DF931F92CDB7DEB78C01FC019A
:102C60008485958597FF0EC0CE0101960E94A91517
:102C7000019719F4298130E002C02FEF3FEFF801EE
:102C800035872487F801848595850F90DF91CF9152
:102C90001F910F9108958F929F92AF92BF92CF9202
:102CA000DF92EF92FF920F931F93CF93DF935C011C
:102CB0006B017A0180910701882309F45BC0809140
:102CC0001D02882309F456C080911B0280FF05C0B5
:102CD0008091E00082608093E000E70110E00AEF5D
:102CE00083E0882E9AE3992E2097D9F10E94D3157C
:102CF00081110AC0015009F43DC061E070E080E03C
:102D000090E00E94DD0DF0CF282F30E0C217D307EE
:102D10000CF48C2F4FB7F8948092E9009091E80062
:102D200095FF1DC0282F30E0C21BD30BF601982F52
:102D3000915020F081918093F100FACFC20ED31E02
:102D4000112319F09092E80009C08091E80085FDF8
:102D500006C09092E80011E0209709F010E04FBF04
:102D6000C3CF1111C3CF5D9884E680931A021E145D
:102D70001F0444F081E090E0F5019383828380E0BA
:102D800090E001C0C701DF91CF911F910F91FF909B
:102D9000EF90DF90CF90BF90AF909F908F9008956D
:102DA0002F923F924F925F926F927F928F929F925B
:102DB000AF92BF92CF92DF92EF92FF920F931F9349
:102DC000CF93DF93CDB7DEB72C970FB6F894DEBF65
:102DD0000FBECDBF6C01FA0134913196E491832F7F
:102DE0008F778F5FA82EB12CBB82AA82C5018C0D74
:102DF0009D1D97FD69C100E8C016D1040CF064C1A7
:102E00008E2F8F738F5FDB01A80FB11DB7FD5CC1E3
:102E1000603471050CF058C1331F3327331F3983D9
:102E200031E0E6FF30E0EE1FEE27EE1FEC833B01C2
:102E300077FF04C066247724661A770A17E06122B8
:102E40007724FB0177FD37964F01E3E09594879453
:102E5000EA95E1F777FF0CC06114710449F061E075
:102E6000861A910868E070E0DB01A619B7093D01F8
:102E700061E070E05B01062C02C0AA0CBB1C0A9446
:102E8000E2F7BE82AD82682F66956695669587707B
:102E900009F06F5FE12CF12C97E0A0E1B0E080E059
:102EA000412C512C212C312C062F660F110B188729
:102EB0000F830F811885201631060CF005C15D01C6
:102EC00001E010E0F50173E0F695E7957A95E1F7FA
:102ED000E40FF51FE491F0E0B5016770772702C0B9
:102EE000F595E7956A95E2F7D5011196E0FF04C0E4
:102EF0000F5F1F4F5D01E6CF01301105C1F4FD01E9
:102F000063E0F695E7956A95E1F7E40FF51F6491A4
:102F100070E0A770BB2702C075956795AA95E2F788
:102F2000617077276F5F7F4FD50112963CC00150CB
:102F3000110961E070E0002E02C0660F771F0A944D
:102F4000E2F76F5F7F4FA12CB12CFD01F695E7955D
:102F5000F695E795F695E795E40FF51FF491EF2FB9
:102F6000F0E0FA87E987FD01E770FF27FC87EB8730
:102F7000E985FA850B8402C0F595E7950A94E2F796
:102F8000E0FF0AC0E1E0F0E00A2C02C0EE0FFF1FF4
:102F90000A94E2F76E0F7F1F1196FFEFAF1ABF0A78
:102FA000A016B10694F21C861B86EB85FC85E617FD
:102FB000F70709F483C0A980AA2069F0E92FF0E09F
:102FC000311105C007E010E00E1B1F0BF801E25A9B
:102FD000FE4FE0818E2B915008F069C0882309F4E0
:102FE00049C0122D180D18300CF044C0F701EC0D3B
:102FF000FD1DE038F105F0F5AD80BE808A9DF00141
:103000008B9DF00D1124FA87E98717FD16C0C601C4
:1030100000E81003800D911D11248E0D9F1D825E0E
:103020009D4FFC010081222319F0F9850F2B03C06D
:10303000B984B0940B21FC01008361147104D1F0B8
:103040001730C1F01F3FB4F0C60100E81003800D37
:10305000911D11248E0D9F1D82569D4FFC011081E4
:10306000222319F0FA851F2B03C0EA85E0951E2361
:10307000FC011083AC80AA2019F0BB24B3943B253B
:103080000FEF401A500A8A819B814816590634F482
:103090009FEFE91AF90A97E080E009C0EFEF2E1AD6
:1030A0003E0AE12CF12C97E080E0412C512C0B855D
:1030B0001C850F5F1F4F1C870B8777CFAA24A39413
:1030C000B980AB18A982F5CE2C960FB6F894DEBF66
:1030D0000FBECDBFDF91CF911F910F91FF90EF9069
:1030E000DF90CF90BF90AF909F908F907F906F9028
:1030F0005F904F903F902F9008959C01240F311DB9
:103100001216130674F5803891055CF5FC0197FFE3
:1031100002C0E0E0F0E02138310514F020E830E0B2
:103120002E1BAB014770552781E001C0880F4A95DF
:10313000EAF777FF02C0695F7F4F93E07595679567
:103140009A95E1F77695762F662777956795E60F3E
:10315000F71FE25EFD4F215020F09081982B919354
:10316000FACF08958091060781110DC082E0809307
:10317000020784E08093030710920507109204076A
:1031800081E08093060782E097E00895FC01848542
:10319000958597FD0BC09FB7F89482E08093E90076
:1031A0008091F2009FBF90E0019608959FB7F89438
:1031B00082E08093E9008091F2009FBF90E0089543
:1031C0004091620750916307209160073091610739
:1031D00042175307B4F49091E8009570E1F3909191
:1031E000E80092FD19C08093F100809162079091F0
:1031F000630701968F739927892B19F48EEF8093BB
:10320000E8008091620790916307019690936307AD
:103210008093620781E0089580E00895DF92EF9245
:10322000FF920F931F93CF93DF93D82E8A017B01D8
:10323000E40EF51EEB01CE15DF0571F0D7FE03C0DD
:10324000FE01849101C088810E94E01821968111BD
:10325000F2CF8FEF9FEF01C0C801DF91CF911F9197
:103260000F91FF90EF90DF900895615030F0209122
:10327000F100FC0120830196F8CF289884E6809322
:103280001C0208950F931F93CF93DF931F92CDB726
:10329000DEB782E0898342E450E06FE67DE080E8BB
:1032A0000E940E190E94B218DC0112960D911C9119
:1032B00013970115110569F0D801ED91FC91028079
:1032C000F381E02DBE016F5F7F4FC801099597FF25
:1032D00007C089810F90DF91CF911F910F910895C1
:1032E000F80100851185E5CF1F920F920FB60F925E
:1032F00011248F939F938091E1009091E100937F3F
:103300009093E10083FF0FC01092E90091E0909349
:10331000EB001092EC0092E39093ED0010921D02EE
:1033200098E09093F00082FF20C093E09093E90032
:103330009091F200992319F09AE39093E80090910C
:103340001A02992339F090911A02915090931A021F
:10335000992389F190911C02992339F090911C02D4
:10336000915090931C02992341F184FF10C08091E9
:10337000E2008E7E81608093E2008091E1008F7E8A
:103380008093E10080911B028E7E806111C080FFDE
:1033900016C08091E2008E7E80618093E200809171
:1033A000E1008E7E8093E10080911B028E7E816021
:1033B00080931B0204C05D9ACDCF289AD6CF9F91EF
:1033C0008F910F900FBE0F901F9018951F920F9224
:1033D0000FB60F921124CF92DF92EF92FF920F93CC
:1033E0001F932F933F934F935F936F937F938F938D
:1033F0009F93AF93BF93EF93FF93CF93DF93CDB79B
:10340000DEB76C97DEBFCDBF1092E9008091E80077
:1034100083FFEDC168E0CE0145960E94351982EF29
:103420008093E8008D8987FF05C09091E80090FFA8
:10343000FCCF03C09EEF9093E800982F907609F0A0
:10344000C6C09E892F89188D91110CC0803829F42F
:1034500080915F078093F10002C01092F1001092FA
:10346000F10048C1422F50E0512B913051F48111AD
:1034700041C14130510509F03DC180915F078D7F09
:103480000BC0933061F4811135C14130510509F011
:1034900031C180915F07826080935F072BC19530B7
:1034A00041F48091E80080FFFCCF20682093E30086
:1034B00021C1963009F05FC0EB8CFC8C1092E900C2
:1034C0001092630710926207123091F51092610713
:1034D000109260070E94421999E0BE016F5F7F4F12
:1034E000DB01E92F1D92EA95E9F799831A8391E0B0
:1034F0009E8390EA98879AEF99872091620730918E
:103500006307275F3F4F3C832B838D831092E90035
:103510001092630710926207F0926107E0926007D1
:1035200049E050E080E00E940E190E944219E2C07A
:10353000F0926107E09260070E94B218DC011296D7
:10354000ED90FC901397E114F10409F4C0C0D70189
:10355000ED91FC910480F581E02DBE016B5E7F4F03
:10356000C7010995009719F00CF0C4C0C7C0F70156
:10357000E084F184E8CF973009F4C0C0983021F49A
:1035800081E08093F100B6C0993009F0B3C0837038
:1035900009F0B4C0EBEFF1E081E021E036E3908187
:1035A000992361F08093E9002093EB00919190932F
:1035B000EC003093ED008F5F873089F78EE78093C2
:1035C000EA001092EA008F8980931D0293C08B8DD0
:1035D0009C8D1092E90010926307109262079093FD
:1035E000610780936007898D811156C08E899D89FE
:1035F000913A59F4813209F081C047E050E060E02F
:1036000071E080E00E940E1975C0913209F076C019
:10361000833289F4888D90E0982F88272F89822B18
:10362000A0E0B0E08093080190930901A0930A0103
:10363000B0930B015FC0803269F48091E80082FF93
:10364000FCCF67E080E091E00E9435198BEF80931A
:10365000E80006C0823209F04DC08F8980930701CF
:1036600080915E07882319F0EEEFFAE002C0E0E0F7
:10367000F8E08091000190910101A0910201B091C8
:103680000301803B9440A105B10509F07BC0809106
:10369000070180FF93C076C00E94B218DC01129629
:1036A0000D911C9113970115110541F1D801ED9170
:1036B000FC910190F081E02DBE016B5E7F4FC8014F
:1036C0000995811117C0F80100851185ECCF1130E3
:1036D00009F44EC0133091F48F89882309F445C052
:1036E000823081F440E860E183ED9DE00E940A1F92
:1036F000882321F08EEF8093E80079C081E28093E7
:10370000EB0075C0813029F440E86BE087EC9DE068
:10371000EDCF833099F70E94B218DC011296ED903C
:10372000FC9013978E010F5F1F4F6801E114F104A5
:1037300079F0D701ED91FC910680F781E02DB80179
:10374000C7010995080F111DF701E084F184EECF40
:10375000D8011C92F60101900020E9F73197BF01D2
:103760006C197D0940E0C601C1CF61EB7DE002C06C
:1037700065EB7DE06115710509F2FB01449150E0B4
:1037800080E840CF0FB6F894A895809160008861DA
:1037900080936000109260000FBEA895EE3F2AE073
:1037A000F20739F08091FE0A9091FF0A918380839D
:1037B000A1CF1092FF0A1092FE0A9CCFEE3F8AE042
:1037C000F80731F0808191819093FF0A8093FE0A7F
:1037D00087E797E7918380839BE088E10FB6F894B1
:1037E000A895809360000FBE9093600083CF6C9685
:1037F0000FB6F894DEBF0FBECDBFDF91CF91FF9122
:10380000EF91BF91AF919F918F917F916F915F9158
:103810004F913F912F911F910F91FF90EF90DF906B
:10382000CF900F900FBE0F901F9018958EE196E0ED
:103830000C945F0E789483E084BD83E085BD81E0C5
:1038400080936E00E1E8F0E083E08083E0E881E0CF
:103850008083E3EC81E08083E2EC81E08083EAE72F
:1038600087E080838068808310921D0210925F073A
:1038700010921B028091D70081608093D70080EA6C
:103880008093D80089B5806189BD89B5826089BD82
:1038900009B400FEFDCF61E070E080E090E00E949E
:1038A000DD0D8091D8008F7C80618093D80080915D
:1038B000E000807F8093E0008091E1008E7E809325
:1038C000E1008DE08093E200559A209AEEEFFFE749
:1038D000859194918B3F9C4D19F481E080935E0714
:1038E00081EC80937C0085B1806F85B984B1877E3F
:1038F00084B984B1876E84B95E9A5F988AB1806D0D
:103900008AB9769A6E9881B3806F81BB899880B3AB
:103910008D7080BB80E58CBD81E08DBD85E090E041
:103920000E943D145F9A85E090E00E943D145E98ED
:103930005C98EBE2F7E08DE08E0F94919EBD000065
:103940000DB407FEFDCF31968E13F7CF5C9A81E858
:1039500080936400809165008160809365000E947F
:10396000421487FF24C05C9885EA8EBD00000DB428
:1039700007FEFDCF5C9A2E982F982D9880916400B9
:1039800080628093640081E083BF889513BEFCCF82
:103990002D980E9442148478843871F00E94421459
:1039A0008471843129F188EC90E00E943D140E94DA
:1039B000421482FDEDCF38C02D9A88EC90E00E9431
:1039C0003D142F9882E090E00E94A31F8F3F29F0C2
:1039D0006FEF82E090E00E94AB1F84EF91E00E94C5
:1039E0003D142F9A0E94421484788438D9F3D6CF9C
:1039F0002D9A88EC90E00E943D142E9882E090E091
:103A00000E94A31F882329F060E082E090E00E94DA
:103A1000AB1F84EF91E00E943D142E9A0E94421445
:103A200084718431D9F3BFCF2D9A82E090E00E9457
:103A3000A31F882331F03E9A3F9A81E080931902B8
:103A400004C0109219023E983F98809164008E7FC6
:103A50008093640080917A00806480937A008091E2
:103A60007A0086FDFCCFC0917800D09179000E9449
:103A700094088E0120E030E0980111270027600FA4
:103A8000711F821F931F611571058105910511F04A
:103A90000E949A1F8091640081608093640080E19D
:103AA0008093280610928006CC24C3940EE112E085
:103AB000D0E080E0E82E80E0F82EDD24D3948FB7AC
:103AC000F89440911502509116026091170270917E
:103AD00018028FBF80912906942F981B892FC091BF
:103AE0002A06CC2329F090932B0610922A06B8C000
:103AF00090912806891740F48F5F891708F0B0C0AD
:103B0000C3BE889513BEACC0D0922A064093290646
:103B10008091240690912506019690932506809326
:103B2000240680912606809327060E9442148093E3
:103B300026068C2FF80181118FEF00248193819349
:103B4000819381930394D1F7809180068230B9F1FB
:103B500028F4882351F08130E9F075C0833009F4EE
:103B600047C0843009F461C06EC080917F0688230D
:103B700021F01092200610927F066EE176E088E92F
:103B800096E00E948A106EE176E088E996E00E9455
:103B9000621459C090917F06913021F080932006E5
:103BA00080937F066EE176E081E896E00E946110E6
:103BB0006EE176E081E896E00E94C31044C09091E7
:103BC0007F06923041F0809320061092B106D09289
:103BD000B50680937F066EE176E08BE996E00E9461
:103BE000D5106EE176E08BE996E00E94C6142BC0FA
:103BF00090917F06933061F0809320061092D40656
:103C000090917D069093D5061092DD0680937F06F5
:103C10006EE176E08EEB96E00E94E70A6EE176E0D8
:103C20008EEB96E00E941C090EC090917F069430A6
:103C300021F08093200680937F066EE176E08BEE84
:103C400096E00E94DC0AF80180E098E000800EBC5B
:103C5000D111012C019780FDFDCF0192B9F70DB470
:103C6000E114F10409F42BCF0E94000028CF0F9338
:103C70001F93CF93DF93EEE0F7E01382128288EE7A
:103C800093E0A0E0B0E084839583A683B7838AE6BF
:103C900091E0918380838FEF9FEF95878487CEE1BA
:103CA000D6E01886198680E18A871F821E821C86CC
:103CB00088E891E09C838B83188E1F8A10E2188B12
:103CC000198B1A8B1B8B1C8B1D8B1AA219A21A8F96
:103CD0001B8F1C8F1D8F1E8F1F8F1CA61BA61CA346
:103CE0001DA31EA31FA318A719A71EAA1DAA1EA7BE
:103CF0001FA718AB19AB1AAB1BAB8AE0EDE2F6E0DD
:103D0000A5E5B6E001900D928A95E1F78AE0E7E338
:103D1000F6E0AFE5B6E001900D928A95E1F78AE012
:103D2000E1E4F6E0A9E6B6E001900D928A95E1F7AC
:103D30008AE0EBE4F6E0A3E7B6E001900D928A9505
:103D4000E1F701E000937D0600937E0686EF91E0A7
:103D50009983888381E896E00E94620E86E991E06B
:103D600090938206809381061092970686ED91E0EB
:103D7000909399068093980610929A068BE996E0A4
:103D80000E94620E86EA91E090939C0680939B06C7
:103D90001092B1061092B3061092B2061092B506B8
:103DA0001093B6061093B7061093B8061093B90691
:103DB0001093BA061093BB068EEB96E00E94620E3B
:103DC00086EB91E09093BF068093BE060093D406E5
:103DD0008FEF8093D5061092D6061092E0061092CF
:103DE000DF061092E2061092E1061092E4061092AD
:103DF000E3068BEE96E00E94620E86EC91E09093D3
:103E0000EC068093EB0610920107DF91CF911F9192
:103E10000F910895CF92DF92EF92FF920F931F932D
:103E2000CF93DF931F92CDB7DEB7182F062FE42E66
:103E3000862F880F8E5F99830E94E01883E00E948E
:103E4000E018F12EC12E9981D92E8C2D8F19801753
:103E500098F4F601E7FE02C0849101C080810E94BF
:103E6000E018182F80E00E94E0188123FFEFCF1A9E
:103E7000DF0A8111EACF01C081E00F90DF91CF917D
:103E80001F910F91FF90EF90DF90CF9008958F9248
:103E90009F92AF92BF92CF92DF92EF92FF92CF9319
:103EA000DF93EC01688179818A819B8161157105BD
:103EB0008105910521F464E279ED8BE597E02DE130
:103EC00033EF41E050E00E94B91F49015A019B01C4
:103ED000AC01A7EAB1E40E94D81F6B017C01ACEEF3
:103EE000B4EFA50194010E94E61FDC01CB018C0D0B
:103EF0009D1DAE1DBF1DB7FF03C00197A109B048AE
:103F000088839983AA83BB83BC01CD019F77DF910E
:103F1000CF91FF90EF90DF90CF90BF90AF909F90A8
:103F20008F9008950E94471F08958CE091E00E94B1
:103F3000471F089560930C0170930D0180930E014B
:103F400090930F010895F999FECF92BD81BDF89A23
:103F5000992780B50895262FF999FECF1FBA92BDF3
:103F600081BD20BD0FB6F894FA9AF99A0FBE01965A
:103F70000895052E97FB1EF400940E94D01F57FD54
:103F800007D00E94EB1F07FC03D04EF40C94D01F07
:103F900050954095309521953F4F4F4F5F4F089575
:103FA00090958095709561957F4F8F4F9F4F0895A5
:103FB0000E940D20A59F900DB49F900DA49F800D91
:103FC000911D11240895B7FF0C94D81F0E94D81F8B
:103FD000821B930B0895A1E21A2EAA1BBB1BFD01A5
:103FE0000DC0AA1FBB1FEE1FFF1FA217B307E407D8
:103FF000F50720F0A21BB30BE40BF50B661F771F30
:10400000881F991F1A9469F760957095809590950F
:104010009B01AC01BD01CF010895A29FB001B39FE8
:10402000C001A39F700D811D1124911DB29F700DC1
:10403000811D1124911D0895991B79E004C0991FD9
:10404000961708F0961B881F7A95C9F780950895F2
:10405000AA1BBB1B51E107C0AA1FBB1FA617B707AE
:1040600010F0A61BB70B881F991F5A95A9F78095CA
:104070009095BC01CD010895EE0FFF1F0590F491BE
:10408000E02D0994CF93DF938230910510F482E004
:1040900090E0E0916607F091670720E030E0C0E033
:1040A000D0E0309711F14081518148175907C0F095
:1040B0004817590761F482819381209719F09B83F7
:1040C0008A832BC0909367078093660726C02115CB
:1040D000310519F04217530718F49A01BE01DF01A8
:1040E000EF010280F381E02DDCCF2115310509F1CC
:1040F000281B390B2430310590F412968D919C9138
:1041000013976115710521F0FB019383828304C02D
:104110009093670780936607FD01329644C0FD01C6
:10412000E20FF31F81939193225031092D933C9319
:104130003AC02091640730916507232B41F4209108
:104140001201309113013093650720936407209189
:104150001001309111012115310541F42DB73EB701
:104160004091140150911501241B350BE091640717
:10417000F0916507E217F307A0F42E1B3F0B2817F9
:10418000390778F0AC014E5F5F4F2417350748F0D0
:104190004E0F5F1F5093650740936407819391937F
:1041A00002C0E0E0F0E0CF01DF91CF9108950F93DE
:1041B0001F93CF93DF93009709F48CC0FC013297D3
:1041C000138212820091660710916707011511058D
:1041D00081F420813181820F931F209164073091F7
:1041E00065072817390779F5F0936507E0936407A9
:1041F00071C0D80140E050E0AE17BF0750F41296EE
:104200002D913C911397AD012115310509F1D9018B
:10421000F3CF9D01DA013383228360817181860FA0
:10422000971F8217930769F4EC0128813981260FC3
:10423000371F2E5F3F4F318320838A819B81938379
:104240008283452B29F4F0936707E093660742C009
:104250001396FC93EE931297ED01499159919E01AB
:10426000240F351FE217F30771F480819181840FC9
:10427000951F029611969C938E938281938113963B
:104280009C938E931297E0E0F0E0D80112968D9106
:104290009C911397009719F0F8018C01F6CF8D913E
:1042A0009C9198012E5F3F4F820F931F20916407CE
:1042B000309165072817390769F4309729F410926F
:1042C00067071092660702C0138212821093650777
:1042D00000936407DF91CF911F910F91089581E0C2
:1042E00090E0F8940C947B21FB01DC0101900D928D
:1042F0000020E1F7089516E0C3EFD6E004C0FE0108
:104300000E943C202196C43FD107C9F7F894FFCF03
:1043100000E1000000000000FFFFFFFF01000000BF
:10432000000068078000000000000C0D830E91085B
:10433000900800000000500C830E910890080000C7
:10434000000000000000AD08AC08AE0EAE0E220169
:104350000C01EC00C900AC006D0166015D01540167
:1043600049013F01AE079807780755073807010252
:1043700004081020408000000000E4154B160516CC
:10438000FA15C6180916271600000000AE0E830E97
:104390009108900800000000601000000000820EEC
:1043A000D10D000000005E0EDB0D8910AC0861101D
:1043B000C310000000005C0ED70DBE10AC08D51075
:1043C000C614000000005B0ED50D8508AC08E70A96
:1043D0001C09000000005A0ED30D8F08AC088E088F
:1043E000DC0A000000005D0ED90DBD10AC088A107B
:1043F00062140000000000000000AD08AC08AE0E22
:10440000AE0E000000005F0E600E00C18081000053
:0C4410000047616D65204F76657200006A
:00000001FF
