:100000000C940B0B0C94330B0C94330B0C94330BA0
:100010000C94330B0C94330B0C94330B0C94330B68
:100020000C94330B0C94330B0C94EB1C0C945D1D53
:100030000C94330B0C94330B0C94330B0C94330B48
:100040000C94330B0C94330B0C94330B0C94330B38
:100050000C94330B0C94330B0C94330B0C948712CD
:100060000C94330B0C94330B0C94330B0C94330B18
:100070000C94330B0C94330B0C94330B0C94330B08
:100080000C9404120C94330B0C94330B0C94330B20
:100090000C94330B0C94330B0C94330B0C94330BE8
:1000A0000C94330B0C94330B0C94330BB10BD70B18
:1000B000170CFA0C210D250D2D0D118F27264C083C
:1000C000D440E9822C1B8885416094F2055065A1DB
:1000D000020348B0B2B042C01520509CD075071141
:1000E0004FEFD6C68202088202088285094BE0FBE8
:1000F0004326120182C489C410160C01F800118F26
:10010000074E20C082718299744DC8010AB001F86F
:10011000324352168AB0D03224E553118F4F102249
:1001200065280B0091620416404219814138F3980A
:1001300051845D04A84CE86D146016CA9123118F98
:100140004F00097BCE290BB1ABF18084057C0C28D4
:100150005913268C4618A9300CB248045E02118F40
:100160009F091CC45B4F229CF811BD0DD8D00B1405
:100170000EBDE53D118F2F9C19490EE39853C80C15
:1001800000A9F0359B9101213021701A872423D3D7
:1001900097118F27264C08D440E9822C1B88854173
:1001A0006094F2055065A1020348B0B2B042C01598
:1001B00020509CD07507114FEFD6C68202088202EC
:1001C000088285094BE0FB4326120182C489C410D2
:1001D000160C01F800118F074E20C08271829974AD
:1001E0004DC8010AB001F8324352168AB0D0322409
:1001F000E553118F4F102265280B009162041640C1
:100200004219814138F39851845D04A84CE86D147B
:100210006016CA9123118F4F00097BCE290BB1AB19
:10022000F18084057C0C285913268C4618A9300CC3
:10023000B248045E02118F9F091CC45B4F229CF8D8
:1002400011BD0DD8D00B140EBDE53D118F2F9C199B
:10025000490EE39853C80C00A9F0359B9101213059
:1002600021701A872423D39709CF6AF59B5ADDFDA5
:10027000761709CFABEFDCBEEBADDFEE0209CFABFB
:10028000DFEEADDFEE0209CF5F70FBAEB7FE0A090D
:10029000CFBFA2B7FE0A098FDFB0FE6603081F05B5
:1002A0001F1F151B1F11111F110E1F15111F0501F7
:1002B0001F111D1F041F001F0010101F1F041B1FF4
:1002C00010101F061F1F011F1F111F1F05071F31C1
:1002D0001F1F051B17151D011F011F101F0F100FDA
:1002E0001F0C1F1B041B071C071915130C121E1FC4
:1002F000120C1E12120C121F0C1A14041F052E2AA7
:100300001E1F021C001D00201D001F041A011F00DB
:100310001E041E1E021E1E121E3E120C0C123E1E3B
:10032000020614120A020F121E101E0E100E1E08D4
:100330001E1A041A2E281E1A12161F111F121F1021
:100340001D151711151F07041F17151D1F151D015A
:10035000011F1F151F17151F0017000010000404B0
:1003600004040E040229060A000004083E09093E9E
:100370003F25251A1E2121123F21211E3F2525211F
:100380003F0505011E21293A3F04043F213F21007A
:100390001021211F3F040A313F2020203F02023F4D
:1003A0003F02043F1E21211E3F0909061E21112E76
:1003B0003F09093622252519013F01011F20201F71
:1003C0000F10201F3F10103F3B04043B030438076D
:1003D000312D2321102A2A3C3F2424181C222214C8
:1003E0001824243F1C2A2A2C043E05014C52523E5C
:1003F0003F040438243D20004040443D3F0814227F
:10040000213F20003E04043E3E04023C1C22221CEC
:100410007E22221C1C22227E3E040204242A2A124E
:10042000021F22201E20201E0E10201E3E10103EF5
:10043000360808364E50503E322A26221E29251EE6
:10044000223F2000322929261221251A0C0A3F08B2
:10045000172525191E252518013905031A25251AE2
:100460000629291E002F0000002000000229050295
:1004700000040400546F74616C001397AE055CBDFA
:100480007AF5EAD5AB578F64EDFD77D8CF801B7234
:10049000436EC80DB92137E4861CB9036F9F9B23B7
:1004A0000017440EE8D384090B066C180472F2524C
:1004B0002881130007180472000036140EE8C7BD27
:1004C000F239E0861C79EE95BFBF27024C0010166A
:1004D000241CF23B732000060102221C80A50D6B38
:1004E000BFEFC509CE6499B7FB5020003004380136
:1004F0000E000800B000AC4240140442021A002072
:10050000C8455C1B0020001C981A1011C120980CD3
:1005100008C00041111D040000111400004040A556
:10052000A90017084C586310000000908B080504C0
:10053000348800801064F80568800100E4068001BA
:1005400010041800620D0060A3800D0882CA503F9D
:10055000CB4DD0240040009A0FB4ED01C5811B8023
:1005600093020000007B03000000DC27EC09007010
:1005700067C182755A0BA06CE7000000000039418A
:1005800018E334614ECF54440004004084B288AA7A
:100590000B28B08000A54AD9B0008000C064C38297
:1005A000B5F9FEDE00000000D3295D140300050448
:1005B0007029804B01BC008B460371E50770444EE7
:1005C00000DC805F079C10382147EE1C9123DFE39D
:1005D000CAEFE10A1C790EDC901B72438E3C076E59
:1005E000C0AF056EC0953B47E406C08570436EC042
:1005F000737F9FC216E1A27802128501821C84AF2C
:100600000127CA05840B2017CA8570436EC80DB830
:10061000FACF912B7003E002810D95054B0A5B84A4
:100620008BE209481406087210BE069C2817102E8B
:10063000805C2817C20DB921EBDD728F4C66CE2984
:1006400006A0122064693035BACA4877BFE765D57D
:10065000E1F40A6E2D412F392227100E18983860C8
:10066000E0846023C8320C10E1807E1CB82137E49E
:1006700086DC90A357AF1EB55A19993CB5597E72C6
:1006800079682633E71403500910B2746510B2CAB2
:100690004877BFE76515DD3AC66A882BB924C3D809
:1006A000E14B67EDF425B750E65E9775599775EA0B
:1006B000ADB72E5B0DCC300A78E15B0F6E9E720AEF
:1006C0000091428010AA95A04577C75A8BAB57AFCF
:1006D0008E8E3443B82117251A000010040808BA7A
:1006E0001D2E97C3AD63AC86B8924B328C1DBE7481
:1006F000D64E5F720B65EE755997B52F735ED6A017
:100700002BC34572426E7BEE79598743C372642EC8
:10071000D8485C8EACCB1A745564716600130830EF
:1007200001005C87BD0FEBC6A9288BAC393721AE21
:1007300032D665EE79599795C561CDCBBAACDA550D
:10074000C6BAACCB1A7419E0001058B02EEB32E7E1
:10075000650DBA325C2427E4B6E79E977538342CD1
:1007600047E6828DC4E5C81A459F7B0C4EC8AA484F
:100770000845EC421A081248916990E140E244822F
:1007800015091BB9212B416E48B2904482042D7289
:1007900043C2466EC80D590C643890E14086031977
:1007A0000E643890E1408603B92137E44618E3E946
:1007B0003E000700EA647BE5882C0613A90B591656
:1007C000B921032830D85E5DC06001E79C90237793
:1007D0003E33E1E733E787F6BBBDC738504C030033
:1007E0006081814321484D1DB5F6E2F4EAD5E9B0B8
:1007F0002BAD0BB901B874516F7C704E7E3ECCEFBF
:10080000ECA763103888A401045B102E201C443C24
:10081000807001611810A8453C807001615010CAB9
:1008200000E102C205840B0805058915E486DC9009
:100830001B321CC87020C3810C07321CC87020C337
:10084000810C1672436EC88931EE459F1EF9CF4167
:10085000D6FEEFC4FEEFC45EF9CF01C70B6FA79BB6
:1008600023000700618372F27B39100006000C0838
:10087000B4CCFE3CE004006C0C1CD01F0B5E0830B6
:1008800001220B162C58B060C086C286C00580A31A
:1008900057FED5E85A000000000F60940E286C182F
:1008A000B0608110D62817EE0B6015008085030616
:1008B000C440210606EC0089480108C0E4C04C9001
:1008C000209010467EC13E00000000C0752E840BB3
:1008D000043614964CF5850A15000304000500E261
:1008E000064E10980091050000141580E282050361
:1008F00036044E84030230012203030003545820BF
:10090000C286C201FDDC9C08000378D112150A07DB
:10091000102E20CCE2500059B010000000268705B0
:100920000B96CBE58205EBE50620CFA6AC01C2090C
:10093000F8DC3E001000783117C2058413721113E1
:100940000804000028B31D000000002F6001002EE5
:10095000E0BE60C172B98002200401916142004E84
:10096000C08D1821208410249420012142D41D4DD3
:1009700012BF9303212C84C004E5E4F738A21700CA
:100980002F884C040016844021060A21B060C184DF
:10099000C04938217080C286C00580235F530E088D
:1009A000C802882C5830604361C380050B061C00C8
:1009B000387AE92200B0003809866422200B203200
:1009C0005095A20416486042E022C8654D98500830
:1009D00020144CA0600205016161E022FCE718EFE1
:1009E000E71CC7E1B02E739E7C9FC3611C39E734BE
:1009F000FB73729AF3B20E87F1E37AD8F3D45B6F8C
:100A0000BD8DCBBACC7D18B71EFD47F2837A19375E
:100A10007E90B71EBD7A147E159331F2C5DF342F58
:100A2000E3A77065C435E7A9B75CBDE6362E73CF82
:100A3000CB3AF5E8B1B7715987C378FE8338EC3DFE
:100A40007E68DB5FDC79598F7FD39E87137F99B6F1
:100A5000C3BF5A7C97C361DC7A9AF3E47B8EE3B020
:100A6000F79EA7DE72F59A5B4F735EE63EACCBDC79
:100A70008771E4F5381CC6AD47AF5E3DF6360E878C
:100A80007138E5731C7BCBD56B6E3DCD3D0FF39478
:100A9000AB57AF5E731B8743FF73C3957F0767AF89
:100AA0003B07169300B208208B00B2484211128A0D
:100AB0009050848422044432402403443240245918
:100AC000C4F64F099C2817CA8572A19CFC5E0E4C87
:100AD0000603901200A464483930FB376B7B000694
:100AE000000CE01BE92DA6800A145081022A800226
:100AF00020A0020544A4480922124251D9A86C142E
:100B00002E940BE1E8D5AB57CF5CBD3AF71D000042
:100B1000006072BFEFCFC2BC03000000BC636ED7A1
:100B20003A0027069B209B201B958DC88572027E6C
:100B3000C05A1E0008004C3E904BF0A21E44DCDA66
:100B40003D700A81012760ACB94C054434996301BA
:100B5000846BD609000018071863DB3507817180A4
:100B60007138A4000000EFEE331C982C028422049C
:100B70000413B21D088000DF3831120000061C008B
:100B8000E80A99A45AEDA21B809153B8D9F11DD758
:100B90007A000000005FD8EC09E76C3700010026FE
:100BA0004CE86239464D62D488EAA0F29D033000D9
:100BB000E043CB3D260B6B571700010078D73D0F64
:100BC00010D80844C7D0002184C11807260004802B
:100BD000877B00F0AA73E952552253522012215903
:100BE000615A12483EBEF401000090636FE548DA96
:100BF0006CF0C064200C11B7804DD42051D308187C
:100C0000408184A15ED48BBE81000070E46AEFC98C
:100C1000D8FB050000005EDD2F4648424848B00082
:100C200024810104484278020010714261C3A0C8C7
:100C3000C4010B823090040A2650045006264C064C
:100C400027E0E771446EC8D1AB7F4E8EC80DB92145
:100C500037E4C873E086DC901B72E473C00DB921E1
:100C600037E0CADF1367AF3DAC536FBDF596AB57A6
:100C7000AF5EF9791D7F2F4F73EFBDF7DEFB30BEFE
:100C8000741847AF5EBD7ACDE94F34F297E6B22EC5
:100C9000EB32F7DE8771EBADB7DE7AEBED97BE771F
:100CA000FD4E4EF3B22EEBB22EEB32F79EA77C65D3
:100CB000F3EFDE5BAEFC6B78FE9FC6F63DFBB78FB5
:100CC00023FF9CBD7AECAD47AF5EBD7AEC69CE5395
:100CD0003ECFB1A775599771EB2D9FE7EAD5AB577A
:100CE000AF5EBD7A1C9775599775599771CC695D40
:100CF000D6655DD6651C39E7B42EEBB22EEB943F7A
:100D0000277E6F667E005475726E7E00546F74612C
:100D10006C005475726E00526F6C6C001397AE05C8
:100D20005CBD7AF5EAD5AB578F64EDFD77D8CF007F
:100D3000B8207041E082C005810B0217042E089C88
:100D400090239BCF2B1CBD7A553A54863538E21C34
:100D50005A14E2B60602F5EAD523591338006503A2
:100D60006503650365036503650365036503650343
:100D700065036503E50448011B8FAE05040000050B
:100D800000005000000005000050000000050000B9
:100D90005000000005000050000000050000500059
:100DA000000005000010584B8E04D808C0460036DD
:100DB00002B011808D006C046023001B01D808C0B4
:100DC00046003602B00917041B8FCD045EFBDAD74C
:100DD000BEF6B5AF8199178497949794979497949A
:100DE000979497842B1B8FAE055CBD7AD501A21119
:100DF000A61912D3A974E809754CAF5E81B5E44811
:100E0000804D814D814D814D814D814D814D814D73
:100E1000814D814D814D814DB82011D7FA095FFB7D
:100E2000DA4F58F5F7ABDF41DE226F91AF00911733
:100E30002E2E0008400110800220000540000A808C
:100E40000014000128000200D367002000080002FF
:100E500080002000080002800020000800028000BE
:100E600020003C70F2B3592E91D7CA135EFBDAD73B
:100E70003C4141FF06CA4BDE226F91B73C041197FB
:100E8000198370F4EAD5AB57AF1E096364C2AF870C
:100E900079E788DC901B72436EC80D397207111711
:100EA00019B26031994C2693C96432994C1630645A
:100EB000DFF6E667EEFD80CD6432994C2693C96477
:100EC00032593C030000001414142A2A001428008C
:100ED0001428001E053FB0E79E02F060EF03003CBF
:100EE000D8FB00000FF63E00C083BD0F00F060EF9E
:100EF00003003CD8FB00006758870D007000D5F058
:100F00008D14A1C881CFD9F1AF2000118F27264CB5
:100F100008D440E9822C1B8885416094F205506515
:100F2000A1020348B0B2B042C01520509CD0750752
:100F3000114FEFD6C68202088202088285094BE073
:100F4000FB4326120182C489C410160C01F800115B
:100F50008F074E20C082718299744DC8010AB0017A
:100F6000F8324352168AB0D03224E553118F4F1015
:100F70002265280B0091620416404219814138F322
:100F80009851845D04A84CE86D146016CA91231131
:100F90008F4F00097BCE290BB1ABF18084057C0C0F
:100FA000285913268C4618A9300CB248045E021149
:100FB0008F9F091CC45B4F229CF811BD0DD8D00B2C
:100FC000140EBDE53D118F2F9C19490EE39853C8AF
:100FD0000C00A9F0359B9101213021701A87242340
:100FE000D39789871C0307140E103801670907611E
:100FF00039802203283880C5E6061397AE055CBD0C
:101000007AF5EAD5AB578F64EDFD77D8CF801B72A8
:10101000436EC80DB92137E4861CB90349636F6E6E
:101020007E7E4E616D6500506C617965727E004E0A
:10103000756D6265727E6F667E706C6179657273C4
:101040007E3F20007F9FC216E1A2780212850182B6
:101050001C84AF0127CA05840B2017CA8570436E14
:10106000C80DB8FACF912B7003E002810D95054BA6
:101070000A5B848BE209481406087210BE069C289D
:1010800017102E805C2817C20DB921EBDD728F4C32
:1010900066CE2906A0122064693035BACA4877BFE7
:1010A000E765D5E1F40A6E2D412F392227100E187D
:1010B000983860E0846023C8320C10E1807E1CB850
:1010C0002137E486DC90A357AF1EB55A19993CB579
:1010D000597E7279682633E71403500910B274659B
:1010E00010B2CA4877BFE76515DD3AC66A882BB9E2
:1010F00024C3D8E14B67EDF425B750E65E977559E8
:101100009775EAADB72E5B0DCC300A78E15B0F6EB8
:101110009E720A0091428010AA95A04577C75A8B0B
:10112000AB57AF8E8E3443B82117251A0000100438
:101130000808BA1D2E97C3AD63AC86B8924B328CAB
:101140001DBE74D64E5F720B65EE755997B52F7341
:101150005ED6A02BC34572426E7BEE79598743C39E
:1011600072642ED8485C8EACCB1A745564716600DC
:1011700013083001005C87BD0FEBC6A9288BAC3982
:101180003721AE32D665EE79599795C561CDCBBA88
:10119000ACDA55C6BAACCB1A7419E0001058B02EB0
:1011A000EB32E7650DBA325C2427E4B6E79E97750B
:1011B00038342C47E6828DC4E5C81A080B000202B9
:1011C00002010009040000010202000005240010D1
:1011D000010524010101042402060524060001077B
:1011E00005810310004009040100020A0000000705
:1011F00005020240000007058302400000040309C5
:101200000412010002EF0201404123368000010177
:1012100002030141726475696E6F204C4C430041BA
:10122000726475696E6F204C656F6E6172646F00D9
:10123000A187DD0D9BBB201BC46B2EBDE43864E38E
:101240003878DCB75EC04B6FA11BC51B0D0F0CA41B
:10125000C0400A0CA4C0400A0CA4C0400A0C78C1CB
:10126000993367CE9C7904CD87DDD213C7018702FD
:10127000DCBA45397281E0910B04BFD52D3D71DC9C
:101280009BC531975E7296ECE0730F1838782CDCB2
:10129000D6A7C61EA7E04D72EB969E380EDC088DD1
:1012A0008F119225244B4896902C215942B20476F6
:1012B0002EEBB22EEBB22EEBB28E23474D474646B5
:1012C000F3DB46B3F839AC741C59E9D87F9FC216DA
:1012D000E1A27802128501821C84AF0127CA05842D
:1012E0000B2017CA8570436EC80DB8FACF912B70CA
:1012F00003E002810D95054B0A5B848BE2094814DB
:1013000006087210BE069C2817102E805C2817C293
:101310000DB921EBDD728F4C66CE2906A012206438
:10132000693035BACA4877BFE765D5E1F40A6E2D52
:10133000412F392227100E18983860E0846023C8A6
:10134000320C10E1807E1CB82137E486DC90A35774
:10135000AF1EB55A19993CB5597E7279682633E7A4
:101360001403500910B2746510B2CA4877BFE7651C
:1013700015DD3AC66A882BB924C3D8E14B67EDF472
:1013800025B750E65E9775599775EAADB72E5B0D98
:10139000CC300A78E15B0F6E9E720A009142801099
:1013A000AA95A04577C75A8BAB57AF8E8E3443B8FA
:1013B0002117251A000010040808BA1D2E97C3AD86
:1013C00063AC86B8924B328C1DBE74D64E5F720BE6
:1013D00065EE755997B52F735ED6A02BC345724243
:1013E0006E7BEE79598743C372642ED8485C8EAC0D
:1013F000CB1A74556471660013083001005C87BD18
:101400000FEBC6A9288BAC393721AE32D665EE7901
:10141000599795C561CDCBBAACDA55C6BAACCB1AE3
:101420007419E0001058B02EEB32E7650DBA325C4B
:101430002427E4B6E79E977538342C47E6828DC49E
:10144000E5C81A67AF3B07169300B208208B00B2BD
:10145000484211128A90508484220444324024036A
:101460004432402459C4F64F099C2817CA8572A1FA
:101470009CFC5E0E4C0603901200A464483930FBBD
:10148000376B7B0006000CE01BE92DA6800A145088
:1014900081022A800220A0020544A44809221242A7
:1014A00051D9A86C142E940BE1E8D5AB57CF5CBD95
:1014B0003AF71D0000006072BFEFCFC2BC0300000E
:1014C00000BC636ED73A0027069B209B201B958D9E
:1014D000C88572027EC05A1E0008004C3E904BF038
:1014E000A21E44DCDA3D700A81012760ACB94C05CC
:1014F0004434996301846BD609000018071863DB34
:1015000035078171807138A4000000EFEE331C981C
:101510002C028422040413B21D088000DF3831122B
:101520000000061C00E80A99A45AEDA21B80915302
:10153000B8D9F11DD77A000000005FD8EC09E76C3C
:1015400037000100264CE86239464D62D488EAA093
:10155000F29D033000E043CB3D260B6B5717000193
:101560000078D73D0F10D80844C7D0002184C11897
:101570000726000480877B00F0AA73E952552253A6
:101580005220122159615A12483EBEF401000090C7
:10159000636FE548DA6CF0C064200C11B7804DD45D
:1015A0002051D30818408184A15ED48BBE810000F5
:1015B00070E46AEFC9D8FB050000005EDD2F4648E5
:1015C000424848B00024810104484278020010716A
:1015D0004261C3A0C8C4010B823090040A265004A3
:1015E0005006264C0627E0E771446EC8D1AB7F4E0B
:1015F0008EC80DB92137E4C873E086DC901B72E415
:1016000073C00DB92137E0CADF13010204081020AE
:1016100040805C25142311241FBECFEFDAE0DEBF2B
:10162000CDBF12E0A0E0B1E0EEEAF1E502C0059026
:101630000D92A831B107D9F727E0A8E1B2E001C0C7
:101640001D92AE38B207E1F71BE0CAE0DBE004C050
:101650002197FE010E948B27C930D107C9F70E944C
:1016600018230C94CA280C940000FC01168ADB0194
:10167000A159BF4F8C91878B178E0895FB018185EF
:1016800080959085892383FF04C0EE58FF4F81E049
:10169000808308950F931F93CF93DF93EC01FB0199
:1016A000E159FF4F80817A9791E020E03CE0981764
:1016B00090F4DB01329FA00DB11D1124A75BBF4F39
:1016C000008111814D915C91401751070CF4292F35
:1016D0009F5F3C96ECCF2E8BDF91CF911F910F91A6
:1016E0000895089580E090E00895ADE1B2E02FB74D
:1016F000F8947D918D919C9166B52FBFA89B05C0F4
:101700006F3F18F47F5F8F4F9F4F22E0660F771F68
:10171000881F991F2A95D1F70895089508958F92EB
:101720009F92AF92BF92CF92DF92EF92FF920F9370
:101730001F93CF93DF93EC01DB0119969C911997CE
:10174000909518968C919823EE894E2F50E0473053
:10175000510508F091C18B01FA01EA5AFF4F0C9430
:101760008B278F898F5F8F8B1AA219A21CA21BA2B5
:101770001EA21DA291E09E8B082E000C990BFB016E
:10178000E159FF4F208130E08217930724F01F8A30
:101790008F8D8F5F8F8FFE01B796CE018D9621E0E2
:1017A000DF011E972C931192E817F907C9F77E0104
:1017B00049E1E40EF11C6E016FE1C60ED11C86E01A
:1017C000882E912CA12CB12CD7018C91882369F003
:1017D0000E94D626A50194010E94FA26DC01CB01C5
:1017E0000196A11DB11DF7018083FFEFEF1AFF0ADB
:1017F000EC14FD0449F761E0CE010E94B9179EA3E5
:101800008DA3892B19F0188E82E019C18F894CE0C5
:101810008402000D111D1124F801E75BFF4F808148
:101820009181845F91409183808385E0E0C095FF42
:1018300010C0888D81306CF087301CF0873019F033
:1018400008C0815005C029A13AA1232B11F086E0E0
:10185000888F96FF1CC0888D853041F024F487FD69
:1018600016C08F5F13C0863039F011C029A13AA18C
:10187000232B69F086E00AC049A15AA12BA13CA103
:10188000240F351F2C32314010F087E0888F94FFF1
:1018900031C0888D833059F02CF487FD2BC08D5FCB
:1018A000888F28C0843061F08530C1F023C029A121
:1018B0003AA1232B59F186E0888F97FF2FC02AC0C9
:1018C00029A13AA1232BB9F72BA13CA12C323140FD
:1018D000E8F087E0888F97FF21C01EC049A15AA178
:1018E0002BA13CA1240F351F2C32314090F7452B02
:1018F00011F70CC097FF12C0888D863059F01CF488
:10190000833034F40BC0873039F008C097FF06C02D
:10191000835003C083E001C085E0888F93FFACC093
:10192000888D863089F11CF487FF1BC0A5C08730E5
:1019300009F0A2C08F89BCE08B02000D111D11249B
:10194000F801E75BFF4F29A13AA18BA19CA1820F6F
:10195000931F20813181820F931F9183808383E0C5
:1019600046C0FE01E80FF11D87FDFA95818D8823A1
:1019700021F097A181E0892787A360E0CE010E9432
:10198000B9179AA389A378C0FE01B796CE018D96A8
:10199000AF01DA012D91AD01222329F09D012F50D5
:1019A0003109D9011C924817590799F7DE01599658
:1019B0009E01215E3F4F4D9141115BC0A217B307BD
:1019C000D1F721E0DF011E972C931192E817F90758
:1019D000C9F786E08E8B18A22BA13CA189A19AA100
:1019E000820F931F9CA38BA31AA219A245C08E8BB2
:1019F00018A242C0992311F080E388A388A1803304
:101A000098F11CA21BA21AA219A2F801E159FF4FDA
:101A100040812F89022E000C330B842F90E0019718
:101A20002817390749F48F8D8A3031F4F801EE58C0
:101A3000FF4F84E0808320C0423028F084E08E8B0A
:101A40001BC093FF19C01E8A17C088A1843110F4EF
:101A50008F5F88A393FDD9CF0FC0992311F080E346
:101A600088A388A1803318F48F5F88A305C081E024
:101A7000E6CF81E08E8BB0CFDF91CF911F910F9198
:101A8000FF90EF90DF90CF90BF90AF909F908F909E
:101A900008959F92AF92BF92CF92DF92EF92FF9202
:101AA0000F931F93CF93DF9300D000D0CDB7DEB755
:101AB0007C01FA01122F19821A821B821C82CA0130
:101AC00057FF04C088279927841B950B9E012F5F21
:101AD0003F4F4AE0C42ED12C44E0420FB6010E9491
:101AE0007727D9018D939D01CB014A13F7CFF7FFDB
:101AF0000DC0602F70E06D5F7F4F6034710534F46E
:101B0000812F90E042E003970E94471A6E01B5E0F2
:101B1000CB0ED11C80E1982E910E5701E2E0AE0E63
:101B2000B11CD70116961C93169717961C931797FE
:101B300018960C93F60142916F0150E060E070E05E
:101B40002AE0C5010E947B131C5F1911EACF0F9098
:101B50000F900F900F90DF91CF911F910F91FF90F9
:101B6000EF90DF90CF90BF90AF909F9008956F92CD
:101B70007F928F929F92AF92BF92CF92DF92EF921D
:101B8000FF920F931F93CF93DF93EC016B01DB0167
:101B900016968D919C91179768E170E00E947727C7
:101BA000992493948D3008F4912C21E044ED5EE06B
:101BB00060E070E08BE390E00E947C1A3E01B9E1A6
:101BC0006B0E711CA12CB12CF501E453F14F049163
:101BD000F501EC53F14FE491EE2EF12C10E0E6E02C
:101BE000AE1609F45AC0F7E0AF1609F45EC0D3018F
:101BF0008C918823F1F1FE01EA0DFB1D87A121E004
:101C0000882389F04EE95EE0B701C8010E947C1A82
:101C1000D301EC91F0E0EE0FFF1FE85AFE4F408138
:101C2000518120E010C04EE75EE0B701C8010E947C
:101C30007C1AD301EC91F0E0EE0FFF1FE85AFE4F43
:101C40004081518121E0B7016C5F7F4FC80104964C
:101C50000E947C1A888D082E000C990BA816B906D4
:101C600009F04AC0992009F447C020E048E65EE048
:101C70003FC021E04EE25EE0B701C8010E947C1A3D
:101C8000888D082E000C990BA816B906A9F5992085
:101C900099F121E04AE15EE02BC089A19AA121E0FF
:101CA000892B21F145EE5DE00FC029A13AA1211554
:101CB0003105D9F08BA19CA1820F931F8C329140EA
:101CC000A0F021E042E45DE0B701C8010E947C1A67
:101CD000888D082E000C990BA816B90669F4992076
:101CE00059F020E048EC5DE003C021E048E75DE00A
:101CF000B701C8010E947C1AEFEFAE1ABE0AFFEFCF
:101D00006F1A7F0A28E0A216B10409F05DCF21E026
:101D10004CE15DE060E070E083E490E00E947C1ABA
:101D200076018FE0E80EF11C8F89F7019CE08902B3
:101D3000E00DF11D1124E0A9F0E0EE0FFF1FE45BC0
:101D4000FE4F4081518121E061E070E084E490E049
:101D50000E947C1A84E5898B888B8FEF8A8B8F8910
:101D6000B701ACE08A02600D711D1124605D7F4FE8
:101D7000CE010C960E94661309E510E05601B3E00F
:101D8000AB0EB11C21E048E050E0B801C5010E9453
:101D900039220E5F1F4F01381105A1F719E51E8387
:101DA0001F838AE088875E01E2E0AE0EB11C67E126
:101DB0007DE0C5010E94421349A15AA10AE021E732
:101DC000B601CE010E94490D1E831F8381E18887E1
:101DD00062E17DE0C5010E9442134BA15CA101E1DB
:101DE00021E7B601CE010E94490D8E89833011F49E
:101DF0009920D9F089E58E838F8388E188876CE00C
:101E00007DE0C5010E9442138F89F6012CE0820219
:101E1000E00DF11D1124E75BFF4F4081518108E186
:101E200021E7B601CE010E94490D88E08E838F83A1
:101E30008AE3888766E07DE0C5010E9442134F8DEA
:101E400050E060E070E02AE0C5010E947B1361E091
:101E50007DE0C5010E9442132AE04AE050E060E0C4
:101E600070E0C5010E947B1346018FE3880E911C30
:101E7000A12CB12C23E4722E8F89082E000C990B13
:101E8000A816B90631F1072D10E021E04CE15DE024
:101E900065E270E0C8010E947C1AD401EC91F0E088
:101EA000EE0FFF1FE45BFE4F4081518121E066E2AF
:101EB00070E0C80101960E947C1A22E0270DF4010F
:101EC000428553850AE3B601CE010E94490DF5E132
:101ED0007F0E2FEFA21AB20A8CE0880E911C94E0BC
:101EE000A916B10449F68E898530A9F488A18431F8
:101EF00091F420E045E65CE068E070E08CE090E082
:101F00000E947C1A21E04EE95AE068E070E08CE023
:101F100090E00E947C1A8E89863091F420E04FED8B
:101F200059E068E070E08CE090E00E947C1A21E0CB
:101F30004DE558E068E070E08CE090E00E947C1A8B
:101F40008E898430F1F5CF89CF5FF601E159FF4FDB
:101F50008081C81708F0C0E020E04AE458E060E162
:101F600070E08EE190E00E947C1A21E048E657E0A4
:101F700060E170E08EE190E00E947C1AF701ACE035
:101F8000CA9FE00DF11D1124E0A9F0E0EE0FFF1F44
:101F9000E45BFE4F4081518121E068E170E08AE41A
:101FA00090E0DF91CF911F910F91FF90EF90DF9024
:101FB000CF90BF90AF909F908F907F906F900C9438
:101FC0007C1ADF91CF911F910F91FF90EF90DF90DE
:101FD000CF90BF90AF909F908F907F906F9008951B
:101FE000CF92DF92EF92FF920F931F93CF93DF93E5
:101FF000EC017B0121E041EF55E06DE270E080E013
:1020000090E00E947C1A21E04CE954E060E070E02E
:1020100088E090E00E947C1A21E04AE754E06DE1FC
:1020200070E080E290E00E947C1A8701015F1F4F00
:102030008E899CE0D92EF801D89EE00DF11D112467
:10204000E0A9F0E0EE0FFF1FE25CFE4F40815181FE
:1020500021E06EE170E081E290E00E947C1A81E371
:10206000898B888B8DE18A8B8E89B801D89E600D13
:10207000711D1124605D7F4FCE010C960E94661386
:1020800006E310E0670183E0C80ED11C21E046E2C0
:1020900050E0B801C6010E9439220E5F1F4F0E3575
:1020A0001105A1F786E38E838F8387E2888764E733
:1020B00074E0CE0102960E9442138E89F7019CE0E3
:1020C000899FE00DF11D1124E75BFF4F4081518195
:1020D00007E22EE4B701CE010E94490DDF91CF91B6
:1020E0001F910F91FF90EF90DF90CF900895CF92C6
:1020F000DF92EF920F931F93CF93DF93FC016A302F
:1021000039F48581848396818185890F8683A1C076
:10211000A4816E3719F4AD5FA4839BC0962FEF01A5
:1021200066816F5F9A3354F49033DCF49D32E1F0B2
:102130009E3299F0913209F053C018C09B3534F4A7
:1021400091346CF49F3309F451C04AC08FE9890F70
:102150008A3108F045C019EB05C01FE308C01FEB2A
:1021600001C014E0190F03C011E401C01EE38F8108
:10217000062E000C770B0A2E000CBB0B813009F0E9
:102180003AC0EAE6F3E00491EBE6F3E0E4901123D1
:1021900079F1E02FF0E02E2D269526952695422FF9
:1021A00050E021E030E08E2D877011F420E030E027
:1021B000240F351FE29F6001E39FD00CF29FD00CEB
:1021C000112496011203A001139F500D11244459AC
:1021D0005C4F9AEFC92E20E030E0CD010E942F2005
:1021E00088858C5F9C81890F8C8333C010E4BFCFBE
:1021F0004CE653E0EECFEAE6F3E00491EBE6F3E0E1
:10220000E490112309F1E02FF0E02E2D269526957C
:102210002695422F50E021E030E08E2D877011F49A
:1022200020E030E0240F351FE29F6001E39FD00CD7
:10223000F29FD00C112496011203A001139F500DA0
:10224000112444595C4F02C04CE653E08BEFC82E7A
:10225000C2CF81E090E0DF91CF911F910F91EF907D
:10226000DF90CF900895CF92DF92EF920F931F935C
:10227000CF93DF93FC016A3039F4858184839681A2
:102280008185890F8683AAC0A4816E3719F4AE5F59
:10229000A483A4C0962FEF0166816F5F9A3384F404
:1022A000903314F59B3219F11CF4913221F15DC089
:1022B0009D3209F460C09E3209F057C01FE31CC074
:1022C0009B354CF4913474F49A3399F09F3309F0B0
:1022D0004CC012E411C08FE9890F8A3108F045C063
:1022E00019EB03C01FEB01C014E0190F05C011E486
:1022F00003C013E401C01EE38F81062E000C770B90
:102300000A2E000CBB0B813009F03AC0ECE9F2E078
:102310000491EDE9F2E0E490112379F1E02FF0E08F
:102320002E2D269526952695422F50E021E030E06F
:102330008E2D877011F420E030E0240F351FE29FCE
:102340006001E39FD00CF29FD00C11249601120380
:10235000A001139F500D112442565D4F9AEFC92ED4
:1023600020E030E0CD010E94C41388858D5F9C8100
:10237000890F8C8333C010E4BFCF4EE952E0EECF1B
:10238000ECE9F2E00491EDE9F2E0E490112309F1C7
:10239000E02FF0E02E2D269526952695422F50E031
:1023A00021E030E08E2D877011F420E030E0240F22
:1023B000351FE29F6001E39FD00CF29FD00C1124E7
:1023C00096011203A001139F500D112442565D4F38
:1023D00002C04EE952E08BEFC82EC2CF81E090E000
:1023E000DF91CF911F910F91EF90DF90CF900895E3
:1023F0000C9426280C9426280C9426280C94262825
:102400000C9426280C9426281F920F920FB60F9238
:102410001124CF92DF92EF92FF920F931F932F938D
:102420003F934F935F936F937F938F939F93AF935C
:10243000BF938091210290912202A0912302B0913A
:1024400024020196A11DB11D8093210290932202C6
:10245000A0932302B0932402492F5A2F6B2F772782
:1024600067FD7A95242F2E726C017D0139E0F59479
:10247000E794D794C7943A95D1F74C295D296E29F2
:102480007F29489F402D112442238C019D015DE04E
:1024900035952795179507955A95D1F7082366E046
:1024A000B595A795979587956A95D1F7802B842741
:1024B0008093CF00BF91AF919F918F917F916F914A
:1024C0005F914F913F912F911F910F91FF90EF904E
:1024D000DF90CF900F900FBE0F901F901895AB011B
:1024E000FC010E94750B41505109E109F10928F0E6
:1024F00068517C4F8F4F9F4FF6CFAB01FC010E947C
:10250000750B641775078E079F07C8F308950F931F
:102510000FB70F931F9211248F939F93EF93FF9305
:10252000E5E2F2E080911C0291E08D5F8D3710F0C2
:102530008D57939580931C028081890F80839181B0
:10254000911D91830281011D02838381811D8383FB
:1025500009270F700927029500931B0235D08111BE
:1025600000931902803989F400911A02901B963069
:1025700070F087E7809300088093010888E198E075
:102580008093600090936000FFCF90931A02809137
:102590001802815018F08093180259F3EDE1F2E02F
:1025A0008081918101968083918382819381811DB5
:1025B000911D82839383FF91EF919F918F911F9043
:1025C0000F910FBF0F9118958FB18095807F669BFB
:1025D00088601C9B84600895089508950895089567
:1025E000089508950C942628FC0182E391E09183DC
:1025F0008083158214828AE191E09383828398E03C
:10260000938781E0828717821086168281871786DA
:10261000168626E231E035872487958B848B118AD4
:10262000128A108A838B08950895CF92DF92EF92D9
:10263000FF920F931F93CF93DF936C017A018B016D
:10264000C0E0D0E0CE15DF0589F0D8016D918D0195
:10265000D601ED91FC910190F081E02DC601099524
:10266000892B11F47E0102C02196ECCFC701DF91C6
:10267000CF911F910F91FF90EF90DF90CF90089531
:102680000E94BE28EF92FF920F931F93CF93DF9388
:102690008C017B01C0E0D0E0F701EC0FFD1F6491DD
:1026A000662361F0D801ED91FC910190F081E02D5D
:1026B000C8010995892B11F02196EECFCE01DF914B
:1026C000CF911F910F91FF90EF90089561157105C3
:1026D00079F0FB0101900020E9F73197AF01461B2B
:1026E000570BDC01ED91FC910280F381E02D099400
:1026F00080E090E008954F925F926F927F92EF9208
:10270000FF920F931F93CF93DF93CDB7DEB7A197BF
:102710000FB6F894DEBF0FBECDBF7C01FA01CB012E
:1027200019A2223008F42AE08E010F5D1F4F422EBD
:10273000512C612C712CBF01A30192010E942C2706
:10274000F901CA01015011096A3014F4605D01C039
:10275000695CD8016C93232B242B252B61F7B801DE
:10276000C7010E946613A1960FB6F894DEBF0FBE94
:10277000CDBFDF91CF911F910F91FF90EF907F9090
:102780006F905F904F9008952F923F924F925F927B
:102790006F927F928F929F92AF92BF92CF92DF9271
:1027A000EF92FF920F931F93CF93DF9300D000D04F
:1027B00000D0CDB7DEB7F02ECD82A02FB0E06C01F7
:1027C000CA0EDB1E1C141D040CF0F3C080389105EA
:1027D0000CF0EFC0FB01EE0DF11D1E161F060CF0F4
:1027E000E8C0603471050CF0E4C04115510509F4EE
:1027F000E0C0062F0770602EFB0177FD379613E0CF
:10280000F595E7951A95E1F71E2F77FF04C066202E
:1028100011F01FEF1E0F97FF05C0EE27FF27E81BE3
:10282000F90B02C0E0E0F0E060E8C616D10424F045
:1028300060E8962E981A01C09F2C9E1A612F012ED7
:10284000000C770B1F3F1CF4B62EB09401C0B12CC6
:10285000DD24D3940E2D077009F4D12CE694E69470
:10286000E694ED0C6E0D711D693071051CF068E089
:10287000E62EE11A8B2C810E782D00E87003800D76
:10288000911D11248E0F9F1F61E070E0062C02C085
:10289000660F771F0A94E2F70D81033011F001E013
:1028A00001C002E0A919B1090A9F302C1124C02EE1
:1028B000D12CBF9CE00DF11D1124CE9ED001CF9EE6
:1028C000B00DDE9EB00D11245A01AA0EBB1E2115BB
:1028D000310509F0A901960121503109A20FB31F5A
:1028E0004A0F5B1FEFEFE69F9001E79F300D112429
:1028F0002901409450941E0D1E83232D30E0099D24
:10290000200D311D11240E81801609F452C0DC0106
:10291000A25DBD4F7A018501712C791409F441C083
:10292000F8013490369EF001379EF00D1124FA83A1
:10293000E983E095F095FC83EB83FD81F23019F497
:102940005C824B8211C0ED81EB3F19F41A8219822F
:102950000BC0F7013490369EF001379EF00D112424
:10296000E095F095FC83EB8387FC06C0FC91EB813E
:10297000EF23F981EF2BEC93662061F0F6E0F81578
:102980004CF0FD01E058FF4F20803C8023203A802E
:1029900032283082EC0CFD1C0C0D1D1D7394119619
:1029A000BCCF8394A20EB31E420F531F80589F4F7B
:1029B000AACF26960FB6F894DEBF0FBECDBFDF912B
:1029C000CF911F910F91FF90EF90DF90CF90BF902C
:1029D000AF909F908F907F906F905F904F903F90BF
:1029E0002F9008956F927F928F929F92AF92BF9295
:1029F000DF92EF92FF920F931F93CF93DF93EC013F
:102A00008B01FB018681978168E170E00E94772746
:102A1000DD24D3948D3008F4D12C21E044E450E13E
:102A200063E270E080E090E00E947C1A8E89882347
:102A3000E9F1813009F0E9C0198A188A1A8A7E0101
:102A4000FCE0EF0EF11C67E270E1C7010E94421347
:102A5000F801E059FF4F408150E060E070E02AE06B
:102A6000C7010E947B13198A188A80E18A8B6CE166
:102A700070E1C7010E9442130D5F1F4F41E063E107
:102A800070E080E390E00E94212241E065E170E087
:102A900080E390E00E94212232E0632E712C41E11C
:102AA000A42EB12C57E1852E912C34C0198A188A96
:102AB00088E08A8B2C966FE270E1CE010E9442136F
:102AC000F801E159FF4F408150E060E070E02AE0FA
:102AD000CE010E947B13DD2009F497C044E060E141
:102AE00070E08EE590E0DF91CF911F910F91FF9004
:102AF000EF90DF90BF90AF909F908F907F906F90FE
:102B00000C94471AEFEFAE1ABE0AF7E1AF16B10404
:102B100081F03C0121E0A501B401C8010E943922E5
:102B2000C301029797FFEECF21E0821A9108059624
:102B3000E9CF21E04AEF5FE06BE070E085E390E0F1
:102B40000E947C1AEA8DF0E0EE0FFF1FEA59FE4F5B
:102B50004081518121E06CE070E086E390E00E94CA
:102B60007C1ADD2019F0898D882381F19DE4A92E3E
:102B7000B12C21E048E150E0B501C8010E943922A2
:102B800022E0A20EB11C8DE7A816B10491F75E01F8
:102B9000EBE1AE0EB11C0DE411E080E1982E098B43
:102BA000088B9A8ADD2019F0898D811711F1F501C2
:102BB00061915F01EC85FD850190F081E02DC701F9
:102BC00009951F5F0A5F193051F71FC021E04DEED4
:102BD0005FE065E070E08AE390E00E947C1A21E00B
:102BE00042EE5FE06FE170E08AE390E00E947C1AC1
:102BF000BDCFF6E01F9FC001112444E068E170E002
:102C0000895B9F4F0E94471AD2CFDF91CF911F91CE
:102C10000F91FF90EF90DF90BF90AF909F908F90BB
:102C20007F906F900895CF93DF93EC011E8A0E94EE
:102C3000B4228A8D811102C081E08A8FDF91CF9109
:102C40000895CF92DF92EF92FF920F931F93CF934D
:102C5000DF93FC01EB0138851985109513238689D4
:102C6000882319F08130F1F07BC112FF05C081E0AB
:102C7000DB01AE58BF4F8C9313FF02C081E0868BFF
:102C800017FD9BC014FD99C08E819F8168E170E0A3
:102C90000E9477274789508D55278417950709F497
:102CA0008CC05EC1218D15FF05C0222319F08FEF66
:102CB000820F818F16FF05C0818D883010F48F5FE1
:102CC000818F17FD0EC014FD0CC08E819F8168E1BD
:102CD00070E00E9477274789508D55278417950704
:102CE00021F437FD97C034FDE5C07F0112FF24C0F9
:102CF0006E01B0E7CB0ED11CF60120812230D0F05E
:102D000030E0215031094CE0429FC001439F900DBB
:102D100011248C0F9D1FB701665E7F4FCF960E94D6
:102D2000C328D6018C9181508C93BE01C7010E94AB
:102D3000B42202C0F701168A13FF12C1F7017B9675
:102D400097012D5D3F4F81E09191903209F080E035
:102D5000E217F307C9F7811103C18E0100591F4F14
:102D6000D8012C9130E0215031094CE0429FC00144
:102D7000439F900D11248C0F9D1FB701665E7F4FFE
:102D8000CF960E94C328F8018081319790818917DE
:102D900078F48F5FD8018C93BE01C701DF91CF918A
:102DA0001F910F91FF90EF90DF90CF900C94B42281
:102DB000CE58DF4F83E08883D3C037FF09C0BE0100
:102DC00061597F4FDB018C91843010F491E00BC08E
:102DD00034FFC6C0BE0161597F4FDB018C91823048
:102DE00008F4BEC09FEF980F891748F09E01BCE021
:102DF0008B9F200D311D1124D901DF961C92DB0120
:102E00009C938E819F8168E170E00E947727908F6C
:102E1000878BA6C0211131C0228D422F022E000CBB
:102E2000550B4B5F5F4F36E0822F022E000C990B43
:102E3000481759070CF48BC0822F632F0E94692713
:102E40009F5FA92F092E000CBB0BE5A0F12C81E0A0
:102E5000EA16FB0609F080E0E6A0F12CEA16FB0674
:102E600009F481E0E7A0F12CEA16FB0621F08111BC
:102E700002C0928F6CC02F5FD7CFDF01A20FB11DB0
:102E80005A968C915A978A3579F034F4803281F0D1
:102E90007CF081345CF40CC0813654F08A3734F015
:102EA0008A3709F44BC004C081E64FC08F5F4DC024
:102EB00081E44BC021112DC0328D26E0230F06E0A6
:102EC00032170CF044C0822F602F0E9469278FEFC9
:102ED000890F181614F085E0890F482F082E000C72
:102EE000550BA5A1B0E091E0A417B50709F090E05B
:102EF000A6A1B0E0A417B50709F491E0A7A1B0E03E
:102F0000A417B50721F0911102C0828F20C0215073
:102F1000D7CFDF01A20FB11D5A968C915A978B35EE
:102F20003CF482347CF4803279F0813439F00CC086
:102F3000813631F04CF08B372CF006C080E205C0B2
:102F40008AE503C0815001C08AE75A968C938E812E
:102F50009F8168E170E00E947727908F878BC5CEB4
:102F6000DF91CF911F910F91FF90EF90DF90CF9065
:102F700008956F927F929F92AF92BF92CF92DF920D
:102F8000EF92FF920F931F93CF93DF9300D000D067
:102F900000D0CDB7DEB7FE01319626E0DF011D92ED
:102FA0002A95E9F7DC015996AC01415E5F4F7D013E
:102FB00090E06623E1F0D7012D917D01222331F0CD
:102FC0008F01090F111DD8012C939F5FE416F506A0
:102FD00091F713C01D968C91882331F08F01090F52
:102FE000111DD8012C939F5FE416F50631F0D7012F
:102FF0002D917D012223C1F3EDCF8E010E5F1F4F76
:1030000081E038018917F0F4D8015D918D014FEF0F
:10301000480F242F042E000C330B47FD0DC07F01F9
:10302000E20EF31ED7017C91571730F4260D371DA1
:10303000D9017C934150EDCF260D371DD9015C930A
:103040008F5FE0CF992309F4DBC0A0E9EA2EFF24CB
:10305000F394B4E6CB2ED12C81E020E030E08F0158
:1030600040E050E0702F7E1B791740F4D8017D912D
:103070008D017813F7CF4F5F5F4FF4CF4330510589
:103080000CF44DC04430510589F024F4433051050F
:1030900041F01EC04530510579F04630510591F0A0
:1030A00017C08130C1F448EE53E016C0813009F0FA
:1030B000AAC040ED57E010C0813009F0A6C040EA38
:1030C0005FE00AC0813009F0A2C040E45FE104C0C3
:1030D00040E050E001C0A601792F77FD1EC08F01AE
:1030E000070F111D77FD1A95D8011C91181313C0F5
:1030F000972E092D10E0053011055CF45301A00E48
:10310000B11ED501BC900E0F1F1FD801BC92939425
:10311000F0CF1E8291507150E0CF240F351F8F5F8A
:10312000B4E6CB0ED11C40E7E41A4EEFF40A873028
:1031300009F095CF892F963011F559814A81513088
:1031400089F4423079F47B81733061F47C8174308E
:1031500049F47D81753031F47E81763019F4245242
:103160003A4F59C0541313C05B814C8154130FC0A4
:103170005D814E8154130BC022513D4F4CC09923A9
:1031800009F449C004C01E8281502E5C3F4F91500B
:1031900097FD32C0AF01490F511D97FD5A95DA01D5
:1031A0004C91453089F4792F472F50E04530510537
:1031B00054F78301040F151FD8011C914E0F5F1F98
:1031C000DA011C937F5FF0CF413009F7792F472F49
:1031D00050E0453051055CF48301040F151FD80100
:1031E0001C914E0F5F1FDA011C937F5FF0CF1E8290
:1031F00081502C593F4FCBCF61110DC0882359F01E
:1032000020E030E008C0A60103C0A70165CFA701F8
:10321000440F551F61CFC90126960FB6F894DEBF43
:103220000FBECDBFDF91CF911F910F91FF90EF9017
:10323000DF90CF90BF90AF909F907F906F90089558
:10324000FC0180912D02811103C08FEF9FEF089543
:103250009FB7F89482E08093E9002091F20030E07B
:103260001216130614F421E030E02115310559F04F
:10327000289884E680932C028091F10080838091CD
:10328000F200882319F09FBFC90108958BE680934F
:10329000E800F9CF2FB7F89483E08093E90090918C
:1032A000E800892F807295FF04C09091F20080E4BD
:1032B000891B2FBF0895CF93DF931F92CDB7DEB741
:1032C0006983DC01ED91FC910280F381E02D41E006
:1032D00050E0BE016F5F7F4F09950F90DF91CF9156
:1032E000089583E08093E9008091F200882319F02B
:1032F0008AE38093E80008950E944A1990E00895B7
:10330000CF93DF931F92CDB7DEB7FC0184859585FF
:1033100097FD05C02FEF3FEF358724870BC0CE0107
:1033200001960E942019019719F4898190E002C04A
:103330008FEF9FEF0F90DF91CF9108950F931F9321
:10334000CF93DF931F92CDB7DEB78C01FC0184854C
:10335000958597FF0EC0CE0101960E942019019716
:1033600019F4298130E002C02FEF3FEFF8013587D3
:103370002487F801848595850F90DF91CF911F9167
:103380000F9108958F929F92AF92BF92CF92DF924A
:10339000EF92FF920F931F93CF93DF935C016B012A
:1033A0007A0180910701882309F45BC080912D0286
:1033B000882309F456C080912B0280FF05C08091BC
:1033C000E00082608093E000E70110E00AEF83E014
:1033D000882E9AE3992E2097D9F10E944A198111DB
:1033E0000AC0015009F43DC061E070E080E090E067
:1033F0000E946F12F0CF282F30E0C217D3070CF4D1
:103400008C2F4FB7F8948092E9009091E80095FFD7
:103410001DC0282F30E0C21BD30BF601982F91500E
:1034200020F081918093F100FACFC20ED31E1123B8
:1034300019F09092E80009C08091E80085FD06C06F
:103440009092E80011E0209709F010E04FBFC3CF41
:103450001111C3CF5D9884E680932A021E141F04C5
:1034600044F081E090E0F5019383828380E090E076
:1034700001C0C701DF91CF911F910F91FF90EF9095
:10348000DF90CF90BF90AF909F908F9008959C0158
:10349000240F311D1216130674F5803891055CF562
:1034A000FC0197FF02C0E0E0F0E02138310514F0A4
:1034B00020E830E02E1BAB014770552781E001C0AA
:1034C000880F4A95EAF777FF02C0695F7F4F93E064
:1034D000759567959A95E1F77695762F6627779596
:1034E0006795E60FF71FE25DFD4F215020F09081B8
:1034F000982B9193FACF08952F923F924F925F921B
:103500006F927F928F929F92AF92BF92CF92DF92F3
:10351000EF92FF920F931F93CF93DF93CDB7DEB758
:103520002C970FB6F894DEBF0FBECDBF6C01FA0129
:1035300034913196E491832F8F778F5FA82EB12C31
:10354000BB82AA82C5018C0D9D1D97FD69C100E853
:10355000C016D1040CF064C18E2F8F738F5FDB0116
:10356000A80FB11DB7FD5CC1603471050CF058C1E6
:10357000331F3327331F398331E0E6FF30E0EE1F7E
:10358000EE27EE1FEC833B0177FF04C0662477240F
:10359000661A770A17E061227724FB0177FD3796D8
:1035A0004F01E3E095948794EA95E1F777FF0CC02B
:1035B0006114710449F061E0861A910868E070E0D6
:1035C000DB01A619B7093D0161E070E05B01062C43
:1035D00002C0AA0CBB1C0A94E2F7BE82AD82682F1F
:1035E000669566956695877009F06F5FE12CF12C02
:1035F00097E0A0E1B0E080E0412C512C212C312C4F
:10360000062F660F110B18870F830F811885201660
:1036100031060CF005C15D0101E010E0F50173E039
:10362000F695E7957A95E1F7E40FF51FE491F0E060
:10363000B5016770772702C0F595E7956A95E2F7BF
:10364000D5011196E0FF04C00F5F1F4F5D01E6CF6B
:1036500001301105C1F4FD0163E0F695E7956A9527
:10366000E1F7E40FF51F649170E0A770BB2702C07B
:1036700075956795AA95E2F7617077276F5F7F4F21
:10368000D50112963CC00150110961E070E0002E96
:1036900002C0660F771F0A94E2F76F5F7F4FA12C7D
:1036A000B12CFD01F695E795F695E795F695E7952A
:1036B000E40FF51FF491EF2FF0E0FA87E987FD01A1
:1036C000E770FF27FC87EB87E985FA850B8402C04A
:1036D000F595E7950A94E2F7E0FF0AC0E1E0F0E033
:1036E0000A2C02C0EE0FFF1F0A94E2F76E0F7F1F35
:1036F0001196FFEFAF1ABF0AA016B10694F21C860E
:103700001B86EB85FC85E617F70709F483C0A980C3
:10371000AA2069F0E92FF0E0311105C007E010E0C0
:103720000E1B1F0BF801EC58FE4FE0818E2B9150C1
:1037300008F069C0882309F449C0122D180D18300B
:103740000CF044C0F701EC0DFD1DE038F105F0F57B
:10375000AD80BE808A9DF0018B9DF00D1124FA870B
:10376000E98717FD16C0C60100E81003800D911D02
:1037700011248E0D9F1D825D9D4FFC01008122232F
:1037800019F0F9850F2B03C0B984B0940B21FC010B
:10379000008361147104D1F01730C1F01F3FB4F001
:1037A000C60100E81003800D911D11248E0D9F1D90
:1037B00082559D4FFC011081222319F0FA851F2BA1
:1037C00003C0EA85E0951E23FC011083AC80AA208B
:1037D00019F0BB24B3943B250FEF401A500A8A819D
:1037E0009B814816590634F49FEFE91AF90A97E0CD
:1037F00080E009C0EFEF2E1A3E0AE12CF12C97E091
:1038000080E0412C512C0B851C850F5F1F4F1C87BE
:103810000B8777CFAA24A394B980AB18A982F5CEE1
:103820002C960FB6F894DEBF0FBECDBFDF91CF91BF
:103830001F910F91FF90EF90DF90CF90BF90AF90CE
:103840009F908F907F906F905F904F903F902F90C0
:10385000089580912C0781110DC082E08093280784
:1038600084E08093290710922B0710922A0781E0A9
:1038700080932C0788E297E00895FC018485958564
:1038800097FD0BC09FB7F89482E08093E900809188
:10389000F2009FBF90E0019608959FB7F89482E0F0
:1038A0008093E9008091F2009FBF90E008954091DD
:1038B0008807509189072091860730918707421722
:1038C0005307B4F49091E8009570E1F39091E8000B
:1038D00092FD19C08093F10080918807909189072B
:1038E00001968F739927892B19F48EEF8093E80046
:1038F000809188079091890701969093890780931A
:10390000880781E0089580E00895DF92EF92FF92AA
:103910000F931F93CF93DF93D82E8A017B01E40E80
:10392000F51EEB01CE15DF0571F0D7FE03C0FE01D9
:10393000849101C088810E94571C21968111F2CF89
:103940008FEF9FEF01C0C801DF91CF911F910F91C1
:10395000FF90EF90DF900895615030F02091F100DA
:10396000FC0120830196F8CF289884E680932C02EE
:1039700008950F931F93CF93DF931F92CDB7DEB7B8
:1039800082E0898342E450E06BEB71E180E80E94C1
:10399000851C0E94291CDC0112960D911C91139725
:1039A0000115110569F0D801ED91FC910280F381B8
:1039B000E02DBE016F5F7F4FC801099597FF07C0DB
:1039C00089810F90DF91CF911F910F910895F80198
:1039D00000851185E5CF1F920F920FB60F9211242B
:1039E0008F939F938091E1009091E100937F90935A
:1039F000E10083FF0FC01092E90091E09093EB008B
:103A00001092EC0092E39093ED0010922D0298E05A
:103A10009093F00082FF20C093E09093E900909192
:103A2000F200992319F09AE39093E80090912A020A
:103A3000992339F090912A02915090932A02992368
:103A400089F190912C02992339F090912C02915098
:103A500090932C02992341F184FF10C08091E200E1
:103A60008E7E81608093E2008091E1008F7E809362
:103A7000E10080912B028E7E806111C080FF16C014
:103A80008091E2008E7E80618093E2008091E1006F
:103A90008E7E8093E10080912B028E7E81608093E8
:103AA0002B0204C05D9ACDCF289AD6CF9F918F91DB
:103AB0000F900FBE0F901F9018951F920F920FB688
:103AC0000F921124CF92DF92EF92FF920F931F93E8
:103AD0002F933F934F935F936F937F938F939F9316
:103AE000AF93BF93EF93FF93CF93DF93CDB7DEB741
:103AF0006C97DEBFCDBF1092E9008091E80083FF94
:103B0000EDC168E0CE0145960E94AC1C82EF809327
:103B1000E8008D8987FF05C09091E80090FFFCCFF9
:103B200003C09EEF9093E800982F907609F0C6C0EE
:103B30009E892F89188D91110CC0803829F48091AD
:103B400085078093F10002C01092F1001092F100FD
:103B500048C1422F50E0512B913051F4811141C1A5
:103B60004130510509F03DC1809185078D7F0BC023
:103B7000933061F4811135C14130510509F031C1F3
:103B8000809185078260809385072BC1953041F431
:103B90008091E80080FFFCCF20682093E30021C1E2
:103BA000963009F05FC0EB8CFC8C1092E90010920B
:103BB000890710928807123091F5109287071092AA
:103BC00086070E94B91C99E0BE016F5F7F4FDB0141
:103BD000E92F1D92EA95E9F799831A8391E09E8374
:103BE00090EA98879AEF9987209188073091890702
:103BF000275F3F4F3C832B838D831092E900109207
:103C0000890710928807F0928707E092860749E0BB
:103C100050E080E00E94851C0E94B91CE2C0F09236
:103C20008707E09286070E94291CDC011296ED901E
:103C3000FC901397E114F10409F4C0C0D701ED9191
:103C4000FC910480F581E02DBE016B5E7F4FC701C2
:103C50000995009719F00CF0C4C0C7C0F701E084C3
:103C6000F184E8CF973009F4C0C0983021F481E0A6
:103C70008093F100B6C0993009F0B3C0837009F0A9
:103C8000B4C0E1E1F2E081E021E036E390819923E4
:103C900061F08093E9002093EB0091919093EC0008
:103CA0003093ED008F5F873089F78EE78093EA00CD
:103CB0001092EA008F8980932D0293C08B8D9C8D8A
:103CC0001092E90010928907109288079093870755
:103CD00080938607898D811156C08E899D89913A7E
:103CE00059F4813209F081C047E050E060E071E0B2
:103CF00080E00E94851C75C0913209F076C0833245
:103D000089F4888D90E0982F88272F89822BA0E056
:103D1000B0E08093080190930901A0930A01B09349
:103D20000B015FC0803269F48091E80082FFFCCF14
:103D300067E080E091E00E94AC1C8BEF8093E8008C
:103D400006C0823209F04DC08F89809307018091AF
:103D50008407882319F0EEEFFAE002C0E0E0F8E013
:103D60008091000190910101A0910201B0910301A5
:103D7000803B9440A105B10509F07BC0809107010B
:103D800080FF93C076C00E94291CDC0112960D9121
:103D90001C9113970115110541F1D801ED91FC918A
:103DA0000190F081E02DBE016B5E7F4FC801099547
:103DB000811117C0F80100851185ECCF113009F48D
:103DC0004EC0133091F48F89882309F445C08230A6
:103DD00081F440E860E18FE192E10E944B26882364
:103DE00021F08EEF8093E80079C081E28093EB00B0
:103DF00075C0813029F440E86BE083E192E1EDCFBA
:103E0000833099F70E94291CDC011296ED90FC90FA
:103E100013978E010F5F1F4F6801E114F10479F0D1
:103E2000D701ED91FC910680F781E02DB801C70123
:103E30000995080F111DF701E084F184EECFD80138
:103E40001C92F60101900020E9F73197BF016C192F
:103E50007D0940E0C601C1CF6DEF71E102C061E0B4
:103E600072E16115710509F2FB01449150E080E8AF
:103E700040CF0FB6F894A895809160008861809338
:103E80006000109260000FBEA895EE3F2AE0F20796
:103E900039F08091FE0A9091FF0A91838083A1CF2F
:103EA0001092FF0A1092FE0A9CCFEE3F8AE0F807BC
:103EB00031F0808191819093FF0A8093FE0A87E719
:103EC00097E7918380839BE088E10FB6F894A895EB
:103ED000809360000FBE9093600083CF6C960FB606
:103EE000F894DEBF0FBECDBFDF91CF91FF91EF9170
:103EF000BF91AF919F918F917F916F915F914F9102
:103F00003F912F911F910F91FF90EF90DF90CF90F5
:103F10000F900FBE0F901F9018950895FC01878594
:103F2000DF01A80FB11D1C966C938F5F87878330CC
:103F300079F4848591E0891741F02585291729F0C6
:103F40002685291711F0918308959F5F973099F77F
:103F50000895FC01DB0118968C91189719969C9195
:103F60009095982384FF14C02689203118F42F5F80
:103F7000268B0FC0F89487E7809300088093010890
:103F8000A89588E18093600088E080936000FFCF6F
:103F9000168A93FF05C0FB01EE58FF4F82E0808335
:103FA0000895FB01E75BFF4F118210823C9611825E
:103FB00010823C96118210823C96118210823396B8
:103FC00081E080830895FC01DB0119968C9119979B
:103FD000809518969C91892399F08281882311F00D
:103FE0008CE78283828181110BC081E0828380E42F
:103FF0008093900081E49FE09093990080939800D3
:1040000092819923C1F09F5F9283953059F09D373B
:1040100061F0923081F480E596E49093990080936A
:1040200098000895109290000895FB01EE58FF4FFC
:1040300081E0808308950895089521E043E454E1E8
:1040400060E070E08CE090E00E947C1A21E04CEC93
:1040500052E163E270E080E090E00C947C1A4F92B1
:104060005F927F928F929F92AF92BF92CF92DF9298
:10407000EF92FF920F931F93CF93DF9300D000D066
:10408000CDB7DEB729011C2DA02EB12C9C012A0D25
:104090003B1D121613060CF0B3C1803891050CF0CD
:1040A000AFC1FB01EE0DF11D1E161F060CF0A8C1DD
:1040B000603471050CF0A4C14115510509F4A0C18B
:1040C000E62FE770FE2EFB0177FD3796A3E0F5950E
:1040D000E795AA95E1F7AE2F77FF04C0FF2011F016
:1040E000AFEFAE0F97FF05C0EE27FF27E81BF90BD8
:1040F00002C0E0E0F0E02038310524F020E8722E24
:10410000781A01C0702E7E1A6A2F0A2E000C770BC7
:10411000AF3F1CF4D62ED09401C0D12C21E03E2D0F
:10412000377009F420E0E694E694E694E20E6E0D12
:10413000711D693071051CF028E0E22EEA1AED18B5
:104140003D2D3A0FDC0120E83203A00DB11D1124F2
:10415000AE0FBF1FD09EE00DF11D11244E0F5F1F4B
:1041600081E090E04C010F2C02C0880C991C0A944D
:10417000E2F7133009F403C1A0F4113009F4B5C01B
:10418000123009F03DC18FEF889DB001899D700DFF
:104190001124609570957C836B835C802E2D230F9A
:1041A0002BC01A3F31F01B3F09F02AC12E2D230FDF
:1041B00088C02E2D230F51C0FA01E00FF11FE491AA
:1041C000E89D6001E99DD00C1124DA82C98237FD97
:1041D00007C0FC01E080EE2DE623CE2AFC01C08260
:1041E000F11013C00F5F1F4F0196071528F33F5FB3
:1041F0004A0D5B1DA058BF4F321709F401C1CD0114
:10420000825D9D4F00E010E0F0CF37305CF7FC019D
:10421000E058FF4FD080D520CA80DC28D082E2CF82
:10422000FA01E60FF71FE491E89D8001E99D100D6A
:1042300011241A83098337FD04C0FC011081012B6E
:104240000083F11013C06F5F7F4F0196671540F335
:104250003F5F4A0D5B1DA058BF4F321709F4D0C015
:10426000CD01825D9D4F60E070E0F0CF37305CF7AC
:104270008C0100581F4FF801E080EA81EE2AF80116
:10428000E082E1CFFA01E00FF11FE491E89DC00167
:10429000E99D900D11249A83898337FD05C080958F
:1042A000FB01908189238083F11014C00F5F1F4FA1
:1042B0006F5F7F4F071530F33F5F4A0D5B1DA058BE
:1042C000BF4F321709F49CC0BD01625D7D4F00E015
:1042D00010E0F0CF373054F7FB01E058FF4F8A81F0
:1042E0008095908189238083E1CFC2018E0F9F1F2B
:1042F0002E2D230F321709F483C0BD01625D7D4F5F
:104300006B0100E010E0071590F5FC01E00FF11FD4
:10431000E491E89DB001E99D700D112460957095C0
:104320007C836B83FA01E00FF11FE491E89D20018B
:10433000E99D500C11245A82498237FD05C0F601CF
:1043400070816723462A4082FF2059F037304CF4B1
:10435000F601E058FF4F70816C8167237A81672BEB
:1043600060830F5F1F4FFFEFCF1ADF0ACCCF3F5F95
:104370004A0D5B1D8A0D9B1DA058BF4FBBCFC72C9C
:10438000D12CE40FF51FA25DBD4F60E870E06C1901
:104390007D09AC18BD088501000F111F572D2E2D6A
:1043A000CF93DF93ED01EF96EF962296A590C590FF
:1043B000FF2059F0A89C5001C89C600137302CF4B4
:1043C000E880D094ED20EB28E99233233AF0EC908A
:1043D000C094EC20EA28ED920C94EF2111965A95A6
:1043E00029F72A9551F0572D33951124E00FF11D2F
:1043F000A60FB11DC60FD11DD9CFDF91CF911124CA
:104400000F900F900F900F90DF91CF911F910F9110
:10441000FF90EF90DF90CF90BF90AF909F908F90E4
:104420007F905F904F900895BC0180E090E00C94E5
:104430006F128FB18095807F669B88601C9B846023
:104440000895EAE0F6E190E1969FD001A07811246A
:10445000A80F6770E60FF11D9491A25DBD4F442334
:1044600019F08C91982B03C090958C9198239C9374
:104470000895CB01BA018038910530F440345105DC
:1044800018F4422F0C9421220895EF92FF920F937B
:104490001F93CF93DF93EC017B0121E04AEB52E1C4
:1044A00061E170E08FE290E00E947C1A21E04FE928
:1044B00052E16AE170E08BE290E00E947C1A21E018
:1044C0004FE952E16AE170E089E490E00E947C1AD1
:1044D0008A8121E0811117C04FE952E16AE170E061
:1044E0008AE390E00E947C1A21E047E652E16EE206
:1044F00070E08AE190E0DF91CF911F910F91FF90E2
:10450000EF900C947C1A4CE452E16AE170E08AE38B
:1045100090E00E947C1A21E040E352E16EE270E0FC
:104520008CE290E00E947C1A8A816FE00E945D27F5
:10453000C82FC3700FE410E0D0E083E0E80EF11C58
:10454000DC1759F021E041E350E0B801C7010E94B7
:104550003922DF5F0E5F1F4FF3CFDF91CF911F91A5
:104560000F91FF90EF900895EF92FF920F931F939A
:10457000CF93DF939C01EB018B0100591F4FD801B2
:104580008C9190E001974CE0489FF001499FF00D1D
:104590001124E60FF71FFF967901B9E1EB0EF11C2C
:1045A000D90159961C9259975A9689E001900D921B
:1045B0008A95E1F7F90115A216A217A210A6D80153
:1045C0008C91813021F06FADC7010E948E1FF801E0
:1045D0008081823039F0FE01E55BFF4F6081C701C9
:1045E0000E948E1FD8018C91833039F0FE01E95A68
:1045F000FF4F6081C7010E948E1FF80180818430C7
:1046000061F0CD59DF4F6881C701DF91CF911F91D4
:104610000F91FF90EF900C948E1FDF91CF911F911F
:104620000F91FF90EF9008958EE296E00C94F112B6
:10463000789483E084BD83E085BD81E080936E0043
:10464000E1E8F0E083E08083E0E881E08083E3EC70
:1046500081E08083E2EC81E08083EAE787E0808389
:104660008068808310922D021092850710922B0291
:104670008091D70081608093D70080EA8093D80032
:1046800089B5806189BD89B5826089BD09B400FEA4
:10469000FDCF61E070E080E090E00E946F128091B9
:1046A000D8008F7C80618093D8008091E000807F6B
:1046B0008093E0008091E1008E7E8093E1008DE0A8
:1046C0008093E200559A209AEEEFFFE7859194914E
:1046D0008B3F9C4D19F481E08093840710929000E9
:1046E0008AE0809391001092C00091E09093C10005
:1046F0008FEF8093D10081EC80937C0085B1806F37
:1047000085B984B1877E84B984B1876E84B95E9A95
:104710005F988AB1806D8AB9769A6E9881B3806FFE
:1047200081BB899880B38D7080BB80E58CBD9DBDB9
:1047300085E090E00E9414225F9A85E090E00E945C
:1047400014225E985C98EEEFFEE08DE08E0F94915F
:104750009EBD00000DB407FEFDCF31968E13F7CF3E
:104760005C9A81E880936400809165008160809309
:1047700065000E94192287FF24C05C9885EA8EBDDF
:1047800000000DB407FEFDCF5C9A2E982F982D984F
:104790008091640080628093640081E083BF88958B
:1047A00013BEFCCF2D980E9419228478843871F0B2
:1047B0000E9419228471843129F188EC90E00E94D2
:1047C00014220E94192282FDEDCF38C02D9A88EC68
:1047D00090E00E9414222F9882E090E00E94E4264C
:1047E0008F3F29F06FEF82E090E00E94EC2684EF8B
:1047F00091E00E9414222F9A0E9419228478843812
:10480000D9F3D6CF2D9A88EC90E00E9414222E98EE
:1048100082E090E00E94E426882329F060E082E0B4
:1048200090E00E94EC2684EF91E00E9414222E9AE0
:104830000E94192284718431D9F3BFCF2D9A82E06E
:1048400090E00E94E426882331F03E9A3F9A81E06E
:104850008093290204C0109229023E983F988091CB
:1048600064008E7F8093640080917A0080648093DE
:104870007A0080917A0086FDFCCFC0917800D091BB
:1048800079000E94750B8E0120E030E0980111271D
:104890000027600F711F821F931F6115710581052D
:1048A000910511F00E94DB26809164008160809365
:1048B000640080E1809338061092A006DD24D39432
:1048C0000EE212E0D0E080E0E82E80E0F82ECC246A
:1048D000C3948FB7F89440912502509126026091BD
:1048E0002702709128028FBF80913906942F981B60
:1048F000892FC0913A06CC2329F090933B06109261
:104900003A06D3C090913806891740F48F5F891713
:1049100008F0CBC0D3BE889513BEC7C0C0923A067C
:104920004093390680913406909135060196909314
:1049300035068093340680913606809337060E94B0
:104940001922809336068C2FF80181118FEF0024F5
:1049500081938193819381930394D1F78091A006F1
:10496000823009F43FC028F4882351F08130E9F007
:104970008FC0833009F453C0843009F46DC088C0FF
:1049800080919F06882321F01092300610929F0696
:104990006EE276E088EB96E00E94E31F6EE276E03E
:1049A00088EB96E00E94452273C090919F0691305B
:1049B00061F0809330066EE276E081EA96E00E9434
:1049C000D11F8091A00680939F066EE276E081EA77
:1049D00096E00E94A91F6EE276E081EA96E00E94CE
:1049E0001D2056C090919F06923061F08093300652
:1049F0006EE276E08BEB96E00E9413168091A006A3
:104A000080939F066EE276E08BEB96E00E94211683
:104A10006EE276E08BEB96E00E94F21439C0909142
:104A20009F06933061F0809330061092FA069091C1
:104A30009D069093FB061092030780939F066EE2FB
:104A400076E084EE96E00E948F0B6EE276E084EED4
:104A500096E00E94B70D1CC090919F06943061F0C3
:104A6000809330066EE276E081E197E00E944A0B87
:104A70008091A00680939F066EE276E081E197E048
:104A80000E943E0B6EE276E081E197E00E94F00F1B
:104A9000F80180E098E000800EBCD111012C019754
:104AA00080FDFDCF0192B9F70DB4E114F10409F4D2
:104AB00010CF0E9400000DCF1092370710923607DA
:104AC00088EE93E0A0E0B0E0809338079093390738
:104AD000A0933A07B0933B0780E891E090933507A5
:104AE000809334078FEF9FEF9093410780934007A7
:104AF000109236061092370680E1809338061092A5
:104B000035061092340610923A068EE991E09093A1
:104B10003206809331061092480610924706EEE363
:104B2000F6E090E288E08E0F91938E13FDCF109205
:104B3000540610925306EAE4F6E090E288E08E0F05
:104B400091938E13FDCF1092600610925F06E6E5FA
:104B5000F6E090E288E08E0F91938E13FDCF1092D5
:104B60006C0610926B06E2E6F6E090E288E08E0FAB
:104B700091938E13FDCF8CE0EDE3F6E0ADE6B6E069
:104B800001900D928A95E1F78CE0E9E4F6E0A9E75F
:104B9000B6E001900D928A95E1F78CE0E5E5F6E04C
:104BA000A5E8B6E001900D928A95E1F78CE0E1E688
:104BB000F6E0A1E9B6E001900D928A95E1F781E077
:104BC00080939D0680939E068CE092E090932F0642
:104BD00080932E0681EA96E00E94F4128CEA91E01E
:104BE0009093A2068093A1061092B7068CEE91E0F6
:104BF0009093B9068093B8061092BA068BEB96E0B4
:104C00000E94F4128CEB91E09093BC068093BB065B
:104C10001092D1061092D3061092D2061092D506A9
:104C2000E6EDF6E090E288E08E0F91938E13FDCFD3
:104C30001092E0061092E1061092E2061092E3064E
:104C400084EE96E00E94F4128CEC91E09093E506DD
:104C50008093E40681E08093FA068FEF8093FB0651
:104C60001092FC0610920607109205071092080792
:104C70001092070710920A071092090781E197E046
:104C80000E94F4128CED91E090931207809311072B
:104C9000109227070895CF92DF92EF92FF920F9321
:104CA0001F93CF93DF931F92CDB7DEB7182F062F38
:104CB000E42E862F880F8E5F99830E94571C83E015
:104CC0000E94571CF12EC12E9981D92E8C2D8F193F
:104CD000801798F4F601E7FE02C0849101C080813C
:104CE0000E94571C182F80E00E94571C8123FFEF61
:104CF000CF1ADF0A8111EACF01C081E00F90DF9166
:104D0000CF911F910F91FF90EF90DF90CF9008957A
:104D10008F929F92AF92BF92CF92DF92EF92FF92CB
:104D2000CF93DF93EC01688179818A819B81611542
:104D300071058105910521F464E279ED8BE597E039
:104D40002DE133EF41E050E00E94FA2649015A017B
:104D50009B01AC01A7EAB1E40E9419276B017C0119
:104D6000ACEEB4EFA50194010E942727DC01CB0132
:104D70008C0D9D1DAE1DBF1DB7FF03C00197A1097E
:104D8000B04888839983AA83BB83BC01CD019F77F8
:104D9000DF91CF91FF90EF90DF90CF90BF90AF90D9
:104DA0009F908F9008950E94882608958CE091E04E
:104DB0000E948826089560930C0170930D018093E2
:104DC0000E0190930F010895F999FECF92BD81BD18
:104DD000F89A992780B50895262FF999FECF1FBA22
:104DE00092BD81BD20BD0FB6F894FA9AF99A0FBE14
:104DF00001960895052E97FB1EF400940E9411273A
:104E000057FD07D00E942C2707FC03D04EF40C94CA
:104E1000112750954095309521953F4F4F4F5F4F4B
:104E2000089590958095709561957F4F8F4F9F4F16
:104E300008950E944E27A59F900DB49F900DA49FAA
:104E4000800D911D11240895B7FF0C9419270E941D
:104E50001927821B930B0895A1E21A2EAA1BBB1BD4
:104E6000FD010DC0AA1FBB1FEE1FFF1FA217B30736
:104E7000E407F50720F0A21BB30BE40BF50B661F4C
:104E8000771F881F991F1A9469F760957095809510
:104E900090959B01AC01BD01CF010895A29FB00187
:104EA000B39FC001A39F700D811D1124911DB29F5E
:104EB000700D811D1124911D0895991B79E004C086
:104EC000991F961708F0961B881F7A95C9F7809549
:104ED000089587FB082E062687FD819567FD61955D
:104EE0000E945D270EF4919507FC81950895AA1BF9
:104EF000BB1B51E107C0AA1FBB1FA617B70710F0C5
:104F0000A61BB70B881F991F5A95A9F780959095F6
:104F1000BC01CD010895EE0FFF1F0590F491E02D27
:104F20000994CF93DF938230910510F482E090E0F2
:104F3000E0918C07F0918D0720E030E0C0E0D0E0F8
:104F4000309711F14081518148175907C0F0481737
:104F5000590761F482819381209719F09B838A839A
:104F60002BC090938D0780938C0726C021153105A7
:104F700019F04217530718F49A01BE01DF01EF013F
:104F80000280F381E02DDCCF2115310509F1281BCA
:104F9000390B2430310590F412968D919C91139722
:104FA0006115710521F0FB019383828304C0909306
:104FB0008D0780938C07FD01329644C0FD01E20FFE
:104FC000F31F81939193225031092D933C933AC062
:104FD00020918A0730918B07232B41F420911201F5
:104FE0003091130130938B0720938A072091100191
:104FF000309111012115310541F42DB73EB7409193
:10500000140150911501241B350BE0918A07F09192
:105010008B07E217F307A0F42E1B3F0B2817390765
:1050200078F0AC014E5F5F4F2417350748F04E0F04
:105030005F1F50938B0740938A078193919302C01F
:10504000E0E0F0E0CF01DF91CF9108950F931F933F
:10505000CF93DF93009709F48CC0FC013297138241
:10506000128200918C0710918D070115110581F4B2
:1050700020813181820F931F20918A0730918B0705
:105080002817390779F5F0938B07E0938A0771C0E9
:10509000D80140E050E0AE17BF0750F412962D91B2
:1050A0003C911397AD012115310509F1D901F3CFD9
:1050B0009D01DA013383228360817181860F971FFE
:1050C0008217930769F4EC0128813981260F371F75
:1050D0002E5F3F4F318320838A819B81938382831C
:1050E000452B29F4F0938D07E0938C0742C013966B
:1050F000FC93EE931297ED01499159919E01240F73
:10510000351FE217F30771F480819181840F951F99
:10511000029611969C938E938281938113969C9311
:105120008E931297E0E0F0E0D80112968D919C9159
:105130001397009719F0F8018C01F6CF8D919C918F
:1051400098012E5F3F4F820F931F20918A07309165
:105150008B072817390769F4309729F410928D07C7
:1051600010928C0702C01382128210938B07009357
:105170008A07DF91CF911F910F91089581E090E010
:10518000F8940C94CA28FB01DC0101900D920020D8
:10519000E1F708951BE0CAE0DBE004C0FE010E94D5
:0E51A0008B272196CB30D107C9F7F894FFCFAB
:1051AE0000E1000000000000FFFFFFFF0100000013
:1051BE0000008E0780000000000033111513720BE3
:1051CE00710B0000000077101513720B710B0000AD
:1051DE000000000000008E0B8D0B40134013740175
:1051EE005E013E011B01FE00DF00BA004B023502DC
:1051FE001502F201D501B601910196028F028602C7
:10520E007D0272026802C50FAF0F8F0F6C0F4F0F2A
:10521E00300F0B0F01020408102040800000000028
:10522E005B19C2197C1971193D1C80199E19000059
:10523E00000040131513720B710B000000008D1F40
:10524E00000000001413021200000000F012001201
:10525E00D11F8D0BA91F1D2000000000EE12FE11A4
:10526E0013168D0B2116F21400000000ED12FC1126
:10527E00350B8D0B8F0BB70D00000000EC12FA11E1
:10528E004A0B8D0B3E0BF00F00000000EF12F811D1
:10529E001C208D0BE31F45220000000000000000C3
:1052AE008E0B8D0B4013401300000000F112F21212
:0852BE0000C180810000000026
:00000001FF
