:100000000C94A5070C94CD070C94CD070C94CD0748
:100010000C94CD070C94CD070C94CD070C94CD0710
:100020000C94CD070C94CD070C9479140C94EB141C
:100030000C94CD070C94CD070C94CD070C94CD07F0
:100040000C94CD070C94CD070C94CD070C94CD07E0
:100050000C94CD070C94CD070C94CD070C94660D31
:100060000C94CD070C94CD070C94CD070C94CD07C0
:100070000C94CD070C94CD070C94CD070C94CD07B0
:100080000C94CD070C94CD070C94CD070C94CD07A0
:100090000C94CD070C94CD070C94CD070C94CD0790
:1000A0000C94CD070C94CD070C94CD07118F074EFF
:1000B00020C082718299744DC8010AB001F83243A0
:1000C00052168AB0D03224E553118F4F1022652882
:1000D0000B0091620416404219814138F398518413
:1000E0005D04A84CE86D146016CA9123118F4F006F
:1000F000097BCE290BB1ABF18084057C0C28591308
:10010000268C4618A9300CB248045E02118F9F0954
:100110001CC45B4F229CF811BD0DD8D00B140EBD32
:10012000E53D118F2F9C19490EE39853C80C00A987
:10013000F0359B9101213021701A872423D3970930
:10014000CF6AF59B5ADDFD761709CFABEFDCBEEB2E
:10015000ADDFEE0209CFABDFEEADDFEE0209CF5F20
:1001600070FBAEB7FE0A09CFBFA2B7FE0A098FDF48
:10017000B0FE6603081F051F1F151B1F11111F115D
:100180000E1F15111F05011F111D1F041F001F0049
:1001900010101F1F041B1F10101F061F1F011F1F01
:1001A000111F1F05071F311F1F051B17151D011FDD
:1001B000011F101F0F100F1F0C1F1B041B071C0714
:1001C0001915130C121E1F120C1E12120C121F0CEA
:1001D0001A14041F052E2A1E1F021C001D00201DBC
:1001E000001F041A011F001E041E1E021E1E121EE6
:1001F0003E120C0C123E1E020614120A020F121EB0
:10020000101E0E100E1E081E1A041A2E281E1A1278
:10021000161F111F121F101D151711151F07041F80
:1002200017151D1F151D01011F1F151F17151F0075
:100230001700001000040404040E040229060A003A
:100240000004083E09093E3F25251A1E2121123FC0
:1002500021211E3F2525213F0505011E21293A3F69
:1002600004043F213F21001021211F3F040A313F98
:100270002020203F02023F3F02043F1E21211E3F5B
:100280000909061E21112E3F0909362225251901CB
:100290003F01011F20201F0F10201F3F10103F3B68
:1002A00004043B03043807312D2321102A2A3C3F44
:1002B0002424181C2222141824243F1C2A2A2C042B
:1002C0003E05014C52523E3F040438243D2000407C
:1002D00040443D3F081422213F20003E04043E3E9E
:1002E00004023C1C22221C7E22221C1C22227E3E56
:1002F000040204242A2A12021F22201E20201E0E7D
:1003000010201E3E10103E360808364E50503E3229
:100310002A26221E29251E223F20003229292612A4
:1003200021251A0C0A3F08172525191E2525180115
:100330003905031A25251A0629291E002F00000059
:100340002000000229050200040400459F7B0C4E9A
:10035000C8AA480845EC421A081248916990E14041
:10036000E2448215091BB9212B416E48B2904482A8
:10037000042D7243C2466EC80D590C643890E1409A
:100380008603190E643890E1408603B92137E446AC
:1003900018E3E93E000700EA647BE5882C0613A910
:1003A0000B5916B921032830D85E5DC06001E79C67
:1003B0009023773E33E1E733E787F6BBBDC738507C
:1003C0004C03006081814321484D1DB5F6E2F4EAFB
:1003D000D5E9B02BAD0BB901B874516F7C704E7E6E
:1003E0003ECCEFECA763103888A401045B102E20EC
:1003F0001C443C807001611810A8453C807001616C
:100400005010CA00E102C205840B0805058915E4F5
:1004100086DC901B321CC87020C3810C07321CC8BC
:100420007020C3810C1672436EC88931EE459F1E41
:10043000F9CF41D6FEEFC4FEEFC45EF9CF01C70B82
:1004400067AF3B07169300B208208B00B2484211F9
:10045000128A90508484220444324024034432405F
:100460002459C4F64F099C2817CA8572A19CFC5ECA
:100470000E4C0603901200A464483930FB376B7BA6
:100480000006000CE01BE92DA6800A145081022A08
:10049000800220A0020544A4480922124251D9A892
:1004A0006C142E940BE1E8D5AB57CF5CBD3AF71D29
:1004B0000000006072BFEFCFC2BC03000000BC634D
:1004C0006ED73A0027069B209B201B958DC885720E
:1004D000027EC05A1E0008004C3E904BF0A21E4403
:1004E000DCDA3D700A81012760ACB94C05443499CF
:1004F0006301846BD609000018071863DB35078198
:1005000071807138A4000000EFEE331C982C028437
:1005100022040413B21D088000DF383112000006E7
:100520001C00E80A99A45AEDA21B809153B8D9F196
:100530001DD77A000000005FD8EC09E76C37000196
:1005400000264CE86239464D62D488EAA0F29D0349
:100550003000E043CB3D260B6B571700010078D7E6
:100560003D0F10D80844C7D0002184C118072600C9
:100570000480877B00F0AA73E9525522535220125F
:100580002159615A12483EBEF401000090636FE5A4
:1005900048DA6CF0C064200C11B7804DD42051D3E0
:1005A0000818408184A15ED48BBE81000070E46A8B
:1005B000EFC9D8FB050000005EDD2F4648424848E1
:1005C000B00024810104484278020010714261C3E6
:1005D000A0C8C4010B823090040A2650045006269D
:1005E0004C0627E0E771446EC8D1AB7F4E8EC80D34
:1005F000B92137E4C873E086DC901B72E473C00D48
:10060000B92137E0CADF1367AF3DAC536FBDF59634
:10061000AB57AF5EF9791D7F2F4F73EFBDF7DEFB50
:1006200030BE741847AF5EBD7ACDE94F34F297E61D
:10063000B22EEB32F7DE8771EBADB7DE7AEBED97DA
:10064000BE77FD4E4EF3B22EEBB22EEB32F79EA7E5
:100650007C65F3EFDE5BAEFC6B78FE9FC6F63DFB80
:10066000B78F23FF9CBD7AECAD47AF5EBD7AEC69D6
:10067000CE533ECFB1A775599771EB2D9FE7EAD5C1
:10068000AB57AF5EBD7A1C9775599775599771CC6A
:10069000695DD6655DD6651C39E7B42EEBB22EEBED
:1006A000943F277E6F667E005475726E7E00546F95
:1006B00074616C005475726E00526F6C6C0013970D
:1006C000AE055CBD7AF5EAD5AB578F64EDFD77D802
:1006D000CF00B8207041E082C005810B0217042EC4
:1006E000089C90239BCF2B1CBD7A553A54863538F5
:1006F000E21C5A14E2B60602F5EAD5235913380073
:1007000065036503650365036503650365036503A9
:10071000650365036503E50448011B8FAE0504000E
:10072000000500005000000005000050000000051A
:10073000000050000000050000500000000500000F
:100740005000000005000010584B8E04D808C04629
:10075000003602B011808D006C046023001B01D8AC
:1007600008C046003602B00917041B8FCD045EFB9B
:10077000DAD7BEF6B5AF819917849794979497947A
:100780009794979497842B1B8FAE055CBD7AD50107
:10079000A211A61912D3A974E809754CAF5E81B5F0
:1007A000E448804D814D814D814D814D814D814D7C
:1007B000814D814D814D814D814DB82011D7FA0970
:1007C0005FFBDA4F58F5F7ABDF41DE226F91AF00E8
:1007D00091172E2E000840011080022000054000D5
:1007E0000A800014000128000200D36700200008DE
:1007F00000028000200008000280002000080002A3
:10080000800020003C70F2B3592E91D7CA135EFBD2
:10081000DAD73C4141FF06CA4BDE226F91B73C0458
:100820001197198370F4EAD5AB57AF1E096364C200
:10083000AF8779E788DC901B72436EC80D39720769
:10084000111719B26031994C2693C96432994C162C
:100850003064DFF6E667EEFD80CD6432994C269376
:10086000C96432593C030000001414142A2A0014ED
:1008700028001428001E118F074E20C08271829913
:10088000744DC8010AB001F8324352168AB0D03212
:1008900024E553118F4F102265280B009162041636
:1008A000404219814138F39851845D04A84CE86DA9
:1008B000146016CA9123118F4F00097BCE290BB10A
:1008C000ABF18084057C0C285913268C4618A9307E
:1008D0000CB248045E02118F9F091CC45B4F229C1E
:1008E000F811BD0DD8D00B140EBDE53D118F2F9C16
:1008F00019490EE39853C80C00A9F0359B910121CA
:100900003021701A872423D39789871C0307140E7C
:100910001038016709076139802203283880C5E64D
:10092000061397AE055CBD7AF5EAD5AB578F64ED3B
:10093000FD77D8CF801B72436EC80DB92137E4868E
:100940001CB90349636F6E7E7E4E616D6500506C0D
:10095000617965727E004E756D6265727E6F667E2E
:10096000706C61796572737E3F20007F9FC216E1D3
:10097000A27802128501821C84AF0127CA05840B6C
:100980002017CA8570436EC80DB8FACF912B70033B
:10099000E002810D95054B0A5B848BE20948140641
:1009A000087210BE069C2817102E805C2817C20DF6
:1009B000B921EBDD728F4C66CE2906A01220646946
:1009C0003035BACA4877BFE765D5E1F40A6E2D41E4
:1009D0002F392227100E18983860E0846023C8321F
:1009E0000C10E1807E1CB82137E486DC90A357AF61
:1009F0001EB55A19993CB5597E7279682633E714A9
:100A000003500910B2746510B2CA4877BFE7651584
:100A1000DD3AC66A882BB924C3D8E14B67EDF425CB
:100A2000B750E65E9775599775EAADB72E5B0DCC5A
:100A3000300A78E15B0F6E9E720A0091428010AA24
:100A400095A04577C75A8BAB57AF8E8E3443B821EC
:100A500017251A000010040808BA1D2E97C3AD63AD
:100A6000AC86B8924B328C1DBE74D64E5F720B654D
:100A7000EE755997B52F735ED6A02BC34572426EA3
:100A80007BEE79598743C372642ED8485C8EACCB19
:100A90001A74556471660013083001005C87BD0F3D
:100AA000EBC6A9288BAC393721AE32D665EE795921
:100AB0009795C561CDCBBAACDA55C6BAACCB1A7432
:100AC00019E0001058B02EEB32E7650DBA325C2405
:100AD00027E4B6E79E977538342C47E6828DC4E547
:100AE000C81A080B000202020100090400000102FA
:100AF0000200000524001001052401010104240264
:100B000006052406000107058103100040090401C1
:100B100000020A00000007050202400000070583EA
:100B2000024000000403090412010002EF02014028
:100B30004123368000010102030141726475696E30
:100B40006F204C4C430041726475696E6F204C6598
:100B50006F6E6172646F00D5F08D14A1C881CFD91A
:100B6000F1AF2000A187DD0D9BBB201BC46B2EBD08
:100B7000E43864E33878DCB75EC04B6FA11BC51B5B
:100B80000D0F0CA4C0400A0CA4C0400A0CA4C04025
:100B90000A0C78C1993367CE9C7904CD87DDD213D6
:100BA000C7018702DCBA45397281E0910B04BFD5D9
:100BB0002D3D71DC9BC531975E7296ECE0730F188A
:100BC00038782CDCD6A7C61EA7E04D72EB969E386F
:100BD0000EDC088D8F119225244B4896902C2159BC
:100BE00042B204762EEBB22EEBB22EEBB28E23473E
:100BF0004D474646F3DB46B3F839AC741C59E9D887
:100C00007F9FC216E1A27802128501821C84AF0187
:100C100027CA05840B2017CA8570436EC80DB8FA21
:100C2000CF912B7003E002810D95054B0A5B848BFD
:100C3000E209481406087210BE069C2817102E8080
:100C40005C2817C20DB921EBDD728F4C66CE2906E8
:100C5000A0122064693035BACA4877BFE765D5E18C
:100C6000F40A6E2D412F392227100E18983860E0B3
:100C7000846023C8320C10E1807E1CB82137E486E2
:100C8000DC90A357AF1EB55A19993CB5597E7279BD
:100C9000682633E71403500910B2746510B2CA48CD
:100CA00077BFE76515DD3AC66A882BB924C3D8E15A
:100CB0004B67EDF425B750E65E9775599775EAAD29
:100CC000B72E5B0DCC300A78E15B0F6E9E720A0086
:100CD00091428010AA95A04577C75A8BAB57AF8E2B
:100CE0008E3443B82117251A000010040808BA1DD5
:100CF0002E97C3AD63AC86B8924B328C1DBE74D6B2
:100D00004E5F720B65EE755997B52F735ED6A02BAB
:100D1000C34572426E7BEE79598743C372642ED805
:100D2000485C8EACCB1A74556471660013083001B0
:100D3000005C87BD0FEBC6A9288BAC393721AE32DA
:100D4000D665EE79599795C561CDCBBAACDA55C663
:100D5000BAACCB1A7419E0001058B02EEB32E7652C
:100D60000DBA325C2427E4B6E79E977538342C47D9
:100D7000E6828DC4E5C81A67AF3B07169300B20838
:100D8000208B00B2484211128A905084842204447D
:100D9000324024034432402459C4F64F099C28179A
:100DA000CA8572A19CFC5E0E4C0603901200A464DE
:100DB000483930FB376B7B0006000CE01BE92DA6A1
:100DC000800A145081022A800220A0020544A4480F
:100DD0000922124251D9A86C142E940BE1E8D5AB2C
:100DE00057CF5CBD3AF71D0000006072BFEFCFC265
:100DF000BC03000000BC636ED73A0027069B209B13
:100E0000201B958DC88572027EC05A1E0008004CBA
:100E10003E904BF0A21E44DCDA3D700A810127604F
:100E2000ACB94C054434996301846BD609000018B1
:100E3000071863DB35078171807138A4000000EF6B
:100E4000EE331C982C028422040413B21D08800087
:100E5000DF3831120000061C00E80A99A45AEDA2FE
:100E60001B809153B8D9F11DD77A000000005FD8DC
:100E7000EC09E76C37000100264CE86239464D6208
:100E8000D488EAA0F29D033000E043CB3D260B6BF3
:100E9000571700010078D73D0F10D80844C7D0007D
:100EA0002184C1180726000480877B00F0AA73E91B
:100EB000525522535220122159615A12483EBEF413
:100EC00001000090636FE548DA6CF0C064200C11FB
:100ED000B7804DD42051D30818408184A15ED48BB3
:100EE000BE81000070E46AEFC9D8FB050000005E17
:100EF000DD2F4648424848B000248101044842782A
:100F0000020010714261C3A0C8C4010B823090047A
:100F10000A2650045006264C0627E0E771446EC8A6
:100F2000D1AB7F4E8EC80DB92137E4C873E086DCA3
:100F3000901B72E473C00DB92137E0CADF130102C0
:100F4000040810204080CC206E1E11241FBECFEF5D
:100F5000DAE0DEBFCDBF12E0A0E0B1E0E8EFF7E4F9
:100F600002C005900D92A431B107D9F727E0A4E1A2
:100F7000B2E001C01D92A638B207E1F717E0C4EA5B
:100F8000D7E004C02197FE010E94B022C33AD107E6
:100F9000C9F70E94AF1E0C94EF230C940000FC01D3
:100FA000168ADB01A159BF4F8C91878B178E08954C
:100FB00008950895089580E090E00895A9E1B2E0D1
:100FC0002FB7F8947D918D919C9166B52FBFA89B0A
:100FD00005C06F3F18F47F5F8F4F9F4F22E0660F71
:100FE000771F881F991F2A95D1F7089508950895AE
:100FF0006F927F928F929F92AF92BF92CF92DF9229
:10100000EF92FF920F931F93CF93DF93EC016B014D
:10101000DB0116968D919C91179768E170E00E9414
:101020009C22992493948D3008F4912C3E01B9E1CF
:101030006B0E711CA12CB12CF501E259F74F0491F4
:10104000F501EA59F74FE491EE2EF12C10E0E6E0BD
:10105000AE1609F45AC0F7E0AF1609F45EC0D3012A
:101060008C918823F1F1FE01EA0DFB1D87A121E09F
:10107000882389F040E458E0B701C8010E943D1C74
:10108000D301EC91F0E0EE0FFF1FEA5BFE4F4081D1
:10109000518120E010C040E258E0B701C8010E9431
:1010A0003D1CD301EC91F0E0EE0FFF1FEA5BFE4F19
:1010B0004081518121E0B7016C5F7F4FC8010496E8
:1010C0000E943D1C888D082E000C990BA816B906AD
:1010D00009F046C0992009F443C020E04AE058E0F6
:1010E0003BC021E040ED57E0B701C8010E943D1C24
:1010F000888D082E000C990BA816B90689F5992041
:1011000079F121E04CEB57E027C089A19AA121E0B9
:10111000892B01F147E857E00CC02BA13CA189A124
:101120009AA1820F931F21E08C32914098F044EEF7
:1011300056E0B701C8010E943D1C888D082E000CA6
:10114000990BA816B90661F4992051F020E04AE6FF
:1011500057E002C04AE157E0B701C8010E943D1CB8
:10116000EFEFAE1ABE0AFFEF6F1A7F0A28E0A21651
:10117000B10409F061CF21E04EEB56E060E070E091
:1011800083E490E00E943D1C76018FE0E80EF11CA4
:101190008F89F7019CE08902E00DF11D1124E0A97F
:1011A000F0E0EE0FFF1FE25CFE4F4081518121E035
:1011B00061E070E084E490E00E943D1C84E5898B4E
:1011C000888B8FEF8A8B8F89B701ACE08A02600D24
:1011D000711D1124605D7F4FCE010C960E943F1758
:1011E00009E510E05601B3E0AB0EB11C21E048E088
:1011F00050E0B801C5010E94621B0E5F1F4F01380D
:101200001105A1F719E51E831F838AE088875E0117
:10121000E2E0AE0EB11C69EB76E0C5010E941B173F
:1012200049A15AA10AE021E7B601CE010E94DF10D0
:101230001E831F8381E1888764EB76E0C5010E94ED
:101240001B174BA15CA101E121E7B601CE010E9471
:10125000DF108E89833011F49920D9F089E58E83CF
:101260008F8388E188876EEA76E0C5010E941B17AC
:101270008F89F6012CE08202E00DF11D1124E75B5D
:10128000FF4F4081518108E121E7B601CE010E9464
:10129000DF1088E08E838F838AE3888768EA76E0B0
:1012A000C5010E941B174F8D50E060E070E02AE0FE
:1012B000C5010E94541763EA76E0C5010E941B171E
:1012C0002AE04AE050E060E070E0C5010E94541757
:1012D00046018FE3880E911CA12CB12C23E4722EC1
:1012E0008F89082E000C990BA816B90631F1072D2D
:1012F00010E021E04EEB56E065E270E0C8010E948C
:101300003D1CD401EC91F0E0EE0FFF1FE25CFE4FBC
:101310004081518121E066E270E0C80101960E949F
:101320003D1C22E0270DF401428553850AE3B601F6
:10133000CE010E94DF10F5E17F0E2FEFA21AB20A54
:101340008CE0880E911C94E0A916B10449F68E89B0
:10135000853091F420E047E056E068E070E08CE0F2
:1013600090E00E943D1C21E040E454E068E070E021
:101370008CE090E00E943D1C8E898430F1F5CF898D
:10138000CF5FF601E159FF4F8081C81708F0C0E038
:1013900020E04DE254E060E170E08EE190E00E94D8
:1013A0003D1C21E04BE453E060E170E08EE190E011
:1013B0000E943D1CF701ACE0CA9FE00DF11D112415
:1013C000E0A9F0E0EE0FFF1FE25CFE4F408151818B
:1013D00021E068E170E08AE490E0DF91CF911F9115
:1013E0000F91FF90EF90DF90CF90BF90AF909F90C4
:1013F0008F907F906F900C943D1CDF91CF911F9147
:101400000F91FF90EF90DF90CF90BF90AF909F90A3
:101410008F907F906F90089524E1FC01218B208BA9
:101420002CE1228B61E072E00C960C943F178F92B6
:101430009F92AF92BF92CF92DF92EF92FF920F9363
:101440001F93CF93DF93EC018B01DB0119969C91E5
:101450001997909518968C9198238E89823009F46B
:1014600075C028F4882361F0813081F17DC184301A
:1014700009F474C108F44BC1853009F473C174C117
:101480008F898F5F8F8B1AA219A21CA21BA21EA28A
:101490001DA291E09E8B082E000C990BFB01E159D7
:1014A000FF4F208130E08217930724F01F8A8F8D31
:1014B0008F5F8F8FFE01B796CE018D9621E0DF0101
:1014C0001E972C931192E817F907C9F77E01B9E12D
:1014D000EB0EF11C6E01EFE1CE0ED11C86E0882EE2
:1014E000912CA12CB12CD7018C91882369F00E94FA
:1014F0000922A50194010E942D22DC01CB01019655
:10150000A11DB11DF7018083FFEFEF1AFF0AEC1454
:10151000FD0449F761E0CE010E944D119EA38DA309
:10152000892B19F0188E82E017C18F894CE0840254
:10153000000D111D1124F801E75BFF4F808191819F
:10154000845F91409183808385E006C195FF10C040
:10155000888D81306CF087301CF0873019F008C01E
:10156000815005C029A13AA1232B11F086E0888F74
:1015700096FF1CC0888D853041F024F487FD16C08D
:101580008F5F13C0863039F011C029A13AA1232BF7
:1015900069F086E00AC049A15AA12BA13CA1240F01
:1015A000351F2C32314010F087E0888F94FF31C016
:1015B000888D833059F02CF487FD2BC08D5F888F88
:1015C00028C0843061F08530C1F023C029A13AA140
:1015D000232B59F186E0888F97FF2FC02AC029A1BD
:1015E0003AA1232BB9F72BA13CA12C323140E8F0D2
:1015F00087E0888F97FF21C01EC049A15AA12BA167
:101600003CA1240F351F2C32314090F7452B11F7A8
:101610000CC097FF12C0888D863059F01CF48330BF
:1016200034F40BC0873039F008C097FF06C08350F0
:1016300003C083E001C085E0888F93FF95C0888D4B
:10164000863099F11CF487FF1DC08EC0873009F0E9
:101650008BC08F89BCE08B02000D111D1124F80195
:10166000E75BFF4F29A13AA18BA19CA1820F931F99
:1016700020813181820F931F9183808383E08E8B41
:1016800018A272C0FE01E80FF11D87FDFA95818D49
:10169000882321F097A181E0892787A360E0CE010C
:1016A0000E944D119AA389A35FC0FE01B796CE0197
:1016B0008D96AF01DA012D91AD01222329F09D0114
:1016C0002F503109D9011C924817590799F7DE01AB
:1016D00059969E01215E3F4F4D91442361F02BA10D
:1016E0003CA189A19AA1820F931F9CA38BA31AA24C
:1016F00019A281E031C0A217B30771F721E0DF0121
:101700001E972C931192E817F907C9F7E8CF992390
:1017100011F080E388A388A1803318F48F5F88A339
:1017200023C01CA21BA21AA219A22F89022E000CF0
:10173000330BF801E159FF4F808190E001972817A2
:10174000390749F48F8D8A3031F4F801EE58FF4F94
:1017500084E0808309C084E08E8B06C093FF04C0C0
:101760001E8A02C093FDE1CFDF91CF911F910F91AF
:10177000FF90EF90DF90CF90BF90AF909F908F90B1
:101780000895CF92DF92EF920F931F93CF93DF9341
:10179000FC016A3039F48581848396818185890FC3
:1017A0008683A1C0A4816E3719F4AD5FA4839BC06A
:1017B000962FEF0166816F5F9A3354F49033DCF417
:1017C0009D32E1F09E3299F0913209F053C018C079
:1017D0009B3534F491346CF49F3309F451C04AC002
:1017E0008FE9890F8A3108F045C019EB05C01FE366
:1017F00008C01FEB01C014E0190F03C011E401C0C1
:101800001EE38F81062E000C770B0A2E000CBB0BFB
:10181000813009F03AC0E1E4F2E00491E2E4F2E060
:10182000E490112379F1E02FF0E02E2D26952695F6
:101830002695422F50E021E030E08E2D877011F484
:1018400020E030E0240F351FE29F6001E39FD00CC1
:10185000F29FD00C112496011203A001139F500D8A
:1018600011244D5B5D4F9AEFC92E20E030E0CD0191
:101870000E94581988858C5F9C81890F8C8333C0A6
:1018800010E4BFCF43E452E0EECFE1E4F2E0049194
:10189000E2E4F2E0E490112309F1E02FF0E02E2DD4
:1018A000269526952695422F50E021E030E08E2D9A
:1018B000877011F420E030E0240F351FE29F6001B3
:1018C000E39FD00CF29FD00C112496011203A001CB
:1018D000139F500D11244D5B5D4F02C043E452E055
:1018E0008BEFC82EC2CF81E090E0DF91CF911F91A6
:1018F0000F91EF90DF90CF900895CF92DF92EF920B
:101900000F931F93CF93DF93FC016A3039F48581E5
:10191000848396818185890F8683AAC0A4816E37CE
:1019200019F4AE5FA483A4C0962FEF0166816F5FA8
:101930009A3384F4903314F59B3219F11CF49132EC
:1019400021F15DC09D3209F460C09E3209F057C09C
:101950001FE31CC09B354CF4913474F49A3399F016
:101960009F3309F04CC012E411C08FE9890F8A310E
:1019700008F045C019EB03C01FEB01C014E0190FBC
:1019800005C011E403C013E401C01EE38F81062EDD
:10199000000C770B0A2E000CBB0B813009F03AC00B
:1019A000E3E7F1E00491E4E7F1E0E490112379F159
:1019B000E02FF0E02E2D269526952695422F50E01B
:1019C00021E030E08E2D877011F420E030E0240F0C
:1019D000351FE29F6001E39FD00CF29FD00C1124D1
:1019E00096011203A001139F500D11244B585E4F16
:1019F0009AEFC92E20E030E0CD010E949D17888526
:101A00008D5F9C81890F8C8333C010E4BFCF45E785
:101A100051E0EECFE3E7F1E00491E4E7F1E0E49098
:101A2000112309F1E02FF0E02E2D2695269526951D
:101A3000422F50E021E030E08E2D877011F420E03D
:101A400030E0240F351FE29F6001E39FD00CF29F2E
:101A5000D00C112496011203A001139F500D1124E4
:101A60004B585E4F02C045E751E08BEFC82EC2CF06
:101A700081E090E0DF91CF911F910F91EF90DF9087
:101A8000CF9008950C944B230C944B230C944B2330
:101A90000C944B230C944B230C944B23AB01FC0173
:101AA0000E94DE0741505109E109F10928F068510F
:101AB0007C4F8F4F9F4FF6CFAB01FC010E94DE079A
:101AC000641775078E079F07C8F308950F930FB724
:101AD0000F931F9211248F939F93EF93FF93E5E24F
:101AE000F2E08091180291E08D5F8D3710F08D57F4
:101AF0009395809318028081890F80839181911D35
:101B000091830281011D02838381811D83830927C3
:101B10000F70092702950093170235D081110093A9
:101B20001502803989F400911602901B963070F0EE
:101B300087E7809300088093010888E198E080930C
:101B4000600090936000FFCF909316028091140282
:101B5000815018F08093140259F3E9E1F2E080819A
:101B6000918101968083918382819381811D911D52
:101B700082839383FF91EF919F918F911F900F919B
:101B80000FBF0F9118958FB18095807F669B8860FD
:101B90001C9B8460089508950895089508950895FC
:101BA00008950C944B23FC0182E391E091838083A0
:101BB000158214828AE191E09383828398E093876F
:101BC00081E08287178210861682818717861686A3
:101BD00026E231E035872487958B848B118A128A1F
:101BE000108A838B08950895FC01168A21E0228FC4
:101BF00008956F927F928F929F92AF92BF92DF92E1
:101C0000EF92FF920F931F93CF93DF93EC018B0121
:101C1000FB018681978168E170E00E949C22DD24AF
:101C2000D3948D3008F4D12C21E04BE659E063E2E7
:101C300070E080E090E00E943D1C8E898823E9F1ED
:101C4000813009F0E9C0198A188A1A8A7E01FCE0FD
:101C5000EF0EF11C6EE479E0C7010E941B17F8013A
:101C6000E059FF4F408150E060E070E02AE0C7019A
:101C70000E945417198A188A80E18A8B63E479E0FC
:101C8000C7010E941B170D5F1F4F41E063E170E029
:101C900080E390E00E944A1B41E065E170E080E350
:101CA00090E00E944A1B32E0632E712C41E1A42E89
:101CB000B12C57E1852E912C34C0198A188A88E0FE
:101CC0008A8B2C9666E579E0CE010E941B17F801FD
:101CD000E159FF4F408150E060E070E02AE0CE0122
:101CE0000E945417DD2009F497C044E060E170E0E1
:101CF0008EE590E0DF91CF911F910F91FF90EF90D3
:101D0000DF90BF90AF909F908F907F906F900C94DA
:101D1000EA1DEFEFAE1ABE0AF7E1AF16B10481F08B
:101D20003C0121E0A501B401C8010E94621BC3016E
:101D3000029797FFEECF21E0821A91080596E9CF2E
:101D400021E041E259E06BE070E085E390E00E9421
:101D50003D1CEA8DF0E0EE0FFF1FEC5AFE4F408174
:101D6000518121E06CE070E086E390E00E943D1C30
:101D7000DD2019F0898D882381F19DE4A92EB12CF5
:101D800021E048E150E0B501C8010E94621B22E059
:101D9000A20EB11C8DE7A816B10491F75E01EBE12C
:101DA000AE0EB11C0DE411E080E1982E098B088B7A
:101DB0009A8ADD2019F0898D811711F1F501619161
:101DC0005F01EC85FD850190F081E02DC70109954B
:101DD0001F5F0A5F193051F71FC021E044E159E04D
:101DE00065E070E08AE390E00E943D1C21E049E05C
:101DF00059E06FE170E08AE390E00E943D1CBDCFA6
:101E0000F6E01F9FC001112444E068E170E0895BA7
:101E10009F4F0E94EA1DD2CFDF91CF911F910F916A
:101E2000FF90EF90DF90BF90AF909F908F907F904A
:101E30006F900895CF92DF92EF92FF920F931F93CE
:101E4000CF93DF93FC01EB0138851985109513239F
:101E50008689882319F08130F1F0A8C112FF05C0EE
:101E600081E0DB01AE58BF4F8C9313FF02C081E0CD
:101E7000868B17FDC4C014FDC2C08E819F8168E1AE
:101E800070E00E949C224789508D55278417950742
:101E900009F4B5C08BC1218D15FF05C0222319F0AF
:101EA0008FEF820F818F16FF05C0818D883010F46F
:101EB0008F5F818F17FD0EC014FD0CC08E819F8136
:101EC00068E170E00E949C224789508D5527841755
:101ED000950721F437FDC0C034FD10C17F0112FF0A
:101EE00024C06E01B0E7CB0ED11CF6012081223058
:101EF000D0F030E0215031094CE0429FC001439FB7
:101F0000900D11248C0F9D1FB701665E7F4FCF96F9
:101F10000E94E823D6018C9181508C93BE01C701A9
:101F20000E94DD1B02C0F701168A13FF3FC1F701B3
:101F30007B9697012D5D3F4F81E09191903209F0A2
:101F400080E0E217F307C9F7811130C18E01005913
:101F50001F4FD8012C9130E0215031094CE0429FB5
:101F6000C001439F900D11248C0F9D1FB701665E29
:101F70007F4FCF960E94E8236BE072E08CE296E000
:101F80000E943F17F801408150E060E070E02AE0D5
:101F90008CE296E00E9454176EE072E08CE296E0CC
:101FA0000E943F176E01FFE6CF0ED11CD6014C9167
:101FB00050E060E070E02AE08CE296E00E94541766
:101FC00060E172E08CE296E00E943F17F8018081A8
:101FD000D6019C91891770F48F5F8083BE01C70181
:101FE000DF91CF911F910F91FF90EF90DF90CF90F5
:101FF0000C94DD1BCE58DF4F83E08883D7C037FFBA
:1020000009C0BE0161597F4FDB018C91843010F40F
:1020100091E00BC034FFCAC0BE0161597F4FDB01A4
:102020008C91823008F4C2C09FEF980F891748F056
:102030009E01BCE08B9F200D311D1124D901DF963C
:102040001C92DB019C938E819F8168E170E00E946D
:102050009C22908F878BAAC0211133C0928D292F8B
:10206000092E000C330B2D5F3F4F492F092E000C1A
:10207000550B241735070CF490C0892F837887FF00
:1020800003C081508C6F8F5F8F5F682F082E000C0C
:10209000770BA5A1B0E041E0A617B70709F040E033
:1020A000A6A1B0E0A617B70709F441E0A7A1B0E0E8
:1020B000A617B70721F0411102C0828F6EC09F5F43
:1020C000D4CFDF01A20FB11D5A968C915A978A3551
:1020D00079F034F4803281F07CF081345CF40CC00F
:1020E000813654F08A3734F08A3709F44DC004C081
:1020F00081E651C08F5F4FC081E44DC021112FC0D8
:10210000328D94E0930F39170CF047C0892F8378F4
:1021100087FF03C081508C6F8F5F2FEF280F12163F
:1021200014F023E0280F422F022E000C550B65A15E
:1021300070E081E06417750709F080E066A170E047
:102140006417750709F481E067A170E064177507EB
:1021500021F0811102C0228F20C09150D4CFDF0125
:10216000A20FB11D5A968C915A978B353CF482344C
:102170007CF4803279F0813439F00CC0813631F052
:102180004CF08B372CF006C080E205C08AE503C016
:10219000815001C08AE75A968C938E819F8168E1B5
:1021A00070E00E949C22908F878B98CEDF91CF9118
:1021B0001F910F91FF90EF90DF90CF9008959F9225
:1021C000AF92BF92CF92DF92EF92FF920F931F9345
:1021D000CF93DF9300D000D0CDB7DEB77C01FA01FA
:1021E000122F19821A821B821C82CA0157FF04C057
:1021F00088279927841B950B9E012F5F3F4F4AE04C
:10220000C42ED12C44E0420FB6010E949C22D90179
:102210008D939D01CB014A13F7CFF7FF0DC0602FBF
:1022200070E06D5F7F4F6034710534F4812F90E072
:1022300042E003970E94EA1D6E01B5E0CB0ED11C6F
:1022400080E1982E910E5701E2E0AE0EB11CD7014D
:1022500016961C93169717961C93179718960C931F
:10226000F60142916F0150E060E070E02AE0C501A4
:102270000E9454171C5F1911EACF0F900F900F9016
:102280000F90DF91CF911F910F91FF90EF90DF9012
:10229000CF90BF90AF909F9008956F927F929F9242
:1022A000AF92BF92CF92DF92EF92FF920F931F9364
:1022B000CF93DF9300D000D000D0CDB7DEB7FE01C2
:1022C000319626E0DF011D922A95E9F7DC01599647
:1022D000AC01415E5F4F7D0190E06623E1F0D701E4
:1022E0002D917D01222331F08F01090F111DD8019D
:1022F0002C939F5FE416F50691F713C01D968C9101
:10230000882331F08F01090F111DD8012C939F5F95
:10231000E416F50631F0D7012D917D012223C1F39A
:10232000EDCF8E010E5F1F4F81E038018917F0F469
:10233000D8015D918D014FEF480F242F042E000C22
:10234000330B47FD0DC07F01E20EF31ED7017C91D8
:10235000571730F4260D371DD9017C934150EDCF2E
:10236000260D371DD9015C938F5FE0CF992309F4C7
:10237000DBC0A0E9EA2EFF24F394B4E6CB2ED12CE7
:1023800081E020E030E08F0140E050E0702F7E1BC4
:10239000791740F4D8017D918D017813F7CF4F5F05
:1023A0005F4FF4CF433051050CF44DC0443051051C
:1023B00089F024F44330510541F01EC045305105E9
:1023C00079F04630510591F017C08130C1F448EEE4
:1023D00053E016C0813009F0AAC040ED57E010C0AC
:1023E000813009F0A6C040EA5FE00AC0813009F000
:1023F000A2C040E45FE104C040E050E001C0A6019B
:10240000792F77FD1EC08F01070F111D77FD1A95DB
:10241000D8011C91181313C0972E092D10E0053018
:1024200011055CF45301A00EB11ED501BC900E0F36
:102430001F1FD801BC929394F0CF1E82915071500F
:10244000E0CF240F351F8F5FB4E6CB0ED11C40E7E1
:10245000E41A4EEFF40A873009F095CF892F9630B1
:1024600011F559814A81513089F4423079F47B81E8
:10247000733061F47C81743049F47D81753031F4BE
:102480007E81763019F424523A4F59C0541313C048
:102490005B814C8154130FC05D814E8154130BC07E
:1024A00022513D4F4CC0992309F449C004C01E82FB
:1024B00081502E5C3F4F915097FD32C0AF01490FC4
:1024C000511D97FD5A95DA014C91453089F4792FC9
:1024D000472F50E04530510554F78301040F151F75
:1024E000D8011C914E0F5F1FDA011C937F5FF0CF64
:1024F000413009F7792F472F50E0453051055CF402
:102500008301040F151FD8011C914E0F5F1FDA01C4
:102510001C937F5FF0CF1E8281502C593F4FCBCF51
:1025200061110DC0882359F020E030E008C0A601F9
:1025300003C0A70165CFA701440F551F61CFC90193
:1025400026960FB6F894DEBF0FBECDBFDF91CF91B8
:102550001F910F91FF90EF90DF90CF90BF90AF90C1
:102560009F907F906F90089540911F02509120029C
:1025700020911D0230911E0242175307B4F490912E
:10258000E8009570E1F39091E80092FD19C0809306
:10259000F10080911F029091200201968F7399277C
:1025A000892B19F48EEF8093E80080911F0290919F
:1025B000200201969093200280931F0281E00895EB
:1025C00080E00895DF92EF92FF920F931F93CF93D5
:1025D000DF93D82E8A017B01E40EF51EEB01CE15A8
:1025E000DF0571F0D7FE03C0FE01849101C0888130
:1025F0000E94B41221968111F2CF8FEF9FEF01C09C
:10260000C801DF91CF911F910F91FF90EF90DF9064
:102610000895615030F02091F100FC012083019673
:10262000F8CF289884E680932A020895CF92DF920B
:10263000EF92FF920F931F93CF93DF936C017A0178
:102640008B01C0E0D0E0CE15DF0589F0D8016D9197
:102650008D01D601ED91FC910190F081E02DC60134
:102660000995892B11F47E0102C02196ECCFC70198
:10267000DF91CF911F910F91FF90EF90DF90CF905E
:102680000895CF93DF931F92CDB7DEB76983DC0146
:10269000ED91FC910280F381E02D41E050E0BE011C
:1026A0006F5F7F4F09950F90DF91CF91089583E081
:1026B0008093E9008091F200882319F08AE38093E7
:1026C000E8000895FC018485958597FD0BC09FB7B0
:1026D000F89482E08093E9008091F2009FBF90E03F
:1026E000019608959FB7F89482E08093E900809165
:1026F000F2009FBF90E008950F931F93CF93DF9355
:102700001F92CDB7DEB782E0898342E450E062EEEB
:102710007AE080E80E94E2120E945A1EDC011296C2
:102720000D911C9113970115110569F0D801ED91D8
:10273000FC910280F381E02DBE016F5F7F4FC801E5
:10274000099597FF07C089810F90DF91CF911F9165
:102750000F910895F80100851185E5CF8F929F9222
:10276000AF92BF92CF92DF92EF92FF920F931F939F
:10277000CF93DF935C016B017A0180910B01882379
:1027800009F45BC080912B02882309F456C0809124
:10279000230280FF05C08091E00082608093E0000A
:1027A000E70110E00AEF83E0882E9AE3992E209744
:1027B000D9F10E94491E81110AC0015009F43DC09F
:1027C00061E070E080E090E00E944E0DF0CF282F95
:1027D00030E0C217D3070CF48C2F4FB7F8948092D7
:1027E000E9009091E80095FF1DC0282F30E0C21B42
:1027F000D30BF601982F915020F081918093F10036
:10280000FACFC20ED31E112319F09092E80009C02E
:102810008091E80085FD06C09092E80011E02097C5
:1028200009F010E04FBFC3CF1111C3CF5D9884E60C
:10283000809321021E141F0444F081E090E0F50112
:102840009383828380E090E001C0C701DF91CF9144
:102850001F910F91FF90EF90DF90CF90BF90AF90BE
:102860009F908F9008950E94491E90E00895CF9305
:10287000DF931F92CDB7DEB7FC018485958597FD68
:1028800005C02FEF3FEF358724870BC0CE0101969F
:102890000E941F1E019719F4898190E002C08FEFFA
:1028A0009FEF0F90DF91CF9108950F931F93CF93D8
:1028B000DF931F92CDB7DEB78C01FC01848595852F
:1028C00097FF0EC0CE0101960E941F1E019719F4BA
:1028D000298130E002C02FEF3FEFF80135872487D0
:1028E000F801848595850F90DF91CF911F910F910D
:1028F00008951F920F920FB60F9211248F939F93FA
:102900008091E1009091E100937F9093E10083FF3B
:102910000FC01092E90091E09093EB001092EC0050
:1029200092E39093ED0010922B0298E09093F000C8
:1029300082FF20C093E09093E9009091F2009923E8
:1029400019F09AE39093E80090912102992339F0CD
:1029500090912102915090932102992389F19091B5
:102960002A02992339F090912A02915090932A02D9
:10297000992341F184FF10C08091E2008E7E816036
:102980008093E2008091E1008F7E8093E10080914E
:1029900023028E7E806111C080FF16C08091E2000C
:1029A0008E7E80618093E2008091E1008E7E809334
:1029B000E100809123028E7E81608093230204C017
:1029C0005D9ACDCF289AD6CF9F918F910F900FBE51
:1029D0000F901F9018951F920F920FB60F9211240F
:1029E000CF92DF92EF92FF920F931F932F933F931B
:1029F0004F935F936F937F938F939F93AF93BF9307
:102A0000EF93FF93CF93DF93CDB7DEB76C97DEBF25
:102A1000CDBF1092E9008091E80083FFEDC168E02E
:102A2000CE0145960E94091382EF8093E8008D89BC
:102A300087FF05C09091E80090FFFCCF03C09EEF98
:102A40009093E800982F907609F0C6C09E892F8950
:102A5000188D91110CC0803829F480912402809344
:102A6000F10002C01092F1001092F10048C1422F13
:102A700050E0512B913051F4811141C14130510549
:102A800009F03DC1809124028D7F0BC0933061F429
:102A9000811135C14130510509F031C180912402C5
:102AA0008260809324022BC1953041F48091E8002C
:102AB00080FFFCCF20682093E30021C1963009F00D
:102AC0005FC0EB8CFC8C1092E900109220021092F7
:102AD0001F02123091F510921E0210921D020E94E8
:102AE0007C1399E0BE016F5F7F4FDB01E92F1D92E0
:102AF000EA95E9F799831A8391E09E8390EA988793
:102B00009AEF998720911F0230912002275F3F4F53
:102B10003C832B838D831092E90010922002109247
:102B20001F02F0921E02E0921D0249E050E080E098
:102B30000E94E2120E947C13E2C0F0921E02E09218
:102B40001D020E945A1EDC011296ED90FC90139714
:102B5000E114F10409F4C0C0D701ED91FC910480A7
:102B6000F581E02DBE016B5E7F4FC701099500978F
:102B700019F00CF0C4C0C7C0F701E084F184E8CFBD
:102B8000973009F4C0C0983021F481E08093F100BF
:102B9000B6C0993009F0B3C0837009F0B4C0EFE556
:102BA000F1E081E021E036E39081992361F08093A8
:102BB000E9002093EB0091919093EC003093ED00AD
:102BC0008F5F873089F78EE78093EA001092EA00E2
:102BD0008F8980932B0293C08B8D9C8D1092E9007E
:102BE0001092200210921F0290931E0280931D02E9
:102BF000898D811156C08E899D89913A59F481320F
:102C000009F081C047E050E064E071E080E00E949C
:102C1000E21275C0913209F076C0833289F4888D52
:102C200090E0982F88272F89822BA0E0B0E0809336
:102C3000000190930101A0930201B09303015FC0D2
:102C4000803269F48091E80082FFFCCF67E084E085
:102C500091E00E9409138BEF8093E80006C0823256
:102C600009F04DC08F8980930B0180912202882347
:102C700019F0EEEFFAE002C0E0E0F8E08091040124
:102C800090910501A0910601B0910701803B94400D
:102C9000A105B10509F07BC080910B0180FF93C0B5
:102CA00076C00E945A1EDC0112960D911C9113975A
:102CB0000115110541F1D801ED91FC910190F081D0
:102CC000E02DBE016B5E7F4FC8010995811117C0D1
:102CD000F80100851185ECCF113009F44EC0133096
:102CE00091F48F89882309F445C0823081F440E84B
:102CF00060E186E49BE00E94721E882321F08EEF43
:102D00008093E80079C081E28093EB0075C0813048
:102D100029F440E86BE08AE39BE0EDCF833099F73C
:102D20000E945A1EDC011296ED90FC9013978E01C2
:102D30000F5F1F4F6801E114F10479F0D701ED91A5
:102D4000FC910680F781E02DB801C7010995080FB5
:102D5000111DF701E084F184EECFD8011C92F60139
:102D600001900020E9F73197BF016C197D0940E01F
:102D7000C601C1CF64E27BE002C068E27BE061157E
:102D8000710509F2FB01449150E080E840CF0FB695
:102D9000F894A895809160008861809360001092FB
:102DA00060000FBEA895EE3F2AE0F20739F080914F
:102DB000FE0A9091FF0A91838083A1CF1092FF0AAF
:102DC0001092FE0A9CCFEE3F8AE0F80731F0808136
:102DD00091819093FF0A8093FE0A87E797E791839A
:102DE00080839BE088E10FB6F894A89580936000FB
:102DF0000FBE9093600083CF6C960FB6F894DEBF41
:102E00000FBECDBFDF91CF91FF91EF91BF91AF91F9
:102E10009F918F917F916F915F914F913F912F91F2
:102E20001F910F91FF90EF90DF90CF900F900FBE0A
:102E30000F901F901895EF92FF920F931F93CF93CF
:102E4000DF938C017B01C0E0D0E0F701EC0FFD1FA8
:102E50006491662361F0D801ED91FC910190F081BD
:102E6000E02DC8010995892B11F02196EECFCE01F6
:102E7000DF91CF911F910F91FF90EF900895611511
:102E8000710579F0FB0101900020E9F73197AF015E
:102E9000461B570BDC01ED91FC910280F381E02D84
:102EA000099480E090E008954F925F926F927F9234
:102EB000EF92FF920F931F93CF93DF93CDB7DEB7BF
:102EC000A1970FB6F894DEBF0FBECDBF7C01FA010B
:102ED000CB0119A2223008F42AE08E010F5D1F4FAA
:102EE000422E512C612C712CBF01A30192010E9432
:102EF0005F22F901CA01015011096A3014F4605DC2
:102F000001C0695CD8016C93232B242B252B61F71E
:102F1000B801C7010E943F17A1960FB6F894DEBF13
:102F20000FBECDBFDF91CF911F910F91FF90EF901A
:102F30007F906F905F904F9008952F923F924F92A5
:102F40005F926F927F928F929F92AF92BF92CF9239
:102F5000DF92EF92FF920F931F93CF93DF9300D0F6
:102F600000D000D0CDB7DEB7F02ECD82A02FB0E0DC
:102F70006C01CA0EDB1E1C141D040CF0F3C080385B
:102F800091050CF0EFC0FB01EE0DF11D1E161F06A2
:102F90000CF0E8C0603471050CF0E4C04115510537
:102FA00009F4E0C0062F0770602EFB0177FD37960D
:102FB00013E0F595E7951A95E1F71E2F77FF04C00A
:102FC000662011F01FEF1E0F97FF05C0EE27FF27A9
:102FD000E81BF90B02C0E0E0F0E060E8C616D1049F
:102FE00024F060E8962E981A01C09F2C9E1A612F3B
:102FF000012E000C770B1F3F1CF4B62EB09401C0BD
:10300000B12CDD24D3940E2D077009F4D12CE69455
:10301000E694E694ED0C6E0D711D693071051CF09F
:1030200068E0E62EE11A8B2C810E782D00E8700303
:10303000800D911D11248E0F9F1F61E070E0062C02
:1030400002C0660F771F0A94E2F70D81033011F07A
:1030500001E001C002E0A919B1090A9F302C112436
:10306000C02ED12CBF9CE00DF11D1124CE9ED001AD
:10307000CF9EB00DDE9EB00D11245A01AA0EBB1ECC
:103080002115310509F0A901960121503109A20F3E
:10309000B31F4A0F5B1FEFEFE69F9001E79F300DD4
:1030A00011242901409450941E0D1E83232D30E0DD
:1030B000099D200D311D11240E81801609F452C086
:1030C000DC01A45DBD4F7A018501712C791409F4EE
:1030D00041C0F8013490369EF001379EF00D112466
:1030E000FA83E983E095F095FC83EB83FD81F23070
:1030F00019F45C824B8211C0ED81EB3F19F41A8206
:1031000019820BC0F7013490369EF001379EF00D06
:103110001124E095F095FC83EB8387FC06C0FC91BD
:10312000EB81EF23F981EF2BEC93662061F0F6E061
:10313000F8154CF0FD01E058FF4F20803C80232023
:103140003A8032283082EC0CFD1C0C0D1D1D73944E
:103150001196BCCF8394A20EB31E420F531F80580A
:103160009F4FAACF26960FB6F894DEBF0FBECDBFF5
:10317000DF91CF911F910F91FF90EF90DF90CF9053
:10318000BF90AF909F908F907F906F905F904F9087
:103190003F902F9008950E94E3230895FC018785B6
:1031A000DF01A80FB11D1C966C938F5F878783305A
:1031B00079F4848591E0891741F02585291729F054
:1031C0002685291711F0918308959F5F953099F70F
:1031D0000895FC01DB0118968C91189719969C9123
:1031E0009095982384FF14C02689203118F42F5F0E
:1031F000268B0FC0F89487E780930008809301081E
:10320000A89588E18093600088E080936000FFCFFC
:10321000168A93FF05C0FB01EE58FF4F82E08083C2
:1032200008950895FC01DB0119968C9119978095FA
:1032300018969C91892371F0828181110BC081E0E5
:10324000828380E48093900081E49FE090939900D2
:103250008093980092819923B9F09F5F9283953073
:1032600059F09D3761F0923079F480E596E49093BF
:103270009900809398000895109290000895FB01A2
:10328000EE58FF4F81E080830895089521E047E7DD
:103290005DE060E070E08CE090E00E943D1C21E089
:1032A00040E05CE063E270E080E090E00C943D1C64
:1032B0004F925F927F928F929F92AF92BF92CF92E6
:1032C000DF92EF92FF920F931F93CF93DF9300D083
:1032D00000D0CDB7DEB729011C2DA02EB12C9C014A
:1032E0002A0D3B1D121613060CF0B3C18038910550
:1032F0000CF0AFC1FB01EE0DF11D1E161F060CF008
:10330000A8C1603471050CF0A4C14115510509F440
:10331000A0C1E62FE770FE2EFB0177FD3796A3E0F4
:10332000F595E795AA95E1F7AE2F77FF04C0FF204A
:1033300011F0AFEFAE0F97FF05C0EE27FF27E81B98
:10334000F90B02C0E0E0F0E02038310524F020E87D
:10335000722E781A01C0702E7E1A6A2F0A2E000C67
:10336000770BAF3F1CF4D62ED09401C0D12C21E0B6
:103370003E2D377009F420E0E694E694E694E20EE0
:103380006E0D711D693071051CF028E0E22EEA1AFD
:10339000ED183D2D3A0FDC0120E83203A00DB11DE0
:1033A0001124AE0FBF1FD09EE00DF11D11244E0F52
:1033B0005F1F81E090E04C010F2C02C0880C991C2B
:1033C0000A94E2F7133009F403C1A0F4113009F4B0
:1033D000B5C0123009F03DC18FEF889DB001899DC5
:1033E000700D1124609570957C836B835C802E2D0D
:1033F000230F2BC01A3F31F01B3F09F02AC12E2D9D
:10340000230F88C02E2D230F51C0FA01E00FF11FAA
:10341000E491E89D6001E99DD00C1124DA82C98213
:1034200037FD07C0FC01E080EE2DE623CE2AFC012B
:10343000C082F11013C00F5F1F4F0196071528F3CC
:103440003F5F4A0D5B1DA058BF4F321709F401C101
:10345000CD01845D9D4F00E010E0F0CF37305CF788
:10346000FC01E058FF4FD080D520CA80DC28D082F4
:10347000E2CFFA01E60FF71FE491E89D8001E99D94
:10348000100D11241A83098337FD04C0FC0110813B
:10349000012B0083F11013C06F5F7F4F01966715FA
:1034A00040F33F5F4A0D5B1DA058BF4F321709F430
:1034B000D0C0CD01845D9D4F60E070E0F0CF37302B
:1034C0005CF78C0100581F4FF801E080EA81EE2A7A
:1034D000F801E082E1CFFA01E00FF11FE491E89DED
:1034E000C001E99D900D11249A83898337FD05C0A1
:1034F0008095FB01908189238083F11014C00F5FB8
:103500001F4F6F5F7F4F071530F33F5F4A0D5B1D05
:10351000A058BF4F321709F49CC0BD01645D7D4FB8
:1035200000E010E0F0CF373054F7FB01E058FF4FD8
:103530008A818095908189238083E1CFC2018E0F9B
:103540009F1F2E2D230F321709F483C0BD01645D28
:103550007D4F6B0100E010E0071590F5FC01E00FD6
:10356000F11FE491E89DB001E99D700D1124609573
:1035700070957C836B83FA01E00FF11FE491E89D65
:103580002001E99D500C11245A82498237FD05C063
:10359000F60170816723462A4082FF2059F03730B8
:1035A0004CF4F601E058FF4F70816C8167237A81FB
:1035B000672B60830F5F1F4FFFEFCF1ADF0ACCCF5F
:1035C0003F5F4A0D5B1D8A0D9B1DA058BF4FBBCFAF
:1035D000C72CD12CE40FF51FA45DBD4F60E870E04F
:1035E0006C197D09AC18BD088501000F111F572DFE
:1035F0002E2DCF93DF93ED01EF96EF962296A590B7
:10360000C590FF2059F0A89C5001C89C600137303C
:103610002CF4E880D094ED20EB28E99233233AF0A3
:10362000EC90C094EC20EA28ED920C94181B1196B3
:103630005A9529F72A9551F0572D33951124E00F0B
:10364000F11DA60FB11DC60FD11DD9CFDF91CF91AE
:1036500011240F900F900F900F90DF91CF911F9139
:103660000F91FF90EF90DF90CF90BF90AF909F9021
:103670008F907F905F904F900895BC0180E090E024
:103680000C944E0D8FB18095807F669B88601C9B4B
:1036900084600895EEE3FFE090E1969FD001A0786A
:1036A0001124A80F6770E60FF11D9491A45DBD4F22
:1036B000442319F08C91982B03C090958C919823FA
:1036C0009C930895CB01BA018038910530F44034C1
:1036D000510518F4422F0C944A1B0895EF92FF9263
:1036E0000F931F93CF93DF93EC017B0121E04EEE0C
:1036F0005BE061E170E08FE290E00E943D1C21E020
:1037000043ED5BE06AE170E08BE290E00E943D1CDB
:1037100021E043ED5BE06AE170E089E490E00E9423
:103720003D1C8A8121E0811117C043ED5BE06AE115
:1037300070E08AE390E00E943D1C21E04BE95BE0F1
:103740006EE270E08AE190E0DF91CF911F910F91DE
:10375000FF90EF900C943D1C40E85BE06AE170E064
:103760008AE390E00E943D1C21E044E65BE06EE2CB
:1037700070E08CE290E00E943D1C8A816FE00E9424
:103780009022C82FC3700FE410E0D0E083E0E80E71
:10379000F11CDC1759F021E041E350E0B801C7010A
:1037A0000E94621BDF5F0E5F1F4FF3CFDF91CF914F
:1037B0001F910F91FF90EF900895EF92FF920F935A
:1037C0001F93CF93DF939C01EB018B0100591F4F97
:1037D000D8018C9190E001974CE0489FF001499FFF
:1037E000F00D1124E60FF71FFF967901B9E1EB0EFA
:1037F000F11CD90159961C9259975A9689E001906B
:103800000D928A95E1F7F90115A216A217A210A64A
:10381000D8018C91813021F06FADC7010E94CE1884
:10382000F8018081823039F0FE01E55BFF4F608155
:10383000C7010E94CE18D8018C91833039F0FE0167
:10384000E95AFF4F6081C7010E94CE18F8018081BC
:10385000843061F0CD59DF4F6881C701DF91CF918E
:103860001F910F91FF90EF900C94CE18DF91CF91A4
:103870001F910F91FF90EF9008952F923F924F92DA
:103880005F926F927F928F929F92AF92BF92CF92F0
:10389000DF92EF92FF920F931F93CF93DF93CDB7F9
:1038A000DEB72C970FB6F894DEBF0FBECDBF6C010C
:1038B000FA0134913196E491832F8F778F5FA82E90
:1038C000B12CBB82AA82C5018C0D9D1D97FD69C1DB
:1038D00000E8C016D1040CF064C18E2F8F738F5F87
:1038E000DB01A80FB11DB7FD5CC1603471050CF0A0
:1038F00058C1331F3327331F398331E0E6FF30E0EF
:10390000EE1FEE27EE1FEC833B0177FF04C0662419
:103910007724661A770A17E061227724FB0177FD86
:1039200037964F01E3E095948794EA95E1F777FFA6
:103930000CC06114710449F061E0861A910868E0D6
:1039400070E0DB01A619B7093D0161E070E05B01A1
:10395000062C02C0AA0CBB1C0A94E2F7BE82AD8200
:10396000682F669566956695877009F06F5FE12C04
:10397000F12C97E0A0E1B0E080E0412C512C212C0B
:10398000312C062F660F110B18870F830F811885B6
:10399000201631060CF005C15D0101E010E0F501D3
:1039A00073E0F695E7957A95E1F7E40FF51FE4915A
:1039B000F0E0B5016770772702C0F595E7956A9545
:1039C000E2F7D5011196E0FF04C00F5F1F4F5D01C4
:1039D000E6CF01301105C1F4FD0163E0F695E795EE
:1039E0006A95E1F7E40FF51F649170E0A770BB27BB
:1039F00002C075956795AA95E2F7617077276F5FAA
:103A00007F4FD50112963CC00150110961E070E072
:103A1000002E02C0660F771F0A94E2F76F5F7F4F98
:103A2000A12CB12CFD01F695E795F695E795F69555
:103A3000E795E40FF51FF491EF2FF0E0FA87E9879F
:103A4000FD01E770FF27FC87EB87E985FA850B848A
:103A500002C0F595E7950A94E2F7E0FF0AC0E1E0BD
:103A6000F0E00A2C02C0EE0FFF1F0A94E2F76E0F7F
:103A70007F1F1196FFEFAF1ABF0AA016B10694F28E
:103A80001C861B86EB85FC85E617F70709F483C0C7
:103A9000A980AA2069F0E92FF0E0311105C007E004
:103AA00010E00E1B1F0BF801EB59FE4FE0818E2B2F
:103AB000915008F069C0882309F449C0122D180DEF
:103AC00018300CF044C0F701EC0DFD1DE038F10595
:103AD000F0F5AD80BE808A9DF0018B9DF00D112424
:103AE000FA87E98717FD16C0C60100E81003800DAC
:103AF000911D11248E0D9F1D845D9D4FFC01008141
:103B0000222319F0F9850F2B03C0B984B0940B213F
:103B1000FC01008361147104D1F01730C1F01F3F24
:103B2000B4F0C60100E81003800D911D11248E0D24
:103B30009F1D84559D4FFC011081222319F0FA85A9
:103B40001F2B03C0EA85E0951E23FC011083AC8087
:103B5000AA2019F0BB24B3943B250FEF401A500A5A
:103B60008A819B814816590634F49FEFE91AF90AB5
:103B700097E080E009C0EFEF2E1A3E0AE12CF12C0D
:103B800097E080E0412C512C0B851C850F5F1F4F67
:103B90001C870B8777CFAA24A394B980AB18A9827E
:103BA000F5CE2C960FB6F894DEBF0FBECDBFDF91D9
:103BB000CF911F910F91FF90EF90DF90CF90BF902A
:103BC000AF909F908F907F906F905F904F903F90BD
:103BD0002F9008959C01240F311D1216130674F5C1
:103BE000803891055CF5FC0197FF02C0E0E0F0E051
:103BF0002138310514F020E830E02E1BAB0147706E
:103C0000552781E001C0880F4A95EAF777FF02C087
:103C1000695F7F4F93E0759567959A95E1F7769583
:103C2000762F662777956795E60FF71FE45DFD4FC2
:103C3000215020F09081982B9193FACF0895FC01A8
:103C400080912B02811103C08FEF9FEF08959FB7E2
:103C5000F89482E08093E9002091F20030E012169F
:103C6000130614F421E030E02115310559F02898AD
:103C700084E680932A028091F10080838091F20093
:103C8000882319F09FBFC90108958BE68093E8004F
:103C9000F9CF2FB7F89483E08093E9009091E80082
:103CA000892F807295FF04C09091F20080E4891BF7
:103CB0002FBF089580917A0781110DC082E0809313
:103CC000760784E08093770710927907109278073F
:103CD00081E080937A0786E797E008958CE796E085
:103CE0000C94D00DCF92DF92EF92FF920F931F931F
:103CF000CF93DF931F92CDB7DEB7182F062FE42E98
:103D0000862F880F8E5F99830E94B41283E00E94F1
:103D1000B412F12EC12E9981D92E8C2D8F198017B6
:103D200098F4F601E7FE02C0849101C080810E94F0
:103D3000B412182F80E00E94B4128123FFEFCF1A33
:103D4000DF0A8111EACF01C081E00F90DF91CF91AE
:103D50001F910F91FF90EF90DF90CF90089578948E
:103D600083E084BD83E085BD81E080936E00E1E85F
:103D7000F0E083E08083E0E881E08083E3EC81E0B1
:103D80008083E2EC81E08083EAE787E080838068DB
:103D9000808310922B0210922402109223028091B1
:103DA000D70081608093D70080EA8093D80089B5DE
:103DB000806189BD89B5826089BD09B400FEFDCFEF
:103DC00061E070E080E090E00E944E0D8091D800AC
:103DD0008F7C80618093D8008091E000807F809309
:103DE000E0008091E1008E7E8093E1008DE0809381
:103DF000E200559A209AEEEFFFE7859194918B3F70
:103E00009C4D19F481E08093220281EC80937C0028
:103E100085B1806F85B984B1877E84B984B1876E9E
:103E200084B95E9A5F988AB1806D8AB9769A6E98E5
:103E300081B3806F81BB899880B38D7080BB80E532
:103E40008CBD81E08DBD85E090E00E943D1B5F9AB6
:103E500085E090E00E943D1B5E985C98E7E5FBE002
:103E60008DE08E0F94919EBD00000DB407FEFDCF36
:103E700031968E13F7CF5C9A81E88093640080912D
:103E800065008160809365000E94421B87FF24C00B
:103E90005C9885EA8EBD00000DB407FEFDCF5C9AEC
:103EA0002E982F982D9880916400806280936400F2
:103EB00081E083BF889513BEFCCF2D980E94421BE2
:103EC0008478843871F00E94421B8471843129F116
:103ED00088EC90E00E943D1B0E94421B82FDEDCFCA
:103EE00038C02D9A88EC90E00E943D1B2F9882E00C
:103EF00090E00E9417228F3F29F06FEF82E090E060
:103F00000E941F2284EF91E00E943D1B2F9A0E9485
:103F1000421B84788438D9F3D6CF2D9A88EC90E070
:103F20000E943D1B2E9882E090E00E941722882379
:103F300029F060E082E090E00E941F2284EF91E08F
:103F40000E943D1B2E9A0E94421B84718431D9F33A
:103F5000BFCF2D9A82E090E00E941722882331F093
:103F60003E9A3F9A81E08093290204C01092290270
:103F70003E983F98809164008E7F8093640080918A
:103F80007A00806480937A0080917A0086FDFCCF6D
:103F9000C0917800D09179000E94DE078E0120E068
:103FA00030E0980111270027600F711F821F931FB7
:103FB000611571058105910511F00E940E22809115
:103FC000640081608093640080E180938606109293
:103FD000EE06CC24C3940CE212E0D0E080E0E82EA0
:103FE00080E0F82EDD24D3948FB7F8944091250219
:103FF0005091260260912702709128028FBF809114
:104000008706942F981B892FC0918806CC2329F00E
:104010009093890610928806B8C0909186068917F9
:1040200040F48F5F891708F0B0C0C3BE889513BEF7
:10403000ACC0D0928806409387068091820690910A
:10404000830601969093830680938206809184066E
:10405000809385060E94421B809384068C2FF80172
:1040600081118FEF00248193819381938193039435
:10407000D1F78091EE068230B9F128F4882351F00F
:104080008130E9F075C0833009F447C0843009F409
:1040900061C06EC08091ED06882321F010927E06EB
:1040A0001092ED066CE776E086E097E00E94121928
:1040B0006CE776E086E097E00E946E1B59C0909115
:1040C000ED06913021F080937E068093ED066CE73B
:1040D00076E08FEE96E00E94E9186CE776E08FEECE
:1040E00096E00E94461944C09091ED06923041F04E
:1040F00080937E0610921F07D09223078093ED06CF
:104100006CE776E089E097E00E941A0F6CE776E0B2
:1041100089E097E00E94F90D2BC09091ED06933055
:1041200061F080937E06109248079091EB06909381
:104130004907109251078093ED066CE776E082E321
:1041400097E00E94170A6CE776E082E397E00E940E
:10415000F8070EC09091ED06943021F080937E0612
:104160008093ED066CE776E08FE597E00E940C0AFD
:10417000F80180E098E000800EBCD111012C01977D
:1041800080FDFDCF0192B9F70DB4E114F10409F4FB
:104190002BCF0E94000028CF10922F0610922E06DF
:1041A00088EE93E0A0E0B0E0809330069093310673
:1041B000A0933206B093330681E791E090932D06E9
:1041C00080932C068FEF9FEF9093390680933806EB
:1041D000109284061092850680E1809386061092E4
:1041E000830610928206109288068FE891E09093E1
:1041F000800680937F061092960610929506ECE852
:10420000F6E090E288E08E0F91938E13FDCF10922E
:10421000A2061092A106E8E9F6E090E288E08E0F8F
:1042200091938E13FDCF1092AE061092AD06E4EA84
:10423000F6E090E288E08E0F91938E13FDCF1092FE
:10424000BA061092B906E0EBF6E090E288E08E0F35
:1042500091938E13FDCF8CE0EBE8F6E0ABEBB6E08C
:1042600001900D928A95E1F78CE0E7E9F6E0A7EC82
:10427000B6E001900D928A95E1F78CE0E3EAF6E072
:10428000A3EDB6E001900D928A95E1F78CE0EFEA9C
:10429000F6E0AFEDB6E001900D928A95E1F781E08E
:1042A0008093EB068093EC068DEF91E090937D0672
:1042B00080937C068FEE96E00E94D30D8DE991E00D
:1042C0009093F0068093EF06109205078DED91E034
:1042D00090930707809306071092080789E097E0FC
:1042E0000E94D30D8DEA91E090930A07809309070D
:1042F00010921F0710922107109220071092230797
:10430000E4E2F7E090E288E08E0F91938E13FDCF08
:1043100010922E0710922F0710923007109231073B
:1043200082E397E00E94D30D8DEB91E090933307E9
:104330008093320781E0809348078FEF809349078D
:1043400010924A0710925407109253071092560782
:104350001092550710925807109257078FE597E073
:104360000E94D30D8DEC91E09093600780935F07DE
:104370001092750708958F929F92AF92BF92CF923D
:10438000DF92EF92FF92CF93DF93EC016881798106
:104390008A819B81611571058105910521F464E293
:1043A00079ED8BE597E02DE133EF41E050E00E949D
:1043B0002D2249015A019B01AC01A7EAB1E40E94F8
:1043C0004C226B017C01ACEEB4EFA50194010E947C
:1043D0005A22DC01CB018C0D9D1DAE1DBF1DB7FF08
:1043E00003C00197A109B04888839983AA83BB833E
:1043F000BC01CD019F77DF91CF91FF90EF90DF90CF
:10440000CF90BF90AF909F908F9008950E94BB2156
:1044100008958CE091E00E94BB21089560930C0107
:1044200070930D0180930E0190930F010895F999F7
:10443000FECF92BD81BDF89A992780B50895262FA9
:10444000F999FECF1FBA92BD81BD20BD0FB6F89479
:10445000FA9AF99A0FBE01960895052E97FB1EF45D
:1044600000940E94442257FD07D00E945F2207FC5F
:1044700003D04EF40C9444225095409530952195EC
:104480003F4F4F4F5F4F0895909580957095619580
:104490007F4F8F4F9F4F08950E948122A59F900DBF
:1044A000B49F900DA49F800D911D11240895B7FF16
:1044B0000C944C220E944C22821B930B0895A1E283
:1044C0001A2EAA1BBB1BFD010DC0AA1FBB1FEE1F8E
:1044D000FF1FA217B307E407F50720F0A21BB30BD9
:1044E000E40BF50B661F771F881F991F1A9469F755
:1044F00060957095809590959B01AC01BD01CF01B1
:104500000895A29FB001B39FC001A39F700D811DAC
:104510001124911DB29F700D811D1124911D0895CC
:10452000991B79E004C0991F961708F0961B881F05
:104530007A95C9F780950895AA1BBB1B51E107C066
:10454000AA1FBB1FA617B70710F0A61BB70B881F23
:10455000991F5A95A9F780959095BC01CD010895B2
:10456000EE0FFF1F0590F491E02D0994CF93DF9398
:104570008230910510F482E090E0E0918407F091A0
:10458000850720E030E0C0E0D0E0309711F14081B5
:10459000518148175907C0F04817590761F48281C3
:1045A0009381209719F09B838A832BC09093850772
:1045B0008093840726C02115310519F0421753074F
:1045C00018F49A01BE01DF01EF010280F381E02DB2
:1045D000DCCF2115310509F1281B390B24303105B9
:1045E00090F412968D919C9113976115710521F0AD
:1045F000FB019383828304C0909385078093840793
:10460000FD01329644C0FD01E20FF31F81939193A7
:10461000225031092D933C933AC02091820730916A
:104620008307232B41F42091120130911301309321
:1046300083072093820720911001309111012115E9
:10464000310541F42DB73EB7409114015091150149
:10465000241B350BE0918207F0918307E217F307E3
:10466000A0F42E1B3F0B2817390778F0AC014E5FE2
:104670005F4F2417350748F04E0F5F1F5093830795
:10468000409382078193919302C0E0E0F0E0CF0174
:10469000DF91CF9108950F931F93CF93DF930097EE
:1046A00009F48CC0FC0132971382128200918407B6
:1046B000109185070115110581F420813181820F48
:1046C000931F20918207309183072817390779F5C6
:1046D000F0938307E093820771C0D80140E050E077
:1046E000AE17BF0750F412962D913C911397AD0170
:1046F0002115310509F1D901F3CF9D01DA01338389
:10470000228360817181860F971F8217930769F456
:10471000EC0128813981260F371F2E5F3F4F3183EF
:1047200020838A819B8193838283452B29F4F09394
:104730008507E093840742C01396FC93EE9312978B
:10474000ED01499159919E01240F351FE217F3079E
:1047500071F480819181840F951F029611969C932C
:104760008E938281938113969C938E931297E0E0AF
:10477000F0E0D80112968D919C911397009719F053
:10478000F8018C01F6CF8D919C9198012E5F3F4FDF
:10479000820F931F209182073091830728173907D2
:1047A00069F4309729F4109285071092840702C0AB
:1047B000138212821093830700938207DF91CF91B7
:1047C0001F910F91089581E090E0F8940C94EF23ED
:1047D000FB01DC0101900D920020E1F7089517E044
:1047E000C4EAD7E004C0FE010E94B0222196C53A77
:0847F000D107C9F7F894FFCFCF
:1047F800FFFFFFFF00E100000000000001000000D3
:10480800000086078000000000007D0C1613DB07FF
:10481800DA0700000000C10B1613DB07DA070000F7
:10482800000000000000F707F607CB18CB1822019C
:104838000C01EC00C900AC006D0166015D0154017A
:1048480049013F01EC08D608B6089308760800C16C
:104858008081000000010204081020408000000050
:10486800004113AE13331457136213371455140051
:10487800000000CB181613DB07DA0700000000CD94
:104888001800000000F30D420D00000000CF0D4C91
:104898000D1119F607E918461900000000CD0D485A
:1048A8000DF40DF6071A0FF90D00000000CC0D46A7
:1048B8000DCF07F607170AF80700000000CB0D44D4
:1048C8000DD907F607D8070C0A00000000CE0D4ADC
:1048D8000D4519F60712196E1B00000000000000B4
:1048E80000F707F607CB18CB1800000000D00DD151
:1048F8000D47616D65204F766572007979792000E2
:044908000D0A000094
:00000001FF
