:100000000C94FA0F0C9422100C9422100C942210D1
:100010000C9422100C9422100C9422100C94221098
:100020000C9422100C9422100C94C6270C9438289F
:100030000C9422100C9422100C9422100C94221078
:100040000C9422100C9422100C9422100C94221068
:100050000C9422100C9422100C9422100C94261E46
:100060000C9422100C9422100C9422100C94221048
:100070000C9422100C9422100C9422100C94221038
:100080000C94A31D0C9422100C9422100C9422109A
:100090000C9422100C9422100C9422100C94221018
:1000A0000C9422100C9422100C942210B818DF1813
:1000B0002E19041A2B1A2F1A371AD5F08D14A1C82D
:1000C00081CFD9F1AF2000110FA8AADA76B9EAAB37
:1000D0004A55A9EA5AAABAAE5255A5AAEF92565560
:1000E000455D5DBBD53B77BBBBEE5C253B757F2B90
:1000F000A75657EB8A11110F88AA7295AB6C7F2F08
:1001000055A9FBFF4FFD7FAE2F97AA5C5545DE4AF0
:1001100095D29F5B9552AAFFD5B73AF5ADEC44D581
:10012000553102110FB8B2A52E5739554AE5AAE448
:1001300076A74AB9722AD552E5C2D0F5A73E59D959
:100140006AD5AB5EB5AB55AD4A3955ABDBD596112B
:10015000110F986DE972577D5D577D5D973B6F6517
:100160008537E9739DAA5A757AD5A9D4B6655D1508
:100170008600110FD8B295AA4A95B2CB6A9BB256A7
:100180005676554A55252B1BD252AA6DEA7397FA1B
:10019000744AB50D55110F283BD5EA7CAFAABA7346
:1001A000AD5425AB3AF5F952A7A28B3C55EECA3AAD
:1001B00075D5AA77B5DD2AA72A59CE461619110F8B
:1001C000282B994A2AE79454BDEA9C734EAE93A912
:1001D0005485ACEA553BA74AB9524E5E4EC94BAE68
:1001E0003AB7EAAE9801110FD094ABE57ABB5D2E19
:1001F0006B1DFE944C2B79B9CB6D2F773925D30A23
:1002000049110F18B7CA2AABACB2EBEC5239E5541E
:10021000AD4A5DD85A2AA79CAA55A9CB5572ABAC5A
:10022000B2CA2A3B330907D3DB4A76AE9297AB6C4E
:10023000363A0907547659B94E56AE9695CDC7054C
:100240001317B665D3E9743A9D4EA7D3E9743A9D66
:10025000CEE7ADF7F090E7CBA7D3E9743A9D4EA770
:10026000D3E9743A9D8D1649636F6E7E7E4E616D43
:100270006500506C617965727E004E756D626572C5
:100280007E6F667E706C61796572737E3F200011AF
:100290000FA8AADA76B9EAAB4A55A9EA5AAABAAEC1
:1002A0005255A5AAEF925655455D5DBBD53B77BB30
:1002B000BBEE5C253B757F2BA75657EB8A11110FC0
:1002C00088AA7295AB6C7F2F55A9FBFF4FFD7FAEBF
:1002D0002F97AA5C5545DE4A95D29F5B9552AAFF9F
:1002E000D5B73AF5ADEC44D5553102110FB8B2A5EA
:1002F0002E5739554AE5AAE476A74AB9722AD5524B
:10030000E5C2D0F5A73E59D96AD5AB5EB5AB55ADC0
:100310004A3955ABDBD59611110F986DE972577DAF
:100320005D577D5D973B6F658537E9739DAA5A756B
:100330007AD5A9D4B6655D158600110FD8B295AAF5
:100340004A95B2CB6A9BB2565676554A55252B1B19
:10035000D252AA6DEA7397FA744AB50D55110F2857
:100360003BD5EA7CAFAABA73AD5425AB3AF5F95246
:10037000A7A28B3C55EECA3A75D5AA77B5DD2AA758
:100380002A59CE461619110F282B994A2AE7945458
:10039000BDEA9C734EAE93A95485ACEA553BA74A7F
:1003A000B9524E5E4EC94BAE3AB7EAAE9801110F44
:1003B000D094ABE57ABB5D2E6B1DFE944C2B79B9C6
:1003C000CB6D2F773925D30A49110F18B7CA2AAB3D
:1003D000ACB2EBEC5239E554AD4A5DD85A2AA79C31
:1003E000AA55A9CB5572ABACB2CA2A3B33111794AC
:1003F0003C9B4DA7D3E9743A9D4EA7D3F97C9ECB85
:1004000087764F984FA7D3E9743A9D4EA7D3D96802
:10041000011117E8932BE5D2F9743E9DCEA7F3693D
:10042000C5BCFB7C3A9D4FA7F3E97472A5D4B01408
:100430001117D094CD66B3D97C3E9FCF87AF7C3E59
:100440009FCFE7B3D96C369B0D9A021117B0B54C0C
:1004500067D3E9BCC26B5EF974369DCE29C80B1117
:1004600017943C9B4DA7D3E9743A9D4EA7D3F97CD2
:100470009ECB87764F984FA7D3E9743A9D4EA7D36A
:10048000D968011117C894CCA6B3E974369D4DE71D
:1004900095DF87A7BDF2FB743A9B4E67D3E9FEE474
:1004A00070141117E8B3D96C369BCFE7F3F9F095C8
:1004B000CFE7F3F97C369BCD66B34157111790A671
:1004C0005C3A9D4FE7C7A7F2E9743E9D532EE80BB7
:1004D000090FFF7F8CFDFF6FC7DA760B090FB7336B
:1004E0006F67DC6EB7636DBB05090FB7636DBBDD6E
:1004F0008EB5ED16090F70B49D71BBDD8E45090FE9
:10050000F0B7DD6EC722090F70B41DE341424344CA
:10051000414243442020303030300A0041424344BD
:10052000414243442020303030300A0041424344AD
:10053000414243442020303030300A001D6000002A
:10054000000000FF000EFEFCFCF9F9F3F3E7E7CF33
:10055000CF9F9F3F1F9FCFC767F339000000000068
:10056000003FC00FFFFFFFFFE3C3C7FFFFFFFFFF19
:1005700080003FF9F0F8FFFE0000000000000001DD
:100580000205050B1317A76FDF5FBF3F7F7F0000DA
:100590005FB341A157000000000000000000008090
:1005A0006018C6F1FEFFFFFEFDF9F9F4FAFDFEFD4D
:1005B0003E070000000000000000000E112447A3C9
:1005C0007373D39393F1F9F9F9F9E9E4E4743C0016
:1005D0000000000000000000000000000001814257
:1005E00025ABD64C24273379FCFCFE3F00000000ED
:1005F00000000000000000000000FF001CFCF8F9F3
:10060000F1F2E2E6CFCF9F9F3F0000000000000024
:100610000000000000000081FE801FFFFFFFFFC7F9
:10062000878FFFFFFFFF0000000000C030CCF2FA10
:10063000FDFD7D7DFEEAD7AC5BAB5727AF4F9F3FFB
:10064000BF7F7F00C0308CE3F8FFFFFFFFFFFCFCA3
:10065000FEFFFF7F7F1F0360FCFFFFFEFFFE850E96
:100660000708122351B9A949C959787CFCFCFCF050
:100670007272329E9C183163C78F1F3F7F0000004B
:1006800000008040211255CA24121BB9FCFEFEFF57
:100690009F0F0F9FFEFEFCFDF8C81D6039F367C772
:1006A000CF9F1F3F9F9FCFCFE7E7F3F3F9F9FCFC04
:1006B000FE0E00FF0000000000FEFFF8F0F93F0012
:1006C00080FFFFFFFFFFC7C3E3FFFFFFFF0FC03F38
:1006D00000000000000057A141B35F00007F7F3F92
:1006E000BF5FDF6FA717130B0505020100000000B5
:1006F000000000073EFDFEFDFAF4F9F9FDFEFFFFE4
:10070000FEF1C6186080000000000000000000003C
:100710003C74E4E4E9F9F9F9F9F19393D37373A321
:100720004724110E0000000000000000003FFEFC06
:10073000FC793327244CD6AB254281010000000010
:10074000000000000000000000003F9F9FCFCFE6A8
:10075000E2F2F1F9F8FC1C00FF00000000000000CC
:1007600000000000000000FFFFFFFF8F87C7FFFFB2
:10077000FFFF1F80FE81000000000000000000005D
:10078000000000007F7FBF3F9F4FAF2757AB5BACA0
:10079000D7EAFE7D7DFDFDFAF2CC30C000000000FE
:1007A000000E85FEFFFEFFFFFC60031F7F7FFFFF43
:1007B000FEFCFCFFFFFFFFFFF8E38C30C0007F3F33
:1007C0001F8FC76331189C9E327272F0FCFCFC7C58
:1007D0007859C949A9B95123120807C8F8FDFCFE88
:1007E000FE9F0F0F9FFFFEFEFCB91B1224CA55127D
:1007F00021408000000000004A28000000000000A6
:100800000000000000F80402AA52E4081060283436
:10081000020955A9F234C80412AA3204C870209003
:1008200010904888C888C89020F0080452EAF20462
:100830000830202020408000000000000000000060
:1008400000000000000000000000000080800007A1
:10085000F8000255FFFE0E0ECF27E70707FFFF0740
:1008600000A8F5FE7F870068F5FA8502790103FF8D
:10087000FFFFF80700A855FF0707E70607FEFDAAD8
:100880000401F28C8000000000000000000000E085
:100890001804E2F9F19914183129B16932944AA780
:1008A000C6A4C5A6C8891224CB0C88522733981435
:1008B000931C203373E7662B9B499F379F943852D4
:1008C000A593188C4F88489F2762F9F19914183125
:1008D000293169D2A40810E0E0110AA4C9A3C7A76E
:1008E000A74B160EB9C0863F7FF9E0C4CCCCE1E13E
:1008F000F0FE0301A854FA850279780186FDFA0F0B
:100900000050AAF51F07E31309F8FCF7B1369A99CE
:100910009B8F6FEE0011EFA74B160E94ACDCF0022C
:100920000DF00001020409131313132727271313D3
:10093000130906040909090909040402010204094A
:100940001313272626271313090604091209040284
:10095000010102040913112325121112090C1213AB
:10096000131327272713131308040300451FA8E4B4
:10097000D974BA5DA954AEDB95CE5DAA2A5595BB54
:1009800074EA9395ACD4A753A976A552E9743A9D1D
:1009900052A5D329553AA54AA552A9DCA5D3A954F5
:1009A0003A9D4EA7D3C94A56B29295AC64252B59AD
:1009B000C94A56B29295AC64252B9D4EA7D3F9BC7B
:1009C000E4F55C952DE5F2F9D9F2E974325BBB747C
:1009D000BA76E974253BD7C9743ABDAD6465A353B3
:1009E000369D8D363C79F4E7359E3CAFA79233A512
:1009F0005AA95257B5AA6CDF3BD5BD74E7ACB3CE4C
:100A00002A9D4EA7D3E9A472524977E974B676FFBE
:100A10002EBF0F5FDA877E8F28CF2B7DCBCA5D4A32
:100A200055AA72D7AE9295AC64E52E77C94A56B2F4
:100A300092A554C9AA5DB94B56B29295AC5DED2A08
:100A400059C94A56B29295AC64EDAABE5EE52E9D98
:100A50004EA7D3E94A56B29295AC64252B59C94AA0
:100A600056B29295AC64252B994EA7D3E974B6255E
:100A700025451FB6810E4A6F3D78220F9EC8DB7553
:100A8000A083B24C712768B3D96CE73AD7C97C3ED2
:100A90002C2DB3D94E7575B95BA97C5EA1359BCD64
:100AA000762EDDC97C3EEC2ED3D94E752E95EA55B7
:100AB000AF7AD5ABDE75AE739DEB643A9F4FA783DB
:100AC000379597BEB255E5AAF25BAD64AB739DEB6B
:100AD00054BBFA7FABE4B9546C695BB9943BD5B9AC
:100AE00054AABFD5AD6E752BA54B754C9DAAAE6AA9
:100AF0009DDF2A752B554A253B955318F38C555D80
:100B000055576C76FBF694BAD5AD3EA7ACD2A99DED
:100B10005C75AA924A756A97EA4AADB2D96CA73A4F
:100B2000974AF57775EA5BDD4AF5AA779DEBA492C3
:100B3000D974BA539D4B75EABB52BDEA55EF3AD70B
:100B4000B94EE6F3F1E7355F55958DD339A93E757A
:100B5000A9539FFAD4AB96CA3211565D5513DA8861
:100B6000ECB9CEB5D65B9FE6ABAAE24BFBBCD4F9A1
:100B7000743E62CF587555CDC727CFA5F3D995528E
:100B80005355571591534495ABAA72151561D55518
:100B900035A18DC89EEBDC77FDAB4EEEA872E52A41
:100BA0009BEDECAA942AA59C924A2AA96EF5A9ADC0
:100BB000522A9F522B159E9CCFA77255A972973A25
:100BC0009BCD2924EDF3B94F567695CAA5BA527537
:100BD000DDEA94BAD5AD6E75A9CB5DEE52F727D795
:100BE000F9D4A7D4AD6E757FEAB3D9E4ECCAE75760
:100BF000B9AA545D9752E52E77B9CB5DF27297BAD8
:100C0000DCE52E757FAA734A3B5FD9AA6ABB564EB4
:100C1000E652256F77B95B9D52B7BAD5A52E77B945
:100C20004B9D533AB56A75BBCBDDEE56A73EF5AD8D
:100C30004E7DABABFEBE94AA5536B91B6C533A9FA2
:100C4000CE061D027127D896CA392595545249E718
:100C5000A4B2EB4895734A6ED3E9747AABA473528D
:100C6000A12FBB54CE29A9A4924A2AE99C54761DEF
:100C70001295734A6EB7DBED76BBDD6EB74A2AA9D3
:100C8000A473CE4965B7DB753AF85149BC6E15922D
:100C9000D3DB6D3A1DFAD34B04A1391D7E73FD29B8
:100CA000E7B6DB743A9D4EA7D3DBAD924A2AA9E49E
:100CB00076BB4DA7D3DBED76ABA4924A3A27955D80
:100CC000E7B7584EAF83EFA492CAAE23C2AF7252B9
:100CD0000DF3AAF8D2CE4965D7D167974A2AC7B98A
:100CE00055D239A9EC76BB5D87D6EC524965B7EB96
:100CF000743ABB5D2AE7949C4D49E7EC3A7467B7B8
:100D0000EBA0A7EC761DDAB34BE5E0BA743A1DB45C
:100D1000974EA7435F7ABB5552492595DC469B4EBB
:100D2000A743673A9D4EA7D3E9743AB401F0F8F8A7
:100D3000FCFCFCFCFCFCFCFEFEFEFEFEFEFEFEFFE0
:100D4000FFFFFFFFFFFFFFFFFFFFFEF800000000B7
:100D50000000000000000000000000000000000093
:100D60000000C0E0F0F0F0F0F0F0F0F0F0E0C000D3
:100D7000000000F0F8FCFEFEFEFEFEFEFEFEFEFCA5
:100D8000F80000000000000000000000000000006B
:100D900000000000001FFFFFFFFFFFFFFFFFFFFF3E
:100DA000FFFFFFFFFFFFFFFFFFFFFFFFFFFFFFFF53
:100DB000FFFFFFFBF8F8F8F8F8F0F0F0F0E0C0C043
:100DC000C0C0C0C0C0C0C0C0C0C0FFFFFFFFFFFFA9
:100DD000FFFFFFFFFFFFFF0000000003FFFFFFFF1B
:100DE000FFFFFFFFFFFFFFFFFFFEF0F8F8F8F8F846
:100DF000F8F8F8F8F8F0F0F0E0C080000000017FAB
:100E0000FFFFFFFFFFFFFFFFFFFFFFFFFFFFFFFFF2
:100E1000FFFFFFFFFFFFFFFFFFFFFFFFFFFFFFFFE2
:100E2000FFFFFFFFFFFFFFFFFFFFFFFFFFFFFFFFD2
:100E3000FFFFFFFFFFFFFFFFFFFFFFFFFFFFFFFCC5
:100E4000FCFEFEFFFFFFFFFFFFFFFFFFFFFFFFFFB7
:100E5000FFFFFFFFFFFFFFFFFFFFFFFFFFFFFFFFA2
:100E6000FFFFFFFFFC00000007FFFFFFFFFFFFFF8A
:100E7000FFFFFFFFFFFFFFFFFFFFFFFFFFFFFFFF82
:100E8000FFFFFFFFFFFFFFFFFFFFFFFFFFFFFFFF72
:100E9000FFFFFFFFFFFFFFFFFFFFFFFFFFFFFFFF62
:100EA000FFFFFFFFFFFFFFFFFFFFFFFFFFFFFFFF52
:100EB000FFFFFFFFFFFFFFFFFFFFFFFFFFFFFFFF42
:100EC000FFFFFFFFFFFFFFFFFFFFFFFF0F0000001F
:100ED00000017FFFFFFFFFFFFFFFFFFFFFFFFFFF9F
:100EE000FF1F3F7FFFFFFFFFFFFFFFFFFFFFFFFF32
:100EF000FFFFFFFFFFFFFFFFFFFFFFFFFFFFFFFF02
:100F0000FFFFFFFFFFFFFFFFFFFFFFFFFFFFFFFFF1
:100F1000FFFFFFFFFFFFFFFFFFFFFFFFFF7F7F7F61
:100F20007F3F3F3F3F7F7F7F7F7F7F7F7F3F3F1FB1
:100F30000F07030100000000000000010303070782
:100F4000070707030303030100000000000000017E
:100F50000101010101010101010101010101030779
:100F6000070707070707070707030103070707071F
:100F7000070707070703010001030707070707071C
:100F8000070703010000000000000000000000004F
:100F900000000000000000000000000000683000B9
:100FA000E0101088488848884888C4A4C4A4C4A411
:100FB000C4A4D2E2D2E2D2E2D2E2020CF0000000FB
:100FC0000000000000000000000000000000000021
:100FD000000000000080402020202020202020C091
:100FE000000000000000E0100804A444A4C4E404CD
:100FF00008F00000000000000000000000000000F9
:1010000000000000000000000FF0000A55AFFFFFD5
:10101000FFFFE30303392929292929A995949494E9
:1010200024242292119090909090A0202020408023
:1010300080808080808080008080808080FF0000B1
:10104000AA55FEFFFF0000FF00000000000001FEA7
:101050000000AA55FFFFFFFE0003FC804020101097
:101060009010909090902020204080000000000080
:1010700000003FC0002A55BFFFFFFFFF1F1F9F9FBB
:101080009F4F4FCF0F0F4FA7D0FAFD3E0F0763536F
:101090004971030757FEFEFC00A854F8F4F800C39A
:1010A000F0F874F8F4F8F0E00A55FFFFFF00007F55
:1010B0002010088844A4D2E3703012A57FFFFFFF00
:1010C000F8008351A8F4FA3D0E0723333303875FFA
:1010D000BEFCF80106F8000000000003FC0001AAB5
:1010E00057FFFFFFFE80007F8000E01805A250E858
:1010F000F4FC7E3E1E8ECEE6260686FFFFFFFFFF37
:10110000000A55FFFFFFFFFF0300F81013F303036E
:10111000A855FFFFFFF0F0F8F4FAEDCE0733518841
:1011200004F8000255ABFFFFFF00FAFDFFFF0F07B9
:1011300067676627068746A7C7470310E8070000CA
:1011400000000000003FC000152A7F3F3F3F200005
:101150008F7001060810254F4F4F9E9C9D9D9C9CB3
:101160004E4D8E9F9F9F9F9F800005AB5FFF7F7FAF
:10117000780007F800FF00002A557F7F7F0100F804
:101180001123478E3D3A74285123400005EA272F4A
:101190002F2F100913171716242E2C2E2526131166
:1011A000080402010000000000000000000000012F
:1011B0000202020201010101000000000000000023
:1011C000000000000000000000000000000000001F
:1011D00000010202020202020202010000000102FA
:1011E00002020202020201000000000001020202EB
:1011F00002020201010000000000000000000000E7
:101200000000000000000000000000000000007E60
:101210006F667E005475726E7E00546F74616C0050
:101220005475726E00526F6C6C001317B665D3E97B
:10123000743A9D4EA7D3E9743A9DCEE7ADF7F0908E
:10124000E7CB57325DC97425D3954C57325DC974CD
:1012500025D3958B28321B0FB665D3E9743ADDB9D7
:10126000B6E77297EA95D46D5DA74AE9DCA54AB95D
:101270005AA7D3E97C5EFB7C25D3954C57325DC9D8
:101280007425D3954C57325DC97425D3954C57328C
:101290005DC96CB6731B0FB66553555D7555D55555
:1012A00057555D7555D55557555D7555D555575598
:1012B0005D7555D55557555D7555D55557555D7562
:1012C00055D55595D73E5FC964553259954C56252D
:1012D0009355C964553259954C56259355C9645553
:1012E0003259954C5625B3D9CE011B0F9C3A1B6D34
:1012F0003ADA74B4E968D3D1A6A3CDC7A498F2D1E1
:10130000A6A34D479B8E361D6D3ADA6C6C1B0FB64B
:1013100065D3E9743A9D6E7B57EAD629A97A25757B
:10132000E7DAEACEB5D5E9743A9FD73E5FC97425AE
:10133000D3954C57325DC97425D3954C57325DC94E
:101340007425D3954C57329BED1C1117DCCCE96802
:10135000D3D1A643D1FF30D08FA274B4E968D36152
:10136000091117B731557555AEAAAB72555D95ABDE
:10137000EAAA5C5557E5AABA2A57D555959EB6AA4A
:10138000AEAAABEAAABAAAAEAAABEAAABAAAAEAA0F
:10139000ABEAAABAAAAE2AC27568CF6E0111175479
:1013A000CF176D3ADA74B431F77F50D0C71C6D3A5D
:1013B000DA74B4B1031117943C9B4DA7D3E9743A86
:1013C0009D4EA7D3F97C9ECB87764F984FA7D3E944
:1013D000743A9D4EA7D3D968011117943C5B369D92
:1013E0004EA7D3E9743A9D4E672B799ECBFBD0EC88
:1013F0003D613E9D4EA7D3E9743A9D4E67A305001B
:1014000000001414142A2A001428001428001E11A5
:101410000FA8AADA76B9EAAB4A55A9EA5AAABAAE2F
:101420005255A5AAEF925655455D5DBBD53B77BB9E
:10143000BBEE5C253B757F2BA75657EB8A11110F2E
:1014400088AA7295AB6C7F2F55A9FBFF4FFD7FAE2D
:101450002F97AA5C5545DE4A95D29F5B9552AAFF0D
:10146000D5B73AF5ADEC44D5553102110FB8B2A558
:101470002E5739554AE5AAE476A74AB9722AD552B9
:10148000E5C2D0F5A73E59D96AD5AB5EB5AB55AD2F
:101490004A3955ABDBD59611110F986DE972577D1E
:1014A0005D577D5D973B6F658537E9739DAA5A75DA
:1014B0007AD5A9D4B6655D158600110FD8B295AA64
:1014C0004A95B2CB6A9BB2565676554A55252B1B88
:1014D000D252AA6DEA7397FA744AB50D55110F28C6
:1014E0003BD5EA7CAFAABA73AD5425AB3AF5F952B5
:1014F000A7A28B3C55EECA3A75D5AA77B5DD2AA7C7
:101500002A59CE461619110F282B994A2AE79454C6
:10151000BDEA9C734EAE93A95485ACEA553BA74AED
:10152000B9524E5E4EC94BAE3AB7EAAE9801110FB2
:10153000D094ABE57ABB5D2E6B1DFE944C2B79B934
:10154000CB6D2F773925D30A49110F18B7CA2AABAB
:10155000ACB2EBEC5239E554AD4A5DD85A2AA79C9F
:10156000AA55A9CB5572ABACB2CA2A3B3303081FAC
:10157000051F1F151B1F11111F110E1F15111F0510
:10158000011F111D1F041F001F0010101F1F041B2F
:101590001F10101F061F1F011F1F111F1F05071FF0
:1015A000311F1F051B17151D011F011F101F0F10D5
:1015B0000F1F0C1F1B041B071C071915130C121EF1
:1015C0001F120C1E12120C121F0C1A14041F052ECF
:1015D0002A1E1F021C001D00201D001F041A011FCF
:1015E000001E041E1E021E1E121E3E120C0C123E77
:1015F0001E020614120A020F121E101E0E100E1EDC
:10160000081E1A041A2E281E1A12161F111F121F46
:10161000101D151711151F07041F17151D1F151D68
:1016200001011F1F151F17151F00170000100004D0
:101630000404040E040229060A000004083E0909F5
:101640003E3F25251A1E2121123F21211E3F25251F
:10165000213F0505011E21293A3F04043F213F2176
:10166000001021211F3F040A313F2020203F0202A9
:101670003F3F02043F1E21211E3F0909061E211182
:101680002E3F09093622252519013F01011F20207F
:101690001F0F10201F3F10103F3B04043B03043872
:1016A00007312D2321102A2A3C3F2424181C2222F2
:1016B000141824243F1C2A2A2C043E05014C5252A3
:1016C0003E3F040438243D20004040443D3F081480
:1016D00022213F20003E04043E3E04023C1C222204
:1016E0001C7E22221C1C22227E3E040204242A2A62
:1016F00012021F22201E20201E0E10201E3E10103F
:101700003E360808364E50503E322A26221E2925E3
:101710001E223F2000322929261221251A0C0A3FB9
:1017200008172525191E252518013905031A252511
:101730001A0629291E002F0000002000000229059A
:101740000200040400E0E0E0E0E0E0E0E0E0C0C02F
:10175000C0C0C0C080808000000000000000000009
:101760000000000000000000000000000000000079
:101770000000000000000000000000000000000069
:101780000000000000008080C0C0E0E0F0F0F8F849
:10179000FCFCFEFEFFFFFFFFFFFEFCF8F0E0800018
:1017A0000080C0E0E0FFFFFFFFFFFFFFFFFFFFFF44
:1017B000FFFFFFFFFFFFFFFFFEF8F0C0C0E0E0F01B
:1017C000F0F8F8FCFCFEFEFEFEFEFCF8F0E0C000C7
:1017D00000000080C0C0C0C0C0C0C0C0C0C0C080C9
:1017E000808080C0FCFFFFFFFFFFFFFFFFFFFFFFC8
:1017F000FFFFFFFFFFFFFFFFFFFFFFFFFFFFFFFFF9
:10180000FFFFFFFFFFFFFFFFFFFFFFFFFFFFFFFFE8
:10181000FFFFFFFFFFFFFFFFFFFFFFFFFFFFFFFFD8
:10182000FFFFFFFFFFFFFFFFFFFFFFFFFFFFFFFFC8
:10183000FEFEFFFFFFFFFFFFFFFFFFFFFFFFFFFFBA
:10184000FFFFFFFFFFFFFFFFFFFFFFFFFFFFFFFFA8
:10185000FFFFFFFFFFFFFFFFFFFFFFFFFFFFFFFF98
:10186000FFFFFFFFFF3F3F3F3F3F3F3F3F3F3F3FC8
:101870003F3F3F3F3F3F3F3F3F3F3F3F3F3F3F3F78
:101880003F3F3F3F3F3F3F3F3F3F3F3F3F3F3F3F68
:101890003F3F3F3F3F3F3F3F3F3F3F3F3F3F3F3F58
:1018A0003F3F3F3F3F3F3F3F3F3F3F3F3F3F3F3F48
:1018B0003F3F3F3F3F3F3F3F3F3F3F3F3F3F3F3F38
:1018C0003F3F3F3F3F6020404040404040404080DD
:1018D0008080808080000000000000000000000088
:1018E00000000000000000000000000000000000F8
:1018F00000000000000000000000000000000000E8
:10190000000000000000000000000080804040A0B7
:10191000A090D0C8E8E4F4F21A02C468D020C00055
:1019200000000000008040F0C30F3FFEFEFEFEFE00
:10193000FE3E3E3C7CFDFDFDF2CC106080008080D0
:10194000404020A090D0C8E8E4340488D0A0408073
:101950000000000000000080808080808080808007
:10196000000000000000807886F9FDFEFEFF9F8FDA
:10197000CFFFFFFFFFFFFF0700F0FFFCF8FFE2C50E
:101980006A14C8E6910C88FFFFFFFCF0430F3F3F4D
:101990003F3F3E3E3E3F7F7F7F7F7F7E79670A7677
:1019A0000F9F7FFFFFFFFFFF0F00E0FFF1F3FE8DB2
:1019B0009AF42810CC321930C0061E7EFCFCFCFCC8
:1019C000FDFD7D7D79F9FBFAFBE69D2AD52B979FDE
:1019D0009FCFCFCFE7E7C1801E3070FF8F0731F870
:1019E000FEFFFF9F0F0F9F3F1F0F2331381E17135E
:1019F00031313B3F3F3E3E3E26220226142A142A26
:101A0000353E1F1F1F0F0F03003C23313F1F0F23C5
:101A1000313C3E3F3F1E1C3E3F3F3E3821071F3FAB
:101A20003F3F3E3C3C3C3F3F3F3F3F3E3C310A1541
:101A30002F3F2F0F0F0F1F3F3F3E3C38312306082B
:101A4000030F3F1F1F3F3F546F74616C001317B6A5
:101A500065D3E9743A9D4EA7D3E9743A9DCEE7ADBC
:101A6000F7F090E7CBA7D3E9743A9D4EA7D3E9747A
:101A70003A9D8D167220008040209010881020C062
:101A8000E01008E4E4F2F28408707C0285F9FDF9C4
:101A9000F204089048C8C81020C0800000008040B0
:101AA0004040808000008040202020408080804096
:101AB0004040800000000000008080808000000026
:101AC0000000000080800000808080000000000096
:101AD00000C0201048A464E40810E000008080806A
:101AE0000000000000000000070830458A172F5F43
:101AF000FCC08000FFFFFFFF0F3FFEF8C0C01FFFCC
:101B0000FF7F01000850F1F2E1048254FCF1321928
:101B1000CC0E16AE5CFC310100AAD5FF7F0C8CCC3C
:101B20000C1CFAD4E8010642A9D12914183C78F912
:101B3000F9F2E40402A954FCF179343834994224CE
:101B4000180080780502A8FC1D08A2D3E9F13934F9
:101B50003834391902645880000000000000010682
:101B600018E10215AFF8FFFFFF0F00F01823479FA1
:101B70003F1F2A950000AA55FFFF01000055FFFFF7
:101B80007E00817F40803D7F0020952A3F9F40203E
:101B90007F80007F7FFF7F2080152F7EE6E6E3E3D6
:101BA000E3F1793D1C0054AAFD7F01807E01010014
:101BB00000000000FF000055AA7F7C000303A36320
:101BC000A767A767A77FBF1E0EC0310E00000000E9
:101BD00000000000030404040904040201000000E2
:101BE00000000101010102040809040402010102CC
:101BF00004040201000000000102020100010100D2
:101C000000000000010202040201000102040404B9
:101C100004040404020101010204040201000000A2
:101C200000000000000000010204040202010102A1
:101C3000040404090804040404020100000020074D
:101C40009D733A1DD9B273979C4DB9ED5A7139D72E
:101C500039272773CE713999DD3A32E59CEB5CCD9B
:101C6000050D0F929DAB64E72AD9B94A76AE929DD5
:101C7000AB64E72A598CD145175D74D1450A4D07ED
:101C80009DAB9DB2B1395749272B2EE76AD7916595
:101C90002F5793652F57E3CAB9DA291B9B734EA7B9
:101CA00023536EBB565C6B25959B7ED9B94B4EE694
:101CB0006476EB709476CEB9BC72DBB5E272AE7628
:101CC000CAC6E65CED3A070D0FD5E594BC9C929729
:101CD00053F2724A5E4EC9CB2979E5955452492593
:101CE0009554524925955452492515192307524EAA
:101CF0002AA9A453B8954ED9D099554E926595937B
:101D000054683000E0101088488848884888C4A487
:101D1000C4A4C4A4C4A4D2E2D2E2D2E2D2E2020CAD
:101D2000F0000000000000000000000000000000C3
:101D30000000000000000000008040202020202043
:101D4000202020C0000000000000E0100804A4448F
:101D5000A4C4E40408F0000000000000000000003B
:101D60000000000000000000000000000FF0000A6A
:101D700055AFFFFFFFFFE30303392929292929A9CB
:101D80009594949424242292119090909090A02065
:101D900020204080808080808080800080808080C3
:101DA00080FF0000AA55FEFFFF0000FF00000000BA
:101DB000000001FE0000AA55FFFFFFFE0003FC80AB
:101DC0004020101090109090909020202040800093
:101DD0000000000000003FC0002A55BFFFFFFFFFCA
:101DE0001F1F9F9F9F4F4FCF0F0F4FA7D0FAFD3E52
:101DF0000F0763534971030757FEFEFC00A854F810
:101E0000F4F800C3F0F874F8F4F8F0E00A55FFFFB6
:101E1000FF00007F2010088844A4D2E3703012A590
:101E20007FFFFFFFF8008351A8F4FA3D0E0723332C
:101E30003303875FBEFCF80106F8000000000003D2
:101E4000FC0001AA57FFFFFFFE80007F8000E01822
:101E500005A250E8F4FC7E3E1E8ECEE6260686FFE6
:101E6000FFFFFFFF000A55FFFFFFFFFF0300F81011
:101E700013F30303A855FFFFFFF0F0F8F4FAEDCEDB
:101E80000733518804F8000255ABFFFFFF00FAFD4D
:101E9000FFFF0F0767676627068746A7C747031038
:101EA000E807000000000000003FC000152A7F3F47
:101EB0003F3F20008F7001060810254F4F4F9E9C1A
:101EC0009D9D9C9C4E4D8E9F9F9F9F9F800005AB2C
:101ED0005FFF7F7F780007F800FF00002A557F7FB3
:101EE0007F0100F81123478E3D3A742851234000AA
:101EF00005EA272F2F2F100913171716242E2C2E23
:101F00002526131108040201000000000000000053
:101F100000000001020202020101010100000000B4
:101F200000000000000000000000000000000000B1
:101F3000000000000001020202020202020201008F
:101F40000000010202020202020201000000000081
:101F50000102020202020201010000000000000072
:101F60000000000000000000000000000000000071
:101F70000000000102040810204080080B0002024B
:101F80000201000904000001020200000524001003
:101F900001052401010104240206052406000107AD
:101FA00005810310004009040100020A0000000737
:101FB00005020240000007058302400000040309F7
:101FC0000412010002EF02014041233680000101AA
:101FD00002030141726475696E6F204C4C430041ED
:101FE000726475696E6F204C656F6E6172646F000C
:101FF0003A2D362D11241FBECFEFDAE0DEBFCDBF64
:1020000012E0A0E0B1E0E0E3F1E602C005900D923D
:10201000AC33B107D9F727E0ACE3B2E001C01D92C1
:10202000A93AB207E1F71FE0C9EFDFE004C021974A
:10203000FE010E944C2FC83FD107C9F70E94682AB1
:102040000C948B300C940000CF92DF92EF92FF92B1
:102050000F931F93CF93DF936C017A018B01C0E044
:10206000D0E0CE15DF0589F0D8016D918D01D60144
:10207000ED91FC910190F081E02DC6010995892B2D
:1020800011F47E0102C02196ECCFC701DF91CF9100
:102090001F910F91FF90EF90DF90CF9008950E94D5
:1020A0007F30EF92FF920F931F93CF93DF938C01BA
:1020B0007B01C0E0D0E0F701EC0FFD1F64916623C7
:1020C00061F0D801ED91FC910190F081E02DC80103
:1020D0000995892B11F02196EECFCE01DF91CF919A
:1020E0001F910F91FF90EF9008956115710579F0A0
:1020F000FB0101900020E9F73197AF01461B570B18
:10210000DC01ED91FC910280F381E02D099480E0E7
:1021100090E008954F925F926F927F92EF92FF92BC
:102120000F931F93CF93DF93CDB7DEB7A1970FB671
:10213000F894DEBF0FBECDBF7C01FA01CB0119A21E
:10214000223008F42AE08E010F5D1F4F422E512CE1
:10215000612C712CBF01A30192010E94FB2EF90199
:10216000CA01015011096A3014F4605D01C0695C54
:10217000D8016C93232B242B252B61F7B801C701C1
:102180000E947510A1960FB6F894DEBF0FBECDBFAA
:10219000DF91CF911F910F91FF90EF907F906F9003
:1021A0005F904F900895EF92FF920F931F93CF93FC
:1021B000DF939C01EB018B01095B1F4FD8018C91D0
:1021C000FB01E80FF11DE80FF11D04ACF5ADE02DAA
:1021D0007901BAE1EB0EF11CD9015A961C925A977B
:1021E0005B9689E001900D928A95E1F7F8014081B4
:1021F00050E0415051096AE0649FC001659F900D15
:10220000112489599F4FD90195969C938E93949749
:1022100096961C92969797961C92979798961C92D2
:10222000989799961C928081813031F0EEADFFAD88
:102230006081C7010E943423F8018081823051F00F
:10224000FE01E05CFF4F0190F081E02D6081C7014D
:102250000E943423D8018C91833051F0FE01EE5B53
:10226000FF4F0190F081E02D6081C7010E9434236F
:10227000F8018081843071F0CC5BDF4FE881F98117
:102280006081C701DF91CF911F910F91FF90EF9077
:102290000C943423DF91CF911F910F91FF90EF9019
:1022A0000895CF93DF93EC011F8A0E94D3108B8D8A
:1022B000811102C081E08B8FDF91CF9108956F92E1
:1022C0007F928F929F92BF92CF92DF92EF92FF9276
:1022D0000F931F93CF93DF93EC018B01FB0186815A
:1022E000978168E370E00E94382FBB24B3948D314E
:1022F00008F4B12C43E2B801CE010E94601C8F8922
:102300008823F1F1813009F0DFC06801F3E0CF0EDE
:10231000D11C198A188A1A8A7E012CE0E20EF11C5F
:1023200062E772E0C7010E945110F801E95BFF4FBC
:10233000408150E060E070E02AE0C7010E948A100E
:10234000198A188A80E18A8B67E672E0C7010E94C9
:10235000511041E063E170E080E390E00E94682169
:1023600041E065E170E080E390E00E94682122E0B6
:10237000822E912C01E110E037E1632E712C32C0E6
:10238000198A188A88E08A8B2C966AE772E0CE0157
:102390000E945110F801EA5BFF4F408150E060E07D
:1023A00070E02AE0CE010E948A10BB2009F48CC0A4
:1023B00044E060E170E08EE590E0DF91CF911F9105
:1023C0000F91FF90EF90DF90CF90BF909F908F90F4
:1023D0007F906F900C94C5264C010F5F1F4F073103
:1023E000110589F021E0A801B301C6010E94B922BC
:1023F000C401029797FFF0CF81E0681A7108E3E00B
:102400008E0E911CEACF21E040E452E06BE070E0D8
:1024100085E390E00E948021EB8DF0E0EE0FFF1F3E
:10242000EA5EFE4F4081518121E06CE070E086E37E
:1024300090E00E948021BB2019F08A8D882329F129
:1024400028E14CE76DE4C6010E94FA266E01FCE12A
:10245000CF0ED11C0DE411E080E1982E098B088B82
:102460009A8ABB2019F08A8D811711F1F6016191CA
:102470006F01EC85FD850190F081E02DC701099584
:102480001F5F0A5F193051F71FC021E042E352E09D
:1024900065E070E08AE390E00E94802121E045E25F
:1024A00052E06FE170E08AE390E00E948021C8CFA3
:1024B000F6E01F9FC001112444E068E170E0895BF1
:1024C0009F4F0E94C526D2CFDF91CF911F910F91D0
:1024D000FF90EF90DF90CF90BF909F908F907F9074
:1024E0006F9008956F927F928F929F92AF92BF925A
:1024F000DF92EF92FF920F931F93CF93DF9300D061
:10250000CDB7DEB78C01FB013085D184D094D322C6
:10251000DC0157968C91882319F0813019F1D9C1CB
:10252000D2FE05C081E0DB01A75BBF4F8C93D3FED9
:1025300004C081E0D80157968C93D7FC9AC0D4FC94
:1025400098C08681978168E170E00E94382FD80199
:1025500058964D915C91599755278417950709F422
:1025600088C0B7C1D8015A962C915A97D5FE06C09B
:10257000222321F08FEF820F5A968C93D6FE09C04A
:10258000D8015A968C915A97883018F48F5F5A96D2
:102590008C937F01D7FC0FC0D4FC0DC0868197813E
:1025A00068E170E00E94382FF801408D518D552769
:1025B0008417950721F437FD99C034FD0EC1D2FE72
:1025C00020C05701F7E4AF0EB11CD5018C918230C9
:1025D000A8F0F701E80FF11DE80FF11DB801655EE5
:1025E0007F4F84AD95AD0E948430F501808181508C
:1025F0008083B701C8010E94D31003C0D801579649
:102600001C92D3FE66C1F8017C9698012C5D3F4F69
:1026100081E09191903209F080E0E217F307C9F769
:10262000811157C15701B7E4AB0EB11CF501808190
:10263000F701E80FF11DE80FF11DB801655E7F4F4E
:1026400084AD95AD0E948430D5018C91F701EA5B91
:10265000FF4F9081891738F48F5F8C93B701C801C1
:102660000E94D31036C1F701E75BFF4F83E0808300
:1026700030C137FF17C0AF014A5B5F4FDA018C9161
:10268000843080F491E0980F891750F0DF01A80F93
:10269000B11DA80FB11DDE960D90BC91A02D1C920E
:1026A000DA0119C034FF15C19F012A5B3F4FD901E0
:1026B0008C91823008F40DC19FEF980F891750F06C
:1026C000DF01A80FB11DA80FB11DDE960D90BC91C2
:1026D000A02D1C92D9019C938681978168E170E0BE
:1026E0000E94382FF801918F808FF3C021113DC0D7
:1026F000D8015B969C91292F092E000C330B295F82
:102700003F4F492F092E000C550B241735070CF4A9
:1027100047C0892F877887FF03C08150886F8F5FFC
:102720008F5F682F082E000C770BD8019696EC91DE
:10273000F0E041E0E617F70709F040E0D80197968E
:10274000EC91F0E0E617F70709F441E0D80198961C
:10275000EC919897F0E0E617F70729F0411103C0D4
:102760005B968C931DC09F5FCCCFF801E20FF11DEB
:10277000838D8A3579F034F4803281F07CF08134B5
:102780005CF40CC0813654F08A3734F08A3731F467
:1027900080E205C081E603C08F5F01C081E4838FC2
:1027A000F80164A075A04801FBE18F0E911CA12CDB
:1027B000B12CD4016D914D01C501860D971D9A83F1
:1027C0008983CE0101960E94E223BFEFAB1ABB0AB8
:1027D000E9E0AE16B10469F76FC0211135C0D80128
:1027E0005B963C9198E0930F39170CF047C0892F06
:1027F000877887FF03C08150886F8F5F2FEF280F86
:10280000121614F027E0280F422F022E000C550B51
:10281000F80166A170E081E06417750709F080E0B7
:10282000D80197966C9170E06417750709F481E000
:10283000F80160A570E06417750721F0811102C0EE
:10284000238F1CC09150D0CFF801E20FF11D838D72
:102850008B3544F4823474F4803271F0813461F445
:1028600080E20BC0813621F03CF08B371CF004C0B5
:102870008AE503C0815001C08AE7838FD80194960E
:102880006D907C9095974801BBE18B0E911CA12C1B
:10289000B12CF40161914F01C501860D971D9A83FA
:1028A0008983CE0101960E94E223FFEFAF1ABF0A8F
:1028B00089E0A816B10469F7D70116968D919C910D
:1028C000179768E170E00E94382FF801918F808F90
:1028D00076CE0F900F90DF91CF911F910F91FF90C7
:1028E000EF90DF90BF90AF909F908F907F906F9010
:1028F00008956F927F929F92AF92BF92CF92DF9294
:10290000EF92FF920F931F93CF93DF9300D000D0ED
:1029100000D0CDB7DEB7FE01319626E0DF011D9273
:102920002A95E9F7DC015A96AC01405E5F4F7D01C4
:1029300090E06623E1F0D7012D917D01222331F053
:102940008F01090F111DD8012C939F5FE416F50626
:1029500091F713C01D968C91882331F08F01090FD8
:10296000111DD8012C939F5FE416F50631F0D701B5
:102970002D917D012223C1F3EDCF8E010E5F1F4FFC
:1029800081E038018917F0F4D8015D918D014FEF96
:10299000480F242F042E000C330B47FD0DC07F0180
:1029A000E20EF31ED7017C91571730F4260D371D28
:1029B000D9017C934150EDCF260D371DD9015C9391
:1029C0008F5FE0CF992309F4DBC0A0E9EA2EFF2452
:1029D000F394B4E6CB2ED12C81E020E030E08F01DF
:1029E00040E050E0702F7E1B791740F4D8017D91B4
:1029F0008D017813F7CF4F5F5F4FF4CF4330510510
:102A00000CF44DC04430510589F024F44330510595
:102A100041F01EC04530510579F04630510591F026
:102A200017C08130C1F448EE53E016C0813009F080
:102A3000AAC040ED57E010C0813009F0A6C040EABE
:102A40005FE00AC0813009F0A2C040E45FE104C049
:102A500040E050E001C0A601792F77FD1EC08F0134
:102A6000070F111D77FD1A95D8011C91181313C07B
:102A7000972E092D10E0053011055CF45301A00ECE
:102A8000B11ED501BC900E0F1F1FD801BC929394AC
:102A9000F0CF1E8291507150E0CF240F351F8F5F11
:102AA000B4E6CB0ED11C40E7E41A4EEFF40A8730AF
:102AB00009F095CF892F963011F559814A8151300F
:102AC00089F4423079F47B81733061F47C81743015
:102AD00049F47D81753031F47E81763019F42452C9
:102AE0003A4F59C0541313C05B814C8154130FC02B
:102AF0005D814E8154130BC022513D4F4CC0992330
:102B000009F449C004C01E8281502E5C3F4F915091
:102B100097FD32C0AF01490F511D97FD5A95DA015B
:102B20004C91453089F4792F472F50E045305105BD
:102B300054F78301040F151FD8011C914E0F5F1F1E
:102B4000DA011C937F5FF0CF413009F7792F472FCF
:102B500050E0453051055CF48301040F151FD80186
:102B60001C914E0F5F1FDA011C937F5FF0CF1E8216
:102B700081502C593F4FCBCF61110DC0882359F0A4
:102B800020E030E008C0A60103C0A70165CFA7017F
:102B9000440F551F61CFC90126960FB6F894DEBFCA
:102BA0000FBECDBFDF91CF911F910F91FF90EF909E
:102BB000DF90CF90BF90AF909F907F906F900895DF
:102BC000FC01178ADB01AA5BBF4F8C91808F10A29A
:102BD0000895CF93DF93EC01FB012185209580853B
:102BE00028238681978163E070E00E94382F892B2B
:102BF00061F48F898F5F09F480EA8F8B888D815013
:102C0000803A11F0888F01C0188E23FF04C0E75B63
:102C1000FF4F81E08083DF91CF91089523E824BDA9
:102C20002FEF27BD21EF2093800010928800109293
:102C30008A0020EAFC01278B108E08955F926F9224
:102C40007F928F929F92AF92BF92CF92DF92EF923C
:102C5000FF920F931F93CF93DF93EC016B014B0116
:102C600023E0820E911CDB0116968D919C911797A3
:102C700064E170E00E94382F552453948B3008F49F
:102C8000512C20E040E46CE3C4010E94FA2600E0ED
:102C900010E021E0A8016EE370E0C4010E94B922B7
:102CA0000E5F1F4F02341105A1F72EE340E46CE3E1
:102CB000C4010E94FA263E01BAE16B0E711CA12CE0
:102CC000B12C8A2DF501E95FFB4E0491F501E1502D
:102CD000FC4EE491EE2EF12C10E0863009F475C024
:102CE000873009F47AC0F3019081992309F459C01F
:102CF000FE01EA0DFB1D90A5992391F021E049ED1D
:102D000053E1B701C8010E948021D301EC91F0E0AA
:102D1000EE0FFF1FE85BFE4F4081518120E017C09E
:102D20009F89913019F4E9A1E430B9F421E045EB31
:102D300053E1B701C8010E948021D301EC91F0E07A
:102D4000EE0FFF1FE85BFE4F4081518121E0B7018C
:102D50006C5F7F4FC801049613C0F0E0A0FC03C075
:102D600080E090E002C084E090E0E80FF91FEE0FF1
:102D7000FF1FE65CFE4F4081518121E0B701C80191
:102D80000E948021898D082E000C990BA816B90687
:102D900009F04AC0552009F447C020E04DE953E14D
:102DA0003FC021E041E653E1B701C8010E94802104
:102DB000898D082E000C990BA816B906A9F5552087
:102DC00099F121E04AE453E12BC08AA19BA121E0C3
:102DD000892B21F14DE053E10FC02AA13BA1211520
:102DE0003105D9F08CA19DA1820F931F8C329140A7
:102DF000A0F021E046E552E1B701C8010E94802120
:102E0000898D082E000C990BA816B90669F4552077
:102E100059F020E04AEE52E103C021E045E952E1D9
:102E2000B701C8010E948021EFEFAE1ABE0AFFEF82
:102E30006F1A7F0A28E0A216B10409F042CF21E000
:102E40004AE252E160E070E083E490E00E94802179
:102E5000888DF60192E08902E00DF11D112406AC87
:102E6000F7ADE02DE081F0E0EE0FFF1FE85DFE4FD3
:102E70004081518121E061E070E084E490E00E94B3
:102E8000802184E5898B888B8FEF8A8B888DF60172
:102E9000A2E08A02E00DF11D112466AD77ADCE01EE
:102EA0000C960E94751028E040E869E5C4010E9474
:102EB000FA2619E51E831F838AE088877E01B2E027
:102EC000EB0EF11C65E272E1C7010E9451104AA1AC
:102ED0005BA10AE021E7B601CE010E94A11C1E837E
:102EE0001F8381E1888760E272E1C7010E9451106F
:102EF0004CA15DA101E121E7B601CE010E94A11C18
:102F00008F89833011F45520E1F089E58E838F831A
:102F100088E188876AE172E1C7010E945110888DBB
:102F2000F60122E08202E00DF11D112406ACF7AD9E
:102F3000E02D4285538508E121E7B601CE010E94CC
:102F4000A11C88E08E838F8389E3888764E172E126
:102F5000C7010E94511048A150E060E070E02AE0F3
:102F6000C7010E948A106FE072E1C7010E945110F0
:102F70002AE04AE050E060E070E0C7010E948A1059
:102F800056018EE3A80EB11CE12CF12C23E4922E05
:102F9000888D082E000C990BE816F90651F1092DC1
:102FA00010E021E04AE252E164E270E0C8010E94D0
:102FB0008021D501ED91FC91E081F0E0EE0FFF1F43
:102FC000E85DFE4F4081518121E065E270E0C8017B
:102FD00001960E94802122E0290DD501ED91FC91FE
:102FE0004285538509E3B601CE010E94A11CB5E1DB
:102FF0009B0EEFEFEE1AFE0AF2E0AF0EB11C24E0DA
:10300000E216F10429F68F898530C1F489A18E304A
:1030100089F5EE24E3940DE21DE020E04DE95FE048
:1030200068E070E08CE090E00E945325511002C0EF
:1030300080E001C080E280938A0027C08630D1F40E
:1030400020E044E45CE06BE070E087E090E00E9408
:10305000802121E044E85AE06BE070E087E090E0F6
:103060000E948021511002C080E001C080E2809562
:1030700087BD0BC083E884BD8FEF87BD81EF809350
:1030800080001092880010928A008F89843009F0A5
:1030900041C0C88DCF5FF601EA5BFF4F8081C81742
:1030A00008F0C0E020E041E75AE060E170E08EE126
:1030B00090E00E94802121E04CE659E060E170E060
:1030C0008EE190E00E948021F601EC0FF11DEC0FE3
:1030D000F11D06ACF7ADE02DE081F0E0EE0FFF1F33
:1030E000E85DFE4F4081518121E068E170E08AE4B3
:1030F00090E0DF91CF911F910F91FF90EF90DF90C3
:10310000CF90BF90AF909F908F907F906F905F9087
:103110000C948021DF91CF911F910F91FF90EF9040
:10312000DF90CF90BF90AF909F908F907F906F90E7
:103130005F900895CF92DF92EF92FF920F931F93CB
:10314000CF93DF93EC01DB0119969C911997909531
:1031500018968C919823EF894E2F50E047305105F7
:1031600008F0A2C18B01FA01EA5AFF4F0C944C2FD0
:10317000888D8F5F888F1BA21AA21DA21CA21FA27E
:103180001EA219A291E09F8B082E000C990BFB0147
:10319000EA5BFF4F208130E08217930724F0188EFE
:1031A00088A18F5F88A3FE01B896CE018E9621E09C
:1031B000DF011E972C931192E817F907C9F729A18F
:1031C000243078F5F8018681978163E070E00E94F1
:1031D000382F892B09F068C12F5F29A3243009F00B
:1031E00063C18E01065E1F4FA09686E0C82ED12CCB
:1031F000E12CF12CF8018081882369F00E94A52E32
:10320000A70196010E94C92EDC01CB010196A11DE8
:10321000B11DF80180830F5F1F4F0C171D0751F779
:1032200043C161E0CE010E9479149FA38EA3892B34
:1032300019F0198E82E00DC1888DF80142E08402F8
:10324000E00DF11D112406ACF7ADE02D82859385CC
:10325000845F91409387828785E0D3C095FF10C03B
:10326000898D81306CF087301CF0873019F008C0F0
:10327000815005C02AA13BA1232B11F086E0898F44
:1032800096FF1CC0898D853041F024F487FD16C05F
:103290008F5F13C0863039F011C02AA13BA1232BC8
:1032A00069F086E00AC04AA15BA12CA13DA1240FD0
:1032B000351F2C32314010F087E0898F94FF31C0E8
:1032C000898D833059F02CF487FD2BC08D5F898F59
:1032D00028C0843061F08530C1F023C02AA13BA111
:1032E000232B59F186E0898F97FF2FC02AC02AA18E
:1032F0003BA1232BB9F72CA13DA12C323140E8F0A2
:1033000087E0898F97FF21C01EC04AA15BA12CA135
:103310003DA1240F351F2C32314090F7452B11F77A
:103320000CC097FF12C0898D863059F01CF4833091
:1033300034F40BC0873039F008C097FF06C08350C3
:1033400003C083E001C085E0898F93FFADC0898D04
:10335000863091F11CF487FF1CC0A6C0873009F0AD
:10336000A3C0888DF80142E08402E00DF11D112414
:1033700006ACF7ADE02D2AA13BA18CA19DA1820F47
:10338000931F22853385820F931F9387828783E063
:1033900038C0FE01E80FF11D87FDFA95828D882364
:1033A00021F090A581E0892780A760E0CE010E94EE
:1033B00079149BA38AA378C0FE01B896CE018E969D
:1033C0002191222319F0DF011F971C92E817F907BA
:1033D000B9F7FE017A96CE0180962191211160C045
:1033E000E817F907D1F786E08F8B19A22CA13DA130
:1033F0008AA19BA1820F931F9DA38CA31BA21AA23B
:1034000053C08F8B19A250C0992311F088E289A371
:1034100089A1883298F11DA21CA21BA21AA2F80150
:10342000EA5BFF4F4081288D022E000C330B842F66
:1034300090E001972817390749F488A18A3031F4C0
:10344000F801E75BFF4F84E080832EC0423028F014
:1034500084E08F8B29C093FF27C01F8A25C089A1D4
:103460008E3010F48F5F89A393FDD9CF1DC09923AF
:1034700011F088E289A389A1883218F48F5F89A3AB
:1034800013C0FE01B896CE018E9621E0DF011E9793
:103490002C931192E817F907C9F719A281E0D9CF47
:1034A00019A281E08F8BA2CFDF91CF911F910F9155
:1034B000FF90EF90DF90CF9008950F931F93CF93DD
:1034C000DF93EC0148EF57E060E070E08BE190E0C3
:1034D0000E94B7266F89062E000C770B4AE956E04A
:1034E0008CEF9FEF0E94B7266F89062E000C770B9A
:1034F000605A7F4F4AE956E08CEF9FEF0E94B72653
:10350000688D062E000C770B4CE355E087E690E0C3
:103510000E94B726688D062E000C770B605A7F4FED
:103520004CE355E087E690E00E94B72687E08B8762
:1035300085E28E838F838AE288878E010E5F1F4F1C
:103540006CE275E0C8010E9451106CE175E0C801A1
:103550000E9451106CE075E0C8010E94511088E093
:103560008B87DF91CF911F910F910895FC01DB01B3
:1035700019969C911997909518968C919823808D07
:103580008F5F813310F4808F01C0108E818D8F5F2B
:10359000813310F4818F01C0118E828D8F5F813352
:1035A00010F4828F01C0128E93FF10C083E884BD97
:1035B0008FEF87BD81EF809380001092880010927A
:1035C0008A00FB01E75BFF4F85E0808308950F933E
:1035D0001F93CF93DF93EC01FB01EA5BFF4F8081E8
:1035E000DB01A05CBF4F21E090E02817A8F40D910B
:1035F0001D91FB01E90FF11DE90FF11D46AD57AD1E
:10360000F80102851385FA01428553854017510759
:103610000CF4922F2F5FE9CF9F8BDF91CF911F91F9
:103620000F910895089580E090E00895A6E4B2E037
:103630002FB7F8947D918D919C9166B52FBFA89B73
:1036400005C06F3F18F47F5F8F4F9F4F22E0660FDA
:10365000771F881F991F2A95D1F708950895089517
:10366000EF920F931F93CF93DF93FC016A3039F4ED
:103670008581848396818185890F86834FC084816B
:103680006E3719F48E5F848349C0262FEF0166815F
:103690006F5F2A3374F42033F4F42B32F1F01CF40E
:1036A0002132F9F030C02D32A1F12E3261F52FE335
:1036B00019C02B3544F4213464F42A3381F02F33BC
:1036C00011F522E40FC09FE9920F9A31E0F42754DC
:1036D00009C0215407C02C5F05C021E403C023E4C6
:1036E00001C02EE33F81062E000C770B082E000C44
:1036F000990B313081F44AEFE42E00E010E04DE602
:1037000055E10E94532588858D5F9C81890F8C83AC
:1037100005C020E4E7CF3BEFE32EEFCF81E090E060
:10372000DF91CF911F910F91EF900895CF92DF928B
:10373000EF920F931F93CF93DF93FC016A3039F41C
:103740008581848396818185890F8683A1C0A48128
:103750006E3719F4AD5FA4839BC0962FEF0166818D
:103760006F5F9A3354F49033DCF49D32E1F09E3273
:1037700099F0913209F053C018C09B3534F491345C
:103780006CF49F3309F451C04AC08FE9890F8A3124
:1037900008F045C019EB05C01FE308C01FEB01C0CE
:1037A00014E0190F03C011E401C01EE38F81062E3F
:1037B000000C770B0A2E000CBB0B813009F03AC0CD
:1037C000EBE3F6E10491ECE3F6E1E490112379F107
:1037D000E02FF0E02E2D269526952695422F50E0DD
:1037E00021E030E08E2D877011F420E030E0240FCE
:1037F000351FE29F6001E39FD00CF29FD00C112493
:1038000096011203A001139F500D1124435C594EE1
:103810009AEFC92E20E030E0CD010E94761F888506
:103820008C5F9C81890F8C8333C010E4BFCF4DE344
:1038300056E1EECFEBE3F6E10491ECE3F6E1E49040
:10384000112309F1E02FF0E02E2D269526952695DF
:10385000422F50E021E030E08E2D877011F420E0FF
:1038600030E0240F351FE29F6001E39FD00CF29FF0
:10387000D00C112496011203A001139F500D1124A6
:10388000435C594E02C04DE356E18BEFC82EC2CFC8
:1038900081E090E0DF91CF911F910F91EF90DF9049
:1038A000CF9008950C94E72F0C94E72F0C94E72FFA
:1038B0000C94E72F0C94E72F0C94E72F0C94E72F30
:1038C000CF92DF92EF920F931F93CF93DF93EC0190
:1038D000FB01868180FD05C08E898F5F09F480EA37
:1038E0008E8BC42ED12C8E89EE24E39405E417E14F
:1038F00020E045EC58E1B601082E000C990B0E941F
:1039000053258E89082E000C990B20E045EC58E1D8
:10391000B601805A9F4F0E9453258E89082E000CB5
:10392000990B20E045EC58E1B60180549F4F0E946E
:103930005325DF91CF911F910F91EF90DF90CF90A2
:1039400008959F92AF92BF92CF92DF92EF92FF9233
:103950000F931F93CF93DF9300D000D0CDB7DEB786
:103960007C01FA01122F19821A821B821C82CA0161
:1039700057FF04C088279927841B950B9E012F5F52
:103980003F4F4AE0C42ED12C44E0420FB6010E94C2
:10399000382FD9018D939D01CB014A13F7CFF7FF43
:1039A0000DC0602F70E06D5F7F4F6034710534F49F
:1039B000812F90E042E003970E94C5266E01B5E09A
:1039C000CB0ED11C80E1982E910E5701E2E0AE0E95
:1039D000B11CD70116961C93169717961C93179730
:1039E00018960C93F60142916F0150E060E070E090
:1039F0002AE0C5010E948A101C5F1911EACF0F90BE
:103A00000F900F900F90DF91CF911F910F91FF902A
:103A1000EF90DF90CF90BF90AF909F900895EF927E
:103A2000FF920F93CF93DF93EC017B0144E75AE1C0
:103A300060E070E088E090E00E94B72621E04DE46D
:103A40005AE16DE170E080E290E00E9480218F8970
:103A5000F701E80FF11DE80FF11D06ACF7ADE02D01
:103A6000E081F0E0EE0FFF1FE258FE4F40815181F0
:103A700021E06EE170E081E290E00E9480214DE261
:103A8000B701CE010E94601C81E3898B888B8DE198
:103A90008A8B8F89F701E80FF11DE80FF11D66ADE4
:103AA00077ADCE010C960E94751026E24CE566E3D8
:103AB000C70103960E94FA2686E38E838F8387E2EE
:103AC000888767E47AE1CE0102960E9451108F89BF
:103AD000F701E80FF11DE80FF11D06ACF7ADE02D81
:103AE0004285538507E22EE4B701CE010E94A11C56
:103AF0008A8D90E0809797FF03C0919581959109F9
:103B0000282F898D90E0809797FF03C0919581952C
:103B10009109488D50E04052510957FF03C051951B
:103B20004195510993E894BD809587BD81EF8093BD
:103B300080002093880040938A00DF91CF910F91FD
:103B4000FF90EF9008951F920F920FB60F921124DD
:103B5000CF92DF92EF92FF920F931F932F933F9399
:103B60004F935F936F937F938F939F93AF93BF9385
:103B700080914A0290914B02A0914C02B0914D026B
:103B80000196A11DB11D80934A0290934B02A09310
:103B90004C02B0934D02492F5A2F6B2F772767FDA8
:103BA0007A95242F2E726C017D0139E0F594E7940B
:103BB000D794C7943A95D1F74C295D296E297F296E
:103BC000489F402D112442238C019D015DE03595D5
:103BD0002795179507955A95D1F7082366E0B5956F
:103BE000A795979587956A95D1F7802B8427809321
:103BF000CF00BF91AF919F918F917F916F915F9116
:103C00004F913F912F911F910F91FF90EF90DF9077
:103C1000CF900F900FBE0F901F901895AB01FC0135
:103C20000E94161B41505109E109F10928F0685121
:103C30007C4F8F4F9F4FF6CFAB01FC010E94161BAC
:103C4000641775078E079F07C8F308950F930FB782
:103C50000F931F9211248F939F93EF93FF93ECE3A5
:103C6000F2E08091450291E08D5F8D3710F08D5725
:103C70009395809345028081890F80839181911D66
:103C800091830281011D02838381811D8383092722
:103C90000F70092702950093440235D081110093DB
:103CA0004202803989F400914302901B963070F0F3
:103CB00087E7809300088093010888E198E080936B
:103CC000600090936000FFCF909343028091410287
:103CD000815018F08093410259F3E6E4F2E08081CC
:103CE000918101968083918382819381811D911DB1
:103CF00082839383FF91EF919F918F911F900F91FA
:103D00000FBF0F9118958FB18095807F669B88605B
:103D10001C9B84600895089508950895089508955A
:103D2000089508950C94E72FFC0182E791E09183B8
:103D30008083158214828AE591E09383828398E0E0
:103D4000938781E082871782108616828187178683
:103D5000168626E631E035872487958B848B118A79
:103D6000128A108A838B80EA868B089508951F93A8
:103D7000CF93DF93DC0120E030E040E050E011E041
:103D8000C1E0D0E02617370791F114968C91149773
:103D9000811115C014961C93149712968D919C91C5
:103DA0001397ED91FC911197E80FF91FE491159687
:103DB000EC931597019613969C938E9312971496F5
:103DC0009C91149715968C911597892349F0FE01C3
:103DD000022E02C0EE0FFF1F0A94E2F74E2B5F2B5C
:103DE000990F14969C9314972F5F3F4FCBCFCA0126
:103DF000DF91CF911F9108950895FC01DB01189682
:103E00008C91189719969C919095982384FF14C0D3
:103E10002789203118F42F5F278B0FC0F89487E78C
:103E20008093000880930108A89588E18093600042
:103E300088E080936000FFCF178A93FF05C0FB01E5
:103E4000E75BFF4F82E080830895FC01DB01199658
:103E50008C911997809518969C91892399F082816D
:103E6000882311F08CE78283828181110BC081E06D
:103E7000828380E48093900081E49FE09093990096
:103E80008093980092819923C1F09F5F928395302F
:103E900059F09D3761F0923081F480E596E490937B
:103EA0009900809398000895109290000895FB0166
:103EB000E75BFF4F81E080830895089508950F9395
:103EC0001F93CF93DF93EC018B0141E05DE160E054
:103ED00070E08CE090E00E94B72643E2B801CE018A
:103EE000DF91CF911F910F910C94601C4F925F92C4
:103EF0007F928F929F92AF92BF92CF92DF92EF927A
:103F0000FF920F931F93CF93DF9300D000D0CDB7D4
:103F1000DEB729011C2DA02EB12C9C012A0D3B1DC2
:103F2000121613060CF0B3C1803891050CF0AFC126
:103F3000FB01EE0DF11D1E161F060CF0A8C160342A
:103F400071050CF0A4C14115510509F4A0C1E62F7B
:103F5000E770FE2EFB0177FD3796A3E0F595E79518
:103F6000AA95E1F7AE2F77FF04C0FF2011F0AFEF65
:103F7000AE0F97FF05C0EE27FF27E81BF90B02C025
:103F8000E0E0F0E02038310524F020E8722E781AC5
:103F900001C0702E7E1A6A2F0A2E000C770BAF3FDD
:103FA0001CF4D62ED09401C0D12C21E03E2D3770C8
:103FB00009F420E0E694E694E694E20E6E0D711D9D
:103FC000693071051CF028E0E22EEA1AED183D2D4B
:103FD0003A0FDC0120E83203A00DB11D1124AE0F11
:103FE000BF1FD09EE00DF11D11244E0F5F1F81E019
:103FF00090E04C010F2C02C0880C991C0A94E2F747
:10400000133009F403C1A0F4113009F4B5C0123023
:1040100009F03DC18FEF889DB001899D700D11247D
:10402000609570957C836B835C802E2D230F2BC055
:104030001A3F31F01B3F09F02AC12E2D230F88C0F3
:104040002E2D230F51C0FA01E00FF11FE491E89DDE
:104050006001E99DD00C1124DA82C98237FD07C0C6
:10406000FC01E080EE2DE623CE2AFC01C082F11097
:1040700013C00F5F1F4F0196071528F33F5F4A0DCE
:104080005B1DA058BF4F321709F401C1CD018E5AF4
:104090009D4F00E010E0F0CF37305CF7FC01E058B6
:1040A000FF4FD080D520CA80DC28D082E2CFFA0131
:1040B000E60FF71FE491E89D8001E99D100D1124A2
:1040C0001A83098337FD04C0FC011081012B008392
:1040D000F11013C06F5F7F4F0196671540F33F5F8C
:1040E0004A0D5B1DA058BF4F321709F4D0C0CD0157
:1040F0008E5A9D4F60E070E0F0CF37305CF78C0156
:1041000000581F4FF801E080EA81EE2AF801E082B2
:10411000E1CFFA01E00FF11FE491E89DC001E99DB4
:10412000900D11249A83898337FD05C08095FB018A
:10413000908189238083F11014C00F5F1F4F6F5F40
:104140007F4F071530F33F5F4A0D5B1DA058BF4FEF
:10415000321709F49CC0BD016E5A7D4F00E010E09B
:10416000F0CF373054F7FB01E058FF4F8A8180953C
:10417000908189238083E1CFC2018E0F9F1F2E2D56
:10418000230F321709F483C0BD016E5A7D4F6B01B6
:1041900000E010E0071590F5FC01E00FF11FE4913D
:1041A000E89DB001E99D700D1124609570957C83A8
:1041B0006B83FA01E00FF11FE491E89D2001E99D76
:1041C000500C11245A82498237FD05C0F6017081D6
:1041D0006723462A4082FF2059F037304CF4F6011D
:1041E000E058FF4F70816C8167237A81672B608371
:1041F0000F5F1F4FFFEFCF1ADF0ACCCF3F5F4A0D93
:104200005B1D8A0D9B1DA058BF4FBBCFC72CD12C67
:10421000E40FF51FAE5ABD4F60E870E06C197D09E0
:10422000AC18BD088501000F111F572D2E2DCF93FF
:10423000DF93ED01EF96EF962296A590C590FF20B3
:1042400059F0A89C5001C89C600137302CF4E880DC
:10425000D094ED20EB28E99233233AF0EC90C0940F
:10426000EC20EA28ED920C94362111965A9529F704
:104270002A9551F0572D33951124E00FF11DA60F0B
:10428000B11DC60FD11DD9CFDF91CF9111240F9051
:104290000F900F900F90DF91CF911F910F91FF9092
:1042A000EF90DF90CF90BF90AF909F908F907F90D6
:1042B0005F904F900895BC0180E090E00C940E1E3A
:1042C0008FB18095807F669B88601C9B8460089579
:1042D000E3E7FFE190E1969FD001A0781124A80FB9
:1042E0006770E60FF11D9491AE5ABD4F442319F04B
:1042F0008C91982B03C090958C9198239C93089552
:104300002F923F924F925F926F927F928F929F92E5
:10431000AF92BF92CF92DF92EF92FF920F931F93D3
:10432000CF93DF93CDB7DEB72C970FB6F894DEBFEF
:104330000FBECDBF4C016B01022F5A8349831C82F3
:104340001B821D821E8268E070E0CE0101960E94F1
:10435000B71E019698878F8368E070E0CE010196C2
:104360000E94B71E7C0161E070E0CE0101960E94C0
:10437000B71E782E8F819885880D991D97FDE0C016
:1043800020E8821691040CF0DBC097012F5F3F4FAD
:10439000C601820F931F97FDD3C040E4C416D10419
:1043A0000CF0CEC07601D7FE04C0EE24FF24EC183A
:1043B000FD0857E0E522FF24A601D7FE02C0495FB1
:1043C0005F4F2A0163E0559447946A95E1F7D7FE61
:1043D00009C081E0481A510888E090E0AC014E190C
:1043E0005F097A01190137FF03C057E0250E311C20
:1043F00053E0359427945A95E1F727703327232B00
:1044000019F08FEF281A380A6624639410E0C12C43
:10441000D12CA12CB12C88E090E09C012E193F09F1
:104420003A872987A214B3040CF08AC021E030E057
:1044300061E070E0CE0101962B873C870E94B71E99
:104440002B853C85892B19F42E5F3F4FF1CFB901A5
:10445000CE0101960E94B71EDC01119620E030E0EB
:104460002A173B0708F065C071101629660C09F081
:104470005DC0B2016A0D7B1DCB010196099708F062
:1044800041C0C601880D991D80389105D8F5CB0132
:104490009695982F882797958795880D991D8C0D4F
:1044A0009D1D6F3F4FEF740709F446C0412F0E2C3E
:1044B00001C0440F0A94EAF7FC01EE5AFD4F0023B5
:1044C00019F05081452B03C040955081452340830E
:1044D000E114F104B9F067307105A1F0412F50E00B
:1044E000098402C0559547950A94E2F7FC01EE5203
:1044F000FD4F002319F01081412B03C0409510811E
:10450000412340835FEFC51AD50A4F815885C416F1
:10451000D5064CF05FEFA51AB50A6624639410E047
:10452000C12CD12C03C06624639410E02F5F3F4F51
:1045300097CF81E0782676CFE114F10479F6E2CFC7
:104540002C960FB6F894DEBF0FBECDBFDF91CF9192
:104550001F910F91FF90EF90DF90CF90BF90AF90A1
:104560009F908F907F906F905F904F903F902F9093
:104570000895CB01BA018038910530F440345105DB
:1045800018F4422F0C9468210895EF92FF920F9334
:104590001F93CF93DF93EC017B0121E04CEE5CE1B4
:1045A00061E170E08FE290E00E94802121E047EC21
:1045B0005CE16AE170E08BE290E00E94802121E002
:1045C00047EC5CE16AE170E089E490E00E948021C0
:1045D0008A8121E0811117C047EC5CE16AE170E05B
:1045E0008AE390E00E94802121E04EE75CE16EE2E8
:1045F00070E08AE190E0DF91CF911F910F91FF90E1
:10460000EF900C94802141E65CE16AE170E08AE37E
:1046100090E00E94802121E04EE35CE16EE270E0D8
:104620008CE290E00E9480218A816FE00E942C2F12
:10463000C82FC3700FE410E0D0E083E0E80EF11C57
:10464000DC1759F021E041E350E0B801C7010E94B6
:10465000B922DF5F0E5F1F4FF3CFDF91CF911F9124
:104660000F91FF90EF900895FC018785DF01A80F5F
:10467000B11D1C966C938F5F8787833079F4848596
:1046800091E0891741F02585291729F026852917FA
:1046900011F0918308959F5F993099F70895FC0177
:1046A0001386128631969C01275F3F4F40E241936B
:1046B000E217F307E1F7FC01108608959F92AF928D
:1046C000BF92CF92DF92EF92FF920F931F93CF93FF
:1046D000DF93CDB7DEB72A970FB6F894DEBF0FBED3
:1046E000CDBF5C01CE0101967C016C01062F10E06C
:1046F000081B190B89E0982E9E0CC8018C0D9D1D7E
:104700000E94B32EF60181936F019E12F6CF99E0BD
:10471000F701D50101900D929A95E1F72A960FB60F
:10472000F894DEBF0FBECDBFDF91CF911F910F91E7
:10473000FF90EF90DF90CF90BF90AF909F90089543
:10474000CF93DF93EB01EEADFFAD13861286FB0135
:10475000E05CFF4F0190F081E02D13861286FB0193
:10476000EE5BFF4F0190F081E02D13861286FB0176
:10477000EC5BFF4F0190F081E02D13861286FB0168
:10478000E95BFF4F81E080838E8567E6082E000C91
:10479000990B0E945E238A8D61E7082E000C990B0D
:1047A0000E945E238EA16BE7082E000C990B0E94DD
:1047B0005E238AA965E8082E000C990BDF91CF9142
:1047C0000C945E23EF92FF920F931F93CF93DF938E
:1047D0001F92CDB7DEB77C01FC0100811181C801B9
:1047E00069830E94B32E6981681719F0C8010E947D
:1047F000BB2EC7010F90DF91CF911F910F91FF90BA
:10480000EF900895CF93DF9300D0CDB7DEB79A83B2
:104810008983CE0101960E94E2230F900F90DF91D1
:10482000CF910895FC0180915102811103C08FEF57
:104830009FEF08959FB7F89482E08093E90020915C
:10484000F20030E01216130614F421E030E02115D6
:10485000310559F0289884E6809350028091F10048
:1048600080838091F200882319F09FBFC9010895C9
:104870008BE68093E800F9CF2FB7F89483E080931C
:10488000E9009091E800892F807295FF04C0909113
:10489000F20080E4891B2FBF0895CF93DF931F920E
:1048A000CDB7DEB76983DC01ED91FC910280F38125
:1048B000E02D41E050E0BE016F5F7F4F09950F9002
:1048C000DF91CF91089583E08093E9008091F20019
:1048D000882319F08AE38093E80008950E943C241D
:1048E00090E00895CF93DF931F92CDB7DEB7FC0120
:1048F0008485958597FD05C02FEF3FEF3587248789
:104900000BC0CE0101960E941224019719F48981EF
:1049100090E002C08FEF9FEF0F90DF91CF9108954D
:104920000F931F93CF93DF931F92CDB7DEB78C0108
:10493000FC018485958597FF0EC0CE0101960E94EB
:104940001224019719F4298130E002C02FEF3FEFC4
:10495000F80135872487F801848595850F90DF91CC
:10496000CF911F910F910895FC018485958597FD46
:104970000BC09FB7F89482E08093E9008091F20029
:104980009FBF90E0019608959FB7F89482E08093CE
:10499000E9008091F2009FBF90E008958F929F926E
:1049A000AF92BF92CF92DF92EF92FF920F931F933D
:1049B000CF93DF935C016B017A018091070188231B
:1049C00009F45BC080915102882309F456C080919C
:1049D0004F0280FF05C08091E00082608093E0007C
:1049E000E70110E00AEF83E0882E9AE3992E2097E2
:1049F000D9F10E943C2481110AC0015009F43DC044
:104A000061E070E080E090E00E940E1EF0CF282F61
:104A100030E0C217D3070CF48C2F4FB7F894809274
:104A2000E9009091E80095FF1DC0282F30E0C21BDF
:104A3000D30BF601982F915020F081918093F100D3
:104A4000FACFC20ED31E112319F09092E80009C0CC
:104A50008091E80085FD06C09092E80011E0209763
:104A600009F010E04FBFC3CF1111C3CF5D9884E6AA
:104A700080934E021E141F0444F081E090E0F50183
:104A80009383828380E090E001C0C701DF91CF91E2
:104A90001F910F91FF90EF90DF90CF90BF90AF905C
:104AA0009F908F9008952F923F924F925F926F92B6
:104AB0007F928F929F92AF92BF92CF92DF92EF92AE
:104AC000FF920F931F93CF93DF9300D000D000D0BD
:104AD000CDB7DEB7ED824115510509F42FC1FA01BA
:104AE00034913196E4914E5F5F4FC32ED12C222337
:104AF00011F1AE2FA695A695A695AA2EB12CA1E0F0
:104B0000B0E0FE2FF77011F4A0E0B0E0AA0DBB1DDD
:104B1000CA9E5001CB9EB00CDA9EB00C1124FD81D0
:104B2000F33011F4AA0CBB1C2A9DD0012B9DB00DB3
:104B300011244A0F5B1F2D812F3F39F401151105F8
:104B400011F021E001C022E02D835C01AC0CBD1C02
:104B50001A141B040CF0F2C0803891050CF0EEC062
:104B6000DB01AE0FB11D1A161B060CF0E7C0603456
:104B700071050CF0E3C04115510509F4DFC0F62FB3
:104B8000F7706F2EDB0177FD179623E0B595A7959B
:104B90002A95E1F7FA2F77FF04C0662011F0FFEFA6
:104BA000FA0F97FF05C0AA27BB27A81BB90B02C0A5
:104BB000A0E0B0E020E8A216B10424F020E8722EB4
:104BC000781A01C0732E7A1A6F2F0F2E000C770BF4
:104BD000FF3F1CF4E62EE09401C0E12C992493944D
:104BE0002E2F277009F4912CE695E695E6959E0EFA
:104BF000690D711D693071051CF0E8E09E2E9F1A49
:104C0000FE2CFF0E6F2D20E86203800D911D1124F4
:104C10008A0F9B1F61E070E0062C02C0660F771FB1
:104C20000A94E2F72D81233011F0E1E001C0E2E0C7
:104C3000C718D108EC9D802C1124CE2ED12CE39ED8
:104C4000A00DB11D1124CA9E9001CB9E300DDA9E9D
:104C5000300D11245A01A20EB31E0115110509F0E1
:104C6000A801D60111972A0F3B1F420F531FAFEF28
:104C7000A69F9001A79F300D1124290140945094C4
:104C8000F90DFE83282D30E0E79D200D311D112404
:104C9000EE81FE1609F452C0DC01AE5ABD4F4A0146
:104CA0008501E12CE71409F441C0F8013490369EE7
:104CB000F001379EF00D1124FA83E983E095F09519
:104CC000FC83EB83FD81F23019F45C824B8211C0CE
:104CD000ED81EB3F19F41A8219820BC0F401349074
:104CE000369EF001379EF00D1124E095F095FC837F
:104CF000EB83F7FC06C0FC91EB81EF23F981EF2BEE
:104D0000EC93662061F0F6E0FF154CF0FD01E058F1
:104D1000FF4F20803C8023203A80322830828C0C48
:104D20009D1C0C0D1D1DE3941196BCCFF394A20E97
:104D3000B31E420F531F80589F4FAACF26960FB61F
:104D4000F894DEBF0FBECDBFDF91CF911F910F91C1
:104D5000FF90EF90DF90CF90BF90AF909F908F909B
:104D60007F906F905F904F903F902F900895EF92BB
:104D70000F931F9322E0E22E00E010E020E00E945B
:104D800053251F910F91EF9008959C01240F311D21
:104D90001216130674F5803891055CF5FC0197FF37
:104DA00002C0E0E0F0E02138310514F020E830E006
:104DB0002E1BAB014770552781E001C0880F4A9533
:104DC000EAF777FF02C0695F7F4F93E075956795BB
:104DD0009A95E1F77695762F662777956795E60F92
:104DE000F71FEE5AFD4F215020F09081982B9193A0
:104DF000FACF0895CF92DF92EF92FF920F931F9315
:104E0000CF93DF936C01D42FD61BC0E0E22EF12CA0
:104E1000062F10E0B8016C0F711D21E0A701C6013B
:104E20000E94B922CE5FDC17A8F7DF91CF911F91C6
:104E30000F91FF90EF90DF90CF90089580914707FA
:104E400081110DC082E08093430784E08093440782
:104E5000109246071092450781E08093470783E44C
:104E600097E008954091A3075091A4072091A107CE
:104E70003091A20742175307B4F49091E80095705F
:104E8000E1F39091E80092FD19C08093F1008091C8
:104E9000A3079091A40701968F739927892B19F482
:104EA0008EEF8093E8008091A3079091A40701966C
:104EB0009093A4078093A30781E0089580E008956C
:104EC000DF92EF92FF920F931F93CF93DF93D82E31
:104ED0008A017B01E40EF51EEB01CE15DF0571F0B2
:104EE000D7FE03C0FE01849101C088810E94322751
:104EF00021968111F2CF8FEF9FEF01C0C801DF91A2
:104F0000CF911F910F91FF90EF90DF900895615026
:104F100030F02091F100FC0120830196F8CF289811
:104F200084E68093500208950F931F93CF93DF93ED
:104F30001F92CDB7DEB782E0898342E450E06BE791
:104F40007FE180E80E9460270E941E27DC01129604
:104F50000D911C9113970115110569F0D801ED9180
:104F6000FC910280F381E02DBE016F5F7F4FC8018D
:104F7000099597FF07C089810F90DF91CF911F910D
:104F80000F910895F80100851185E5CF1F920F92CA
:104F90000FB60F9211248F939F938091E10090910F
:104FA000E100937F9093E10083FF0FC01092E9002E
:104FB00091E09093EB001092EC0092E39093ED005F
:104FC0001092510298E09093F00082FF20C093E08D
:104FD0009093E9009091F200992319F09AE390934D
:104FE000E80090914E02992339F090914E02915031
:104FF00090934E02992389F190915002992339F0B0
:1050000090915002915090935002992341F184FF66
:1050100010C08091E2008E7E81608093E2008091DA
:10502000E1008F7E8093E10080914F028E7E80614F
:1050300011C080FF16C08091E2008E7E8061809357
:10504000E2008091E1008E7E8093E10080914F022A
:105050008E7E816080934F0204C05D9ACDCF289AE6
:10506000D6CF9F918F910F900FBE0F901F901895E4
:105070001F920F920FB60F921124CF92DF92EF92F0
:10508000FF920F931F932F933F934F935F936F93D1
:105090007F938F939F93AF93BF93EF93FF93CF93A0
:1050A000DF93CDB7DEB76C97DEBFCDBF1092E900BE
:1050B0008091E80083FFEDC168E0CE0145960E9433
:1050C000872782EF8093E8008D8987FF05C0909144
:1050D000E80090FFFCCF03C09EEF9093E800982F6C
:1050E000907609F0C6C09E892F89188D91110CC049
:1050F000803829F48091A0078093F10002C01092BB
:10510000F1001092F10048C1422F50E0512B913034
:1051100051F4811141C14130510509F03DC18091E7
:10512000A0078D7F0BC0933061F4811135C14130F0
:10513000510509F031C18091A00782608093A007DA
:105140002BC1953041F48091E80080FFFCCF2068AE
:105150002093E30021C1963009F05FC0EB8CFC8CFA
:105160001092E9001092A4071092A307123091F553
:105170001092A2071092A1070E94942799E0BE0105
:105180006F5F7F4FDB01E92F1D92EA95E9F7998365
:105190001A8391E09E8390EA98879AEF99872091ED
:1051A000A3073091A407275F3F4F3C832B838D8358
:1051B0001092E9001092A4071092A307F092A207A0
:1051C000E092A10749E050E080E00E9460270E9441
:1051D0009427E2C0F092A207E092A1070E941E2746
:1051E000DC011296ED90FC901397E114F10409F4A0
:1051F000C0C0D701ED91FC910480F581E02DBE0186
:105200006B5E7F4FC7010995009719F00CF0C4C081
:10521000C7C0F701E084F184E8CF973009F4C0C03B
:10522000983021F481E08093F100B6C0993009F004
:10523000B3C0837009F0B4C0E5E3F2E081E021E09F
:1052400036E39081992361F08093E9002093EB008D
:1052500091919093EC003093ED008F5F873089F748
:105260008EE78093EA001092EA008F8980935102C2
:1052700093C08B8D9C8D1092E9001092A407109220
:10528000A3079093A2078093A107898D811156C02F
:105290008E899D89913A59F4813209F081C047E0A5
:1052A00050E060E071E080E00E94602775C09132BC
:1052B00009F076C0833289F4888D90E0982F882792
:1052C0002F89822BA0E0B0E0809308019093090120
:1052D000A0930A01B0930B015FC0803269F4809102
:1052E000E80082FFFCCF67E080E091E00E94872722
:1052F0008BEF8093E80006C0823209F04DC08F89A1
:105300008093070180919F07882319F0EEEFFAE060
:1053100002C0E0E0F8E08091000190910101A091CD
:105320000201B0910301803B9440A105B10509F051
:105330007BC08091070180FF93C076C00E941E272A
:10534000DC0112960D911C9113970115110541F185
:10535000D801ED91FC910190F081E02DBE016B5ED2
:105360007F4FC8010995811117C0F801008511858B
:10537000ECCF113009F44EC0133091F48F8988239B
:1053800009F445C0823081F440E860E18FED9FE18F
:105390000E941A2E882321F08EEF8093E80079C0B6
:1053A00081E28093EB0075C0813029F440E86BE026
:1053B00083ED9FE1EDCF833099F70E941E27DC013A
:1053C0001296ED90FC9013978E010F5F1F4F6801AE
:1053D000E114F10479F0D701ED91FC910680F78199
:1053E000E02DB801C7010995080F111DF701E084F0
:1053F000F184EECFD8011C92F60101900020E9F76C
:105400003197BF016C197D0940E0C601C1CF6DEB3A
:105410007FE102C061EC7FE16115710509F2FB01DA
:10542000449150E080E840CF0FB6F894A895809161
:105430006000886180936000109260000FBEA895A4
:10544000EE3F2AE0F20739F08091FE0A9091FF0AC0
:1054500091838083A1CF1092FF0A1092FE0A9CCF05
:10546000EE3F8AE0F80731F0808191819093FF0A46
:105470008093FE0A87E797E7918380839BE088E12A
:105480000FB6F894A895809360000FBE90936000CB
:1054900083CF6C960FB6F894DEBF0FBECDBFDF9101
:1054A000CF91FF91EF91BF91AF919F918F917F919C
:1054B0006F915F914F913F912F911F910F91FF90AD
:1054C000EF90DF90CF900F900FBE0F901F90189528
:1054D000CF93DF9300D0CDB7DEB7789483E084BD5F
:1054E00083E085BD81E080936E00E1E8F0E083E039
:1054F0008083E0E881E08083E3EC81E08083E2EC7C
:1055000081E08083EAE787E080838068808310926F
:1055100051021092A00710924F028091D700816033
:105520008093D70080EA8093D80089B5806189BDD7
:1055300089B5826089BD09B400FEFDCF61E070E0ED
:1055400080E090E00E940E1E8091D8008F7C8061E8
:105550008093D8008091E000807F8093E00080916C
:10556000E1008E7E8093E1008DE08093E200559A09
:10557000209AEEEFFFE7859194918B3F9C4D19F4B3
:1055800081E080939F07109290008AE080939100C1
:105590001092C00091E09093C1008FEF8093D100F2
:1055A00081EC80937C0085B1806F85B984B1877E62
:1055B00084B984B1876E84B95E9A5F988AB1806D30
:1055C0008AB9769A6E9881B3806F81BB899880B3CF
:1055D0008D7080BB80E58CBD9DBD85E090E00E9414
:1055E0005B215F9A85E090E00E945B215E985C9869
:1055F000EAEBF0E08DE08E0F94919EBD00000DB4BB
:1056000007FEFDCF31968E13F7CF5C9A81E8809329
:105610006400809165008160809365000E94602134
:1056200087FF15C05C9885EA8EBD00000DB407FEAB
:10563000FDCF5C9A2E982F982D98809164008062FF
:105640008093640081E083BF889513BEFCCF02E0A5
:1056500010E00E94602182FF40C02D980E946021CE
:1056600084788438C1F00E9460218471843181F58E
:105670002D9A88EC90E00E945B212E981A83098372
:1056800060E0CE0101960E94E22384EF91E00E9447
:105690005B212E9A18C02D9A88EC90E00E945B2125
:1056A0002F981A8309836FEFCE0101960E94E2239F
:1056B00084EF91E00E945B212F9A0E946021847800
:1056C0008438D9F3D0CF0E94602184718431D9F31A
:1056D00088EC90E00E945B21BCCF2D9A82E090E0A4
:1056E0000E94B32E882331F03E9A3F9A81E0809346
:1056F000400204C0109240023E983F98809164009E
:105700008E7F8093640080917A00806480937A0019
:1057100080917A0086FDFCCF00917800109179008D
:105720000E94161B20E030E0980111270027600F2F
:10573000711F821F931F611571058105910511F07D
:105740000E94AA2E8091640081608093640080E1B1
:1057500080935C0683E884BD8FEF87BD81EF8093E3
:1057600080001092880010928A0085E690E00E94E6
:10577000B32E182F86E690E00E94B32E163441F522
:10578000813431F567E680E696E00E945E2361E7AA
:105790008CE696E00E945E236BE788E796E00E9425
:1057A0005E2365E884E896E00E945E2310929B06E3
:1057B000AA24A39482E5E82E82E0F82E00E090E08F
:1057C000C92E90E0D92E9924939423E0B22E4EC096
:1057D00066E485E690E00E94022461E486E690E0BB
:1057E0000E94022407E610E060E0C8010E94022443
:1057F0000F5F1F4F043B1105B9F708E610E060E2A8
:10580000C8010E94022460E2C8010A960E94022494
:1058100060E2C80144960E94022460E2C8014E96EC
:105820000E94022460E2C80188960E94022460E27D
:10583000C801C2960E94022460E2C801CC960E9470
:1058400002240F5F1F4F01371105C9F69BCF9091BE
:105850005C06891720F58F5F891718F4A3BE889519
:1058600013BEC114D10411F00E9400008FB7F89448
:1058700040913C0250913D0260913E0270913F0286
:105880008FBF80915D06942F981B892F10915E0623
:105890001123E9F290935F0610925E06E2CF909298
:1058A0005E0640935D0680915806909159060196D8
:1058B000909359068093580680915A0680935B0610
:1058C0000E94602180935A06812FF70181118FEF8A
:1058D000002481938193819381930394D1F78091E4
:1058E0009B06823009F441C028F4882361F081309E
:1058F000F9F0AEC0843009F472C008F453C08530AA
:1059000009F48AC0A5C080919A06882321F01092DC
:10591000540610929A0662E576E084EB96E00E94C7
:10592000251F62E576E084EB96E00E94C52290C0D8
:1059300090919A06913061F08093540662E576E08A
:105940008CE996E00E94A02380919B0680939A06A2
:1059500062E576E08CE996E00E94FD1E62E576E065
:105960008CE996E00E945F1F73C090919A06923076
:1059700061F08093540662E576E087EB96E00E9442
:10598000511180919B0680939A0662E576E087EB41
:1059900096E00E94721262E576E087EB96E00E9444
:1059A0005F1156C080919A06833061F0B092540620
:1059B0001092F806809198068093F90610920107DC
:1059C000B0929A0662E576E081EE96E00E949A181F
:1059D00062E576E081EE96E00E941E1639C0909155
:1059E0009A06943061F08093540662E576E08FE089
:1059F00097E00E94E71A80919B0680939A0662E5E1
:105A000076E08FE097E00E94B61A62E576E08FE0DC
:105A100097E00E940F1D1CC090919A06953061F08E
:105A20008093540662E576E08AE297E00E940E16C3
:105A300080919B0680939A0662E576E08AE297E081
:105A40000E94E91562E576E08AE297E00E945D1A1D
:105A5000F70180E098E000800EBC0111012C019755
:105A600080FDFDCF0192B9F70DB4FBCE82E596E043
:105A70000C94911E109252071092510788EE93E0F9
:105A8000A0E0B0E08093530790935407A09355078C
:105A9000B093560784E991E09093500780934F07A5
:105AA0008FEF9FEF90935C0780935B0788EB91E00B
:105AB000909353068093520610925A0610925B06FA
:105AC00080E180935C06109259061092580610925D
:105AD0005E0682EB91E0909356068093550680E631
