:100000000C944B120C9473120C9473120C94731284
:100010000C9473120C9473120C9473120C9473124C
:100020000C9473120C9473120C944F2D0C94C12DDC
:100030000C9473120C9473120C9473120C9473122C
:100040000C9473120C9473120C9473120C9473121C
:100050000C9473120C9473120C9473120C94881AEF
:100060000C9473120C9473120C9473120C947312FC
:100070000C9473120C9473120C9473120C947312EC
:100080000C9402180C9473120C9473120C94731247
:100090000C9473120C9473120C9473120C947312CC
:1000A0000C9473120C9473120C9473123D236423FA
:1000B000B7238F24B524B924C124DB24110FA8AAA7
:1000C000DA76B9EAAB4A55A9EA5AAABAAE5255A5A8
:1000D000AAEF925655455D5DBBD53B77BBBBEE5C49
:1000E000253B757F2BA75657EB8A11110F88AA72F3
:1000F00095AB6C7F2F55A9FBFF4FFD7FAE2F97AAC5
:100100005C5545DE4A95D29F5B9552AAFFD5B73A1A
:10011000F5ADEC44D5553102110FB8B2A52E5739C3
:10012000554AE5AAE476A74AB9722AD552E5C2D063
:10013000F5A73E59D96AD5AB5EB5AB55AD4A395531
:10014000ABDBD59611110F986DE972577D5D577D28
:100150005D973B6F658537E9739DAA5A757AD5A976
:10016000D4B6655D158600110FD8B295AA4A95B22E
:10017000CB6A9BB2565676554A55252B1BD252AAAE
:100180006DEA7397FA744AB50D55110F283BD5EAFD
:100190007CAFAABA73AD5425AB3AF5F952A7A28B3E
:1001A0003C55EECA3A75D5AA77B5DD2AA72A59CEAD
:1001B000461619110F282B994A2AE79454BDEA9C38
:1001C000734EAE93A95485ACEA553BA74AB9524E3B
:1001D0005E4EC94BAE3AB7EAAE9801110FD094AB60
:1001E000E57ABB5D2E6B1DFE944C2B79B9CB6D2F40
:1001F000773925D30A49110F18B7CA2AABACB2EB2D
:10020000EC5239E554AD4A5DD85A2AA79CAA55A9A3
:10021000CB5572ABACB2CA2A3B3303081F051F1F74
:10022000151B1F11111F110E1F15111F05011F1185
:100230001D1F041F001F0010101F1F041B1F101084
:100240001F061F1F011F1F111F1F05071F311F1F23
:10025000051B17151D011F011F101F0F100F1F0C6D
:100260001F1B041B071C071915130C121E1F120C51
:100270001E12120C121F0C1A14041F052E2A1E1F08
:10028000021C001D00201D001F041A011F001E0477
:100290001E1E021E1E121E3E120C0C123E1E0206D6
:1002A00014120A020F121E101E0E100E1E081E1A25
:1002B000041A2E281E1A12161F111F121F101D15A8
:1002C0001711151F07041F17151D1F151D01011FED
:1002D0001F151F17151F0017000010000404040449
:1002E0000E040229060A000004083E09093E3F25C3
:1002F000251A1E2121123F21211E3F2525213F05C0
:1003000005011E21293A3F04043F213F210010210D
:10031000211F3F040A313F2020203F02023F3F02BD
:10032000043F1E21211E3F0909061E21112E3F09EF
:10033000093622252519013F01011F20201F0F101A
:10034000201F3F10103F3B04043B03043807312DAE
:100350002321102A2A3C3F2424181C22221418246A
:10036000243F1C2A2A2C043E05014C52523E3F04D5
:100370000438243D20004040443D3F081422213FE2
:1003800020003E04043E3E04023C1C22221C7E222D
:10039000221C1C22227E3E040204242A2A12021F4E
:1003A00022201E20201E0E10201E3E10103E360859
:1003B00008364E50503E322A26221E29251E223F44
:1003C0002000322929261221251A0C0A3F08172558
:1003D00025191E252518013905031A25251A062970
:1003E000291E002F00000020000002290502000441
:1003F0000400E0E0E0E0E0E0E0E0E0C0C0C0C0C059
:10040000C0808080000000000000000000000000AC
:1004100000000000000000000000000000000000DC
:1004200000000000000000000000000000000000CC
:100430000000008080C0C0E0E0F0F0F8F8FCFCFEB6
:10044000FEFFFFFFFFFFFEFCF8F0E080000080C031
:10045000E0E0FFFFFFFFFFFFFFFFFFFFFFFFFFFFEA
:10046000FFFFFFFFFFFEF8F0C0C0E0E0F0F0F8F89B
:10047000FCFCFEFEFEFEFEFCF8F0E0C0000000000A
:1004800080C0C0C0C0C0C0C0C0C0C0C080808080AC
:10049000C0FCFFFFFFFFFFFFFFFFFFFFFFFFFFFFAE
:1004A000FFFFFFFFFFFFFFFFFFFFFFFFFFFFFFFF5C
:1004B000FFFFFFFFFFFFFFFFFFFFFFFFFFFFFFFF4C
:1004C000FFFFFFFFFFFFFFFFFFFFFFFFFFFFFFFF3C
:1004D000FFFFFFFFFFFFFFFFFFFFFFFFFFFEFEFF2E
:1004E000FFFFFFFFFFFFFFFFFFFFFFFFFFFFFFFF1C
:1004F000FFFFFFFFFFFFFFFFFFFFFFFFFFFFFFFF0C
:10050000FFFFFFFFFFFFFFFFFFFFFFFFFFFFFFFFFB
:10051000FFFF3F3F3F3F3F3F3F3F3F3F3F3F3F3F6B
:100520003F3F3F3F3F3F3F3F3F3F3F3F3F3F3F3FDB
:100530003F3F3F3F3F3F3F3F3F3F3F3F3F3F3F3FCB
:100540003F3F3F3F3F3F3F3F3F3F3F3F3F3F3F3FBB
:100550003F3F3F3F3F3F3F3F3F3F3F3F3F3F3F3FAB
:100560003F3F3F3F3F3F3F3F3F3F3F3F3F3F3F3F9B
:100570003F3F60204040404040404040808080807D
:10058000808000000000000000000000000000006B
:10059000000000000000000000000000000000005B
:1005A000000000000000000000000000000000004B
:1005B000000000000000000080804040A0A090D01B
:1005C000C8E8E4F4F21A02C468D020C000000000B9
:1005D00000008040F0C30F3FFEFEFEFEFEFE3E3EEA
:1005E0003C7CFDFDFDF2CC1060800080804040200E
:1005F000A090D0C8E8E4340488D0A0408000000077
:10060000000000008080808080808080800000006A
:10061000000000807886F9FDFEFEFF9F8FCFFFFF70
:10062000FFFFFFFF0700F0FFFCF8FFE2C56A14C8F8
:10063000E6910C88FFFFFFFCF0430F3F3F3F3F3E3A
:100640003E3E3F7F7F7F7F7F7E79670A760F9F7F69
:10065000FFFFFFFFFF0F00E0FFF1F3FE8D9AF4288C
:1006600010CC321930C0061E7EFCFCFCFCFDFD7D6A
:100670007D79F9FBFAFBE69D2AD52B979F9FCFCF7B
:10068000CFE7E7C1801E3070FF8F0731F8FEFFFF14
:100690009F0F0F9F3F1F0F2331381E171331313B20
:1006A0003F3F3E3E3E26220226142A142A353E1F94
:1006B0001F1F0F0F03003C23313F1F0F23313C3E10
:1006C0003F3F1E1C3E3F3F3E3821071F3F3F3F3EFE
:1006D0003C3C3C3F3F3F3F3F3E3C310A152F3F2FC4
:1006E0000F0F0F1F3F3F3E3C3831230608030F3FDB
:1006F0001F1F3F3F546F74616C001317B665D3E939
:10070000743A9D4EA7D3E9743A9DCEE7ADF7F090C9
:10071000E7CBA7D3E9743A9D4EA7D3E9743A9D8DF0
:10072000167220008040209010881020C0E0100831
:10073000E4E4F2F28408707C0285F9FDF9F2040821
:100740009048C8C81020C080000000804040408011
:1007500080000080402020204080808040404080F9
:100760000000000000008080808000000000000089
:100770000080800000808080000000000000C02019
:100780001048A464E40810E00000808080000000AD
:100790000000000000070830458A172F5FFCC0806A
:1007A00000FFFFFFFF0F3FFEF8C0C01FFFFF7F01EC
:1007B000000850F1F2E1048254FCF13219CC0E161B
:1007C000AE5CFC310100AAD5FF7F0C8CCC0C1CFA6E
:1007D000D4E8010642A9D12914183C78F9F9F2E4C9
:1007E0000402A954FCF17934383499422418008069
:1007F000780502A8FC1D08A2D3E9F1393438343950
:100800001902645880000000000000010618E1028F
:1008100015AFF8FFFFFF0F00F01823479F3F1F2A77
:10082000950000AA55FFFF01000055FFFF7E0081E3
:100830007F40803D7F0020952A3F9F40207F8000A1
:100840007F7FFF7F2080152F7EE6E6E3E3E3F179EB
:100850003D1C0054AAFD7F01807E010100000000C4
:1008600000FF000055AA7F7C000303A363A767A7CE
:1008700067A77FBF1E0EC0310E0000000000000001
:100880000003040404090404020100000000000144
:100890000101010204080904040201010204040226
:1008A000010000000001020201000101000000003F
:1008B0000001020204020100010204040404040411
:1008C0000402010101020404020100000000000012
:1008D00000000000010204040202010102040404F9
:1008E00009080404040402010000001D6000000067
:1008F0000000FF000EFEFCFCF9F9F3F3E7E7CFCFB1
:100900009F9F3F1F9FCFC767F33900000000000083
:100910003FC00FFFFFFFFFE3C3C7FFFFFFFFFF80E5
:10092000003FF9F0F8FFFE000000000000000102A7
:1009300005050B1317A76FDF5FBF3F7F7F00005FC9
:10094000B341A157000000000000000000008060DB
:1009500018C6F1FEFFFFFEFDF9F9F4FAFDFEFD3EBB
:10096000070000000000000000000E112447A373E0
:1009700073D39393F1F9F9F9F9E9E4E4743C0000D5
:10098000000000000000000000000000018142257E
:10099000ABD64C24273379FCFCFE3F00000000005E
:1009A000000000000000000000FF001CFCF8F9F14E
:1009B000F2E2E6CFCF9F9F3F000000000000000062
:1009C00000000000000081FE801FFFFFFFFFC787BF
:1009D0008FFFFFFFFF0000000000C030CCF2FAFDE7
:1009E000FD7D7DFEEAD7AC5BAB5727AF4F9F3FBF86
:1009F0007F7F00C0308CE3F8FFFFFFFFFFFCFCFEB1
:100A0000FFFF7F7F1F0360FCFFFFFEFFFE850E07D9
:100A100008122351B9A949C959787CFCFCFCF07231
:100A200072329E9C183163C78F1F3F7F0000000009
:100A3000008040211255CA24121BB9FCFEFEFF9F04
:100A40000F0F9FFEFEFCFDF8C81D6039F367C7CF8E
:100A50009F1F3F9F9FCFCFE7E7F3F3F9F9FCFCFE21
:100A60000E00FF0000000000FEFFF8F0F93F0080DC
:100A7000FFFFFFFFFFC7C3E3FFFFFFFF0FC03F0004
:100A8000000000000057A141B35F00007F7F3FBF1F
:100A90005FDF6FA717130B050502010000000000C0
:100AA0000000073EFDFEFDFAF4F9F9FDFEFFFFFE32
:100AB000F1C6186080000000000000000000003C4B
:100AC00074E4E4E9F9F9F9F9F19393D37373A34763
:100AD00024110E0000000000000000003FFEFCFC9E
:100AE000793327244CD6AB25428101000000000059
:100AF0000000000000000000003F9F9FCFCFE6E213
:100B0000F2F1F9F8FC1C00FF0000000000000000FA
:100B1000000000000000FFFFFFFF8F87C7FFFFFFFF
:100B2000FF1F80FE810000000000000000000000A8
:100B30000000007F7FBF3F9F4FAF2757AB5BACD715
:100B4000EAFE7D7DFDFDFAF2CC30C0000000000021
:100B50000E85FEFFFEFFFFFC60031F7F7FFFFFFE91
:100B6000FCFCFFFFFFFFFFF8E38C30C0007F3F1F5E
:100B70008FC76331189C9E327272F0FCFCFC7C784B
:100B800059C949A9B95123120807C8F8FDFCFEFE4E
:100B90009F0F0F9FFFFEFEFCB91B1224CA551221A6
:100BA000408000000000004A280000000000000013
:100BB00000000000F80402AA52E408106028340281
:100BC0000955A9F234C80412AA3204C87020901042
:100BD000904888C888C89020F0080452EAF20408B7
:100BE00030202020408000000000000000000000B5
:100BF000000000000000000000000080800007F8F6
:100C0000000255FFFE0E0ECF27E70707FFFF070084
:100C1000A8F5FE7F870068F5FA8502790103FFFFDA
:100C2000FFF80700A855FF0707E70607FEFDAA041F
:100C300001F28C8000000000000000000000E018BD
:100C400004E2F9F19914183129B16932944AA7C61E
:100C5000A4C5A6C8891224CB0C88522733981493B4
:100C60001C203373E7662B9B499F379F943852A50E
:100C700093188C4F88489F2762F9F19914183129ED
:100C80003169D2A40810E0E0110AA4C9A3C7A7A73C
:100C90004B160EB9C0863F7FF9E0C4CCCCE1E1F041
:100CA000FE0301A854FA850279780186FDFA0F0047
:100CB00050AAF51F07E31309F8FCF7B1369A999B80
:100CC0008F6FEE0011EFA74B160E94ACDCF0020D07
:100CD000F00001020409131313132727271313131A
:100CE0000906040909090909040402010204091397
:100CF00013272626271313090604091209040201E3
:100D00000102040913112325121112090C121313E5
:100D10001327272713131308040300D5F08D14A1FC
:100D2000C881CFD9F1AF200020079D733A1DD9B2F9
:100D300073979C4DB9ED5A7139D739272773CE7106
:100D40003999DD3A32E59CEB5CCD050D0F929DABF8
:100D500064E72AD9B94A76AE929DAB64E72A598CEA
:100D6000D145175D74D1450A4D079DAB9DB2B13990
:100D70005749272B2EE76AD791652F5793652F5731
:100D8000E3CAB9DA291B9B734EA723536EBB565C8B
:100D90006B25959B7ED9B94B4EE66476EB709476C5
:100DA000CEB9BC72DBB5E272AE76CAC6E65CED3A8D
:100DB000070D0FD5E594BC9C929753F2724A5E4E94
:100DC000C9CB2979E5955452492595545249259521
:100DD0005452492515192307524E2AA9A453B895F0
:100DE0004ED9D099554E9265959354683000E010D5
:100DF0001088488848884888C4A4C4A4C4A4C4A44B
:100E0000D2E2D2E2D2E2D2E2020CF0000000000014
:100E100000000000000000000000000000000000D2
:100E200000000080402020202020202020C0000042
:100E300000000000E0100804A444A4C4E40408F086
:100E400000000000000000000000000000000000A2
:100E50000000000000000FF0000A55AFFFFFFFFF89
:100E6000E30303392929292929A995949494242451
:100E70002292119090909090A0202020408080801D
:100E80008080808080008080808080FF0000AA5564
:100E9000FEFFFF0000FF00000000000001FE000058
:100EA000AA55FFFFFFFE0003FC80402010109010A9
:100EB00090909090202020408000000000000000D2
:100EC0003FC0002A55BFFFFFFFFF1F1F9F9F9F4F7F
:100ED0004FCF0F0F4FA7D0FAFD3E0F076353497155
:100EE000030757FEFEFC00A854F8F4F800C3F0F81E
:100EF00074F8F4F8F0E00A55FFFFFF00007F2010BF
:100F0000088844A4D2E3703012A57FFFFFFFF800E9
:100F10008351A8F4FA3D0E0723333303875FBEFCE9
:100F2000F80106F8000000000003FC0001AA57FFCA
:100F3000FFFFFE80007F8000E01805A250E8F4FC6F
:100F40007E3E1E8ECEE6260686FFFFFFFFFF000ACE
:100F500055FFFFFFFFFF0300F81013F30303A8552D
:100F6000FFFFFFF0F0F8F4FAEDCE0733518804F8F4
:100F7000000255ABFFFFFF00FAFDFFFF0F07676799
:100F80006627068746A7C7470310E807000000004A
:100F90000000003FC000152A7F3F3F3F20008F70B8
:100FA00001060810254F4F4F9E9C9D9D9C9C4E4DC9
:100FB0008E9F9F9F9F9F800005AB5FFF7F7F780084
:100FC00007F800FF00002A557F7F7F0100F81123FA
:100FD000478E3D3A74285123400005EA272F2F2FD2
:100FE000100913171716242E2C2E2526131108046A
:100FF00002010000000000000000000000010202E9
:1010000002020101010100000000000000000000D8
:1010100000000000000000000000000000000001CF
:1010200002020202020202020100000001020202A8
:10103000020202020100000000000102020202029C
:10104000020101000000000000000000000000009C
:101050000000000000000000000000000001020489
:101060000810204080110FA8AADA76B9EAAB4A55D9
:10107000A9EA5AAABAAE5255A5AAEF925655455DAD
:101080005DBBD53B77BBBBEE5C253B757F2BA75685
:1010900057EB8A11110F88AA7295AB6C7F2F55A957
:1010A000FBFF4FFD7FAE2F97AA5C5545DE4A95D2D8
:1010B0009F5B9552AAFFD5B73AF5ADEC44D55531B3
:1010C00002110FB8B2A52E5739554AE5AAE476A702
:1010D0004AB9722AD552E5C2D0F5A73E59D96AD588
:1010E000AB5EB5AB55AD4A3955ABDBD59611110F9B
:1010F000986DE972577D5D577D5D973B6F658537CC
:10110000E9739DAA5A757AD5A9D4B6655D1586008E
:10111000110FD8B295AA4A95B2CB6A9BB2565676B1
:10112000554A55252B1BD252AA6DEA7397FA744A79
:10113000B50D55110F283BD5EA7CAFAABA73AD5453
:1011400025AB3AF5F952A7A28B3C55EECA3A75D5B4
:10115000AA77B5DD2AA72A59CE461619110F282BD2
:10116000994A2AE79454BDEA9C734EAE93A95485DC
:10117000ACEA553BA74AB9524E5E4EC94BAE3AB7A0
:10118000EAAE9801110FD094ABE57ABB5D2E6B1DD2
:10119000FE944C2B79B9CB6D2F773925D30A4911A1
:1011A00017943C9B4DA7D3E9743A9D4EA7D3F97C85
:1011B0009ECB87764F984FA7D3E9743A9D4EA7D31D
:1011C000D968011117E8932BE5D2F9743E9DCEA79B
:1011D000F369C5BCFB7C3A9D4FA7F3E97472A5D4B3
:1011E000B0141117D094CD66B3D97C3E9FCF87AF92
:1011F0007C3E9FCFE7B3D96C369B0D9A021117B096
:10120000B54C67D3E9BCC26B5EF974369DCE29C874
:101210000B1117943C9B4DA7D3E9743A9D4EA7D36D
:10122000F97C9ECB87764F984FA7D3E9743A9D4EB1
:10123000A7D3D968011117C894CCA6B3E974369D19
:101240004DE795DF87A7BDF2FB743A9B4E67D3E964
:10125000FEE470141117E8B3D96C369BCFE7F3F9AD
:10126000F095CFE7F3F97C369BCD66B34157111764
:1012700090A65C3A9D4FE7C7A7F2E9743E9D532EB6
:10128000E80B090FFF7F8CFDFF6FC7DA760B090FA4
:10129000B7336F67DC6EB7636DBB05090FB7636D5E
:1012A000BBDD8EB5ED16090F70B49D71BBDD8E45AB
:1012B000090FF0B7DD6EC722090F70B41DE3728706
:1012C000F09A4A55A524B7BB3AE7C8725655F4CBF5
:1012D000CEB9C353558520A59392DB5D9D736439C8
:1012E000AB2AFA65E7DCF157550852A5AA52A5B812
:1012F000DDD5394796B3AAA25F76CE1D7F558520EE
:10130000A9AA52A5B8DDD5394796B3AAA25F76CE71
:101310001D5D3A9D4EA7D3E1D1C96C4DA6B89C4B3B
:101320003BB265E71CAEAA2A843A99ADC9149773FB
:101330006947B6EC9CC35155855027B33599E27285
:101340002EEDC8969D7338AAAA10EA64B626535C9F
:10135000CEA51DD9B273CE699F4EA752E974DAA308
:10136000AC53524725552A25A9A44AA5249554A92A
:1013700094C4545585C152AA2AA58A4AAA544A52ED
:1013800049954A492AA9522989A1AA0A834A2725A7
:101390009554A994A4922A95925452A55212435559
:1013A0001506A5AA4A492AA952294925552A25A937
:1013B000A44AA5A4B3A593954EA72B99B7A82CA58D
:1013C000AA52AAA8A44AA5249554A994C4575585FD
:1013D00063A593924AAA544A5249954A49FEAA0AD9
:1013E000C75255A5249554A994A4922A9592FC55C8
:1013F00015123B2575545255A54A5149954A492A1B
:10140000A95229AB5C95AC4A55B25255C94A562EE1
:10141000E59099AEA4225332ADC8944C2B7C55551F
:101420005856B2921599926945A6645AF157556873
:10143000CC2AD24A565291299956644AA6157F550C
:1014400085C54A565291299D54644AA615999269B8
:10145000AB5695AC4A55B29295AAAA54B5522332CE
:1014600059D9657E594925F3CB4A2A19BEAA2A04BF
:101470002F2BA9647E594925F3CB4A2A197F55851C
:10148000C1ECB2625B56B292F9652595CC2F2BA9BF
:1014900064FC5515029795AC64746925F3CB4A2A10
:1014A000995F565249EB2B5595AC64252B55952CDD
:1014B0008BCA75D671399D735C4EE71CCEAA2A047F
:1014C0003B5939C7E574CE71399D7338AAAA10D833
:1014D00039A7E372B2928ACBE99CE3723AE770547F
:1014E00055E130593947A664E52E2EA7738ECBE916
:1014F0009C73DA57AAD2A954BA5295F69854A5AA61
:1015000052A5A8A44AA5249554A994C4585585C2A7
:101510004E491D9554A994A4922A95925452A552CD
:1015200012435515064BA9AA942A2AA952294925DE
:10153000552A25A9A44AA52486AA2A0C2A9D945492
:1015400052A552924AAA544A5249954A49674B5762
:1015500055A5D3E9AAAABC45A55455A9525452A5EC
:1015600052924AAA544AE2ABAA4262A7A48EAA9413
:10157000AA4AA9A2922A95925452A55292BFAAC2EF
:10158000612955955245A574525249954A492AA94F
:101590005229C95F55E150E9A4A492AA2A25A9A419
:1015A0004AA5249554A994F5E9743A9D4E6783D6CB
:1015B00082DE82DE82BF54A9AA5429AA525CB5CC2D
:1015C000D628922A95535CA5B89CEB5C47B6AC65CF
:1015D00085222993926CD939C7E55CDA912D3B2598
:1015E000C92AD7B90AA4902D9D4EA752E974DE32BC
:1015F000D9D2C94AA7D395CC5B265BBA92E9542AC3
:101600009DACBC65B2A52B55E974BA5295B74CB6E2
:1016100074A52A9D4AA52B5579CB644B5755A5D364
:10162000E9AAAABC45952A55952AC59575B2E372D3
:101630002E3DDDB2738EAA149792957454D2E5159F
:1016400057D6C90E779D923AAA52AA2AA58A4AAAC3
:10165000544A5249954A59E5AA64252B59A9AA64C6
:10166000252B97723EE5AA64252B59A9AA64252B40
:1016700097723EE5AA6455AA9295AA4A56B2722973
:10168000E753AE4A56A52A59A9AA64252B97723E5C
:10169000E5AA645555252B59C9AAAACAA59C4FB9D4
:1016A0002A595555C94A56B2AAAA722987AC742537
:1016B00015B992955474D9F46415DBB6928A2D9BB2
:1016C0000E364AA715999295ACC8944C5B9F4EA7CD
:1016D000D3E9744E91299F4EA7D3E9744E91299F67
:1016E0004EA7D3C94AE71499F2E9743A9DAC744EF7
:1016F00091299FAC743A9DAC744E91299FAC743A79
:101700009DAC744E612B9D9D7DF67C76B6D9A64F1F
:1017100067839EA64B67675B67F7AA5455AA145563
:10172000292EE7D28E4B95AA4A39AAB4245BD6B2A9
:10173000429154A99CE22AC5E55CE73AB2652D2B9B
:10174000704EF2743A9D4AA5D37989CCACE3742EDD
:10175000EDB89C4B3BD4C9D3954CA752E94AE6253A
:10176000EE94AC64CDE55CDAC1DFFB743A9D4EA724
:101770009363339D8E2E9D8E2E9D0E7DFB64A5D38F
:10178000E964A593632F9D8E2E9D0E1A07451FA811
:10179000E4D974BA5DA954AEDB95CE5DAA2A5595FD
:1017A000BB74EA9395ACD4A753A976A552E9743AD1
:1017B0009D52A5D329553AA54AA552A9DCA5D3A97E
:1017C000543A9D4EA7D3C94A56B29295AC64252B84
:1017D00059C94A56B29295AC64252B9D4EA7D3F9B0
:1017E000BCE4F55C952DE5F2F9D9F2E974325BBB06
:1017F00074BA76E974253BD7C9743ABDAD6465A364
:1018000053369D8D363C79F4E7359E3CAFA7923335
:10181000A55AA95257B5AA6CDF3BD5BD74E7ACB346
:10182000CE2A9D4EA7D3E9A472524977E974B676C1
:10183000FF2EBF0F5FDA877E8F28CF2B7DCBCA5D4F
:101840004A55AA72D7AE9295AC64E52E77C94A562E
:10185000B292A554C9AA5DB94B56B29295AC5DED52
:101860002A59C94A56B29295AC64EDAABE5EE52EDD
:101870009D4EA7D3E94A56B29295AC64252B59C91F
:101880004A56B29295AC64252B994EA7D3E974B60B
:101890002525451FB6810E4A6F3D78220F9EC8DB75
:1018A00075A083B24C712768B3D96CE73AD7C97C6D
:1018B0003E2C2DB3D94E7575B95BA97C5EA1359BC5
:1018C000CD762EDDC97C3EEC2ED3D94E752E95EA11
:1018D00055AF7AD5ABDE75AE739DEB643A9F4FA7DB
:1018E00083379597BEB255E5AAF25BAD64AB739DA5
:1018F000EB54BBFA7FABE4B9546C695BB9943BD54C
:10190000B954AABFD5AD6E752BA54B754C9DAAAE2B
:101910006A9DDF2A752B554A253B955318F38C5544
:101920005D55576C76FBF694BAD5AD3EA7ACD2A9FF
:101930009D5C75AA924A756A97EA4AADB2D96CA7BE
:101940003A974AF57775EA5BDD4AF5AA779DEBA4ED
:1019500092D974BA539D4B75EABB52BDEA55EF3A22
:10196000D7B94EE6F3F1E7355F55958DD339A93EEA
:1019700075A9539FFAD4AB96CA3211565D5513DA46
:1019800088ECB9CEB5D65B9FE6ABAAE24BFBBCD4E4
:10199000F9743E62CF587555CDC727CFA5F3D995B9
:1019A000525355571591534495ABAA72151561D5ED
:1019B0005535A18DC89EEBDC77FDAB4EEEA872E5E8
:1019C0002A9BEDECAA942AA59C924A2AA96EF5A915
:1019D000AD522A9F522B159E9CCFA77255A9729784
:1019E0003A9BCD2924EDF3B94F567695CAA5BA5244
:1019F00075DDEA94BAD5AD6E75A9CB5DEE52F727C9
:101A0000D7F9D4A7D4AD6E757FEAB3D9E4ECCAE7B1
:101A100057B9AA545D9752E52E77B9CB5DF272970C
:101A2000BADCE52E757FAA734A3B5FD9AA6ABB561A
:101A30004EE652256F77B95B9D52B7BAD5A52E7782
:101A4000B94B9D533AB56A75BBCBDDEE56A73EF553
:101A5000AD4E7DABABFEBE94AA5536B91B6C533A66
:101A60009FCE061D027127D896CA39259554524932
:101A7000E7A4B2EB4895734A6ED3E9747AABA473CA
:101A800052A12FBB54CE29A9A4924A2AE99C54768C
:101A90001D1295734A6EB7DBED76BBDD6EB74A2A31
:101AA000A9A473CE4965B7DB753AF85149BC6E15E8
:101AB00092D3DB6D3A1DFAD34B04A1391D7E73FD21
:101AC00029E7B6DB743A9D4EA7D3DBAD924A2AA92B
:101AD000E476BB4DA7D3DBED76ABA4924A3A2795CB
:101AE0005DE7B7584EAF83EFA492CAAE23C2AF7280
:101AF000520DF3AAF8D2CE4965D7D167974A2AC7C3
:101B0000B955D239A9EC76BB5D87D6EC524965B799
:101B1000EB743ABB5D2AE7949C4D49E7EC3A746755
:101B2000B7EBA0A7EC761DDAB34BE5E0BA743A1D2B
:101B3000B4974EA7435F7ABB5552492595DC469B27
:101B40004EA743673A9D4EA7D3E9743AB401F0F823
:101B5000F8FCFCFCFCFCFCFCFEFEFEFEFEFEFEFEB9
:101B6000FFFFFFFFFFFFFFFFFFFFFFFEF80000008A
:101B70000000000000000000000000000000000065
:101B8000000000C0E0F0F0F0F0F0F0F0F0F0E0C0A5
:101B900000000000F0F8FCFEFEFEFEFEFEFEFEFE73
:101BA000FCF8000000000000000000000000000041
:101BB0000000000000001FFFFFFFFFFFFFFFFFFF0F
:101BC000FFFFFFFFFFFFFFFFFFFFFFFFFFFFFFFF25
:101BD000FFFFFFFFFBF8F8F8F8F8F0F0F0F0E0C0D6
:101BE000C0C0C0C0C0C0C0C0C0C0C0FFFFFFFFFFBA
:101BF000FFFFFFFFFFFFFFFF0000000003FFFFFFED
:101C0000FFFFFFFFFFFFFFFFFFFFFEF0F8F8F8F810
:101C1000F8F8F8F8F8F8F0F0F0E0C0800000000103
:101C20007FFFFFFFFFFFFFFFFFFFFFFFFFFFFFFF44
:101C3000FFFFFFFFFFFFFFFFFFFFFFFFFFFFFFFFB4
:101C4000FFFFFFFFFFFFFFFFFFFFFFFFFFFFFFFFA4
:101C5000FFFFFFFFFFFFFFFFFFFFFFFFFFFFFFFF94
:101C6000FCFCFEFEFFFFFFFFFFFFFFFFFFFFFFFF8C
:101C7000FFFFFFFFFFFFFFFFFFFFFFFFFFFFFFFF74
:101C8000FFFFFFFFFFFC00000007FFFFFFFFFFFF5C
:101C9000FFFFFFFFFFFFFFFFFFFFFFFFFFFFFFFF54
:101CA000FFFFFFFFFFFFFFFFFFFFFFFFFFFFFFFF44
:101CB000FFFFFFFFFFFFFFFFFFFFFFFFFFFFFFFF34
:101CC000FFFFFFFFFFFFFFFFFFFFFFFFFFFFFFFF24
:101CD000FFFFFFFFFFFFFFFFFFFFFFFFFFFFFFFF14
:101CE000FFFFFFFFFFFFFFFFFFFFFFFFFF0F0000F2
:101CF0000000017FFFFFFFFFFFFFFFFFFFFFFFFF70
:101D0000FFFF1F3F7FFFFFFFFFFFFFFFFFFFFFFF03
:101D1000FFFFFFFFFFFFFFFFFFFFFFFFFFFFFFFFD3
:101D2000FFFFFFFFFFFFFFFFFFFFFFFFFFFFFFFFC3
:101D3000FFFFFFFFFFFFFFFFFFFFFFFFFFFF7F7FB3
:101D40007F7F3F3F3F3F7F7F7F7F7F7F7F7F3F3F23
:101D50001F0F07030100000000000000010303073C
:101D6000070707070303030301000000000000004A
:101D70000101010101010101010101010101010351
:101D800007070707070707070707030103070707F1
:101D900007070707070703010001030707070707EE
:101DA000070707030100000000000000000000001A
:101DB000000000000000000000000000000068308B
:101DC00000E0101088488848884888C4A4C4A4C487
:101DD000A4C4A4D2E2D2E2D2E2D2E2020CF0000029
:101DE00000000000000000000000000000000000F3
:101DF0000000000000008040202020202020202023
:101E0000C0000000000000E0100804A444A4C4E4E2
:101E10000408F000000000000000000000000000C6
:101E20000000000000000000000FF0000A55AFFFA6
:101E3000FFFFFFE30303392929292929A995949450
:101E40009424242292119090909090A020202040E1
:101E50008080808080808080008080808080FF0003
:101E600000AA55FEFFFF0000FF0000000000000177
:101E7000FE0000AA55FFFFFFFE0003FC804020107B
:101E80001090109090909020202040800000000042
:101E90000000003FC0002A55BFFFFFFFFF1F1F9F2C
:101EA0009F9F4F4FCF0F0F4FA7D0FAFD3E0F0763F5
:101EB000534971030757FEFEFC00A854F8F4F800DC
:101EC000C3F0F874F8F4F8F0E00A55FFFFFF0000E3
:101ED0007F2010088844A4D2E3703012A57FFFFF52
:101EE000FFF8008351A8F4FA3D0E0723333303872C
:101EF0005FBEFCF80106F8000000000003FC0001D2
:101F0000AA57FFFFFFFE80007F8000E01805A25067
:101F1000E8F4FC7E3E1E8ECEE6260686FFFFFFFF1F
:101F2000FF000A55FFFFFFFFFF0300F81013F30344
:101F300003A855FFFFFFF0F0F8F4FAEDCE07335198
:101F40008804F8000255ABFFFFFF00FAFDFFFF0F0A
:101F50000767676627068746A7C7470310E8070095
:101F60000000000000003FC000152A7F3F3F3F20D7
:101F7000008F7001060810254F4F4F9E9C9D9D9C21
:101F80009C4E4D8E9F9F9F9F9F800005AB5FFF7F64
:101F90007F780007F800FF00002A557F7F7F01004F
:101FA000F81123478E3D3A74285123400005EA2753
:101FB0002F2F2F100913171716242E2C2E2526131A
:101FC00011080402010000000000000000000000F1
:101FD00001020202020101010100000000000000F4
:101FE00000000000000000000000000000000000F1
:101FF00000000102020202020202020100000001CE
:1020000002020202020202010000000000010202BC
:1020100002020202010100000000000000000000B6
:1020200000000000000000000000000000000000B0
:10203000110F18B7CA2AABACB2EBEC5239E554AD6C
:102040004A5DD85A2AA79CAA55A9CB5572ABACB207
:10205000CA2A3B337E6F667E005475726E7E0054D2
:102060006F74616C005475726E00526F6C6C00136B
:1020700017B665D3E9743A9D4EA7D3E9743A9DCE5D
:10208000E7ADF7F090E7CB57325DC97425D3954C97
:1020900057325DC97425D3958B28321B0FB665D393
:1020A000E9743ADDB9B6E77297EA95D46D5DA74A4F
:1020B000E9DCA54AB95AA7D3E97C5EFB7C25D39518
:1020C0004C57325DC97425D3954C57325DC9742580
:1020D000D3954C57325DC96CB6731B0FB66553551B
:1020E0005D7555D55557555D7555D55557555D7524
:1020F00055D55557555D7555D55557555D7555D5BC
:102100005557555D7555D55595D73E5FC9645532C0
:1021100059954C56259355C964553259954C5625B9
:102120009355C964553259954C5625B3D9CE011BE8
:102130000F9C3A1B6D3ADA74B4E968D3D1A6A3CDEB
:10214000C7A498F2D1A6A34D479B8E361D6D3ADAEF
:102150006C6C1B0FB665D3E9743A9D6E7B57EAD65B
:1021600029A97A2575E7DAEACEB5D5E9743A9FD779
:102170003E5FC97425D3954C57325DC97425D395FC
:102180004C57325DC97425D3954C57329BED1C11C9
:1021900017DCCCE968D3D1A643D1FF30D08FA2742D
:1021A000B4E968D361091117B731557555AEAAABBB
:1021B00072555D95ABEAAA5C5557E5AABA2A57D580
:1021C00055959EB6AAAEAAABEAAABAAAAEAAABEA3F
:1021D000AABAAAAEAAABEAAABAAAAE2AC27568CFB0
:1021E0006E01111754CF176D3ADA74B431F77F507E
:1021F000D0C71C6D3ADA74B4B1031117943C9B4DEF
:10220000A7D3E9743A9D4EA7D3F97C9ECB87764F2E
:10221000984FA7D3E9743A9D4EA7D3D968011117F7
:10222000943C5B369D4EA7D3E9743A9D4E672B795B
:102230009ECBFBD0EC3D613E9D4EA7D3E9743A9D09
:102240004E67A3050000001414142A2A0014280065
:102250001428001E110FA8AADA76B9EAAB4A55A9CC
:10226000EA5AAABAAE5255A5AAEF925655455D5DF7
:10227000BBD53B77BBBBEE5C253B757F2BA7565789
:10228000EB8A11110F88AA7295AB6C7F2F55A9FBB1
:10229000FF4FFD7FAE2F97AA5C5545DE4A95D29F32
:1022A0005B9552AAFFD5B73AF5ADEC44D55531024E
:1022B000110FB8B2A52E5739554AE5AAE476A74AB8
:1022C000B9722AD552E5C2D0F5A73E59D96AD5AB25
:1022D0005EB5AB55AD4A3955ABDBD59611110F98AC
:1022E0006DE972577D5D577D5D973B6F658537E979
:1022F000739DAA5A757AD5A9D4B6655D1586001165
:102300000FD8B295AA4A95B2CB6A9BB2565676556B
:102310004A55252B1BD252AA6DEA7397FA744AB517
:102320000D55110F283BD5EA7CAFAABA73AD5425E1
:10233000AB3AF5F952A7A28B3C55EECA3A75D5AA2D
:1023400077B5DD2AA72A59CE461619110F282B99E1
:102350004A2AE79454BDEA9C734EAE93A95485ACC7
:10236000EA553BA74AB9524E5E4EC94BAE3AB7EA60
:10237000AE9801110FD094ABE57ABB5D2E6B1DFEBC
:10238000944C2B79B9CB6D2F773925D30A49110F8E
:1023900018B7CA2AABACB2EBEC5239E554AD4A5D82
:1023A000D85A2AA79CAA55A9CB5572ABACB2CA2A57
:1023B0003B330907D3DB4A76AE9297AB6C363A09CA
:1023C00007547659B94E56AE9695CDC7051317B634
:1023D00065D3E9743A9D4EA7D3E9743A9DCEE7AD33
:1023E000F7F090E7CBA7D3E9743A9D4EA7D3E974F1
:1023F0003A9D8D1649636F6E7E7E4E616D6500500D
:102400006C617965727E004E756D6265727E6F6675
:102410007E706C61796572737E3F2000080B00024C
:10242000020201000904000001020200000524006C
:1024300010010524010101042402060524060001FF
:102440000705810310004009040100020A00000092
:102450000705020240000007058302400000040354
:10246000090412010002EF020140412336800001FD
:102470000102030141726475696E6F204C4C430088
:1024800041726475696E6F204C656F6E6172646F26
:102490000000C632F12F11241FBECFEFDAE0DEBFFD
:1024A000CDBF12E0A0E0B1E0E8E5FCE602C0059097
:1024B0000D92AC33B107D9F727E0ACE3B2E001C02D
:1024C0001D92AD3CB207E1F712E1CAE4D2E104C0CB
:1024D0002197FE010E94E034C934D107C9F70E9458
:1024E000F52F0C941F360C940000FC01DB011996AB
:1024F0009C911997909518968C919823808D8F5F59
:10250000813310F4808F01C0108E818D8F5F8133F5
:1025100010F4818F01C0118E828D8F5F813310F492
:10252000828F01C0128E93FF10C083E884BD8FEFAD
:1025300087BD81EF809380001092880010928A00FE
:10254000FB01E75BFF4F85E0808308950F931F93A6
:10255000CF93DF93EC01FB01EA5BFF4F8081DB014E
:10256000A05CBF4F21E090E02817A8F40D911D91C9
:10257000FB01E90FF11DE90FF11D46AD57ADF80163
:1025800002851385FA0142855385401751070CF4E3
:10259000922F2F5FE9CF9F8BDF91CF911F910F91EA
:1025A0000895089580E090E0089508950895FF92B9
:1025B0000F931F93CF93DF93EC018B01FB012085D9
:1025C000F184F094F2228681978163E070E00E94AA
:1025D000CC34892B61F48F898F5F09F480EA8F8B6B
:1025E000888D8150803A11F0888F01C0188E8A8DB5
:1025F000883A18F48F5F8A8F02C08FEF898F8B8D96
:1026000027FF4DC024FF4BC08F5F8B8F853108F4AF
:1026100054C08D3388F18D3309F04FC01B8E83E891
:1026200084BD8FEF87BD81EF80938000109288007A
:1026300010928A0081E00E948F1F6FE8CE014C96B5
:102640000E94B31E69E9CE0186960E94B31E63EA1A
:10265000CE01C0960E94B31E8DEA0E949F1E9BAFC2
:102660008AAF8FEA0E949F1E9DAF8CAF81EB0E94C4
:102670009F1E9FAF8EAF21C020E430E0A901481B10
:102680005109CA01880F93E894BD9FEF97BD91EF60
:10269000909380001092880080938A000EC0882357
:1026A00061F083E884BD8FEF87BD81EF8093800068
:1026B0001092880010928A001B8EF3FE05C0F8016C
:1026C000E75BFF4F81E08083DF91CF911F910F91F6
:1026D000FF9008952F923F924F925F926F927F9258
:1026E0008F929F92AF92BF92CF92DF92EF92FF9222
:1026F0000F931F93CF93DF9300D000D01F92CDB7DD
:10270000DEB78C0183E884BD8FEF87BD81EF8093B6
:1027100080001092880010928A0080EAD8015796B3
:102720008C93579758961C9258975A961C92FB0177
:10273000EA5BFF4FF080369781E090E0292F30E090
:102740008F15E0F441915191D9015896AA0FBB1F02
:10275000A60FB71F1E962D913C911F97DA011A966E
:102760004D915C911B97D9011A962D913C911B9725
:10277000241735070CF4982F8F5FE0CF285E3F4F6A
:10278000220F331FFB01E20FF31FE684F784F701EA
:10279000828593859C838B83212C822D880F835582
:1027A0000E949F1E2B813C818217930754F42D8237
:1027B00049E9C42ED12C5FEAA52EB12C62E0362E59
:1027C0002CC02394F3E02F12E8CF8FEF8D8355C0F8
:1027D000C2010E944734682FC401840D951D0E94D8
:1027E0007F1FAFEF4A1A5A0A4614570489F71A8214
:1027F0001982BE016F5F7F4FC5010E94552CBE013B
:102800006F5F7F4FC50102960E94581F3A94B2E055
:10281000AB1AB108EAE0CE1AD108231448F4360105
:10282000FAE06F0E711C26013AE0832E912CD0CF76
:1028300057018FEFA81AB80AAAE02A9E6001112456
:10284000BFE8CB0ED11CE9E0EE0EF11CD5016D9175
:102850005D01C6010E947F1FBFEFCB1ADB0AAE14D9
:10286000BF04A1F7822D90E0880F991FBE016D5F14
:102870007F4F83559F4F0E94581F8D81F801818F94
:102880006FE8C8014C960E94B31E69E9C80186969C
:102890000E94B31E63EAC801C0960E94B31E8DEA6F
:1028A0000E949F1ED801DB969C938E93DA978FEA45
:1028B0000E949F1EF80195AF84AF81EB0E949F1E7E
:1028C000D801DF969C938E93DE970F900F900F9018
:1028D0000F900F90DF91CF911F910F91FF90EF908C
:1028E000DF90CF90BF90AF909F908F907F906F9030
:1028F0005F904F903F902F900895EF920F931F930A
:10290000CF93DF93FC016A3039F48581848396810B
:102910008185890F86834FC084816E3719F48E5F5D
:10292000848349C0262FEF0166816F5F2A3374F4D8
:102930002033F4F42B32F1F01CF42132F9F030C0E2
:102940002D32A1F12E3261F52FE319C02B3544F45D
:10295000213464F42A3381F02F3311F522E40FC0BF
:102960009FE9920F9A31E0F4275409C0215407C01F
:102970002C5F05C021E403C023E401C02EE33F81A6
:10298000062E000C770B082E000C990B313081F4C9
:102990004AEFE42E00E010E04AE152E00E94E32A10
:1029A00088858D5F9C81890F8C8305C020E4E7CFEB
:1029B0003BEFE32EEFCF81E090E0DF91CF911F91CD
:1029C0000F91EF900895CF92DF92EF920F931F93A4
:1029D000CF93DF93FC016A3039F48581848396813B
:1029E0008185890F8683A1C0A4816E3719F4AD5FFC
:1029F000A4839BC0962FEF0166816F5F9A3354F4D6
:102A00009033DCF49D32E1F09E3299F0913209F07E
:102A100053C018C09B3534F491346CF49F3309F4DF
:102A200051C04AC08FE9890F8A3108F045C019EBBF
:102A300005C01FE308C01FEB01C014E0190F03C05D
:102A400011E401C01EE38F81062E000C770B0A2EC5
:102A5000000CBB0B813009F03AC0E8EEF2E00491C3
:102A6000E9EEF2E0E490112379F1E02FF0E02E2D71
:102A7000269526952695422F50E021E030E08E2DB8
:102A8000877011F420E030E0240F351FE29F6001D1
:102A9000E39FD00CF29FD00C112496011203A001E9
:102AA000139F500D112446515D4F9AEFC92E20E01F
:102AB00030E0CD010E94D21A88858C5F9C81890FFD
:102AC0008C8333C010E4BFCF4AEE52E0EECFE8EE85
:102AD000F2E00491E9EEF2E0E490112309F1E02F35
:102AE000F0E02E2D269526952695422F50E021E0E8
:102AF00030E08E2D877011F420E030E0240F351F78
:102B0000E29F6001E39FD00CF29FD00C112496014C
:102B10001203A001139F500D112446515D4F02C0B6
:102B20004AEE52E08BEFC82EC2CF81E090E0DF91F9
:102B3000CF911F910F91EF90DF90CF9008950C945B
:102B40007B350C947B350C947B350C947B350C9445
:102B50007B350C947B350C947B35CF92DF92EF92D2
:102B60000F931F93CF93DF93EC01FB01868180FDD0
:102B700005C08E898F5F09F480EA8E8BC42ED12C1C
:102B80008E89EE24E39402EF13E020E042E755E063
:102B9000B601082E000C990B0E94E32A8E89082E9C
:102BA000000C990B20E042E755E0B601805A9F4F98
:102BB0000E94E32A8E89082E000C990B20E042E740
:102BC00055E0B60180549F4F0E94E32ADF91CF91D8
:102BD0001F910F91EF90DF90CF9008952F923F9229
:102BE0004F925F926F927F928F929F92AF92BF921D
:102BF000CF92DF92EF92FF920F931F93CF93DF93C9
:102C0000CDB7DEB727970FB6F894DEBF0FBECDBFA6
:102C10007C016A01322F502E50E1452E420E8E016A
:102C20000F5F1F4FD7FE10C0652D70E06D5F7F4FA7
:102C30006034710574F4822F90E042E003972F8393
:102C40000E94AE2A3F8105C021E1C21627E2D206CA
:102C50009CF43E0185E0680E711CAA24BB24AC18CC
:102C6000BD084AE0842E912CE4E0E00FEE831701CA
:102C7000F2E02F0E311C4FC034505E0126E0A20E50
:102C8000B11C85E0382E9AE0692E712C25E0222EA9
:102C9000200E470182E0880E911CF801232D11922D
:102CA0002A95E9F7C601F801B3010E94CC3481935B
:102CB000CB012E12F9CFF701368337835086F50109
:102CC00042915F0150E060E070E02AE0C4013F8380
:102CD0000E9406193F813C5F3411DFCF25C0F80107
:102CE000B4010E94CC348193CB012E812E13F8CFF6
:102CF000F701368337835086F30142913F0150E05C
:102D000060E070E02AE0C1013F830E9406193F8124
:102D10003C5F341549F019821A821B821C82C6015D
:102D2000D7FEDDCFC501DBCF27960FB6F894DEBF07
:102D30000FBECDBFDF91CF911F910F91FF90EF900C
:102D4000DF90CF90BF90AF909F908F907F906F90CB
:102D50005F904F903F902F900895EF92FF920F93C6
:102D60001F93CF93DF93EC017B01FB018681978159
:102D700068E370E00E94CC3411E08D3108F410E07B
:102D800047EA5BE060E070E08BE190E00E94472C56
:102D90006F89062E000C770B49E45AE08CEF9FEF09
:102DA0000E94472C8F89082E000C990BBC01605A99
:102DB0007F4F49E45AE08CEF9FEF0E94472C688DCB
:102DC000062E000C770B4BEE58E087E690E00E9451
:102DD000472C888D082E000C990BBC01605A7F4F40
:102DE0004BEE58E087E690E00E94472C111107C097
:102DF000898D811104C0898D8130B9F42CC085E2A0
:102E00008E838F838AE28887BE01645E7F4FCE0106
:102E100002960E94F1184AAD5BAD0AE22BE4B701BD
:102E2000CE010E94EE15112331F385E28E838F834C
:102E300081E38887BE016A5D7F4FCE0102960E94C2
:102E4000F1184CAD5DAD01E32BE4B701CE010E945A
:102E5000EE15111103C0898D8230A1F085E28E83B9
:102E60008F8388E38887BE01605D7F4FCE01029625
:102E70000E94F1184EAD5FAD08E32BE4B701CE011F
:102E80000E94EE15DF91CF911F910F91FF90EF906F
:102E900008958F929F92AF92BF92CF92DF92EF925E
:102EA000FF920F931F93CF93DF93EC017B018B0174
:102EB0000D5F1F4F41E257E060E070E088E090E076
:102EC0000E94472C21E04AEF56E06DE170E080E27D
:102ED00090E00E94DC1C8F89F701E80FF11DE80FDC
:102EE000F11D06ACF7ADE02DE081F0E0EE0FFF1F25
:102EF000E25CFE4F4081518121E06EE170E081E2B1
:102F000090E00E94DC1C4FE2B701CE010E94AD159B
:102F100086E3898B888B8EE18A8B2F89AA24A394E0
:102F2000B12CC701820F911D820F911D6C012EE300
:102F3000C20ED11C4E018CE0880E911CD601ED9181
:102F4000FC91EA0DFB1D6081C4010E94C618BFEF11
:102F5000AB1ABB0A29E0A216B10481F726E24CE5C0
:102F600066E3C8010E94692C86E38E838F8387E223
:102F7000888764EF76E0CE0102960E94CD188F8993
:102F8000F701E80FF11DE80FF11D06ACF7ADE02DDC
:102F90004285538507E22EE4B701CE010E94EE156B
:102FA0008A8D90E0809797FF03C091958195910954
:102FB000282F898D90E0809797FF03C09195819588
:102FC0009109488D50E04052510957FF03C0519577
:102FD0004195510993E894BD809587BD81EF809319
:102FE00080002093880040938A00DF91CF911F9149
:102FF0000F91FF90EF90DF90CF90BF90AF909F9098
:103000008F9008951F920F920FB60F921124CF92B6
:10301000DF92EF92FF920F931F932F933F934F9363
:103020005F936F937F938F939F93AF93BF938091A1
:103030003C0290913D02A0913E02B0913F02019668
:10304000A11DB11D80933C0290933D02A0933E02CE
:10305000B0933F02492F5A2F6B2F772767FD7A9540
:10306000242F2E726C017D0139E0F594E794D794FA
:10307000C7943A95D1F74C295D296E297F29489F3D
:10308000402D112442238C019D015DE0359527954B
:10309000179507955A95D1F7082366E0B595A7953A
:1030A000979587956A95D1F7802B84278093CF00D9
:1030B000BF91AF919F918F917F916F915F914F9150
:1030C0003F912F911F910F91FF90EF90DF90CF9044
:1030D0000F900FBE0F901F901895089508950895B2
:1030E00008950895089508950C947B35FC0182E3BA
:1030F00091E091838083158214828AE191E0938329
:10310000828398E0938781E08287178210861682F7
:1031100081871786168626E231E035872487958BCE
:10312000848B118A128A108A838B80EA868B089599
:103130000895CF92DF92EF92FF920F931F93CF9358
:10314000DF936C017A018B01C0E0D0E0CE15DF0582
:1031500089F0D8016D918D01D601ED91FC9101901E
:10316000F081E02DC6010995892B11F47E0102C082
:103170002196ECCFC701DF91CF911F910F91FF9066
:10318000EF90DF90CF9008950E941336DC01ED910F
:10319000FC910190F081E02D0994EF92FF920F9342
:1031A0001F93CF93DF938C017B01C0E0D0E0F70148
:1031B000EC0FFD1F6491662361F0D801ED91FC9145
:1031C0000190F081E02DC8010995892B11F021961D
:1031D000EECFCE01DF91CF911F910F91FF90EF9035
:1031E00008956115710579F0FB0101900020E9F760
:1031F0003197AF01461B570BDC01ED91FC9102802A
:10320000F381E02D099480E090E008954F925F9261
:103210006F927F92EF92FF920F931F93CF93DF9362
:10322000CDB7DEB7A1970FB6F894DEBF0FBECDBF06
:103230007C01FA01CB0119A2223008F42AE08E01A8
:103240000F5D1F4F422E512C612C712CBF01A30129
:1032500092010E948F34F901CA01015011096A30AC
:1032600014F4605D01C0695CD8016C93232B242B9E
:10327000252B61F7B801C7010E94F118A1960FB67E
:10328000F894DEBF0FBECDBFDF91CF911F910F919C
:10329000FF90EF907F906F905F904F9008951F93F5
:1032A000CF93DF93DC0120E030E040E050E011E01C
:1032B000C1E0D0E02617370791F114968C9114974E
:1032C000811115C014961C93149712968D919C91A0
:1032D0001397ED91FC911197E80FF91FE491159662
:1032E000EC931597019613969C938E9312971496D0
:1032F0009C91149715968C911597892349F0FE019E
:10330000022E02C0EE0FFF1F0A94E2F74E2B5F2B36
:10331000990F14969C9314972F5F3F4FCBCFCA0100
:10332000DF91CF911F9108950895FC018785DF01FA
:10333000A80FB11D1C966C938F5F8787833079F43B
:10334000848591E0891741F02585291729F0268584
:10335000291711F0918308959F5F993099F7089587
:10336000FC01DB0118968C91189719969C91909509
:10337000982384FF14C02789203118F42F5F278BEE
:103380000FC0F89487E78093000880930108A89500
:1033900088E18093600088E080936000FFCF178A07
:1033A00093FF05C0FB01E75BFF4F82E08083089538
:1033B000FC01DB0119968C911997809518969C91C8
:1033C000892399F08281882311F08CE7828382819E
:1033D00081110BC081E0828380E48093900081E4BE
:1033E0009FE0909399008093980092819923C1F077
:1033F0009F5F9283953059F09D3761F0923081F450
:1034000080E596E490939900809398000895109237
:1034100090000895FB01E75BFF4F81E080830895F2
:10342000089508950F931F93CF93DF93EC018B01C1
:103430004BEE5DE060E070E08CE090E00E94472C95
:1034400043E2B801CE01DF91CF911F910F910C940F
:10345000AD153FB7F8948091460290914702A09134
:103460004802B091490226B5A89B05C02F3F19F02C
:103470000196A11DB11D3FBFBA2FA92F982F8827F4
:10348000820F911DA11DB11DBC01CD0142E0660F4F
:10349000771F881F991F4A95D1F708958F929F92A1
:1034A000AF92BF92CF92DF92EF92FF926B017C01BD
:1034B0000E94291A4B015C01C114D104E104F104FA
:1034C000F1F00E94291ADC01CB0188199909AA0997
:1034D000BB09883E9340A105B10570F321E0C21AF3
:1034E000D108E108F10888EE880E83E0981EA11C3F
:1034F000B11CC114D104E104F10419F7DDCFFF9030
:10350000EF90DF90CF90BF90AF909F908F900895F5
:103510001F920F920FB60F9211242F933F938F9308
:103520009F93AF93BF938091400290914102A091ED
:103530004202B09143023091450223E0230F2D3720
:1035400020F40196A11DB11D05C026E8230F0296A7
:10355000A11DB11D2093450280934002909341022A
:10356000A0934202B0934302809146029091470299
:10357000A0914802B09149020196A11DB11D80930E
:10358000460290934702A0934802B0934902BF912C
:10359000AF919F918F913F912F910F900FBE0F9000
:1035A0001F9018954F925F927F928F929F92AF9249
:1035B000BF92CF92DF92EF92FF920F931F93CF9320
:1035C000DF9300D000D0CDB7DEB729011C2DA02E8F
:1035D000B12C9C012A0D3B1D121613060CF0B3C131
:1035E000803891050CF0AFC1FB01EE0DF11D1E16E8
:1035F0001F060CF0A8C1603471050CF0A4C1411580
:10360000510509F4A0C1E62FE770FE2EFB0177FDFE
:103610003796A3E0F595E795AA95E1F7AE2F77FFEA
:1036200004C0FF2011F0AFEFAE0F97FF05C0EE27EB
:10363000FF27E81BF90B02C0E0E0F0E0203831057D
:1036400024F020E8722E781A01C0702E7E1A6A2F9C
:103650000A2E000C770BAF3F1CF4D62ED09401C07D
:10366000D12C21E03E2D377009F420E0E694E69459
:10367000E694E20E6E0D711D693071051CF028E0B4
:10368000E22EEA1AED183D2D3A0FDC0120E8320354
:10369000A00DB11D1124AE0FBF1FD09EE00DF11D76
:1036A00011244E0F5F1F81E090E04C010F2C02C0EF
:1036B000880C991C0A94E2F7133009F403C1A0F4B2
:1036C000113009F4B5C0123009F03DC18FEF889D6B
:1036D000B001899D700D1124609570957C836B837A
:1036E0005C802E2D230F2BC01A3F31F01B3F09F0B9
:1036F0002AC12E2D230F88C02E2D230F51C0FA0171
:10370000E00FF11FE491E89D6001E99DD00C1124C8
:10371000DA82C98237FD07C0FC01E080EE2DE62386
:10372000CE2AFC01C082F11013C00F5F1F4F01961B
:10373000071528F33F5F4A0D5B1DA058BF4F321796
:1037400009F401C1CD01825B9D4F00E010E0F0CF94
:1037500037305CF7FC01E058FF4FD080D520CA809D
:10376000DC28D082E2CFFA01E60FF71FE491E89D52
:103770008001E99D100D11241A83098337FD04C0CF
:10378000FC011081012B0083F11013C06F5F7F4F8C
:103790000196671540F33F5F4A0D5B1DA058BF4F70
:1037A000321709F4D0C0CD01825B9D4F60E070E01C
:1037B000F0CF37305CF78C0100581F4FF801E080E4
:1037C000EA81EE2AF801E082E1CFFA01E00FF11F71
:1037D000E491E89DC001E99D900D11249A838983AD
:1037E00037FD05C08095FB01908189238083F1100E
:1037F00014C00F5F1F4F6F5F7F4F071530F33F5FA0
:103800004A0D5B1DA058BF4F321709F49CC0BD0183
:10381000625B7D4F00E010E0F0CF373054F7FB01E2
:10382000E058FF4F8A818095908189238083E1CF82
:10383000C2018E0F9F1F2E2D230F321709F483C054
:10384000BD01625B7D4F6B0100E010E0071590F554
:10385000FC01E00FF11FE491E89DB001E99D700DBE
:103860001124609570957C836B83FA01E00FF11F42
:10387000E491E89D2001E99D500C11245A8249826F
:1038800037FD05C0F60170816723462A4082FF207C
:1038900059F037304CF4F601E058FF4F70816C81DD
:1038A00067237A81672B60830F5F1F4FFFEFCF1A6B
:1038B000DF0ACCCF3F5F4A0D5B1D8A0D9B1DA058D0
:1038C000BF4FBBCFC72CD12CE40FF51FA25BBD4F60
:1038D00060E870E06C197D09AC18BD088501000F27
:1038E000111F572D2E2DCF93DF93ED01EF96EF96FD
:1038F0002296A590C590FF2059F0A89C5001C89C25
:10390000600137302CF4E880D094ED20EB28E99268
:1039100033233AF0EC90C094EC20EA28ED920C941A
:10392000921C11965A9529F72A9551F0572D3395E7
:103930001124E00FF11DA60FB11DC60FD11DD9CF67
:10394000DF91CF9111240F900F900F900F90DF9186
:10395000CF911F910F91FF90EF90DF90CF90BF908C
:10396000AF909F908F907F905F904F900895BC0193
:1039700080E090E00C944E1A8FB18095807F669B1A
:1039800088601C9B84600895EDE5F0E190E1969FCE
:10399000D001A0781124A80F6770E60FF11D949153
:1039A000A25BBD4F442319F08C91982B03C09095D6
:1039B0008C9198239C9308952F923F924F925F92FF
:1039C0006F927F928F929F92AF92BF92CF92DF922F
:1039D000EF92FF920F931F93CF93DF93CDB7DEB794
:1039E0002C970FB6F894DEBF0FBECDBF4C016B0114
:1039F000022F5A8349831C821B821D821E8268E02B
:103A000070E0CE0101960E944F19019698878F832E
:103A100068E070E0CE0101960E944F197C0161E0E0
:103A200070E0CE0101960E944F19782E8F81988503
:103A3000880D991D97FDE0C020E8821691040CF0D6
:103A4000DBC097012F5F3F4FC601820F931F97FD89
:103A5000D3C040E4C416D1040CF0CEC07601D7FE2A
:103A600004C0EE24FF24EC18FD0857E0E522FF24F3
:103A7000A601D7FE02C0495F5F4F2A0163E055945B
:103A800047946A95E1F7D7FE09C081E0481A5108CA
:103A900088E090E0AC014E195F097A01190137FF07
:103AA00003C057E0250E311C53E0359427945A95F6
:103AB000E1F727703327232B19F08FEF281A380AE4
:103AC0006624639410E0C12CD12CA12CB12C88E089
:103AD00090E09C012E193F093A872987A214B3046C
:103AE0000CF08AC021E030E061E070E0CE01019688
:103AF0002B873C870E944F192B853C85892B19F415
:103B00002E5F3F4FF1CFB901CE0101960E944F19B0
:103B1000DC01119620E030E02A173B0708F065C071
:103B200071101629660C09F05DC0B2016A0D7B1D8B
:103B3000CB010196099708F041C0C601880D991D77
:103B400080389105D8F5CB019695982F88279795C1
:103B50008795880D991D8C0D9D1D6F3F4FEF740744
:103B600009F446C0412F0E2C01C0440F0A94EAF715
:103B7000FC01E25BFD4F002319F05081452B03C08F
:103B80004095508145234083E114F104B9F067303A
:103B90007105A1F0412F50E0098402C05595479569
:103BA0000A94E2F7FC01E253FD4F002319F0108163
:103BB000412B03C040951081412340835FEFC51A1C
:103BC000D50A4F815885C416D5064CF05FEFA51A6B
:103BD000B50A6624639410E0C12CD12C03C066247E
:103BE000639410E02F5F3F4F97CF81E0782676CF28
:103BF000E114F10479F6E2CF2C960FB6F894DEBF0B
:103C00000FBECDBFDF91CF911F910F91FF90EF902D
:103C1000DF90CF90BF90AF909F908F907F906F90EC
:103C20005F904F903F902F900895CB01BA0180385C
:103C3000910530F44034510518F4422F0C94C41C03
:103C40000895EF92FF920F931F93CF93DF93EC01B0
:103C50007B0121E046ED5DE061E170E08FE290E004
:103C60000E94DC1C21E041EB5DE06AE170E08BE248
:103C700090E00E94DC1C21E041EB5DE06AE170E035
:103C800089E490E00E94DC1C8A8121E0811117C048
:103C900041EB5DE06AE170E08AE390E00E94DC1CA9
:103CA00021E048E65DE06EE270E08AE190E0DF91BD
:103CB000CF911F910F91FF90EF900C94DC1C4BE47F
:103CC0005DE06AE170E08AE390E00E94DC1C21E0A4
:103CD00048E25DE06EE270E08CE290E00E94DC1C65
:103CE0008A816FE00E94C034C82FC3700FE410E0D7
:103CF000D0E083E0E80EF11CDC1759F021E041E34D
:103D000050E0B801C7010E94151EDF5F0E5F1F4F14
:103D1000F3CFDF91CF911F910F91FF90EF90089516
:103D2000FC011386128631969C01275F3F4F40E2CB
:103D30004193E217F307E1F7FC0110860895CF9352
:103D4000DF9300D0CDB7DEB71A821982BE016F5F54
:103D50007F4F90E00E94552C89819A810F900F909F
:103D6000DF91CF9108959F92AF92BF92CF92DF9251
:103D7000EF92FF920F931F93CF93DF93CDB7DEB7F0
:103D80002A970FB6F894DEBF0FBECDBF5C01CE01FF
:103D900001967C016C01062F10E0081B190B89E0CD
:103DA000982E9E0CC8018C0D9D1D0E944734F60173
:103DB00081936F019E12F6CF1A869AE0F701D50122
:103DC00001900D929A95E1F72A960FB6F894DEBF0E
:103DD0000FBECDBFDF91CF911F910F91FF90EF905C
:103DE000DF90CF90BF90AF909F900895CF93DF93D7
:103DF000EB01EEADFFAD13861286FB01E05CFF4FD9
:103E00000190F081E02D13861286FB01EE5BFF4FDF
:103E10000190F081E02D13861286FB01EC5BFF4FD1
:103E20000190F081E02D13861286FB01E95BFF4FC4
:103E300081E080838E8567E6082E000C990B0E9436
:103E4000B31E8A8D61E7082E000C990B0E94B31EE9
:103E50008EA16BE7082E000C990B0E94B31E8AA955
:103E600065E8082E000C990BDF91CF910C94B31EDE
:103E7000EF92FF920F931F93CF93DF931F92CDB7D3
:103E8000DEB77C01FC0100811181C80169830E94B9
:103E900047346981681719F0C8010E944F34C7017F
:103EA0000F90DF91CF911F910F91FF90EF900895A8
:103EB000EF92FF920F931F93CF93DF9300D0CDB774
:103EC000DEB78C017B01FB0160819A838983CE017F
:103ED00001960E94381FF70161810F5F1F4F1A83FF
:103EE0000983CE0101960E94381FC7010F900F90E1
:103EF000DF91CF911F910F91FF90EF900895CF9395
:103F0000DF9300D0CDB7DEB79A838983CE010196C7
:103F10000E94381F0F900F90DF91CF910895CF939B
:103F2000DF93D82F85E690E00E944734C82F86E6BD
:103F300090E00E944734D11104C0C63411F481349A
:103F4000E1F166E485E690E00E947F1F61E486E689
:103F500090E00E947F1FC7E6D0E060E0CE010E94A3
:103F60007F1F2196C43BD105C1F7C8E6D0E060E2CF
:103F7000CE010E947F1F60E2CE010A960E947F1F41
:103F800060E2CE0144960E947F1F60E2CE014E9611
:103F90000E947F1F60E2CE0188960E947F1F60E230
:103FA000CE01C2960E947F1F60E2CE01CC960E9495
:103FB0007F1F2196C037D105D1F6DF91CF910895AB
:103FC000EF92FF920F931F93CF93DF939C01EB012E
:103FD0008B01095B1F4FD8018C91FB01E80FF11D8C
:103FE000E80FF11D04ACF5ADE02D7901BAE1EB0E5F
:103FF000F11CD9015A961C925A975B9689E0019060
:104000000D928A95E1F7F801408150E04150510945
:104010006AE0649FC001659F900D112489599F4FEC
:10402000D90195969C938E93949796961C92969709
:1040300097961C92979798961C92989799961C928F
:104040008081813031F0EEADFFAD6081C7010E940B
:104050009519F8018081823051F0FE01E05CFF4F3C
:104060000190F081E02D6081C7010E949519D8016F
:104070008C91833051F0FE01EE5BFF4F0190F08197
:10408000E02D6081C7010E949519F801808184307C
:1040900071F0CC5BDF4FE881F9816081C701DF916E
:1040A000CF911F910F91FF90EF900C949519DF9194
:1040B000CF911F910F91FF90EF900895FC01178A07
:1040C000DB01AA5BBF4F8C91808F10A208955F9295
:1040D0006F927F928F929F92AF92BF92CF92DF9218
:1040E000EF92FF920F931F93CF93DF93EC016B013D
:1040F000DB011696ED90FC9017978F89873009F4B5
:1041000067C24B01B3E08B0E911C20E040E46CE3EE
:10411000C4010E94692C00E010E021E0A8016EE3D8
:1041200070E0C4010E94151E0E5F1F4F023411057E
:10413000A1F7C70164E170E00E94CC345524539488
:104140008B3008F4512C2EE340E46CE3C4010E9450
:10415000692C3E01EAE16E0E711CA12CB12C8A2D56
:10416000F501E45BFD4D0491F501EC5BFD4DE4913F
:10417000EE2EF12C10E0863009F475C0873009F47A
:104180007AC0D3019C91992309F459C0FE01EA0D2C
:10419000FB1D91A5992391F021E04EE152E2B70178
:1041A000C8010E94DC1CD301EC91F0E0EE0FFF1F70
:1041B000E059FE4F4081518120E017C09F89913026
:1041C00019F4E9A1E430B9F421E04AEF51E2B70172
:1041D000C8010E94DC1CD301EC91F0E0EE0FFF1F40
:1041E000E059FE4F4081518121E0B7016C5F7F4F64
:1041F000C801049613C0F0E0A0FC03C080E090E08A
:1042000002C084E090E0E80FF91FEE0FFF1FEE59A7
:10421000FE4F4081518121E0B701C8010E94DC1CA2
:10422000898D082E000C990BA816B90609F04AC012
:10423000552009F447C020E042EE51E23FC021E0A2
:1042400046EA51E2B701C8010E94DC1C898D082EA4
:10425000000C990BA816B906A9F5552099F121E093
:104260004FE851E22BC08BA19CA121E0892B21F1C9
:1042700042E551E20FC02BA13CA121153105D9F037
:104280008DA19EA1820F931F8C329140A0F021E05E
:104290004BE950E2B701C8010E94DC1C898D082E51
:1042A000000C990BA816B90669F4552059F020E0C6
:1042B0004FE251E203C021E04AED50E2B701C801EC
:1042C0000E94DC1CEFEFAE1ABE0AFFEF6F1A7F0AE6
:1042D00028E0A216B10409F042CF21E04FE650E2F7
:1042E00060E070E083E490E00E94DC1C888DF601C1
:1042F00092E08902E00DF11D112406ACF7ADE02D2E
:10430000E081F0E0EE0FFF1FE05BFE4F4081518146
:1043100021E061E070E084E490E00E94DC1C89E52B
:10432000898B888B8FEF8A8B288DEE24E394F12C78
:10433000C601820F911D820F911D8C01025C1F4FDF
:104340005E01ACE0AA0EB11CD801ED91FC91EE0D1E
:10435000FF1D6081C5010E94C618BFEFEB1AFB0A62
:10436000E9E0EE16F10481F728E040E869E5C401D0
:104370000E94692C19E51E831F838AE088877E01CD
:10438000F2E0EF0EF11C6AE670E2C7010E94CD1860
:104390004BA15CA10AE021E7B601CE010E94EE1517
:1043A0001E831F8381E1888765E670E2C7010E9452
:1043B000CD184DA15EA101E121E7B601CE010E9419
:1043C000EE158F89833011F45520E1F089E58E8355
:1043D0008F8388E188876FE570E2C7010E94CD185E
:1043E000888DF60122E08202E00DF11D112406AC59
:1043F000F7ADE02D4285538508E121E7B601CE01F6
:104400000E94EE1588E08E838F8389E3888769E5B3
:1044100070E2C7010E94CD1848A150E060E070E052
:104420002AE0C7010E94061964E570E2C7010E94F4
:10443000CD182AE04AE050E060E070E0C7010E9439
:10444000061956018EE3A80EB11CE12CF12C33E4C1
:10445000732E460196E4890E911C888D082E000C5F
:10446000990BE816F90691F1072D10E021E04FE6CF
:1044700050E264E270E0C8010E94DC1CD4012C917F
:10448000C8010196E21668F4D501ED91FC91E08136
:10449000F0E0EE0FFF1FE05BFE4F4081518121E015
:1044A00003C021E040E350E265E270E00E94DC1CC2
:1044B00022E0270DD501ED91FC914285538509E35A
:1044C000B601CE010E94EE15B5E17B0EEFEFEE1ABC
:1044D000FE0AF2E0AF0EB11C24E0E216F10409F08E
:1044E000BCCF8F898530C1F489A18E3089F5EE2447
:1044F000E3940EE41BE120E04EEB5DE168E070E048
:104500008CE090E00E94E32A511002C080E001C0DC
:1045100080E280938A0027C08630D1F420E045E60F
:104520005AE16BE070E087E090E00E94DC1C21E043
:1045300045EA58E16BE070E087E090E00E94DC1C07
:10454000511002C080E001C080E2809587BD0BC0A1
:1045500083E884BD8FEF87BD81EF80938000109248
:10456000880010928A008F89843009F057C0C88D66
:10457000CF5FF601EA5BFF4F8081C81708F0C0E00B
:1045800020E042E958E160E170E08EE190E00E94B5
:10459000DC1C21E04DE857E160E170E08EE190E045
:1045A0000E94DC1CF601EC0FF11DEC0FF11D06ACB6
:1045B000F7ADE02DE081F0E0EE0FFF1FE05BFE4F76
:1045C0004081518121E068E170E08AE490E015C00B
:1045D0006AA170E07195619571094EEB5DE18CE027
:1045E00090E00E94472C8AA162E370E0681B710989
:1045F00021E04EEB52E186E090E0DF91CF911F91F8
:104600000F91FF90EF90DF90CF90BF90AF909F9071
:104610008F907F906F905F900C94DC1CDF91CF9116
:104620001F910F91FF90EF90DF90CF90BF90AF90D0
:104630009F908F907F906F905F9008958F929F9240
:10464000AF92BF92EF92FF921F93CF93DF93EC0153
:10465000DB0118969C91189719961C9110951923B7
:10466000EF894E2F50E04830510508F0BBC17B0167
:10467000FA01EA5AFF4F0C94E034888D8F5F888FDF
:104680001CA21BA21EA21DA218A61FA219A291E085
:104690009F8B082E000C990BFB01EA5BFF4F2081DA
:1046A00030E08217930724F0188E88A18F5F88A3CB
:1046B000FE01B996CE018F9621E0DF011F972C9362
:1046C0001192E817F907C9F729A1243088F5F701F5
:1046D0008681978163E070E00E94CC34892B09F0D9
:1046E00081C12F5F29A3243009F07CC17E01FAE14A
:1046F000EF0EF11CA09686E0882E912CA12CB12CF7
:10470000F7018081882369F00E943934A501940162
:104710000E945D34DC01CB010196A11DB11DF701A2
:104720008083FFEFEF1AFF0AEC16FD0649F75AC126
:1047300061E0CE010E94202898A78FA3892B19F051
:10474000198E82E036C1888DF70122E08202E00DE9
:10475000F11D112406ACF7ADE02D82859385845FB1
:1047600091409387828785E08F8B19A23BC115FF0B
:1047700010C0898D81306CF087301CF0873019F0C3
:1047800008C0815005C08BA19CA1892B11F086E047
:10479000898F16FF1CC0898D853041F024F487FD78
:1047A00016C08F5F13C0863039F011C08BA19CA159
:1047B000892B69F086E00AC02BA13CA18DA19EA1A6
:1047C000820F931F8C32914010F087E0898F14FF85
:1047D00031C0898D833059F02CF487FD2BC08D5F5B
:1047E000898F28C0843061F08530C1F023C02BA1AF
:1047F0003CA1232B59F186E0898F17FF2FC02AC0D7
:104800002BA13CA1232BB9F72DA13EA12C32314085
:10481000E8F087E0898F17FF21C01EC04BA15CA183
:104820002DA13EA1240F351F2C32314090F7452B8E
:1048300011F70CC017FF12C0898D863059F01CF497
:10484000833034F40BC0873039F008C017FF06C03E
:10485000835003C083E001C085E0898F13FF5BC0F4
:10486000898D8630A1F11CF487FF1EC054C08730AB
:1048700009F051C0888DF70122E08202E00DF11DA0
:10488000112406ACF7ADE02D2BA13CA18DA19EA17A
:10489000820F931F22853385820F931F9387828710
:1048A00083E08F8B19A237C0FE01E80FF11D87FD51
:1048B000FA95828D882321F091A581E0892781A72F
:1048C00060E0CE010E9420289CA38BA324C0FE019F
:1048D000B996CE018F962191222319F0DF015097CE
:1048E0001C92E817F907B9F7FE017A96CE01809677
:1048F0002191211173C0E817F907D1F786E08F8B5A
:1049000019A22DA13EA18BA19CA1820F931F9EA352
:104910008DA31CA21BA212FF65C087E04AC0112311
:1049200011F088E289A389A1883290F11EA21DA20C
:104930001CA21BA2F701EA5BFF4F4081288D022ECB
:10494000000C330B842F90E001972817390749F4A6
:1049500088A18A3031F4F701E75BFF4F84E0808360
:1049600041C0423020F084E024C013FF3BC01F8AC6
:1049700039C089A18E3010F48F5F89A313FDDACF7F
:1049800031C0112311F088E289A389A1883218F47B
:104990008F5F89A327C0FE01B996CE018F9621E0D3
:1049A000DF011F972C931192E817F907C9F719A295
:1049B00081E08F8B17C012FF02C082E08F8B97FFC0
:1049C00005C08AA1882311F081508AA394FF0AC0F0
:1049D0008AA1883738F48F5F8AA304C019A281E0C6
:1049E0008F8B8FCFDF91CF911F91FF90EF90BF9072
:1049F000AF909F908F9008956F927F928F929F9229
:104A0000BF92CF92DF92EF92FF920F931F93CF93BB
:104A1000DF93EC018B01FB018681978168E370E0F5
:104A20000E94CC34BB24B3948D3108F4B12C43E202
:104A3000B801CE010E94AD158F898823F1F1813034
:104A400009F0DBC06801F3E0CF0ED11C198A188A87
:104A50001A8A7E012CE0E20EF11C6FEF73E2C701AF
:104A60000E94CD18F801E95BFF4F408150E060E003
:104A700070E02AE0C7010E940619198A188A80E1AD
:104A80008A8B64EF73E2C7010E94CD1841E063E1B5
:104A900070E080E390E00E94C41C41E065E170E0BA
:104AA00080E390E00E94C41C22E0822E912C01E160
:104AB00010E037E1632E712C32C0198A188A88E021
:104AC0008A8B2C9667E074E2CE010E94CD18F80123
:104AD000EA5BFF4F408150E060E070E02AE0CE01E9
:104AE0000E940619BB2009F488C044E060E170E030
:104AF0008EE590E0DF91CF911F910F91FF90EF90A5
:104B0000DF90CF90BF909F908F907F906F900C948C
:104B1000AE2A4C010F5F1F4F0731110589F021E0CC
:104B2000A801B301C6010E94151EC401029797FF98
:104B3000F0CF81E0681A7108E3E08E0E911CEACF95
:104B400021E04DEC53E26BE070E085E390E00E94E1
:104B5000DC1CEB8DF0E0EE0FFF1FE258FE4F4081B2
:104B6000518121E06CE070E086E390E00E94DC1C63
:104B7000BB2019F08A8D882309F128E14CE76DE408
:104B8000C6010E94692C6E01FCE1CF0ED11C0DE420
:104B900011E080E1982E098B088B9A8ABB2019F0CE
:104BA0008A8D8117F1F0F60161916F01C7010E94B2
:104BB000C6181F5F0A5F193071F71FC021E04FEB65
:104BC00053E265E070E08AE390E00E94DC1C21E0A3
:104BD00042EB53E26FE170E08AE390E00E94DC1C5C
:104BE000CCCFF6E01F9FC001112444E068E170E0E3
:104BF000895B9F4F0E94AE2AD6CFDF91CF911F9144
:104C00000F91FF90EF90DF90CF90BF909F908F908B
:104C10007F906F900895CF93DF93EC011F8A0E94DD
:104C2000E01F8B8D811102C081E08B8FDF91CF91CE
:104C300008956F927F928F929F92AF92BF92DF9270
:104C4000EF92FF920F931F93CF93DF9300D0CDB7D6
:104C5000DEB78C01FB013085D184D094D322DC01F6
:104C600057968C91882319F0813019F1D9C1D2FE61
:104C700005C081E0DB01A75BBF4F8C93D3FE04C06E
:104C800081E0D80157968C93D7FC9AC0D4FC98C089
:104C90008681978168E170E00E94CC34D8015896F3
:104CA0004D915C91599755278417950709F488C051
:104CB000B7C1D8015A962C915A97D5FE06C0222327
:104CC00021F08FEF820F5A968C93D6FE09C0D8013F
:104CD0005A968C915A97883018F48F5F5A968C9315
:104CE0007F01D7FC0FC0D4FC0DC08681978168E19D
:104CF00070E00E94CC34F801408D518D5527841707
:104D0000950721F437FD99C034FD0EC1D2FE20C0B5
:104D10005701F7E4AF0EB11CD5018C918230A8F099
:104D2000F701E80FF11DE80FF11DB801655E7F4F37
:104D300084AD95AD0E941836F50180818150808345
:104D4000B701C8010E94E01F03C0D80157961C920A
:104D5000D3FE66C1F8017C9698012C5D3F4F81E03F
:104D60009191903209F080E0E217F307C9F78111C1
:104D700057C15701B7E4AB0EB11CF5018081F701B3
:104D8000E80FF11DE80FF11DB801655E7F4F84AD9E
:104D900095AD0E941836D5018C91F701EA5BFF4F63
:104DA0009081891738F48F5F8C93B701C8010E94F6
:104DB000E01F36C1F701E75BFF4F83E0808330C11E
:104DC00037FF17C0AF014A5B5F4FDA018C91843027
:104DD00080F491E0980F891750F0DF01A80FB11D02
:104DE000A80FB11DDE960D90BC91A02D1C92DA018A
:104DF00019C034FF15C19F012A5B3F4FD9018C9127
:104E0000823008F40DC19FEF980F891750F0DF0131
:104E1000A80FB11DA80FB11DDE960D90BC91A02D5D
:104E20001C92D9019C938681978168E170E00E9471
:104E3000CC34F801918F808FF3C021113DC0D8018F
:104E40005B969C91292F092E000C330B295F3F4F55
:104E5000492F092E000C550B241735070CF447C0B9
:104E6000892F877887FF03C08150886F8F5F8F5F9E
:104E7000682F082E000C770BD8019696EC91F0E085
:104E800041E0E617F70709F040E0D8019796EC916A
:104E9000F0E0E617F70709F441E0D8019896EC91A5
:104EA0009897F0E0E617F70729F0411103C05B96E9
:104EB0008C931DC09F5FCCCFF801E20FF11D838D55
:104EC0008A3579F034F4803281F07CF081345CF4FE
:104ED0000CC0813654F08A3734F08A3731F480E2DE
:104EE00005C081E603C08F5F01C081E4838FF801B4
:104EF00064A075A04801FBE18F0E911CA12CB12C80
:104F0000D4016D914D01C501860D971D9A8389834A
:104F1000CE0101960E94381FBFEFAB1ABB0AE9E031
:104F2000AE16B10469F76FC0211135C0D8015B9688
:104F30003C9198E0930F39170CF047C0892F877880
:104F400087FF03C08150886F8F5F2FEF280F1216E5
:104F500014F027E0280F422F022E000C550BF80109
:104F600066A170E081E06417750709F080E0D80160
:104F700097966C9170E06417750709F481E0F80169
:104F800060A570E06417750721F0811102C0238FBE
:104F90001CC09150D0CFF801E20FF11D838D8B35ED
:104FA00044F4823474F4803271F0813461F480E22C
:104FB0000BC0813621F03CF08B371CF004C08AE531
:104FC00003C0815001C08AE7838FD80194966D9009
:104FD0007C9095974801BBE18B0E911CA12CB12CC4
:104FE000F40161914F01C501860D971D9A83898354
:104FF000CE0101960E94381FFFEFAF1ABF0A89E069
:10500000A816B10469F7D70116968D919C91179750
:1050100068E170E00E94CC34F801918F808F76CEE9
:105020000F900F90DF91CF911F910F91FF90EF9014
:10503000DF90BF90AF909F908F907F906F9008957A
:105040006F927F929F92AF92BF92CF92DF92EF9238
:10505000FF920F931F93CF93DF9300D000D000D027
:10506000CDB7DEB7FE01319626E0DF011D922A950D
:10507000E9F7DC015A96AC01405E5F4F7D0190E09C
:105080006623E1F0D7012D917D01222331F08F01BC
:10509000090F111DD8012C939F5FE416F50691F7B7
:1050A00013C01E968C91882331F08F01090F111DBA
:1050B000D8012C939F5FE416F50631F0D7012D91AE
:1050C0007D012223C1F3EDCF8E010E5F1F4F81E0E2
:1050D00038018917F0F4D8015D918D014FEF480F29
:1050E000242F042E000C330B47FD0DC07F01E20E70
:1050F000F31ED7017C91571730F4260D371DD901C7
:105100007C934150EDCF260D371DD9015C938F5F05
:10511000E0CF992309F4DBC0A0E9EA2EFF24F39441
:10512000B4E6CB2ED12C81E020E030E08F0140E0CE
:1051300050E0702F7E1B791740F4D8017D918D01CE
:105140007813F7CF4F5F5F4FF4CF433051050CF426
:105150004DC04430510589F024F44330510541F0ED
:105160001EC04530510579F04630510591F017C009
:105170008130C1F448EE53E016C0813009F0AAC076
:1051800040ED57E010C0813009F0A6C040EA5FE072
:105190000AC0813009F0A2C040E45FE104C040E0F1
:1051A00050E001C0A601792F77FD1EC08F01070FC7
:1051B000111D77FD1A95D8011C91181313C0972E55
:1051C000092D10E0053011055CF45301A00EB11E4D
:1051D000D501BC900E0F1F1FD801BC929394F0CF45
:1051E0001E8291507150E0CF240F351F8F5FB4E6BF
:1051F000CB0ED11C40E7E41A4EEFF40A873009F0D9
:1052000095CF892F963011F559814A81513089F413
:10521000423079F47B81733061F47C81743049F4DD
:105220007D81753031F47E81763019F424523A4F05
:1052300059C0541313C05B814C8154130FC05D815E
:105240004E8154130BC022513D4F4CC0992309F499
:1052500049C004C01E8281502E5C3F4F915097FD83
:1052600032C0AF01490F511D97FD5A95DA014C919B
:10527000453089F4792F472F50E04530510554F7D8
:105280008301040F151FD8011C914E0F5F1FDA0117
:105290001C937F5FF0CF413009F7792F472F50E003
:1052A000453051055CF48301040F151FD8011C9192
:1052B0004E0F5F1FDA011C937F5FF0CF1E8281507B
:1052C0002C593F4FCBCF61110DC0882359F020E0FE
:1052D00030E008C0A60103C0A70165CFA701440FB5
:1052E000551F61CFC90126960FB6F894DEBF0FBED9
:1052F000CDBFDF91CF911F910F91FF90EF90DF9085
:10530000CF90BF90AF909F907F906F900895FC01D9
:1053100080914D02811103C08FEF9FEF08959FB7D9
:10532000F89482E08093E9002091F20030E01216B8
:10533000130614F421E030E02115310559F02898C6
:1053400084E680934C028091F10080838091F2008A
:10535000882319F09FBFC90108958BE68093E80068
:10536000F9CF2FB7F89483E08093E9009091E8009B
:10537000892F807295FF04C09091F20080E4891B10
:105380002FBF0895CF93DF931F92CDB7DEB7698308
:10539000DC01ED91FC910280F381E02D41E050E0D1
:1053A000BE016F5F7F4F09950F90DF91CF910895F8
:1053B00083E08093E9008091F200882319F08AE36A
:1053C0008093E80008950E94B12990E00895CF935A
:1053D000DF931F92CDB7DEB7FC018485958597FDDD
:1053E00005C02FEF3FEF358724870BC0CE01019614
:1053F0000E948729019719F4898190E002C08FEFFC
:105400009FEF0F90DF91CF9108950F931F93CF934C
:10541000DF931F92CDB7DEB78C01FC0184859585A3
:1054200097FF0EC0CE0101960E948729019719F4BB
:10543000298130E002C02FEF3FEFF8013587248744
:10544000F801848595850F90DF91CF911F910F9181
:1054500008958F929F92AF92BF92CF92DF92EF9278
:10546000FF920F931F93CF93DF935C016B017A013F
:1054700080910701882309F45BC080914D02882345
:1054800009F456C080914B0280FF05C08091E00076
:1054900082608093E000E70110E00AEF83E0882E4D
:1054A0009AE3992E2097D9F10E94B12981110AC05F
:1054B000015009F43DC061E070E080E090E00E949E
:1054C0004E1AF0CF282F30E0C217D3070CF48C2FE0
:1054D0004FB7F8948092E9009091E80095FF1DC0C5
:1054E000282F30E0C21BD30BF601982F915020F0EB
:1054F00081918093F100FACFC20ED31E112319F0CF
:105500009092E80009C08091E80085FD06C0909265
:10551000E80011E0209709F010E04FBFC3CF111150
:10552000C3CF5D9884E680934A021E141F0444F0A2
:1055300081E090E0F5019383828380E090E001C0F8
:10554000C701DF91CF911F910F91FF90EF90DF90F6
:10555000CF90BF90AF909F908F9008959C01240FA3
:10556000311D1216130674F5803891055CF5FC01A7
:1055700097FF02C0E0E0F0E02138310514F020E8A8
:1055800030E02E1BAB014770552781E001C0880F2A
:105590004A95EAF777FF02C0695F7F4F93E0759500
:1055A00067959A95E1F77695762F662777956795B3
:1055B000E60FF71FE25BFD4F215020F09081982B02
:1055C0009193FACF08952F923F924F925F926F92EC
:1055D0007F928F929F92AF92BF92CF92DF92EF9283
:1055E000FF920F931F93CF93DF9300D000D000D092
:1055F000CDB7DEB7ED824115510509F42FC1FA018F
:1056000034913196E4914E5F5F4FC32ED12C22230B
:1056100011F1AE2FA695A695A695AA2EB12CA1E0C4
:10562000B0E0FE2FF77011F4A0E0B0E0AA0DBB1DB2
:10563000CA9E5001CB9EB00CDA9EB00C1124FD81A5
:10564000F33011F4AA0CBB1C2A9DD0012B9DB00D88
:1056500011244A0F5B1F2D812F3F39F401151105CD
:1056600011F021E001C022E02D835C01AC0CBD1CD7
:105670001A141B040CF0F2C0803891050CF0EEC037
:10568000DB01AE0FB11D1A161B060CF0E7C060342B
:1056900071050CF0E3C04115510509F4DFC0F62F88
:1056A000F7706F2EDB0177FD179623E0B595A79570
:1056B0002A95E1F7FA2F77FF04C0662011F0FFEF7B
:1056C000FA0F97FF05C0AA27BB27A81BB90B02C07A
:1056D000A0E0B0E020E8A216B10424F020E8722E89
:1056E000781A01C0732E7A1A6F2F0F2E000C770BC9
:1056F000FF3F1CF4E62EE09401C0E12C9924939422
:105700002E2F277009F4912CE695E695E6959E0ECE
:10571000690D711D693071051CF0E8E09E2E9F1A1D
:10572000FE2CFF0E6F2D20E86203800D911D1124C9
:105730008A0F9B1F61E070E0062C02C0660F771F86
:105740000A94E2F72D81233011F0E1E001C0E2E09C
:10575000C718D108EC9D802C1124CE2ED12CE39EAD
:10576000A00DB11D1124CA9E9001CB9E300DDA9E72
:10577000300D11245A01A20EB31E0115110509F0B6
:10578000A801D60111972A0F3B1F420F531FAFEFFD
:10579000A69F9001A79F300D112429014094509499
:1057A000F90DFE83282D30E0E79D200D311D1124D9
:1057B000EE81FE1609F452C0DC01A25BBD4F4A0126
:1057C0008501E12CE71409F441C0F8013490369EBC
:1057D000F001379EF00D1124FA83E983E095F095EE
:1057E000FC83EB83FD81F23019F45C824B8211C0A3
:1057F000ED81EB3F19F41A8219820BC0F401349049
:10580000369EF001379EF00D1124E095F095FC8353
:10581000EB83F7FC06C0FC91EB81EF23F981EF2BC2
:10582000EC93662061F0F6E0FF154CF0FD01E058C6
:10583000FF4F20803C8023203A80322830828C0C1D
:105840009D1C0C0D1D1DE3941196BCCFF394A20E6C
:10585000B31E420F531F80589F4FAACF26960FB6F4
:10586000F894DEBF0FBECDBFDF91CF911F910F9196
:10587000FF90EF90DF90CF90BF90AF909F908F9070
:105880007F906F905F904F903F902F900895EF9290
:105890000F931F9322E0E22E00E010E020E00E9430
:1058A000E32A1F910F91EF9008950F931F93CF93C9
:1058B000DF938C01EB010E9447348883C801019675
:1058C0000E9447348983CE01DF91CF911F910F91C0
:1058D0000895CF92DF92EF92FF920F931F93CF9391
:1058E000DF936C01D42FD61BC0E0E22EF12C062FE3
:1058F00010E0B8016C0F711D21E0A701C6010E94E4
:10590000151ECE5FDC17A8F7DF91CF911F910F9185
:10591000FF90EF90DF90CF90089580916B078111F9
:105920000DC082E08093670784E08093680710923F
:105930006A071092690781E080936B0787E697E01A
:105940000895FC018485958597FD0BC09FB7F89459
:1059500082E08093E9008091F2009FBF90E0019681
:1059600008959FB7F89482E08093E9008091F20057
:105970009FBF90E008954091C7075091C8072091BC
:10598000C5073091C60742175307B4F49091E80059
:105990009570E1F39091E80092FD19C08093F100B9
:1059A0008091C7079091C80701968F739927892B1B
:1059B00019F48EEF8093E8008091C7079091C80793
:1059C00001969093C8078093C70781E0089580E00F
:1059D0000895DF92EF92FF920F931F93CF93DF937F
:1059E000D82E8A017B01E40EF51EEB01CE15DF05F2
:1059F00071F0D7FE03C0FE01849101C088810E942E
:105A0000BB2C21968111F2CF8FEF9FEF01C0C8010F
:105A1000DF91CF911F910F91FF90EF90DF9008954C
:105A2000615030F02091F100FC0120830196F8CF05
:105A3000289884E680934C0208950F931F93CF9388
:105A4000DF931F92CDB7DEB782E0898342E450E056
:105A50006CE174E280E80E94E92C0E948D2CDC014C
:105A600012960D911C9113970115110569F0D8013B
:105A7000ED91FC910280F381E02DBE016F5F7F4FBD
:105A8000C801099597FF07C089810F90DF91CF91D9
:105A90001F910F910895F80100851185E5CF1F92A0
:105AA0000F920FB60F9211248F939F938091E10074
:105AB0009091E100937F9093E10083FF0FC01092DB
:105AC000E90091E09093EB001092EC0092E3909348
:105AD000ED0010924D0298E09093F00082FF20C0FC
