:100000000C949C120C94C4120C94C4120C94C41240
:100010000C94C4120C94C4120C94C4120C94C41208
:100020000C94C4120C94C4120C94F92A0C946B2BEB
:100030000C94C4120C94C4120C94C4120C94C412E8
:100040000C94C4120C94C4120C94C4120C94C412D8
:100050000C94C4120C94C4120C94C4120C94FF1E81
:100060000C94C4120C94C4120C94C4120C94C412B8
:100070000C94C4120C94C4120C94C4120C94C412A8
:100080000C94431D0C94C4120C94C4120C94C4120E
:100090000C94C4120C94C4120C94C4120C94C41288
:1000A0000C94C4120C94C4120C94C412BD15E41523
:1000B0003D1631175A175E17661799170F0F084329
:1000C0006F280ABD31010F0F984367080B9D51023D
:1000D0000F0F744411C61D86228B2CD2C8C250DC6F
:1000E00011C6040F0FE8628A30CE98238B2B1C4573
:1000F00016739C1146090F0F747451E5A3AC88B3B5
:100100005145178AB2115794F9B8010F0F68D3718E
:10011000E5A39A311B633A8C65639C2A1F92000FFA
:100120000FE8D391E5533365234C87C06C4CAB7C0F
:10013000D8020F0FD0948E2D37517CE9F019D12EB3
:10014000B4010F0FD0958E6BC274081E790F0FD0BB
:10015000964EEED3E179EC010F0FD018BC05110FCC
:10016000A8AADA76B9EAAB4A55A9EA5AAABAAE52AF
:1001700055A5AAEF925655455D5DBBD53B77BBBBF8
:10018000EE5C253B757F2BA75657EB8A11110F8824
:10019000AA7295AB6C7F2F55A9FBFF4FFD7FAE2F49
:1001A00097AA5C5545DE4A95D29F5B9552AAFFD52A
:1001B000B73AF5ADEC44D5553102110FB8B2A52EC2
:1001C0005739554AE5AAE476A74AB9722AD552E5C5
:1001D000C2D0F5A73E59D96AD5AB5EB5AB55AD4A8D
:1001E0003955ABDBD59611110F986DE972577D5DCE
:1001F000577D5D973B6F658537E9739DAA5A757A80
:10020000D5A9D4B6655D158600110FD8B295AA4A56
:1002100095B2CB6A9BB2565676554A55252B1BD2C2
:1002200052AA6DEA7397FA744AB50D55110F283B1F
:10023000D5EA7CAFAABA73AD5425AB3AF5F952A70B
:10024000A28B3C55EECA3A75D5AA77B5DD2AA72A06
:1002500059CE461619110F282B994A2AE79454BDF6
:10026000EA9C734EAE93A95485ACEA553BA74AB9B4
:10027000524E5E4EC94BAE3AB7EAAE9801110FD05E
:1002800094ABE57ABB5D2E6B1DFE944C2B79B9CBFC
:100290006D2F773925D30A491117943C9B4DA7D36D
:1002A000E9743A9D4EA7D3F97C9ECB87764F984F41
:1002B000A7D3E9743A9D4EA7D3D968011117E893E3
:1002C0002BE5D2F9743E9DCEA7F369C5BCFB7C3A01
:1002D0009D4FA7F3E97472A5D4B0141117D094CD33
:1002E00066B3D97C3E9FCF87AF7C3E9FCFE7B3D923
:1002F0006C369B0D9A021117B0B54C67D3E9BCC29E
:100300006B5EF974369DCE29C80B1117943C9B4D3A
:10031000A7D3E9743A9D4EA7D3F97C9ECB87764F3D
:10032000984FA7D3E9743A9D4EA7D3D96801111706
:10033000C894CCA6B3E974369D4DE795DF87A7BD79
:10034000F2FB743A9B4E67D3E9FEE470141117E890
:10035000B3D96C369BCFE7F3F9F095CFE7F3F97C8F
:10036000369BCD66B34157111790A65C3A9D4FE777
:10037000C7A7F2E9743E9D532EE80B090FFF7F8C4F
:10038000FDFF6FC7DA760B090FB7336F67DC6EB707
:10039000636DBB05090FB7636DBBDD8EB5ED160947
:1003A0000F70B49D71BBDD8E45090FF0B7DD6EC7D0
:1003B00022090F70B41DE31D600000000000FF0063
:1003C0000EFEFCFCF9F9F3F3E7E7CFCF9F9F3F1F49
:1003D0009FCFC767F3390000000000003FC00FFF48
:1003E000FFFFFFE3C3C7FFFFFFFFFF80003FF9F000
:1003F000F8FFFE00000000000000010205050B13DD
:1004000017A76FDF5FBF3F7F7F00005FB341A1573A
:1004100000000000000000000000806018C6F1FE2F
:10042000FFFFFEFDF9F9F4FAFDFEFD3E07000000B6
:100430000000000000000E112447A37373D39393B0
:10044000F1F9F9F9F9E9E4E4743C00000000000076
:10045000000000000000000001814225ABD64C24C2
:10046000273379FCFCFE3F00000000000000000084
:100470000000000000FF001CFCF8F9F1F2E2E6CFFA
:10048000CF9F9F3F00000000000000000000000020
:10049000000081FE801FFFFFFFFFC7878FFFFFFF68
:1004A000FF0000000000C030CCF2FAFDFD7D7DFEB3
:1004B000EAD7AC5BAB5727AF4F9F3FBF7F7F00C0F2
:1004C000308CE3F8FFFFFFFFFFFCFCFEFFFF7F7FA8
:1004D0001F0360FCFFFFFEFFFE850E07081223517D
:1004E000B9A949C959787CFCFCFCF07272329E9C17
:1004F000183163C78F1F3F7F00000000008040213C
:100500001255CA24121BB9FCFEFEFF9F0F0F9FFE5F
:10051000FEFCFDF8C81D6039F367C7CF9F1F3F9FE2
:100520009FCFCFE7E7F3F3F9F9FCFCFE0E00FF00E5
:1005300000000000FEFFF8F0F93F0080FFFFFFFF22
:10054000FFC7C3E3FFFFFFFF0FC03F000000000035
:100550000057A141B35F00007F7F3FBF5FDF6FA700
:1005600017130B0505020100000000000000073E04
:10057000FDFEFDFAF4F9F9FDFEFFFFFEF1C618607D
:1005800080000000000000000000003C74E4E4E98A
:10059000F9F9F9F9F19393D37373A34724110E007A
:1005A00000000000000000003FFEFCFC793327241F
:1005B0004CD6AB2542810100000000000000000085
:1005C00000000000003F9F9FCFCFE6E2F2F1F9F874
:1005D000FC1C00FF00000000000000000000000004
:1005E0000000FFFFFFFF8F87C7FFFFFFFF1F80FE99
:1005F0008100000000000000000000000000007FFB
:100600007FBF3F9F4FAF2757AB5BACD7EAFE7D7DE7
:10061000FDFDFAF2CC30C000000000000E85FEFFA8
:10062000FEFFFFFC60031F7F7FFFFFFEFCFCFFFF60
:10063000FFFFFFF8E38C30C0007F3F1F8FC763319F
:10064000189C9E327272F0FCFCFC7C7859C949A956
:10065000B95123120807C8F8FDFCFEFE9F0F0F9F3B
:10066000FFFEFEFCB91B1224CA5512214080000077
:100670000000004A28000000000000000000000008
:10068000F80402AA52E40810602834020955A9F2BD
:1006900034C80412AA3204C870209010904888C848
:1006A00088C89020F0080452EAF204083020202084
:1006B000408000000000000000000000000000007A
:1006C0000000000000000080800007F8000255FFD5
:1006D000FE0E0ECF27E70707FFFF0700A8F5FE7FF6
:1006E000870068F5FA8502790103FFFFFFF807002C
:1006F000A855FF0707E70607FEFDAA0401F28C8054
:1007000000000000000000000000E01804E2F9F121
:100710009914183129B16932944AA7C6A4C5A6C84C
:10072000891224CB0C885227339814931C203373DE
:10073000E7662B9B499F379F943852A593188C4F9F
:1007400088489F2762F9F199141831293169D2A498
:100750000810E0E0110AA4C9A3C7A7A74B160EB959
:10076000C0863F7FF9E0C4CCCCE1E1F0FE0301A8F4
:1007700054FA850279780186FDFA0F0050AAF51F18
:1007800007E31309F8FCF7B1369A999B8F6FEE00D7
:1007900011EFA74B160E94ACDCF0020DF000010235
:1007A0000409131313132727271313130906040926
:1007B0000909090904040201020409131327262662
:1007C000271313090604091209040201010204098E
:1007D00013112325121112090C12131313272727A3
:1007E000131313080403007287F09A4A55A524B71F
:1007F000BB3AE7C8725655F4CBCEB9C353558520E2
:10080000A59392DB5D9D736439AB2AFA65E7DCF151
:1008100057550852A5AA52A5B8DDD5394796B3AAAF
:10082000A25F76CE1D7F558520A9AA52A5B8DDD539
:10083000394796B3AAA25F76CE1D5D3A9D4EA7D3E7
:10084000E1D1C96C4DA6B89C4B3BB265E71CAEAA82
:100850002A843A99ADC91497736947B6EC9CC35181
:1008600055855027B33599E2722EEDC8969D7338A1
:10087000AAAA10EA64B626535CCEA51DD9B273CEDF
:10088000699F4EA752E974DAA3AC53524725552A03
:1008900025A9A44AA5249554A994C4545585C152A8
:1008A000AA2AA58A4AAA544A5249954A492AA952CB
:1008B0002989A1AA0A834A27259554A994A4922A92
:1008C00095925452A5521243551506A5AA4A492A93
:1008D000A952294925552A25A9A44AA5A4B3A59317
:1008E000954EA72B99B7A82CA5AA52AAA8A44AA5A9
:1008F000249554A994C457558563A593924AAA5444
:100900004A5249954A49FEAA0AC75255A524955408
:10091000A994A4922A9592FC5515123B2575545220
:1009200055A54A5149954A492AA95229AB5C95AC2B
:100930004A55B25255C94A562EE59099AEA4225353
:1009400032ADC8944C2B7C55555856B2921599929D
:100950006945A6645AF1575568CC2AD24A56529135
:10096000299956644AA6157F5585C54A565291293C
:100970009D54644AA615999269AB5695AC4A55B2F6
:100980009295AAAA54B552233259D9657E59492560
:10099000F3CB4A2A19BEAA2A042F2BA9647E5949EF
:1009A00025F3CB4A2A197F5585C1ECB2625B56B25A
:1009B00092F9652595CC2F2BA964FC5515029795C6
:1009C000AC64746925F3CB4A2A995F565249EB2BE4
:1009D0005595AC64252B55952C8BCA75D671399DD0
:1009E000735C4EE71CCEAA2A043B5939C7E574CE86
:1009F00071399D7338AAAA10D839A7E372B2928AC6
:100A0000CBE99CE3723AE7705455E130593947A677
:100A100064E52E2EA7738ECBE99C73DA57AAD2A970
:100A200054BA5295F69854A5AA52A5A8A44AA5244A
:100A30009554A994C4585585C24E491D9554A994FE
:100A4000A4922A95925452A55212435515064BA9C9
:100A5000AA942A2AA952294925552A25A9A44AA592
:100A60002486AA2A0C2A9D945452A552924AAA542A
:100A70004A5249954A49674B5755A5D3E9AAAABC9A
:100A800045A55455A9525452A552924AAA544AE235
:100A9000ABAA4262A7A48EAA94AA4AA9A2922A95B6
:100AA000925452A55292BFAAC2612955955245A5AA
:100AB00074525249954A492AA95229C95F55E150B1
:100AC000E9A4A492AA2A25A9A44AA5249554A994E4
:100AD000F5E9743A9D4E6783D682DE82DE82BF548A
:100AE000A9AA5429AA525CB5CCD628922A95535C5F
:100AF000A5B89CEB5C47B6AC6585222993926CD96E
:100B000039C7E55CDA912D3B25C92AD7B90AA490EB
:100B10002D9D4EA752E974DE32D9D2C94AA7D3958A
:100B2000CC5B265BBA92E9542A9DACBC65B2A52B7E
:100B300055E974BA5295B74CB674A52A9D4AA52BAF
:100B40005579CB644B5755A5D3E9AAAABC45952A3C
:100B500055952AC59575B2E3722E3DDDB2738EAA06
:100B6000149792957454D2E51557D6C90E779D9275
:100B70003AAA52AA2AA58A4AAA544A5249954A59D7
:100B8000E5AA64252B59A9AA64252B97723EE5AAEC
:100B900064252B59A9AA64252B97723EE5AA6455B2
:100BA000AA9295AA4A56B27229E753AE4A56A52A86
:100BB00059A9AA64252B97723EE5AA645555252BA1
:100BC00059C9AAAACAA59C4FB92A595555C94A5606
:100BD000B2AAAA722987AC742515B992955474D912
:100BE000F46415DBB6928A2D9B0E364AA7159992AE
:100BF00095ACC8944C5B9F4EA7D3E9744E91299F46
:100C00004EA7D3E9744E91299F4EA7D3C94AE71442
:100C100099F2E9743A9DAC744E91299FAC743A9D57
:100C2000AC744E91299FAC743A9DAC744E612B9D6F
:100C30009D7DF67C76B6D9A64F67839EA64B6767E7
:100C40005B67F7AA5455AA1455292EE7D28E4B9507
:100C5000AA4A39AAB4245BD6B2429154A99CE22A8A
:100C6000C5E55CE73AB2652D2B704EF2743A9D4AA9
:100C7000A5D37989CCACE3742EEDB89C4B3BD4C999
:100C8000D3954CA752E94AE625EE94AC64CDE55CD9
:100C9000DAC1DFFB743A9D4EA79363339D8E2E9D80
:100CA0008E2E9D0E7DFB64A5D3E964A593632F9DD5
:100CB0008E2E9D0E1A07712768B3D96CE73AD7C9F3
:100CC0007C3E2C2DB3D94E7575B95BA97C5EA135E0
:100CD0009BCD762EDDC97C3EEC2ED3D94E752E955C
:100CE000EA55AF7AD5ABDE75AE739DEB643A9F4F94
:100CF000A783379597BEB255E5AAF25BAD64AB7397
:100D00009DEB54BBFA7FABE4B9546C695BB9943B7F
:100D1000D5B954AABFD5AD6E752BA54B754C9DAA00
:100D2000AE6A9DDF2A752B554A253B955318F38CE7
:100D3000555D55576C76FBF694BAD5AD3EA7ACD24F
:100D4000A99D5C75AA924A756A97EA4AADB2D96CB8
:100D5000A73A974AF57775EA5BDD4AF5AA779DEBE6
:100D6000A492D974BA539D4B75EABB52BDEA55EFB4
:100D70003AD7B94EE6F3F1E7355F55958DD339A9EA
:100D80003E75A9539FFAD4AB96CA3211565D5513DE
:100D9000DA88ECB9CEB5D65B9FE6ABAAE24BFBBCDA
:100DA000D4F9743E62CF587555CDC727CFA5F3D976
:100DB00095525355571591534495ABAA7215156129
:100DC000D55535A18DC89EEBDC77FDAB4EEEA872F4
:100DD000E52A9BEDECAA942AA59C924A2AA96EF5D5
:100DE000A9AD522A9F522B159E9CCFA77255A9726E
:100DF000973A9BCD2924EDF3B94F567695CAA5BAFB
:100E00005275DDEA94BAD5AD6E75A9CB5DEE52F799
:100E100027D7F9D4A7D4AD6E757FEAB3D9E4ECCA6D
:100E2000E757B9AA545D9752E52E77B9CB5DF272B8
:100E300097BADCE52E757FAA734A3B5FD9AA6ABBD5
:100E4000564EE652256F77B95B9D52B7BAD5A52E9F
:100E500077B94B9D533AB56A75BBCBDDEE56A73ECD
:100E6000F5AD4E7DABABFEBE94AA5536B91B6C53A7
:100E70003A9FCE061D027127D896CA39259554523D
:100E800049E7A4B2EB4895734A6ED3E9747AABA4F0
:100E90007352A12FBB54CE29A9A4924A2AE99C548B
:100EA000761D1295734A6EB7DBED76BBDD6EB74AE1
:100EB0002AA9A473CE4965B7DB753AF85149BC6ECF
:100EC0001592D3DB6D3A1DFAD34B04A1391D7E7305
:100ED000FD29E7B6DB743A9D4EA7D3DBAD924A2AD3
:100EE000A9E476BB4DA7D3DBED76ABA4924A3A27B3
:100EF000955DE7B7584EAF83EFA492CAAE23C2AF59
:100F000072520DF3AAF8D2CE4965D7D167974A2A13
:100F1000C7B955D239A9EC76BB5D87D6EC52496585
:100F2000B7EB743ABB5D2AE7949C4D49E7EC3A7401
:100F300067B7EBA0A7EC761DDAB34BE5E0BA743ADD
:100F40001DB4974EA7435F7ABB5552492595DC46A1
:100F50009B4EA743673A9D4EA7D3E9743AB4014527
:100F60001FA8E4D974BA5DA954AEDB95CE5DAA2A58
:100F70005595BB74EA9395ACD4A753A976A552E9CD
:100F8000743A9D52A5D329553AA54AA552A9DCA584
:100F9000D3A9543A9D4EA7D3C94A56B29295AC6490
:100FA000252B59C94A56B29295AC64252B9D4EA764
:100FB000D3F9BCE4F55C952DE5F2F9D9F2E9743288
:100FC0005BBB74BA76E974253BD7C9743ABDAD648E
:100FD00065A353369D8D363C79F4E7359E3CAFA72B
:100FE0009233A55AA95257B5AA6CDF3BD5BD74E719
:100FF000ACB3CE2A9D4EA7D3E9A472524977E974C7
:10100000B676FF2EBF0F5FDA877E8F28CF2B7DCB82
:10101000CA5D4A55AA72D7AE9295AC64E52E77C9DF
:101020004A56B292A554C9AA5DB94B56B29295AC34
:101030005DED2A59C94A56B29295AC64EDAABE5EDE
:10104000E52E9D4EA7D3E94A56B29295AC64252B66
:1010500059C94A56B29295AC64252B994EA7D3E94B
:1010600074B62525451FB6810E4A6F3D78220F9E26
:10107000C8DB75A083B24CF0F8F8FCFCFCFCFCFC6F
:10108000FCFEFEFEFEFEFEFEFEFFFFFFFFFFFFFF7B
:10109000FFFFFFFFFEF8000000000000000000005E
:1010A000000000000000000000000000C0E0F0F0C0
:1010B000F0F0F0F0F0F0F0E0C000000000F0F8FC1C
:1010C000FEFEFEFEFEFEFEFEFEFCF800000000003E
:1010D0000000000000000000000000000000001FF1
:1010E000FFFFFFFFFFFFFFFFFFFFFFFFFFFFFFFF10
:1010F000FFFFFFFFFFFFFFFFFFFFFFFFFFFBF8F812
:10110000F8F8F8F0F0F0F0E0C0C0C0C0C0C0C0C057
:10111000C0C0C0C0FFFFFFFFFFFFFFFFFFFFFFFFDB
:10112000FF0000000003FFFFFFFFFFFFFFFFFFFFC7
:10113000FFFFFFFEF0F8F8F8F8F8F8F8F8F8F8F024
:10114000F0F0E0C080000000017FFFFFFFFFFFFF25
:10115000FFFFFFFFFFFFFFFFFFFFFFFFFFFFFFFF9F
:10116000FFFFFFFFFFFFFFFFFFFFFFFFFFFFFFFF8F
:10117000FFFFFFFFFFFFFFFFFFFFFFFFFFFFFFFF7F
:10118000FFFFFFFFFFFFFFFFFFFCFCFEFEFFFFFF77
:10119000FFFFFFFFFFFFFFFFFFFFFFFFFFFFFFFF5F
:1011A000FFFFFFFFFFFFFFFFFFFFFFFFFFFFFC0051
:1011B000000007FFFFFFFFFFFFFFFFFFFFFFFFFF35
:1011C000FFFFFFFFFFFFFFFFFFFFFFFFFFFFFFFF2F
:1011D000FFFFFFFFFFFFFFFFFFFFFFFFFFFFFFFF1F
:1011E000FFFFFFFFFFFFFFFFFFFFFFFFFFFFFFFF0F
:1011F000FFFFFFFFFFFFFFFFFFFFFFFFFFFFFFFFFF
:10120000FFFFFFFFFFFFFFFFFFFFFFFFFFFFFFFFEE
:10121000FFFFFFFFFFFF0F00000000017FFFFFFF48
:10122000FFFFFFFFFFFFFFFFFFFFFF1F3F7FFFFFEE
:10123000FFFFFFFFFFFFFFFFFFFFFFFFFFFFFFFFBE
:10124000FFFFFFFFFFFFFFFFFFFFFFFFFFFFFFFFAE
:10125000FFFFFFFFFFFFFFFFFFFFFFFFFFFFFFFF9E
:10126000FFFFFFFFFFFFFF7F7F7F7F3F3F3F3F7F0E
:101270007F7F7F7F7F7F7F3F3F1F0F07030100003E
:10128000000000000001030307070707070303032B
:101290000301000000000000000101010101010143
:1012A0000101010101010101030707070707070702
:1012B00007070703010307070707070707070703D0
:1012C00001000103070707070707070703010000DD
:1012D000000000000000000000000000000000000E
:1012E00000000000000000683000E010108848880E
:1012F00048884888C4A4C4A4C4A4C4A4D2E2D2E246
:10130000D2E2D2E2020CF000000000000000000077
:10131000000000000000000000000000000000804D
:10132000402020202020202020C0000000000000BD
:10133000E0100804A444A4C4E40408F00000000081
:10134000000000000000000000000000000000009D
:1013500000000FF0000A55AFFFFFFFFFE303033962
:101360002929292929A99594949424242292119019
:1013700090909090A020202040808080808080806D
:1013800080008080808080FF0000AA55FEFFFF0063
:1013900000FF00000000000001FE0000AA55FFFF52
:1013A000FFFE0003FC804020101090109090909061
:1013B0002020204080000000000000003FC0002AE4
:1013C00055BFFFFFFFFF1F1F9F9F9F4F4FCF0F0F67
:1013D0004FA7D0FAFD3E0F0763534971030757FE2D
:1013E000FEFC00A854F8F4F800C3F0F874F8F4F820
:1013F000F0E00A55FFFFFF00007F2010088844A49A
:10140000D2E3703012A57FFFFFFFF8008351A8F4EC
:10141000FA3D0E0723333303875FBEFCF80106F85D
:10142000000000000003FC0001AA57FFFFFFFE8040
:10143000007F8000E01805A250E8F4FC7E3E1E8E7E
:10144000CEE6260686FFFFFFFFFF000A55FFFFFFDF
:10145000FFFF0300F81013F30303A855FFFFFFF08D
:10146000F0F8F4FAEDCE0733518804F8000255ABDA
:10147000FFFFFF00FAFDFFFF0F076767662706877C
:1014800046A7C7470310E807000000000000003F20
:10149000C000152A7F3F3F3F20008F7001060810D3
:1014A000254F4F4F9E9C9D9D9C9C4E4D8E9F9F9F78
:1014B0009F9F800005AB5FFF7F7F780007F800FFEC
:1014C00000002A557F7F7F0100F81123478E3D3AA7
:1014D00074285123400005EA272F2F2F10091317D6
:1014E0001716242E2C2E25261311080402010000A5
:1014F00000000000000000000001020202020101E1
:1015000001010000000000000000000000000000D9
:1015100000000000000000000000000102020202C2
:1015200002020202010000000102020202020202A3
:10153000010000000000010202020202020101009B
:10154000000000000000000000000000000000009B
:10155000000000000000000000110F18B7CA2AABFD
:10156000ACB2EBEC5239E554AD4A5DD85A2AA79C8F
:10157000AA55A9CB5572ABACB2CA2A3B337E6F6673
:101580007E005475726E7E00546F74616C005475E9
:10159000726E00526F6C6C001317B665D3E9743A23
:1015A0009D4EA7D3E9743A9DCEE7ADF7F090E7CB17
:1015B00057325DC97425D3954C57325DC97425D314
:1015C000958B28321B0FB665D3E9743ADDB9B6E7BF
:1015D0007297EA95D46D5DA74AE9DCA54AB95AA786
:1015E000D3E97C5EFB7C25D3954C57325DC97425CD
:1015F000D3954C57325DC97425D3954C57325DC98C
:101600006CB6731B0FB66553555D7555D55557555B
:101610005D7555D55557555D7555D55557555D75FE
:1016200055D55557555D7555D55557555D7555D596
:101630005595D73E5FC964553259954C56259355FB
:10164000C964553259954C56259355C9645532593C
:10165000954C5625B3D9CE011B0F9C3A1B6D3ADA37
:1016600074B4E968D3D1A6A3CDC7A498F2D1A6A338
:101670004D479B8E361D6D3ADA6C6C1B0FB665D3E9
:10168000E9743A9D6E7B57EAD629A97A2575E7DA7F
:10169000EACEB5D5E9743A9FD73E5FC97425D39594
:1016A0004C57325DC97425D3954C57325DC97425AA
:1016B000D3954C57329BED1C1117DCCCE968D3D184
:1016C000A643D1FF30D08FA274B4E968D361091169
:1016D00017B731557555AEAAAB72555D95ABEAAAF1
:1016E0005C5557E5AABA2A57D555959EB6AAAEAA13
:1016F000ABEAAABAAAAEAAABEAAABAAAAEAAABEA5F
:10170000AABAAAAE2AC27568CF6E01111754CF17B4
:101710006D3ADA74B431F77F50D0C71C6D3ADA7481
:10172000B4B1031117943C9B4DA7D3E9743A9D4E75
:10173000A7D3F97C9ECB87764F984FA7D3E9743A0D
:101740009D4EA7D3D968011117943C5B369D4EA7D7
:10175000D3E9743A9D4E672B799ECBFBD0EC3D616B
:101760003E9D4EA7D3E9743A9D4E67A30500000045
:101770001414142A2A001428001428001E110FA87B
:10178000AADA76B9EAAB4A55A9EA5AAABAAE5255CC
:10179000A5AAEF925655455D5DBBD53B77BBBBEE29
:1017A0005C253B757F2BA75657EB8A11110F88AA32
:1017B0007295AB6C7F2F55A9FBFF4FFD7FAE2F9726
:1017C000AA5C5545DE4A95D29F5B9552AAFFD5B7D4
:1017D0003AF5ADEC44D5553102110FB8B2A52E57EC
:1017E00039554AE5AAE476A74AB9722AD552E5C224
:1017F000D0F5A73E59D96AD5AB5EB5AB55AD4A39E0
:1018000055ABDBD59611110F986DE972577D5D5779
:101810007D5D973B6F658537E9739DAA5A757AD5CB
:10182000A9D4B6655D158600110FD8B295AA4A9560
:10183000B2CB6A9BB2565676554A55252B1BD252CF
:10184000AA6DEA7397FA744AB50D55110F283BD566
:10185000EA7CAFAABA73AD5425AB3AF5F952A7A208
:101860008B3C55EECA3A75D5AA77B5DD2AA72A5919
:10187000CE461619110F282B994A2AE79454BDEA2F
:101880009C734EAE93A95485ACEA553BA74AB95216
:101890004E5E4EC94BAE3AB7EAAE9801110FD094E6
:1018A000ABE57ABB5D2E6B1DFE944C2B79B9CB6DED
:1018B0002F773925D30A49110F18B7CA2AABACB212
:1018C000EBEC5239E554AD4A5DD85A2AA79CAA558B
:1018D000A9CB5572ABACB2CA2A3B3303081F051F14
:1018E0001F151B1F11111F110E1F15111F05011FA1
:1018F000111D1F041F001F0010101F1F041B1F10AD
:10190000101F061F1F011F1F111F1F05071F311F5B
:101910001F051B17151D011F011F101F0F100F1F83
:101920000C1F1B041B071C071915130C121E1F127A
:101930000C1E12120C121F0C1A14041F052E2A1E44
:101940001F021C001D00201D001F041A011F001E85
:10195000041E1E021E1E121E3E120C0C123E1E0201
:101960000614120A020F121E101E0E100E1E081E62
:101970001A041A2E281E1A12161F111F121F101DCC
:10198000151711151F07041F17151D1F151D010120
:101990001F1F151F17151F00170000100004040457
:1019A000040E040229060A000004083E09093E3F0D
:1019B00025251A1E2121123F21211E3F2525213FC9
:1019C0000505011E21293A3F04043F213F21001053
:1019D00021211F3F040A313F2020203F02023F3FC8
:1019E00002043F1E21211E3F0909061E21112E3F20
:1019F00009093622252519013F01011F20201F0F4B
:101A000010201F3F10103F3B04043B0304380731F4
:101A10002D2321102A2A3C3F2424181C222214188A
:101A200024243F1C2A2A2C043E05014C52523E3FDE
:101A3000040438243D20004040443D3F0814222146
:101A40003F20003E04043E3E04023C1C22221C7E39
:101A500022221C1C22227E3E040204242A2A120274
:101A60001F22201E20201E0E10201E3E10103E366B
:101A70000808364E50503E322A26221E29251E22A4
:101A80003F2000322929261221251A0C0A3F081767
:101A90002525191E252518013905031A25251A069D
:101AA00029291E002F000000200000022905020045
:101AB000040400E0E0E0E0E0E0E0E0E0C0C0C0C03E
:101AC000C0C0808080000000000000000000000016
:101AD0000000000000000000000000000000000006
:101AE00000000000000000000000000000000000F6
:101AF000000000008080C0C0E0E0F0F0F8F8FCFCDE
:101B0000FEFEFFFFFFFFFFFEFCF8F0E0800000801C
:101B1000C0E0E0FFFFFFFFFFFFFFFFFFFFFFFFFF52
:101B2000FFFFFFFFFFFFFEF8F0C0C0E0E0F0F0F8BD
:101B3000F8FCFCFEFEFEFEFEFCF8F0E0C00000003B
:101B40000080C0C0C0C0C0C0C0C0C0C0C080808055
:101B500080C0FCFFFFFFFFFFFFFFFFFFFFFFFFFF56
:101B6000FFFFFFFFFFFFFFFFFFFFFFFFFFFFFFFF85
:101B7000FFFFFFFFFFFFFFFFFFFFFFFFFFFFFFFF75
:101B8000FFFFFFFFFFFFFFFFFFFFFFFFFFFFFFFF65
:101B9000FFFFFFFFFFFFFFFFFFFFFFFFFFFFFEFE57
:101BA000FFFFFFFFFFFFFFFFFFFFFFFFFFFFFFFF45
:101BB000FFFFFFFFFFFFFFFFFFFFFFFFFFFFFFFF35
:101BC000FFFFFFFFFFFFFFFFFFFFFFFFFFFFFFFF25
:101BD000FFFFFF3F3F3F3F3F3F3F3F3F3F3F3F3FD5
:101BE0003F3F3F3F3F3F3F3F3F3F3F3F3F3F3F3F05
:101BF0003F3F3F3F3F3F3F3F3F3F3F3F3F3F3F3FF5
:101C00003F3F3F3F3F3F3F3F3F3F3F3F3F3F3F3FE4
:101C10003F3F3F3F3F3F3F3F3F3F3F3F3F3F3F3FD4
:101C20003F3F3F3F3F3F3F3F3F3F3F3F3F3F3F3FC4
:101C30003F3F3F60204040404040404040808080E7
:101C40008080800000000000000000000000000014
:101C50000000000000000000000000000000000084
:101C60000000000000000000000000000000000074
:101C700000000000000000000080804040A0A09014
:101C8000D0C8E8E4F4F21A02C468D020C000000012
:101C90000000008040F0C30F3FFEFEFEFEFEFE3E51
:101CA0003E3C7CFDFDFDF2CC106080008080404019
:101CB00020A090D0C8E8E4340488D0A04080000080
:101CC0000000000000808080808080808080000094
:101CD00000000000807886F9FDFEFEFF9F8FCFFF99
:101CE000FFFFFFFFFF0700F0FFFCF8FFE2C56A14EB
:101CF000C8E6910C88FFFFFFFCF0430F3F3F3F3FDA
:101D00003E3E3E3F7F7F7F7F7F7E79670A760F9FD3
:101D10007FFFFFFFFFFF0F00E0FFF1F3FE8D9AF45E
:101D20002810CC321930C0061E7EFCFCFCFCFDFDE8
:101D30007D7D79F9FBFAFBE69D2AD52B979F9FCFF6
:101D4000CFCFE7E7C1801E3070FF8F0731F8FEFF6D
:101D5000FF9F0F0F9F3F1F0F2331381E1713313185
:101D60003B3F3F3E3E3E26220226142A142A353EA1
:101D70001F1F1F0F0F03003C23313F1F0F23313C58
:101D80003E3F3F1E1C3E3F3F3E3821071F3F3F3F27
:101D90003E3C3C3C3F3F3F3F3F3E3C310A152F3FDE
:101DA0002F0F0F0F1F3F3F3E3C3831230608030F14
:101DB0003F1F1F3F3F546F74616C001317B665D30C
:101DC000E9743A9D4EA7D3E9743A9DCEE7ADF7F09A
:101DD00090E7CBA7D3E9743A9D4EA7D3E9743A9D17
:101DE0008D167220008040209010881020C0E010D6
:101DF00008E4E4F2F28408707C0285F9FDF9F2044B
:101E0000089048C8C81020C08000000080404040B2
:101E10008080000080402020204080808040404022
:101E20008000000000000080808080000000000032
:101E3000000080800000808080000000000000C062
:101E4000201048A464E40810E000008080800000B6
:101E5000000000000000070830458A172F5FFCC013
:101E60008000FFFFFFFF0F3FFEF8C0C01FFFFF7F96
:101E700001000850F1F2E1048254FCF13219CC0E59
:101E800016AE5CFC310100AAD5FF7F0C8CCC0C1C7B
:101E9000FAD4E8010642A9D12914183C78F9F9F2DC
:101EA000E40402A954FCF17934383499422418002E
:101EB00080780502A8FC1D08A2D3E9F13934383432
:101EC000391902645880000000000000010618E182
:101ED0000215AFF8FFFFFF0F00F01823479F3F1FC9
:101EE0002A950000AA55FFFF01000055FFFF7E0064
:101EF000817F40803D7F0020952A3F9F40207F804A
:101F0000007F7FFF7F2080152F7EE6E6E3E3E3F18D
:101F1000793D1C0054AAFD7F01807E010100000074
:101F20000000FF000055AA7F7C000303A363A7679E
:101F3000A767A77FBF1E0EC0310E00000000000083
:101F4000000003040404090404020100000000006E
:101F50000101010102040809040402010102040450
:101F60000201000000000102020100010100000066
:101F7000000001020204020100010204040404043E
:101F80000404020101010204040201000000000037
:101F90000000000000010204040202010102040426
:101FA000040908040404040201000000D5F08D14A3
:101FB000A1C881CFD9F1AF200020079D733A1DD968
:101FC000B273979C4DB9ED5A7139D739272773CE23
:101FD000713999DD3A32E59CEB5CCD050D0F929D90
:101FE000AB64E72AD9B94A76AE929DAB64E72A5929
:101FF0008CD145175D74D1450A4D079DAB9DB2B19B
:10200000395749272B2EE76AD791652F5793652FAC
:1020100057E3CAB9DA291B9B734EA723536EBB56ED
:102020005C6B25959B7ED9B94B4EE66476EB70943C
:1020300076CEB9BC72DBB5E272AE76CAC6E65CEDAE
:102040003A070D0FD5E594BC9C929753F2724A5E05
:102050004EC9CB2979E595545249259554524925C5
:10206000955452492515192307524E2AA9A453B84D
:10207000954ED9D099554E9265959354683000E0AD
:10208000101088488848884888C4A4C4A4C4A4C43C
:10209000A4D2E2D2E2D2E2D2E2020CF000000000CE
:1020A0000000000000000000000000000000000030
:1020B0000000000080402020202020202020C000A0
:1020C0000000000000E0100804A444A4C4E40408D4
:1020D000F000000000000000000000000000000010
:1020E000000000000000000FF0000A55AFFFFFFFE6
:1020F000FFE30303392929292929A99594949424D4
:10210000242292119090909090A0202020408080D6
:10211000808080808080008080808080FF0000AA96
:1021200055FEFFFF0000FF00000000000001FE0060
:1021300000AA55FFFFFFFE0003FC80402010109016
:10214000109090909020202040800000000000001F
:10215000003FC0002A55BFFFFFFFFF1F1F9F9F9F2B
:102160004F4FCF0F0F4FA7D0FAFD3E0F07635349D4
:1021700071030757FEFEFC00A854F8F4F800C3F002
:10218000F874F8F4F8F0E00A55FFFFFF00007F2034
:1021900010088844A4D2E3703012A57FFFFFFFF837
:1021A000008351A8F4FA3D0E0723333303875FBE43
:1021B000FCF80106F8000000000003FC0001AA572B
:1021C000FFFFFFFE80007F8000E01805A250E8F4CA
:1021D000FC7E3E1E8ECEE6260686FFFFFFFFFF003A
:1021E0000A55FFFFFFFFFF0300F81013F30303A8D6
:1021F00055FFFFFFF0F0F8F4FAEDCE0733518804F5
:10220000F8000255ABFFFFFF00FAFDFFFF0F076765
:10221000676627068746A7C7470310E80700000040
:10222000000000003FC000152A7F3F3F3F20008F85
:102230007001060810254F4F4F9E9C9D9D9C9C4E03
:102240004D8E9F9F9F9F9F800005AB5FFF7F7F7894
:102250000007F800FF00002A557F7F7F0100F8117A
:1022600023478E3D3A74285123400005EA272F2F3B
:102270002F100913171716242E2C2E25261311089C
:102280000402010000000000000000000000010244
:102290000202020101010100000000000000000034
:1022A000000000000000000000000000000000002E
:1022B0000102020202020202020100000001020207
:1022C00002020202020100000000000102020202FA
:1022D00002020101000000000000000000000000F8
:1022E00000000000000000000000000000000102EB
:1022F000040810204080110FA8AADA76B9EAAB4A88
:1023000055A9EA5AAABAAE5255A5AAEF9256554512
:102310005D5DBBD53B77BBBBEE5C253B757F2BA7DB
:102320005657EB8A11110F88AA7295AB6C7F2F5507
:10233000A9FBFF4FFD7FAE2F97AA5C5545DE4A955E
:10234000D29F5B9552AAFFD5B73AF5ADEC44D5556F
:102350003102110FB8B2A52E5739554AE5AAE476D5
:10236000A74AB9722AD552E5C2D0F5A73E59D96A13
:10237000D5AB5EB5AB55AD4A3955ABDBD596111132
:102380000F986DE972577D5D577D5D973B6F658551
:1023900037E9739DAA5A757AD5A9D4B6655D1586B5
:1023A00000110FD8B295AA4A95B2CB6A9BB2565685
:1023B00076554A55252B1BD252AA6DEA7397FA74AB
:1023C0004AB50D55110F283BD5EA7CAFAABA73ADBB
:1023D0005425AB3AF5F952A7A28B3C55EECA3A7593
:1023E000D5AA77B5DD2AA72A59CE461619110F2886
:1023F0002B994A2AE79454BDEA9C734EAE93A95494
:1024000085ACEA553BA74AB9524E5E4EC94BAE3A2F
:10241000B7EAAE9801110FD094ABE57ABB5D2E6B95
:102420001DFE944C2B79B9CB6D2F773925D30A49F2
:10243000110F18B7CA2AABACB2EBEC5239E554AD68
:102440004A5DD85A2AA79CAA55A9CB5572ABACB203
:10245000CA2A3B330907D3DB4A76AE9297AB6C3678
:102460003A0907547659B94E56AE9695CDC705131D
:1024700017B665D3E9743A9D4EA7D3E9743A9DCE59
:10248000E7ADF7F090E7CBA7D3E9743A9D4EA7D319
:10249000E9743A9D8D1649636F6E7E7E4E616D655F
:1024A00000506C617965727E004E756D6265727E5A
:1024B0006F667E706C61796572737E3F2000080BD9
:1024C00000020202010009040000010202000005EE
:1024D000240010010524010101042402060524063C
:1024E00000010705810310004009040100020A00F1
:1024F00000000705020240000007058302400000BB
:102500000403090412010002EF0201404123368056
:1025100000010102030141726475696E6F204C4C29
:10252000430041726475696E6F204C656F6E617215
:10253000646F00002334113111241FBECFEFDAE0A5
:10254000DEBFCDBF12E0A0E0B1E0E8E9FEE602C0E8
:1025500005900D92AC36B107D9F728E0ACE6B2E0B1
:1025600001C01D92AC30B207E1F712E1CBE9D2E134
:1025700004C02197FE010E940036CA39D107C9F76D
:102580000E9415310C943F370C940000FC01178A0F
:10259000DB01AA5BBF4F8C91808F10A208955F92E0
:1025A0006F927F928F929F92AF92BF92CF92DF9263
:1025B000EF92FF920F931F93CF93DF93EC016B0188
:1025C000DB0116968D919C91179764E170E00E9453
:1025D000EC35552453948B3008F4512C8F899AEFA5
:1025E000980F923008F441C24601B3E08B0E911C63
:1025F00020E040E46CE3C4010E949E3000E010E063
:1026000021E0A8016EE370E0C4010E948C220E5FFD
:102610001F4F02341105A1F72EE340E46CE3C4011F
:102620000E949E303E01EAE16E0E711CA12CB12C7D
:102630008A2DF501EB58F84E0491F501E359F84E57
:10264000E491EE2EF12C10E0863009F475C087304D
:1026500009F47AC0D3019C91992309F459C0FE0171
:10266000EA0DFB1D90AD992391F021E047E457E17D
:10267000B701C8010E945321D301EC91F0E0EE0FA5
:10268000FF1FE45BFE4F4081518120E017C09F890E
:10269000913019F4E9A1E430B9F421E043E257E1C3
:1026A000B701C8010E945321D301EC91F0E0EE0F75
:1026B000FF1FE45BFE4F4081518121E0B7016C5F59
:1026C0007F4FC801049613C0F0E0A0FC03C080E077
:1026D00090E002C084E090E0E80FF91FEE0FFF1FCA
:1026E000E25CFE4F4081518121E0B701C8010E94A8
:1026F0005321898D082E000C990BA816B90609F0F4
:102700004AC0552009F447C020E04BE057E13FC0E4
:1027100021E04FEC56E1B701C8010E945321898D99
:10272000082E000C990BA816B906A9F5552099F1A9
:1027300021E048EB56E12BC08BA19CA121E0892B25
:1027400021F14BE756E10FC02BA13CA1211531052A
:10275000D9F08DA19EA1820F931F8C329140A0F0E1
:1027600021E044EC55E1B701C8010E945321898D55
:10277000082E000C990BA816B90669F4552059F0DB
:1027800020E048E556E103C021E043E056E1B7010F
:10279000C8010E945321EFEFAE1ABE0AFFEF6F1A75
:1027A0007F0A28E0A216B10409F042CF21E048E9EF
:1027B00055E160E070E083E490E00E945321888D51
:1027C000F60192E08902E00DF11D112406ACF7AD8F
:1027D000E02DE081F0E0EE0FFF1FE45DFE4F408151
:1027E000518121E061E070E084E490E00E94532197
:1027F00089E5898B888B8FEF8A8B288DEE24E39473
:10280000F12CC601820F911D820F911D8C01025C7B
:102810001F4F5E01ACE0AA0EB11CD801ED91FC91F6
:10282000EE0DFF1D6081C5010E949B2DBFEFEB1ACD
:10283000FB0AE9E0EE16F10481F728E040E869E5DB
:10284000C4010E949E3019E51E831F838AE0888799
:102850007E01F2E0EF0EF11C63E975E1C7010E9411
:10286000A22D4BA15CA10AE021E7B601CE010E9496
:10287000CB1B1E831F8381E188876EE875E1C7014A
:102880000E94A22D4DA15EA101E121E7B601CE017A
:102890000E94CB1B8F89833011F45520E1F089E52C
:1028A0008E838F8388E1888768E875E1C7010E947D
:1028B000A22D888DF60122E08202E00DF11D112487
:1028C00006ACF7ADE02D4285538508E121E7B6015E
:1028D000CE010E94CB1B88E08E838F8389E388879B
:1028E00062E875E1C7010E94A22D48A150E060E0B6
:1028F00070E02AE0C7010E94DB2D6DE775E1C7019A
:102900000E94A22D2AE04AE050E060E070E0C7019A
:102910000E94DB2D56018EE3A80EB11CE12CF12C98
:1029200033E4732E460196E4890E911C888D082E9F
:10293000000C990BE816F90691F1072D10E021E043
:1029400048E955E164E270E0C8010E945321D401D6
:102950002C91C8010196E21668F4D501ED91FC9125
:10296000E081F0E0EE0FFF1FE45DFE4F40815181FA
:1029700021E003C021E049E555E165E270E00E94F5
:10298000532122E0270DD501ED91FC91428553851D
:1029900009E3B601CE010E94CB1BB5E17B0EEFEF40
:1029A000EE1AFE0AF2E0AF0EB11C24E0E216F104CA
:1029B00009F0BCCF8F898530C1F489A18E30A9F48C
:1029C000EE24E39407E710E120E047EE52E168E0EF
:1029D00070E08CE090E00E94182F511002C080E05F
:1029E00001C080E280938A000BC083E884BD8FEF32
:1029F00087BD81EF809380001092880010928A003A
:102A00008F89843009F08EC0C88DCF5FF601EA5BF4
:102A1000FF4F8081C81708F0C0E020E044E650E195
:102A200060E170E08EE190E00E94532121E04FE5EB
:102A30005FE060E170E08EE190E00E945321F601DA
:102A4000EC0FF11DEC0FF11D06ACF7ADE02DE081B0
:102A5000F0E0EE0FFF1FE45DFE4F4081518121E069
:102A600068E170E08AE490E04CC08630A9F58E0100
:102A70000D5C1F4FE896D801ED918D01F0E0EE0F4F
:102A8000FF1FEA5EFE4F40815181FD013697608154
:102A900070E03597808121E090E00E9453210C176F
:102AA0001D0749F720E046E75EE06FE070E087E051
:102AB00090E00E94532121E046EB5CE06FE070E083
:102AC00087E090E00E945321511002C080E001C0D5
:102AD00080E2809587BD26C06AA170E071956195FE
:102AE000710947EE52E18CE090E00E947C308AA1AF
:102AF00062E370E0681B710921E047EE57E086E071
:102B000090E0DF91CF911F910F91FF90EF90DF90B8
:102B1000CF90BF90AF909F908F907F906F905F907D
:102B20000C945321DF91CF911F910F91FF90EF9063
:102B3000DF90CF90BF90AF909F908F907F906F90DD
:102B40005F900895EF92FF921F93CF93DF93EC0174
:102B5000DB0118969C91189719961C9110951923D2
:102B6000EF894E2F50E04830510508F0F9C17B0144
:102B7000FA01EA5AFF4F0C940036888D8F5F888FD8
:102B80001CA21BA21EA21DA218A61FA219A291E0A0
:102B90009F8B082E000C990BFB01EA5BFF4F2081F5
:102BA00030E08217930724F0188E88A18F5F88A3E6
:102BB000FE01F896CE01CE9621E0DF015E972C93C0
:102BC0001192E817F907C9F729A1243060F5F70138
:102BD0008681978163E070E00E94EC35892B09F0D3
:102BE000BFC12F5F29A3243009F0BAC17E01FAE1E9
:102BF000EF0EF11CA096F7018081882369F066E052
:102C000070E080E090E00E94DC1DDC01CB010196C9
:102C1000A11DB11DF7018083FFEFEF1AFF0AEC162B
:102C2000FD0649F79DC161E0CE010E94522898A798
:102C30008FA3892B71F0FE017A9680E09191992300
:102C400011F0982F03C08F5F8630C1F7998F82E013
:102C50006EC1888DF70122E08202E00DF11D112482
:102C600006ACF7ADE02D82859385845F9140938714
:102C7000828785E08F8B19A273C115FF10C0898DE3
:102C800081306CF087301CF0873019F008C081501B
:102C900005C08BA19CA1892B11F086E0898F16FFBE
:102CA0001CC0898D853041F024F487FD16C08F5FEC
:102CB00013C0863039F011C08BA19CA1892B69F01B
:102CC00086E00AC02BA13CA18DA19EA1820F931F7B
:102CD0008C32914010F087E0898F14FF31C0898DCC
:102CE000833059F02CF487FD2BC08D5F898F28C06D
:102CF000843061F08530C1F023C02BA13CA1232B8F
:102D000059F186E0898F17FF2FC02AC02BA13CA163
:102D1000232BB9F72DA13EA12C323140E8F087E0FA
:102D2000898F17FF21C01EC04BA15CA12DA13EA120
:102D3000240F351F2C32314090F7452B11F70CC072
:102D400017FF12C0898D863059F01CF4833034F49B
:102D50000BC0873039F008C017FF06C0835003C08E
:102D600083E001C085E0898F13FF77C0898D8630AD
:102D7000A1F11CF487FF1EC070C0873009F06DC040
:102D8000888DF70122E08202E00DF11D112406ACCE
:102D9000F7ADE02D2BA13CA18DA19EA1820F931F29
:102DA00022853385820F931F9387828783E08F8BE1
:102DB00019A253C0FE01E80FF11D87FDFA95828D1F
:102DC000882321F090AD81E0892780AF60E0CE01BB
:102DD0000E9452289CA38BA340C0FE01F896CE010E
:102DE000CE962191222319F0DF015F971C92E817FC
:102DF000F907B9F7FE017A96CE018096219121114B
:102E0000ABC0E817F907D1F786E08F8B19A260E80D
:102E100070E080E090E00E94DC1D69A760E470E053
:102E200080E090E00E94DC1D6EA71BAAFE01F496D4
:102E300082E098ECDF011A979C9315961C9281937F
:102E40008E5F8A30B9F72DA13EA18BA19CA1820F84
:102E5000931F9EA38DA31CA21BA212FF81C087E01B
:102E600066C0112311F088E289A389A1883218F481
:102E70008F5F89A375C01EA21DA21CA21BA2F70111
:102E8000EA5BFF4F4081288D022E000C330B842F0C
:102E900090E001972817390749F488A18A3031F466
:102EA000F701E75BFF4F84E080835AC0423020F097
:102EB00084E03DC013FF54C01F8A52C089A18E30E8
:102EC00010F48F5F89A313FDDACF4AC0CE01C896F4
:102ED0007C0111111FC0E39688818F5F8B3010F445
:102EE000888313C0188260E870E080E090E00E9460
:102EF000DC1DFE013A97608360E470E080E090E0C2
:102F00000E94DC1DFE01359760832196CE15DF05FA
:102F100019F726C0FC01CE01CE9621E0DF015E97B5
:102F20002C931192E817F907C9F719A281E08F8B4A
:102F300017C012FF02C082E08F8B97FF05C08AA1E5
:102F4000882311F081508AA394FF0AC08AA1883790
:102F500038F48F5F8AA304C019A281E08F8B73CFEE
:102F6000DF91CF911F91FF90EF900895EF92FF9224
:102F70000F931F93CF93DF93EC017B01FB018681BD
:102F8000978168E370E00E94EC3511E08D3108F420
:102F900010E043E756E060E070E08BE190E00E94D3
:102FA0007C306F89062E000C770B45E155E08CEFE5
:102FB0009FEF0E947C308F89082E000C990BBC017A
:102FC000605A7F4F45E155E08CEF9FEF0E947C30C7
:102FD000688D062E000C770B47EB53E087E690E0F8
:102FE0000E947C30888D082E000C990BBC01605A21
:102FF0007F4F47EB53E087E690E00E947C30111151
:1030000007C0898D811104C0898D8130B9F42CC02D
:1030100085E28E838F838AE28887BE01645E7F4F5C
:10302000CE0102960E94C62D4AAD5BAD0AE22BE4AA
:10303000B701CE010E94CB1B112331F385E28E83B1
:103040008F8381E38887BE016A5D7F4FCE01029640
:103050000E94C62D4CAD5DAD01E32BE4B701CE015E
:103060000E94CB1B111103C0898D8230A1F085E233
:103070008E838F8388E38887BE01605D7F4FCE019A
:1030800002960E94C62D4EAD5FAD08E32BE4B7015A
:10309000CE010E94CB1BDF91CF911F910F91FF902A
:1030A000EF900895FC01DB0119969C91199790957A
:1030B00018968C919823808D8F5F813310F4808FC8
:1030C00001C0108E818D8F5F813310F4818F01C01C
:1030D000118E828D8F5F813310F4828F01C0128E2A
:1030E00093FF10C083E884BD8FEF87BD81EF80938D
:1030F00080001092880010928A00FB01E75BFF4F6E
:1031000085E0808308950F931F93CF93DF93EC01A5
:10311000FB01EA5BFF4F8081DB01A05CBF4F21E038
:1031200090E02817A8F40D911D91FB01E90FF11D06
:10313000E90FF11D46AD57ADF80102851385FA017F
:1031400042855385401751070CF4922F2F5FE9CF2A
:103150009F8BDF91CF911F910F910895089580E08B
:1031600090E0089508950895FF920F931F93CF93D1
:10317000DF93EC018B01FB012085F184F094F222B6
:103180008681978163E070E00E94EC35892B61F4C1
:103190008F898F5F09F480EA8F8B888D8150803A08
:1031A00011F0888F01C0188E8A8D883A18F48F5FCD
:1031B0008A8F02C08FEF898F8B8D27FF4DC024FF30
:1031C0004BC08F5F8B8F853108F454C08D3388F1ED
:1031D0008D3309F04FC01B8E83E884BD8FEF87BD10
:1031E00081EF809380001092880010928A0081E025
:1031F0000E9406246FE8CE014C960E942A2369E9BA
:10320000CE0186960E942A2363EACE01C0960E94D0
:103210002A238DEA0E9416239BAF8AAF8FEA0E9471
:1032200016239DAF8CAF81EB0E9416239FAF8EAF0C
:1032300021C020E430E0A901481B5109CA01880FD0
:1032400093E894BD9FEF97BD91EF9093800010920B
:10325000880080938A000EC0882361F083E884BDD3
:103260008FEF87BD81EF80938000109288001092CD
:103270008A001B8EF3FE05C0F801E75BFF4F81E07B
:103280008083DF91CF911F910F91FF9008952F922E
:103290003F924F925F926F927F928F929F92AF92E6
:1032A000BF92CF92DF92EF92FF920F931F93CF9333
:1032B000DF9300D000D01F92CDB7DEB78C0183E83A
:1032C00084BD8FEF87BD81EF8093800010928800CE
:1032D00010928A0080EAD80157968C935797589697
:1032E0001C9258975A961C92FB01EA5BFF4FF080A4
:1032F000369781E090E0292F30E08F15E0F441917E
:103300005191D9015896AA0FBB1FA60FB71F1E9641
:103310002D913C911F97DA011A964D915C911B9764
:10332000D9011A962D913C911B97241735070CF45F
:10333000982F8F5FE0CF285E3F4F220F331FFB0196
:10334000E20FF31FE684F784F701828593859C835F
:103350008B83212C822D880F83550E9416232B816D
:103360003C818217930754F42D8249E9C42ED12C55
:103370005FEAA52EB12C62E0362E2CC02394F3E038
:103380002F12E8CF8FEF8D8355C0C2010E946735A1
:10339000682FC401840D951D0E94F623AFEF4A1AD1
:1033A0005A0A4614570489F71A821982BE016F5FC0
:1033B0007F4FC5010E948A30BE016F5F7F4FC501FC
:1033C00002960E94CF233A94B2E0AB1AB108EAE029
:1033D000CE1AD108231448F43601FAE06F0E711C9E
:1033E00026013AE0832E912CD0CF57018FEFA81AF7
:1033F000B80AAAE02A9E60011124BFE8CB0ED11CB6
:10340000E9E0EE0EF11CD5016D915D01C6010E944F
:10341000F623BFEFCB1ADB0AAE14BF04A1F7822D4F
:1034200090E0880F991FBE016D5F7F4F83559F4FBE
:103430000E94CF238D81F801818F6FE8C8014C96DF
:103440000E942A2369E9C80186960E942A2363EA1A
:10345000C801C0960E942A238DEA0E941623D80133
:10346000DB969C938E93DA978FEA0E941623F801DD
:1034700095AF84AF81EB0E941623D801DF969C9311
:103480008E93DE970F900F900F900F900F90DF911B
:10349000CF911F910F91FF90EF90DF90CF90BF9051
:1034A000AF909F908F907F906F905F904F903F90E4
:1034B0002F900895EF920F931F93CF93DF93FC010A
:1034C0006A3039F48581848396818185890F86836A
:1034D0004FC084816E3719F48E5F848349C0262FD4
:1034E000EF0166816F5F2A3374F42033F4F42B32DA
:1034F000F1F01CF42132F9F030C02D32A1F12E325E
:1035000061F52FE319C02B3544F4213464F42A33D8
:1035100081F02F3311F522E40FC09FE9920F9A3109
:10352000E0F4275409C0215407C02C5F05C021E4F2
:1035300003C023E401C02EE33F81062E000C770B6D
:10354000082E000C990B313081F44AEFE42E00E094
:1035500010E04BED58E10E94182F88858D5F9C810B
:10356000890F8C8305C020E4E7CF3BEFE32EEFCF3C
:1035700081E090E0DF91CF911F910F91EF9008953E
:10358000CF92DF92EF920F931F93CF93DF93FC01C3
:103590006A3039F48581848396818185890F868399
:1035A000A1C0A4816E3719F4AD5FA4839BC0962F90
:1035B000EF0166816F5F9A3354F49033DCF49D32EF
:1035C000E1F09E3299F0913209F053C018C09B355A
:1035D00034F491346CF49F3309F451C04AC08FE93C
:1035E000890F8A3108F045C019EB05C01FE308C0F8
:1035F0001FEB01C014E0190F03C011E401C01EE36A
:103600008F81062E000C770B0A2E000CBB0B81302D
:1036100009F03AC0E9EAF9E10491EAEAF9E1E49053
:10362000112379F1E02FF0E02E2D26952695269591
:10363000422F50E021E030E08E2D877011F420E021
:1036400030E0240F351FE29F6001E39FD00CF29F12
:10365000D00C112496011203A001139F500D1124C8
:103660004555564E9AEFC92E20E030E0CD010E941C
:10367000491F88858C5F9C81890F8C8333C010E43F
:10368000BFCF4BEA59E1EECFE9EAF9E10491EAEA6A
:10369000F9E1E490112309F1E02FF0E02E2D2695B9
:1036A00026952695422F50E021E030E08E2D877040
:1036B00011F420E030E0240F351FE29F6001E39F0A
:1036C000D00CF29FD00C112496011203A001139F7D
:1036D000500D11244555564E02C04BEA59E18BEF6F
:1036E000C82EC2CF81E090E0DF91CF911F910F9162
:1036F000EF90DF90CF9008950C949B360C949B36FE
:103700000C949B360C949B360C949B360C949B36F5
:103710000C949B36CF92DF92EF920F931F93CF932F
:10372000DF93EC01FB01868180FD05C08E898F5FF0
:1037300009F480EA8E8BC42ED12C8E89EE24E3947A
:1037400003EB1AE120E043E35CE1B601082E000C34
:10375000990B0E94182F8E89082E000C990B20E0DF
:1037600043E35CE1B601805A9F4F0E94182F8E8977
:10377000082E000C990B20E043E35CE1B601805475
:103780009F4F0E94182FDF91CF911F910F91EF90C3
:10379000DF90CF9008952F923F924F925F926F9259
:1037A0007F928F929F92AF92BF92CF92DF92EF92D1
:1037B000FF920F931F93CF93DF93CDB7DEB7279779
:1037C0000FB6F894DEBF0FBECDBF7C016A01322F69
:1037D000502E50E1452E420E8E010F5F1F4FD7FE37
:1037E00010C0652D70E06D5F7F4F6034710574F41B
:1037F000822F90E042E003972F830E94E32E3F81C7
:1038000005C021E1C21627E2D2069CF43E0185E004
:10381000680E711CAA24BB24AC18BD084AE0842E93
:10382000912CE4E0E00FEE831701F2E02F0E311C43
:103830004FC034505E0126E0A20EB11C85E0382E48
:103840009AE0692E712C25E0222E200E470182E09D
:10385000880E911CF801232D11922A95E9F7C601D3
:10386000F801B3010E94EC358193CB012E12F9CF00
:10387000F701368337835086F50142915F0150E0AE
:1038800060E070E02AE0C4013F830E94DB2D3F81AD
:103890003C5F3411DFCF25C0F801B4010E94EC3544
:1038A0008193CB012E812E13F8CFF7013683378316
:1038B0005086F30142913F0150E060E070E02AE061
:1038C000C1013F830E94DB2D3F813C5F341549F0ED
:1038D00019821A821B821C82C601D7FEDDCFC50168
:1038E000DBCF27960FB6F894DEBF0FBECDBFDF91BA
:1038F000CF911F910F91FF90EF90DF90CF90BF90ED
:10390000AF909F908F907F906F905F904F903F907F
:103910002F9008958F929F92AF92BF92CF92DF9295
:10392000EF92FF920F931F93CF93DF93EC017B01F4
:103930008B010D5F1F4F42EE5DE160E070E088E0BB
:1039400090E00E947C3021E04BEB5DE16DE170E0A6
:1039500080E290E00E9453218F89F701E80FF11D6A
:10396000E80FF11D06ACF7ADE02DE081F0E0EE0FC1
:10397000FF1FEE57FE4F4081518121E06EE170E064
:1039800081E290E00E9453214FE2B701CE010E94F4
:103990008A1B86E3898B888B8EE18A8B2F89AA24E8
:1039A000A394B12CC701820F911D820F911D6C0150
:1039B0002EE3C20ED11C4E018CE0880E911CD60164
:1039C000ED91FC91EA0DFB1D6081C4010E949B2DCD
:1039D000BFEFAB1ABB0A29E0A216B10481F726E2B9
:1039E0004CE566E3C8010E949E3086E38E838F8398
:1039F00087E2888765EB7DE1CE0102960E94A22DC9
:103A00008F89F701E80FF11DE80FF11D06ACF7AD46
:103A1000E02D4285538507E22EE4B701CE010E94D6
:103A2000CB1B8A8D90E0809797FF03C0919581957D
:103A30009109282F898D90E0809797FF03C0919579
:103A400081959109488D50E04052510957FF03C0BC
:103A500051954195510993E894BD809587BD81EFBB
:103A6000809380002093880040938A00DF91CF915B
:103A70001F910F91FF90EF90DF90CF90BF90AF908C
:103A80009F908F9008951F920F920FB60F9211245E
:103A9000CF92DF92EF92FF920F931F932F933F935A
:103AA0004F935F936F937F938F939F93AF93BF9346
:103AB00080916C0290916D02A0916E02B0916F02A4
:103AC0000196A11DB11D80936C0290936D02A0938D
:103AD0006E02B0936F02492F5A2F6B2F772767FD25
:103AE0007A95242F2E726C017D0139E0F594E794CC
:103AF000D794C7943A95D1F74C295D296E297F292F
:103B0000489F402D112442238C019D015DE0359595
:103B10002795179507955A95D1F7082366E0B5952F
:103B2000A795979587956A95D1F7802B84278093E1
:103B3000CF00BF91AF919F918F917F916F915F91D6
:103B40004F913F912F911F910F91FF90EF90DF9038
:103B5000CF900F900FBE0F901F9018950895089565
:103B6000089508950895089508950C949B36FC01D6
:103B700086E791E091838083158214828EE591E03F
:103B80009383828398E0938781E0828717821086EF
:103B900016828187178616862AE631E035872487C4
:103BA000958B848B118A128A108A838B80EA868B8C
:103BB000089508950E943337CF93DF9300D000D04B
:103BC000CDB7DEB7611571058105910579F09B01CF
:103BD000AC0169833A834B835C830E945935298108
:103BE0003A814B815C810E947D3503C060E070E0CA
:103BF000CB010F900F900F900F90DF91CF91089510
:103C00001F93CF93DF93DC0120E030E040E050E0F1
:103C100011E0C1E0D0E02617370791F114968C919E
:103C20001497811115C014961C93149712968D91B8
:103C30009C911397ED91FC911197E80FF91FE49176
:103C40001596EC931597019613969C938E93129765
:103C500014969C91149715968C911597892349F089
:103C6000FE01022E02C0EE0FFF1F0A94E2F74E2B58
:103C70005F2B990F14969C9314972F5F3F4FCBCFD8
:103C8000CA01DF91CF911F9108950895FC018785A6
:103C9000DF01A80FB11D1C966C938F5F878783305F
:103CA00079F4848591E0891741F02585291729F059
:103CB0002685291711F0918308959F5F993099F710
:103CC0000895FC01DB0118968C91189719969C9128
:103CD0009095982384FF14C02789203118F42F5F12
:103CE000278B0FC0F89487E7809300088093010822
:103CF000A89588E18093600088E080936000FFCF02
:103D0000178A93FF05C0FB01E75BFF4F82E08083CA
:103D10000895FC01DB0119968C91199780951896EE
:103D20009C91892399F08281882311F08CE782830A
:103D3000828181110BC081E0828380E480939000B6
:103D400081E49FE090939900809398009281992359
:103D5000C1F09F5F9283953059F09D3761F09230AA
:103D600081F480E596E490939900809398000895FB
:103D7000109290000895FB01E75BFF4F81E0808384
:103D80000895089508950F931F93CF93DF93EC0147
:103D90008B014CE750E260E070E08CE090E00E9424
:103DA0007C3043E2B801CE01DF91CF911F910F919A
:103DB0000C948A1B3FB7F8948091790290917A0213
:103DC000A0917B02B0917C0226B5A89B05C02F3F35
:103DD00019F00196A11DB11D3FBFBA2FA92F982F31
:103DE0008827820F911DA11DB11DBC01CD0142E0AC
:103DF000660F771F881F991F4A95D1F708951F9264
:103E00000F920FB60F9211242F933F938F939F938E
:103E1000AF93BF938091730290917402A091750249
:103E2000B09176023091780223E0230F2D3720F4F1
:103E30000196A11DB11D05C026E8230F0296A11D04
:103E4000B11D209378028093730290937402A09323
:103E50007502B09376028091790290917A02A091D6
:103E60007B02B0917C020196A11DB11D8093790265
:103E700090937A02A0937B02B0937C02BF91AF91A2
:103E80009F918F913F912F910F900FBE0F901F9098
:103E900018954F925F927F928F929F92AF92BF92AE
:103EA000CF92DF92EF92FF920F931F93CF93DF9306
:103EB00000D000D0CDB7DEB729011C2DA02EB12C2B
:103EC0009C012A0D3B1D121613060CF0B3C180385D
:103ED00091050CF0AFC1FB01EE0DF11D1E161F0682
:103EE0000CF0A8C1603471050CF0A4C14115510556
:103EF00009F4A0C1E62FE770FE2EFB0177FD37968F
:103F0000A3E0F595E795AA95E1F7AE2F77FF04C0FA
:103F1000FF2011F0AFEFAE0F97FF05C0EE27FF2790
:103F2000E81BF90B02C0E0E0F0E02038310524F096
:103F300020E8722E781A01C0702E7E1A6A2F0A2E7F
:103F4000000C770BAF3F1CF4D62ED09401C0D12CBF
:103F500021E03E2D377009F420E0E694E694E694E3
:103F6000E20E6E0D711D693071051CF028E0E22E25
:103F7000EA1AED183D2D3A0FDC0120E83203A00DBE
:103F8000B11D1124AE0FBF1FD09EE00DF11D1124F5
:103F90004E0F5F1F81E090E04C010F2C02C0880C97
:103FA000991C0A94E2F7133009F403C1A0F411300C
:103FB00009F4B5C0123009F03DC18FEF889DB00102
:103FC000899D700D1124609570957C836B835C8056
:103FD0002E2D230F2BC01A3F31F01B3F09F02AC1B1
:103FE0002E2D230F88C02E2D230F51C0FA01E00F74
:103FF000F11FE491E89D6001E99DD00C1124DA8263
:10400000C98237FD07C0FC01E080EE2DE623CE2AF1
:10401000FC01C082F11013C00F5F1F4F01960715FE
:1040200028F33F5F4A0D5B1DA058BF4F321709F4BC
:1040300001C1CD018C579D4F00E010E0F0CF37302B
:104040005CF7FC01E058FF4FD080D520CA80DC2807
:10405000D082E2CFFA01E60FF71FE491E89D8001DC
:10406000E99D100D11241A83098337FD04C0FC015A
:104070001081012B0083F11013C06F5F7F4F0196F9
:10408000671540F33F5F4A0D5B1DA058BF4F3217C5
:1040900009F4D0C0CD018C579D4F60E070E0F0CFA7
:1040A00037305CF78C0100581F4FF801E080EA813F
:1040B000EE2AF801E082E1CFFA01E00FF11FE4916E
:1040C000E89DC001E99D900D11249A83898337FDF5
:1040D00005C08095FB01908189238083F11014C075
:1040E0000F5F1F4F6F5F7F4F071530F33F5F4A0D24
:1040F0005B1DA058BF4F321709F49CC0BD016C571F
:104100007D4F00E010E0F0CF373054F7FB01E0586E
:10411000FF4F8A818095908189238083E1CFC201FE
:104120008E0F9F1F2E2D230F321709F483C0BD0160
:104130006C577D4F6B0100E010E0071590F5FC0116
:10414000E00FF11FE491E89DB001E99D700D11248D
:10415000609570957C836B83FA01E00FF11FE49109
:10416000E89D2001E99D500C11245A82498237FDB7
:1041700005C0F60170816723462A4082FF2059F06E
:1041800037304CF4F601E058FF4F70816C816723A3
:104190007A81672B60830F5F1F4FFFEFCF1ADF0A13
:1041A000CCCF3F5F4A0D5B1D8A0D9B1DA058BF4FB2
:1041B000BBCFC72CD12CE40FF51FAC57BD4F60E827
:1041C00070E06C197D09AC18BD088501000F111F46
:1041D000572D2E2DCF93DF93ED01EF96EF9622967C
:1041E000A590C590FF2059F0A89C5001C89C600183
:1041F00037302CF4E880D094ED20EB28E99233237B
:104200003AF0EC90C094EC20EA28ED920C9409214D
:1042100011965A9529F72A9551F0572D3395112467
:10422000E00FF11DA60FB11DC60FD11DD9CFDF9133
:10423000CF9111240F900F900F900F90DF91CF919D
:104240001F910F91FF90EF90DF90CF90BF90AF90B4
:104250009F908F907F905F904F900895BC0180E079
:1042600090E00C94242E8FB18095807F669B8860AF
:104270001C9B84600895EEEEF2E290E1969FD001DF
:10428000A0781124A80F6770E60FF11D9491AC5728
:10429000BD4F442319F08C91982B03C090958C91BD
:1042A00098239C9308952F923F924F925F926F9222
:1042B0007F928F929F92AF92BF92CF92DF92EF92B6
:1042C000FF920F931F93CF93DF93CDB7DEB72C9759
:1042D0000FB6F894DEBF0FBECDBF4C016B01022FAD
:1042E0005A8349831C821B821D821E8268E070E013
:1042F000CE0101960E94001E019698878F8368E088
:1043000070E0CE0101960E94001E7C0161E070E029
:10431000CE0101960E94001E782E8F819885880D0F
:10432000991D97FDE0C020E8821691040CF0DBC0D7
:1043300097012F5F3F4FC601820F931F97FDD3C098
:1043400040E4C416D1040CF0CEC07601D7FE04C000
:10435000EE24FF24EC18FD0857E0E522FF24A60117
:10436000D7FE02C0495F5F4F2A0163E0559447942E
:104370006A95E1F7D7FE09C081E0481A510888E044
:1043800090E0AC014E195F097A01190137FF03C0B3
:1043900057E0250E311C53E0359427945A95E1F7E8
:1043A00027703327232B19F08FEF281A380A662439
:1043B000639410E0C12CD12CA12CB12C88E090E0AA
:1043C0009C012E193F093A872987A214B3040CF0E7
:1043D0008AC021E030E061E070E0CE0101962B87D9
:1043E0003C870E94001E2B853C85892B19F42E5F8B
:1043F0003F4FF1CFB901CE0101960E94001EDC01B2
:10440000119620E030E02A173B0708F065C07110D4
:104410001629660C09F05DC0B2016A0D7B1DCB0147
:104420000196099708F041C0C601880D991D803892
:104430009105D8F5CB019695982F88279795879564
:10444000880D991D8C0D9D1D6F3F4FEF740709F46A
:1044500046C0412F0E2C01C0440F0A94EAF7FC011C
:10446000EC57FD4F002319F05081452B03C04095B8
:10447000508145234083E114F104B9F067307105A0
:10448000A1F0412F50E0098402C0559547950A9448
:10449000E2F7FC01EC5FFC4F002319F01081412B87
:1044A00003C040951081412340835FEFC51AD50AB0
:1044B0004F815885C416D5064CF05FEFA51AB50A92
:1044C0006624639410E0C12CD12C03C0662463944D
:1044D00010E02F5F3F4F97CF81E0782676CFE11431
:1044E000F10479F6E2CF2C960FB6F894DEBF0FBE3A
:1044F000CDBFDF91CF911F910F91FF90EF90DF9093
:10450000CF90BF90AF909F908F907F906F905F9073
:104510004F903F902F900895CB01BA0180389105BC
:1045200030F44034510518F4422F0C943B21089587
:10453000EF92FF920F931F93CF93DF93EC017B01D8
:1045400021E047E650E261E170E08FE290E00E94F6
:10455000532121E042E450E26AE170E08BE290E016
:104560000E94532121E042E450E26AE170E089E4D4
:1045700090E00E9453218A8121E0811117C042E41A
:1045800050E26AE170E08AE390E00E94532121E06A
:1045900049EF5FE16EE270E08AE190E0DF91CF9158
:1045A0001F910F91FF90EF900C9453214CED5FE120
:1045B0006AE170E08AE390E00E94532121E049EB38
:1045C0005FE16EE270E08CE290E00E9453218A810C
:1045D0006FE00E94E035C82FC3700FE410E0D0E018
:1045E00083E0E80EF11CDC1759F021E041E350E0D4
:1045F000B801C7010E948C22DF5F0E5F1F4FF3CF0F
:10460000DF91CF911F910F91FF90EF900895FC01E2
:104610001386128631969C01275F3F4F40E24193FB
:10462000E217F307E1F7FC0110860895CF93DF93BB
:1046300000D0CDB7DEB71A821982BE016F5F7F4FFF
:1046400090E00E948A3089819A810F900F90DF91CB
:10465000CF9108959F92AF92BF92CF92DF92EF9247
:10466000FF920F931F93CF93DF93CDB7DEB72A97B7
:104670000FB6F894DEBF0FBECDBF5C01CE01019630
:104680007C016C01062F10E0081B190B89E0982EA5
:104690009E0CC8018C0D9D1D0E946735F60181930B
:1046A0006F019E12F6CF1A869AE0F701D5010190AC
:1046B0000D929A95E1F72A960FB6F894DEBF0FBED9
:1046C000CDBFDF91CF911F910F91FF90EF90DF90C1
:1046D000CF90BF90AF909F900895CF93DF93EB0161
:1046E000EEADFFAD13861286FB01E05CFF4F01903B
:1046F000F081E02D13861286FB01EE5BFF4F0190E7
:10470000F081E02D13861286FB01EC5BFF4F0190D8
:10471000F081E02D13861286FB01E95BFF4F81E0FB
:1047200080838E8567E6082E000C990B0E942A2351
:104730008A8D61E7082E000C990B0E942A238EA116
:104740006BE7082E000C990B0E942A238AA965E8C2
:10475000082E000C990BDF91CF910C942A23EF9235
:10476000FF920F931F93CF93DF931F92CDB7DEB7C6
:104770007C01FC0100811181C80169830E946735B9
:104780006981681719F0C8010E946F35C7010F9041
:10479000DF91CF911F910F91FF90EF900895EF92CD
:1047A000FF920F931F93CF93DF9300D0CDB7DEB767
:1047B0008C017B01FB0160819A838983CE01019684
:1047C0000E94AF23F70161810F5F1F4F1A83098396
:1047D000CE0101960E94AF23C7010F900F90DF9189
:1047E000CF911F910F91FF90EF900895CF93DF939A
:1047F00000D0CDB7DEB79A838983CE0101960E949F
:10480000AF230F900F90DF91CF9108958F929F92D9
:10481000BF92CF92DF92EF92FF920F931F93CF93AD
:10482000DF9300D0CDB7DEB7082F85E690E00E9479
:104830006735182F86E690E00E946735011105C0A4
:10484000163419F4813409F47DC066E485E690E0FD
:104850000E94F62361E486E690E00E94F62307E6D4
:1048600010E060E0C8010E94F6230F5F1F4F043B79
:104870001105B9F784EA882E81E0982E9CE9C92EAB
:1048800091E0D92E24E9E22E21E0F22E08E610E094
:1048900060E2C8010E94F62360E2C8010A960E9405
:1048A000F62360E2C80144960E94F62360E2C80144
:1048B0004E960E94F623F401B1904F016B2DC80172
:1048C00087960E94F6236B2D84E896E00E949B2D2C
:1048D00069E672E084E896E00E94C62DF6016191D7
:1048E0006F01C801C1960E94F623F70161917F0113
:1048F000C801CB960E94F6230F5F1F4F00371105AA
:1049000039F686E990E09A838983BE016F5F7F4F15
:104910008DEA90E00E94CF2384E690E09A83898319
:10492000BE016F5F7F4F8FEA90E00E94CF2382E34A
:1049300090E09A838983BE016F5F7F4F81EB90E0A7
:104940000E94CF230F900F90DF91CF911F910F9175
:10495000FF90EF90DF90CF90BF909F908F90089541
:10496000EF92FF920F931F93CF93DF939C01EB0184
:104970008B01095B1F4FD8018C91FB01E80FF11DE2
:10498000E80FF11D04ACF5ADE02D7901BAE1EB0EB5
:10499000F11CD9015A961C925A975B9689E00190B6
:1049A0000D928A95E1F7F801408150E0415051099C
:1049B0006AE0649FC001659F900D112489599F4F43
:1049C000D90195969C938E93949796961C92969760
:1049D00097961C92979798961C92989799961C92E6
:1049E0008081813031F0EEADFFAD6081C7010E9462
:1049F000461EF8018081823051F0FE01E05CFF4FDD
:104A00000190F081E02D6081C7010E94461ED8010F
:104A10008C91833051F0FE01EE5BFF4F0190F081ED
:104A2000E02D6081C7010E94461EF801808184301C
:104A300071F0CC5BDF4FE881F9816081C701DF91C4
:104A4000CF911F910F91FF90EF900C94461EDF9134
:104A5000CF911F910F91FF90EF9008956F927F92E9
:104A60008F929F92BF92CF92DF92EF92FF920F931D
:104A70001F93CF93DF93EC018B01FB01868197811C
:104A800068E370E00E94EC35BB24B3948D3108F4E8
:104A9000B12C43E2B801CE010E948A1B8F89882382
:104AA000F1F1813009F0DBC06801F3E0CF0ED11CD9
:104AB000198A188A1A8A7E012CE0E20EF11C61EA3A
:104AC00074E2C7010E94A22DF801E95BFF4F40810B
:104AD00050E060E070E02AE0C7010E94DB2D198AF7
:104AE000188A80E18A8B66E974E2C7010E94A22DD0
:104AF00041E063E170E080E390E00E943B2141E00F
:104B000065E170E080E390E00E943B2122E0822E8C
:104B1000912C01E110E037E1632E712C32C0198A2B
:104B2000188A88E08A8B2C9669EA74E2CE010E948A
:104B3000A22DF801EA5BFF4F408150E060E070E099
:104B40002AE0CE010E94DB2DBB2009F488C044E09E
:104B500060E170E08EE590E0DF91CF911F910F91C1
:104B6000FF90EF90DF90CF90BF909F908F907F90BD
:104B70006F900C94E32E4C010F5F1F4F073111050E
:104B800089F021E0A801B301C6010E948C22C40172
:104B9000029797FFF0CF81E0681A7108E3E08E0E6C
:104BA000911CEACF21E04FE654E26BE070E085E330
:104BB00090E00E945321EB8DF0E0EE0FFF1FE455D3
:104BC000FE4F4081518121E06CE070E086E390E08F
:104BD0000E945321BB2019F08A8D882309F128E116
:104BE0004CE76DE4C6010E949E306E01FCE1CF0EE1
:104BF000D11C0DE411E080E1982E098B088B9A8A74
:104C0000BB2019F08A8D8117F1F0F60161916F01D7
:104C1000C7010E949B2D1F5F0A5F193071F71FC0EB
:104C200021E041E654E265E070E08AE390E00E9412
:104C3000532121E044E554E26FE170E08AE390E023
:104C40000E945321CCCFF6E01F9FC001112444E005
:104C500068E170E0895B9F4F0E94E32ED6CFDF9121
:104C6000CF911F910F91FF90EF90DF90CF90BF9069
:104C70009F908F907F906F900895CF93DF93EC017A
:104C80001F8A0E94B0248B8D811102C081E08B8F1E
:104C9000DF91CF9108956F927F928F929F92AF9202
:104CA000BF92DF92EF92FF920F931F93CF93DF9308
:104CB00000D0CDB7DEB78C01FB013085D184D09414
:104CC000D322DC0157968C91882319F0813019F199
:104CD000D9C1D2FE05C081E0DB01A75BBF4F8C9339
:104CE000D3FE04C081E0D80157968C93D7FC9AC0BC
:104CF000D4FC98C08681978168E170E00E94EC3511
:104D0000D80158964D915C9159975527841795076E
:104D100009F488C0B7C1D8015A962C915A97D5FE8C
:104D200006C0222321F08FEF820F5A968C93D6FE75
:104D300009C0D8015A968C915A97883018F48F5F21
:104D40005A968C937F01D7FC0FC0D4FC0DC086818E
:104D5000978168E170E00E94EC35F801408D518D3B
:104D600055278417950721F437FD99C034FD0EC1EE
:104D7000D2FE20C05701F7E4AF0EB11CD5018C91D3
:104D80008230A8F0F701E80FF11DE80FF11DB8011E
:104D9000655E7F4F84AD95AD0E943837F501808107
:104DA00081508083B701C8010E94B02403C0D8019C
:104DB00057961C92D3FE66C1F8017C9698012C5D33
:104DC0003F4F81E09191903209F080E0E217F307C4
:104DD000C9F7811157C15701B7E4AB0EB11CF501FA
:104DE0008081F701E80FF11DE80FF11DB801655E44
:104DF0007F4F84AD95AD0E943837D5018C91F70176
:104E0000EA5BFF4F9081891738F48F5F8C93B7016D
:104E1000C8010E94B02436C1F701E75BFF4F83E071
:104E2000808330C137FF17C0AF014A5B5F4FDA01A3
:104E30008C91843080F491E0980F891750F0DF0155
:104E4000A80FB11DA80FB11DDE960D90BC91A02D2D
:104E50001C92DA0119C034FF15C19F012A5B3F4F34
:104E6000D9018C91823008F40DC19FEF980F8917FA
:104E700050F0DF01A80FB11DA80FB11DDE960D90F7
:104E8000BC91A02D1C92D9019C938681978168E1E9
:104E900070E00E94EC35F801918F808FF3C02111F2
:104EA0003DC0D8015B969C91292F092E000C330B35
:104EB000295F3F4F492F092E000C550B241735074A
:104EC0000CF447C0892F877887FF03C08150886F13
:104ED0008F5F8F5F682F082E000C770BD801969696
:104EE000EC91F0E041E0E617F70709F040E0D80167
:104EF0009796EC91F0E0E617F70709F441E0D80146
:104F00009896EC919897F0E0E617F70729F0411191
:104F100003C05B968C931DC09F5FCCCFF801E20F5E
:104F2000F11D838D8A3579F034F4803281F07CF084
:104F300081345CF40CC0813654F08A3734F08A37FF
:104F400031F480E205C081E603C08F5F01C081E4D7
:104F5000838FF80164A075A04801FBE18F0E911CBE
:104F6000A12CB12CD4016D914D01C501860D971D69
:104F70009A838983CE0101960E94AF23BFEFAB1ABB
:104F8000BB0AE9E0AE16B10469F76FC0211135C064
:104F9000D8015B963C9198E0930F39170CF047C00D
:104FA000892F877887FF03C08150886F8F5F2FEF2D
:104FB000280F121614F027E0280F422F022E000CA3
:104FC000550BF80166A170E081E06417750709F0E0
:104FD00080E0D80197966C9170E06417750709F42A
:104FE00081E0F80160A570E06417750721F0811178
:104FF00002C0238F1CC09150D0CFF801E20FF11DE9
:10500000838D8B3544F4823474F4803271F08134B2
:1050100061F480E20BC0813621F03CF08B371CF04C
:1050200004C08AE503C0815001C08AE7838FD8019C
:1050300094966D907C9095974801BBE18B0E911CE6
:10504000A12CB12CF40161914F01C501860D971D72
:105050009A838983CE0101960E94AF23FFEFAF1A96
:10506000BF0A89E0A816B10469F7D70116968D9199
:105070009C91179768E170E00E94EC35F801918FE0
:10508000808F76CE0F900F90DF91CF911F910F916F
:10509000FF90EF90DF90BF90AF909F908F907F90A8
:1050A0006F9008956F927F929F92AF92BF92CF922E
:1050B000DF92EF92FF920F931F93CF93DF9300D075
:1050C00000D000D0CDB7DEB7FE01319626E0DF017B
:1050D0001D922A95E9F7DC015A96AC01405E5F4FBC
:1050E0007D0190E06623E1F0D7012D917D0122231F
:1050F00031F08F01090F111DD8012C939F5FE41629
:10510000F50691F713C05D968C91882331F08F01DD
:10511000090F111DD8012C939F5FE416F50631F09D
:10512000D7012D917D012223C1F3EDCF8E010E5FBA
:105130001F4F81E038018917F0F4D8015D918D018E
:105140004FEF480F242F042E000C330B47FD0DC0EA
:105150007F01E20EF31ED7017C91571730F4260D24
:10516000371DD9017C934150EDCF260D371DD90154
:105170005C938F5FE0CF992309F4DBC0A0E9EA2EAE
:10518000FF24F394B4E6CB2ED12C81E020E030E074
:105190008F0140E050E0702F7E1B791740F4D8015A
:1051A0007D918D017813F7CF4F5F5F4FF4CF433080
:1051B00051050CF44DC04430510589F024F44330BE
:1051C000510541F01EC04530510579F0463051057A
:1051D00091F017C08130C1F448EE53E016C0813021
:1051E00009F0AAC040ED57E010C0813009F0A6C018
:1051F00040EA5FE00AC0813009F0A2C040E45FE10C
:1052000004C040E050E001C0A601792F77FD1EC028
:105210008F01070F111D77FD1A95D8011C911813E6
:1052200013C0972E092D10E0053011055CF45301D1
:10523000A00EB11ED501BC900E0F1F1FD801BC924D
:105240009394F0CF1E8291507150E0CF240F351F00
:105250008F5FB4E6CB0ED11C40E7E41A4EEFF40AA0
:10526000873009F095CF892F963011F559814A8101
:10527000513089F4423079F47B81733061F47C8160
:10528000743049F47D81753031F47E81763019F4C3
:1052900024523A4F59C0541313C05B814C815413AC
:1052A0000FC05D814E8154130BC022513D4F4CC045
:1052B000992309F449C004C01E8281502E5C3F4FDF
:1052C000915097FD32C0AF01490F511D97FD5A957E
:1052D000DA014C91453089F4792F472F50E0453061
:1052E000510554F78301040F151FD8011C914E0F6F
:1052F0005F1FDA011C937F5FF0CF413009F7792FF0
:10530000472F50E0453051055CF48301040F151F11
:10531000D8011C914E0F5F1FDA011C937F5FF0CF05
:105320001E8281502C593F4FCBCF61110DC0882375
:1053300059F020E030E008C0A60103C0A70165CF06
:10534000A701440F551F61CFC90126960FB6F894E7
:10535000DEBF0FBECDBFDF91CF911F910F91FF90A8
:10536000EF90DF90CF90BF90AF909F907F906F9025
:10537000089540917F025091800220917D023091EA
:105380007E0242175307B4F49091E8009570E1F360
:105390009091E80092FD19C08093F10080917F0206
:1053A0009091800201968F739927892B19F48EEFC3
:1053B0008093E80080917F02909180020196909303
:1053C000800280937F0281E0089580E00895DF925B
:1053D000EF92FF920F931F93CF93DF93D82E8A0102
:1053E0007B01E40EF51EEB01CE15DF0571F0D7FE53
:1053F00003C0FE01849101C088810E94B9292196D1
:105400008111F2CF8FEF9FEF01C0C801DF91CF91E3
:105410001F910F91FF90EF90DF900895615030F051
:105420002091F100FC0120830196F8CF289884E6B2
:10543000809382020895CF92DF92EF92FF920F93B2
:105440001F93CF93DF936C017A018B01C0E0D0E012
:10545000CE15DF0589F0D8016D918D01D601ED9152
:10546000FC910190F081E02DC6010995892B11F482
:105470007E0102C02196ECCFC701DF91CF911F9131
:105480000F91FF90EF90DF90CF900895CF93DF932F
:105490001F92CDB7DEB76983DC01ED91FC910280EC
:1054A000F381E02D41E050E0BE016F5F7F4F099531
:1054B0000F90DF91CF91089583E08093E900809170
:1054C000F200882319F08AE38093E8000895FC0134
:1054D0008485958597FD0BC09FB7F89482E08093F3
:1054E000E9008091F2009FBF90E0019608959FB778
:1054F000F89482E08093E9008091F2009FBF90E0F1
:1055000008950F931F93CF93DF931F92CDB7DEB70C
:1055100082E0898342E450E06EEB74E280E80E940E
:10552000E7290E94FD30DC0112960D911C91139722
:105530000115110569F0D801ED91FC910280F3810C
:10554000E02DBE016F5F7F4FC801099597FF07C02F
:1055500089810F90DF91CF911F910F910895F801EC
:1055600000851185E5CF0E94EC3090E008950F93FF
:105570001F93CF93DF931F92CDB7DEB78C01FC0151
:105580008485958597FF0EC0CE0101960E94C2309A
:10559000019719F4298130E002C02FEF3FEFF801A5
:1055A00035872487F801848595850F90DF91CF9109
:1055B0001F910F910895CF93DF931F92CDB7DEB760
:1055C000FC018485958597FD05C02FEF3FEF35875A
:1055D00024870BC0CE0101960E94C230019719F4B6
:1055E000898190E002C08FEF9FEF0F90DF91CF9104
:1055F00008951F920F920FB60F9211248F939F93CD
:105600008091E1009091E100937F9093E10083FF0E
:105610000FC01092E90091E09093EB001092EC0023
:1056200092E39093ED001092830298E09093F00043
:1056300082FF20C093E09093E9009091F2009923BB
:1056400019F09AE39093E80090918102992339F040
:1056500090918102915090938102992389F19091C8
:105660008202992339F090918202915090938202A4
:10567000992341F184FF10C08091E2008E7E816009
:105680008093E2008091E1008F7E8093E100809121
:1056900071028E7E806111C080FF16C08091E20091
:1056A0008E7E80618093E2008091E1008E7E809307
:1056B000E100809171028E7E81608093710204C04E
:1056C0005D9ACDCF289AD6CF9F918F910F900FBE24
:1056D0000F901F9018951F920F920FB60F921124E2
:1056E000CF92DF92EF92FF920F931F932F933F93EE
:1056F0004F935F936F937F938F939F93AF93BF93DA
:10570000EF93FF93CF93DF93CDB7DEB76C97DEBFF8
:10571000CDBF1092E9008091E80083FFEDC168E001
:10572000CE0145960E940E2A82EF8093E8008D8973
:1057300087FF05C09091E80090FFFCCF03C09EEF6B
:105740009093E800982F907609F0C6C09E892F8923
:10575000188D91110CC0803829F4809172028093C9
:10576000F10002C01092F1001092F10048C1422FE6
:1057700050E0512B913051F4811141C1413051051C
:1057800009F03DC1809172028D7F0BC0933061F4AE
:10579000811135C14130510509F031C1809172024A
:1057A0008260809372022BC1953041F48091E800B1
:1057B00080FFFCCF20682093E30021C1963009F0E0
:1057C0005FC0EB8CFC8C1092E9001092800210926A
:1057D0007F02123091F510927E0210927D020E949B
:1057E000812A99E0BE016F5F7F4FDB01E92F1D9297
:1057F000EA95E9F799831A8391E09E8390EA988766
:105800009AEF998720917F0230918002275F3F4F66
:105810003C832B838D831092E900109280021092BA
:105820007F02F0927E02E0927D0249E050E080E04B
:105830000E94E7290E94812AE2C0F0927E02E09253
:105840007D020E94FD30DC011296ED90FC901397D2
:10585000E114F10409F4C0C0D701ED91FC9104807A
:10586000F581E02DBE016B5E7F4FC7010995009762
:1058700019F00CF0C4C0C7C0F701E084F184E8CF90
:10588000973009F4C0C0983021F481E08093F10092
:10589000B6C0993009F0B3C0837009F0B4C0EFEB23
:1058A000F1E081E021E036E39081992361F080937B
:1058B000E9002093EB0091919093EC003093ED0080
:1058C0008F5F873089F78EE78093EA001092EA00B5
:1058D0008F898093830293C08B8D9C8D1092E900F9
:1058E0001092800210927F0290937E0280937D023C
:1058F000898D811156C08E899D89913A59F48132E2
:1059000009F081C047E050E064E071E080E00E946F
:10591000E72975C0913209F076C0833289F4888D09
:1059200090E0982F88272F89822BA0E0B0E0809309
:10593000000190930101A0930201B09303015FC0A5
:10594000803269F48091E80082FFFCCF67E084E058
:1059500091E00E940E2A8BEF8093E80006C082320D
:1059600009F04DC08F8980930B01809170028823CC
:1059700019F0EEEFFAE002C0E0E0F8E080910401F7
:1059800090910501A0910601B0910701803B9440E0
:10599000A105B10509F07BC080910B0180FF93C088
:1059A00076C00E94FD30DC0112960D911C91139778
:1059B0000115110541F1D801ED91FC910190F081A3
:1059C000E02DBE016B5E7F4FC8010995811117C0A4
:1059D000F80100851185ECCF113009F44EC0133069
:1059E00091F48F89882309F445C0823081F440E81E
:1059F00060E182E295E20E94E633882321F08EEF97
:105A00008093E80079C081E28093EB0075C081301B
:105A100029F440E86BE086E195E2EDCF833099F719
:105A20000E94FD30DC011296ED90FC9013978E01E0
:105A30000F5F1F4F6801E114F10479F0D701ED9178
:105A4000FC910680F781E02DB801C7010995080F88
:105A5000111DF701E084F184EECFD8011C92F6010C
:105A600001900020E9F73197BF016C197D0940E0F2
:105A7000C601C1CF60E075E202C064E075E2611565
:105A8000710509F2FB01449150E080E840CF0FB668
:105A9000F894A895809160008861809360001092CE
:105AA00060000FBEA895EE3F2AE0F20739F0809122
:105AB000FE0A9091FF0A91838083A1CF1092FF0A82
:105AC0001092FE0A9CCFEE3F8AE0F80731F0808109
:105AD00091819093FF0A8093FE0A87E797E791836D
